{
  "transactions": [
    {
      "hash": "0xc29c66a23fafe477b55da0326f24ff1a15807554b0090be60003a7ee1fd01563",
      "transactionType": "CALL",
      "contractName": "Predicter",
      "contractAddress": "0xa20a6c39507718325d6ed1c50d0fddd8026ebd7f",
      "function": "voteWithPermit2(address,bool,((address,uint256),uint256,uint256),bytes)",
      "arguments": [
        "0xf315B9006C20913D6D8498BDf657E778d4Ddf2c4",
        "true",
        "((0xa9b1a94d8ddBa49193e50174D4f87ee108F5e4cD, 1000000000000000000), 4709487914024513662089815926708115233334113661715512514659196059246633098220, 1768613847)",
        "0x985df400b242ef81fe49343a54cd8d89d22f593b763e53d22ec3261e008b654d478c1da36c5d20dc273dcfd49d8e5e263215f0e16bab90b9de5fb835f0b8e8d31c"
      ],
      "transaction": {
        "from": "0x5992fe461f81c8e0affa95b831e50e9b3854ba0e",
        "to": "0xa20a6c39507718325d6ed1c50d0fddd8026ebd7f",
        "gas": "0x30d89",
        "value": "0x0",
        "input": "0xa1735138000000000000000000000000f315b9006c20913d6d8498bdf657e778d4ddf2c40000000000000000000000000000000000000000000000000000000000000001000000000000000000000000a9b1a94d8ddba49193e50174d4f87ee108f5e4cd0000000000000000000000000000000000000000000000000de0b6b3a76400000a6979c75f74eec0dd1a3626559203605ed2aece3b25c4c022d07298b22b1bec00000000000000000000000000000000000000000000000000000000696ae7d700000000000000000000000000000000000000000000000000000000000000e00000000000000000000000000000000000000000000000000000000000000041985df400b242ef81fe49343a54cd8d89d22f593b763e53d22ec3261e008b654d478c1da36c5d20dc273dcfd49d8e5e263215f0e16bab90b9de5fb835f0b8e8d31c00000000000000000000000000000000000000000000000000000000000000",
        "nonce": "0x4c2",
        "chainId": "0xa4b1"
      },
      "additionalContracts": [],
      "isFixedGasLimit": false
    }
  ],
  "receipts": [
    {
      "status": "0x1",
      "cumulativeGasUsed": "0xe0516",
      "logs": [
        {
          "address": "0xa20a6c39507718325d6ed1c50d0fddd8026ebd7f",
          "topics": [
            "0x1b3d7edb2e9c0b0e7c525b20aaaef0f5940d2ed71663c7d39266ecafac728859",
            "0x0000000000000000000000000000000000000000000000000000000000000000",
            "0x0000000000000000000000005992fe461f81c8e0affa95b831e50e9b3854ba0e",
            "0xf315b9006c20913d6d8498bdf657e778d4ddf2c4000000000000000000000001"
          ],
          "data": "0x0000000000000000000000005992fe461f81c8e0affa95b831e50e9b3854ba0e0000000000000000000000000000000000000000000000000de0b6b3a7640000",
          "blockHash": "0x150e619b3545ced48393d24b803b21c3024aa64184e58dd30629f7ede4f913d7",
          "blockNumber": "0x1924373e",
          "blockTimestamp": "0x69699665",
          "transactionHash": "0xc29c66a23fafe477b55da0326f24ff1a15807554b0090be60003a7ee1fd01563",
          "transactionIndex": "0x7",
          "logIndex": "0xb",
          "removed": false
        },
        {
          "address": "0xa20a6c39507718325d6ed1c50d0fddd8026ebd7f",
          "topics": [
            "0xf01e0648b75d055c003bb115baaa99af91e34a86a5405eb8b96e451bcb1c79f0",
            "0x0000000000000000000000005992fe461f81c8e0affa95b831e50e9b3854ba0e",
            "0x000000000000000000000000f315b9006c20913d6d8498bdf657e778d4ddf2c4"
          ],
          "data": "0x0000000000000000000000000000000000000000000000000000000000000001",
          "blockHash": "0x150e619b3545ced48393d24b803b21c3024aa64184e58dd30629f7ede4f913d7",
          "blockNumber": "0x1924373e",
          "blockTimestamp": "0x69699665",
          "transactionHash": "0xc29c66a23fafe477b55da0326f24ff1a15807554b0090be60003a7ee1fd01563",
          "transactionIndex": "0x7",
          "logIndex": "0xc",
          "removed": false
        },
        {
          "address": "0xa9b1a94d8ddba49193e50174d4f87ee108f5e4cd",
          "topics": [
            "0xddf252ad1be2c89b69c2b068fc378daa952ba7f163c4a11628f55a4df523b3ef",
            "0x0000000000000000000000005992fe461f81c8e0affa95b831e50e9b3854ba0e",
            "0x000000000000000000000000a20a6c39507718325d6ed1c50d0fddd8026ebd7f"
          ],
          "data": "0x0000000000000000000000000000000000000000000000000de0b6b3a7640000",
          "blockHash": "0x150e619b3545ced48393d24b803b21c3024aa64184e58dd30629f7ede4f913d7",
          "blockNumber": "0x1924373e",
          "blockTimestamp": "0x69699665",
          "transactionHash": "0xc29c66a23fafe477b55da0326f24ff1a15807554b0090be60003a7ee1fd01563",
          "transactionIndex": "0x7",
          "logIndex": "0xd",
          "removed": false
        }
      ],
      "logsBloom": "0x00004000000300000000000000000000000000000002080000000400000000000000000000000000000000000000000000000002000000000000000000000000010000000002000000000008000004000000000000000000000800000000000000000000020000000000000000000800000000000000000000000010000000100000000800400000000000000000000000000800000000000000000000004000000000000000000000000000000020000000000000000000040000000000000400008082000000000000000000000000000000000000000010000000000020000000000000000000000002000000000000000000000000000000000004000000",
      "type": "0x2",
      "transactionHash": "0xc29c66a23fafe477b55da0326f24ff1a15807554b0090be60003a7ee1fd01563",
      "transactionIndex": "0x7",
      "blockHash": "0x150e619b3545ced48393d24b803b21c3024aa64184e58dd30629f7ede4f913d7",
      "blockNumber": "0x1924373e",
      "gasUsed": "0x2431d",
      "effectiveGasPrice": "0x1369ba0",
      "from": "0x5992fe461f81c8e0affa95b831e50e9b3854ba0e",
      "to": "0xa20a6c39507718325d6ed1c50d0fddd8026ebd7f",
      "contractAddress": null,
      "gasUsedForL1": "0x0",
      "l1BlockNumber": "0x171ef4b",
      "timeboosted": false
    }
  ],
  "libraries": [],
  "pending": [],
  "returns": {},
  "timestamp": 1768527461796,
  "chain": 42161,
  "commit": "bc81343"
}