{
  "transactions": [
    {
      "hash": "0xdf1d159b3c50c0a86864c3c92868e4cb1d03c17e2132b286cca8f1f796fab5be",
      "transactionType": "CALL",
      "contractName": "Predicter",
      "contractAddress": "0xa20a6c39507718325d6ed1c50d0fddd8026ebd7f",
      "function": "createPrediction(((address,uint96),(address,uint96),uint40,uint96,(address,uint96)[]))",
      "arguments": [
        "((0xa9b1a94d8ddBa49193e50174D4f87ee108F5e4cD, 1000000000000000000), (0xa9b1a94d8ddBa49193e50174D4f87ee108F5e4cD, 100), 1804527123, 0, [(0xa9b1a94d8ddBa49193e50174D4f87ee108F5e4cD, 1000000000000000000)])"
      ],
      "transaction": {
        "from": "0xf315b9006c20913d6d8498bdf657e778d4ddf2c4",
        "to": "0xa20a6c39507718325d6ed1c50d0fddd8026ebd7f",
        "gas": "0x2c6b1",
        "value": "0x0",
        "input": "0xc19b13aa0000000000000000000000000000000000000000000000000000000000000020000000000000000000000000a9b1a94d8ddba49193e50174d4f87ee108f5e4cd0000000000000000000000000000000000000000000000000de0b6b3a7640000000000000000000000000000a9b1a94d8ddba49193e50174d4f87ee108f5e4cd0000000000000000000000000000000000000000000000000000000000000064000000000000000000000000000000000000000000000000000000006b8ee613000000000000000000000000000000000000000000000000000000000000000000000000000000000000000000000000000000000000000000000000000000e00000000000000000000000000000000000000000000000000000000000000001000000000000000000000000a9b1a94d8ddba49193e50174d4f87ee108f5e4cd0000000000000000000000000000000000000000000000000de0b6b3a7640000",
        "nonce": "0x119",
        "chainId": "0xa4b1"
      },
      "additionalContracts": [],
      "isFixedGasLimit": false
    }
  ],
  "receipts": [
    {
      "status": "0x1",
      "cumulativeGasUsed": "0x21e42",
      "logs": [
        {
          "address": "0xa20a6c39507718325d6ed1c50d0fddd8026ebd7f",
          "topics": [
            "0x49590a953e4f7ed634e3098ee5653ebc3623584f3677075fd182a1cdf75b1160",
            "0x000000000000000000000000f315b9006c20913d6d8498bdf657e778d4ddf2c4"
          ],
          "data": "0x000000000000000000000000000000000000000000000000000000006b8ee613",
          "blockHash": "0x58570a3ca5d95bf777f6d59bc77668540887f6565cda30069f43b497b81ce15d",
          "blockNumber": "0x1924323b",
          "blockTimestamp": "0x69699524",
          "transactionHash": "0xdf1d159b3c50c0a86864c3c92868e4cb1d03c17e2132b286cca8f1f796fab5be",
          "transactionIndex": "0x1",
          "logIndex": "0x0",
          "removed": false
        }
      ],
      "logsBloom": "0x00000000000200000000000000080000000000000000080000000400000000000000000000000000000000000000000000000000000000000000000000000000010000000000000000000000000000000000000000000000000000000000000000000000000000000000000000000000000000000000000000000000000000000000000000400000000000000000000000000000000000000000000000000000000000000000000000000000000000000000000000000000000000000000000000000080000000000000200000000000000000000000000000000000000000000000000000000000001000000000000000000000000000000000000000000000",
      "type": "0x2",
      "transactionHash": "0xdf1d159b3c50c0a86864c3c92868e4cb1d03c17e2132b286cca8f1f796fab5be",
      "transactionIndex": "0x1",
      "blockHash": "0x58570a3ca5d95bf777f6d59bc77668540887f6565cda30069f43b497b81ce15d",
      "blockNumber": "0x1924323b",
      "gasUsed": "0x21e42",
      "effectiveGasPrice": "0x1313ca0",
      "from": "0xf315b9006c20913d6d8498bdf657e778d4ddf2c4",
      "to": "0xa20a6c39507718325d6ed1c50d0fddd8026ebd7f",
      "contractAddress": null,
      "gasUsedForL1": "0x0",
      "l1BlockNumber": "0x171ef30",
      "timeboosted": false
    }
  ],
  "libraries": [],
  "pending": [],
  "returns": {},
  "timestamp": 1768527141132,
  "chain": 42161,
  "commit": "bc81343"
}