{
  "transactions": [
    {
      "hash": "0x2efef04623c2cb2c8e8396653d1094b28c169190aaf03182584b0b3effcb7f71",
      "transactionType": "CALL",
      "contractName": null,
      "contractAddress": "0x618283ad23199b13d48e4683e248b96f3f30deb7",
      "function": "mintPersonalMSW(uint64,bytes)",
      "arguments": [
        "22222",
        "0x4aa03c23e8528772014d51c11baaacd140986393e21695d95bbe8c176ccad5264a599ace39fbfb23af49e0d0b31fe08a1ddee12aaa2ac9f6acc31cd5b2f232971c"
      ],
      "transaction": {
        "from": "0xdda2f2e159d2ce413bd0e1df5988ee7a803432e3",
        "to": "0x618283ad23199b13d48e4683e248b96f3f30deb7",
        "gas": "0x63520",
        "value": "0x1b58",
        "input": "0xce63f12a00000000000000000000000000000000000000000000000000000000000056ce000000000000000000000000000000000000000000000000000000000000004000000000000000000000000000000000000000000000000000000000000000414aa03c23e8528772014d51c11baaacd140986393e21695d95bbe8c176ccad5264a599ace39fbfb23af49e0d0b31fe08a1ddee12aaa2ac9f6acc31cd5b2f232971c00000000000000000000000000000000000000000000000000000000000000",
        "nonce": "0x24f",
        "chainId": "0xaa36a7"
      },
      "additionalContracts": [],
      "isFixedGasLimit": false
    }
  ],
  "receipts": [
    {
      "status": "0x1",
      "cumulativeGasUsed": "0xd4077a",
      "logs": [
        {
          "address": "0xb36b5f2c449f949e41ebab006c76e27e548a46de",
          "topics": [
            "0xddf252ad1be2c89b69c2b068fc378daa952ba7f163c4a11628f55a4df523b3ef",
            "0x0000000000000000000000000000000000000000000000000000000000000000",
            "0x000000000000000000000000dda2f2e159d2ce413bd0e1df5988ee7a803432e3",
            "0x0000000000000000000000000000000000000000000000000000000000000001"
          ],
          "data": "0x",
          "blockHash": "0x1766c8953ba9b784196ae3f824a688c6cf47549275fa0dfc3f538fe8611faafa",
          "blockNumber": "0x69eef0",
          "transactionHash": "0x2efef04623c2cb2c8e8396653d1094b28c169190aaf03182584b0b3effcb7f71",
          "transactionIndex": "0x4c",
          "logIndex": "0xb8",
          "removed": false
        },
        {
          "address": "0xb36b5f2c449f949e41ebab006c76e27e548a46de",
          "topics": [
            "0xf8e1a15aba9398e019f0b49df1a4fde98ee17ae345cb5f6b5e2c27f5033e8ce7"
          ],
          "data": "0x0000000000000000000000000000000000000000000000000000000000000001",
          "blockHash": "0x1766c8953ba9b784196ae3f824a688c6cf47549275fa0dfc3f538fe8611faafa",
          "blockNumber": "0x69eef0",
          "transactionHash": "0x2efef04623c2cb2c8e8396653d1094b28c169190aaf03182584b0b3effcb7f71",
          "transactionIndex": "0x4c",
          "logIndex": "0xb9",
          "removed": false
        },
        {
          "address": "0xb36b5f2c449f949e41ebab006c76e27e548a46de",
          "topics": [
            "0xfa6883374d3785c826e28c69c68c1b6dd2178accc8623f49c6829a75487419b3",
            "0x000000000000000000000000dda2f2e159d2ce413bd0e1df5988ee7a803432e3",
            "0x0000000000000000000000000000000000000000000000000000000000000001",
            "0x0000000000000000000000000000000000000000000000000000000000000000"
          ],
          "data": "0x00000000000000000000000000000000000000000000000000000000000000200000000000000000000000000000000000000000000000000000000000000000",
          "blockHash": "0x1766c8953ba9b784196ae3f824a688c6cf47549275fa0dfc3f538fe8611faafa",
          "blockNumber": "0x69eef0",
          "transactionHash": "0x2efef04623c2cb2c8e8396653d1094b28c169190aaf03182584b0b3effcb7f71",
          "transactionIndex": "0x4c",
          "logIndex": "0xba",
          "removed": false
        },
        {
          "address": "0xb36b5f2c449f949e41ebab006c76e27e548a46de",
          "topics": [
            "0xc7f505b2f371ae2175ee4913f4499e1f2633a7b5936321eed1cdaeb6115181d2"
          ],
          "data": "0x0000000000000000000000000000000000000000000000000000000000000001",
          "blockHash": "0x1766c8953ba9b784196ae3f824a688c6cf47549275fa0dfc3f538fe8611faafa",
          "blockNumber": "0x69eef0",
          "transactionHash": "0x2efef04623c2cb2c8e8396653d1094b28c169190aaf03182584b0b3effcb7f71",
          "transactionIndex": "0x4c",
          "logIndex": "0xbb",
          "removed": false
        },
        {
          "address": "0x618283ad23199b13d48e4683e248b96f3f30deb7",
          "topics": [
            "0x8dc66cafb77b325538c856bfa5892b31ca7305adfa48f6a09e030e261cda0795",
            "0x000000000000000000000000b36b5f2c449f949e41ebab006c76e27e548a46de",
            "0x0000000000000000000000002fa7eed6850019e93c22e6294b6b9a798f6a66fc"
          ],
          "data": "0x00000000000000000000000000000000000000000000000000000000000007d2",
          "blockHash": "0x1766c8953ba9b784196ae3f824a688c6cf47549275fa0dfc3f538fe8611faafa",
          "blockNumber": "0x69eef0",
          "transactionHash": "0x2efef04623c2cb2c8e8396653d1094b28c169190aaf03182584b0b3effcb7f71",
          "transactionIndex": "0x4c",
          "logIndex": "0xbc",
          "removed": false
        }
      ],
      "logsBloom": "0x000000000000008000000000000000000000000000002000000000000000000000000000000000000000000000008000000000000000000000000000000400000800000000000200000001080000000000000000000c0000020000100000000000000000020000000000000000000800000000000000000000000010000000000000000000000000000800000800000000000000000084000000000000020080000000000000004000000000000000002000000000000000000000000000008000004002000000000000000000100000000008000004400000000000000060000000000000000000201000000000000000000000000000000210000000000000",
      "type": "0x2",
      "transactionHash": "0x2efef04623c2cb2c8e8396653d1094b28c169190aaf03182584b0b3effcb7f71",
      "transactionIndex": "0x4c",
      "blockHash": "0x1766c8953ba9b784196ae3f824a688c6cf47549275fa0dfc3f538fe8611faafa",
      "blockNumber": "0x69eef0",
      "gasUsed": "0x47e84",
      "effectiveGasPrice": "0x27830179",
      "from": "0xdda2f2e159d2ce413bd0e1df5988ee7a803432e3",
      "to": "0x618283ad23199b13d48e4683e248b96f3f30deb7",
      "contractAddress": null
    }
  ],
  "libraries": [],
  "pending": [],
  "returns": {},
  "timestamp": 1729856669,
  "chain": 11155111,
  "commit": "fb38edf"
}