{
  "transactions": [
    {
      "hash": "0x2d985ab9f8e5c48233880bfa0bc8bb60cdec6b8392c4569225c9e09acae738f4",
      "transactionType": "CALL",
      "contractName": null,
      "contractAddress": "0x9730a7a1b354986ebbc94da01d315cb89585a681",
      "function": "mintPersonalMSW(uint64,bytes)",
      "arguments": [
        "22222",
        "0x7cbd0014d7bb57fabe8cc44f612dee4a1dc3babce0997b765b51af0eb1d2f48a22a7b8d764649fb2b7bef3061bd7acde90c5fee069810bedd87754498f3d93b71c"
      ],
      "transaction": {
        "from": "0xdda2f2e159d2ce413bd0e1df5988ee7a803432e3",
        "to": "0x9730a7a1b354986ebbc94da01d315cb89585a681",
        "gas": "0x63530",
        "value": "0x1b58",
        "input": "0xce63f12a00000000000000000000000000000000000000000000000000000000000056ce000000000000000000000000000000000000000000000000000000000000004000000000000000000000000000000000000000000000000000000000000000417cbd0014d7bb57fabe8cc44f612dee4a1dc3babce0997b765b51af0eb1d2f48a22a7b8d764649fb2b7bef3061bd7acde90c5fee069810bedd87754498f3d93b71c00000000000000000000000000000000000000000000000000000000000000",
        "nonce": "0x253",
        "chainId": "0xaa36a7"
      },
      "additionalContracts": [],
      "isFixedGasLimit": false
    }
  ],
  "receipts": [
    {
      "status": "0x1",
      "cumulativeGasUsed": "0x1237ad1",
      "logs": [
        {
          "address": "0x3b9d8afda5692c9f76dd2060a5ce28fc5799e106",
          "topics": [
            "0xddf252ad1be2c89b69c2b068fc378daa952ba7f163c4a11628f55a4df523b3ef",
            "0x0000000000000000000000000000000000000000000000000000000000000000",
            "0x000000000000000000000000dda2f2e159d2ce413bd0e1df5988ee7a803432e3",
            "0x0000000000000000000000000000000000000000000000000000000000000001"
          ],
          "data": "0x",
          "blockHash": "0x6cd92e08860c3d9a3f7b5c945be93ce0f9c66ea69860f8e8c4e8fac65c99c09b",
          "blockNumber": "0x6a6e6b",
          "transactionHash": "0x2d985ab9f8e5c48233880bfa0bc8bb60cdec6b8392c4569225c9e09acae738f4",
          "transactionIndex": "0x7f",
          "logIndex": "0xe1",
          "removed": false
        },
        {
          "address": "0x3b9d8afda5692c9f76dd2060a5ce28fc5799e106",
          "topics": [
            "0xf8e1a15aba9398e019f0b49df1a4fde98ee17ae345cb5f6b5e2c27f5033e8ce7"
          ],
          "data": "0x0000000000000000000000000000000000000000000000000000000000000001",
          "blockHash": "0x6cd92e08860c3d9a3f7b5c945be93ce0f9c66ea69860f8e8c4e8fac65c99c09b",
          "blockNumber": "0x6a6e6b",
          "transactionHash": "0x2d985ab9f8e5c48233880bfa0bc8bb60cdec6b8392c4569225c9e09acae738f4",
          "transactionIndex": "0x7f",
          "logIndex": "0xe2",
          "removed": false
        },
        {
          "address": "0x3b9d8afda5692c9f76dd2060a5ce28fc5799e106",
          "topics": [
            "0xfa6883374d3785c826e28c69c68c1b6dd2178accc8623f49c6829a75487419b3",
            "0x000000000000000000000000dda2f2e159d2ce413bd0e1df5988ee7a803432e3",
            "0x0000000000000000000000000000000000000000000000000000000000000001",
            "0x0000000000000000000000000000000000000000000000000000000000000000"
          ],
          "data": "0x00000000000000000000000000000000000000000000000000000000000000200000000000000000000000000000000000000000000000000000000000000000",
          "blockHash": "0x6cd92e08860c3d9a3f7b5c945be93ce0f9c66ea69860f8e8c4e8fac65c99c09b",
          "blockNumber": "0x6a6e6b",
          "transactionHash": "0x2d985ab9f8e5c48233880bfa0bc8bb60cdec6b8392c4569225c9e09acae738f4",
          "transactionIndex": "0x7f",
          "logIndex": "0xe3",
          "removed": false
        },
        {
          "address": "0x3b9d8afda5692c9f76dd2060a5ce28fc5799e106",
          "topics": [
            "0xc7f505b2f371ae2175ee4913f4499e1f2633a7b5936321eed1cdaeb6115181d2"
          ],
          "data": "0x0000000000000000000000000000000000000000000000000000000000000001",
          "blockHash": "0x6cd92e08860c3d9a3f7b5c945be93ce0f9c66ea69860f8e8c4e8fac65c99c09b",
          "blockNumber": "0x6a6e6b",
          "transactionHash": "0x2d985ab9f8e5c48233880bfa0bc8bb60cdec6b8392c4569225c9e09acae738f4",
          "transactionIndex": "0x7f",
          "logIndex": "0xe4",
          "removed": false
        },
        {
          "address": "0x9730a7a1b354986ebbc94da01d315cb89585a681",
          "topics": [
            "0x8dc66cafb77b325538c856bfa5892b31ca7305adfa48f6a09e030e261cda0795",
            "0x0000000000000000000000003b9d8afda5692c9f76dd2060a5ce28fc5799e106",
            "0x0000000000000000000000002fa7eed6850019e93c22e6294b6b9a798f6a66fc"
          ],
          "data": "0x00000000000000000000000000000000000000000000000000000000000007d2",
          "blockHash": "0x6cd92e08860c3d9a3f7b5c945be93ce0f9c66ea69860f8e8c4e8fac65c99c09b",
          "blockNumber": "0x6a6e6b",
          "transactionHash": "0x2d985ab9f8e5c48233880bfa0bc8bb60cdec6b8392c4569225c9e09acae738f4",
          "transactionIndex": "0x7f",
          "logIndex": "0xe5",
          "removed": false
        }
      ],
      "logsBloom": "0x00000000000000800000002000000000000000000000000000000000000000020000000000000000000000000000000000000000000000000000000000040000080000000000020000000108000000000000000000040000021000000000000000000000020000004000000000001800000000000000000000000010000000001000000000000000000800000800000000000000000084000000000000000080000000000000000000000000000000002008000000000000000000000000008000000002000020000000000000100000000008000004400000000000000060000000001000000000200000000000000000000000000000000200000000000000",
      "type": "0x2",
      "transactionHash": "0x2d985ab9f8e5c48233880bfa0bc8bb60cdec6b8392c4569225c9e09acae738f4",
      "transactionIndex": "0x7f",
      "blockHash": "0x6cd92e08860c3d9a3f7b5c945be93ce0f9c66ea69860f8e8c4e8fac65c99c09b",
      "blockNumber": "0x6a6e6b",
      "gasUsed": "0x47e90",
      "effectiveGasPrice": "0x18a06f39e",
      "from": "0xdda2f2e159d2ce413bd0e1df5988ee7a803432e3",
      "to": "0x9730a7a1b354986ebbc94da01d315cb89585a681",
      "contractAddress": null
    }
  ],
  "libraries": [],
  "pending": [],
  "returns": {},
  "timestamp": 1730271881,
  "chain": 11155111,
  "commit": "434b1fe"
}