{
  "transactions": [
    {
      "hash": "0x0c5f12352358da532bf0234f6f53235089fb2cb31406171464b2202a7dec3501",
      "transactionType": "CALL",
      "contractName": null,
      "contractAddress": "0x7f3f876463e3f70634823be78f6f55e01720a068",
      "function": "mintPersonalMSW(uint64,bytes)",
      "arguments": [
        "22222",
        "0x7cbd0014d7bb57fabe8cc44f612dee4a1dc3babce0997b765b51af0eb1d2f48a22a7b8d764649fb2b7bef3061bd7acde90c5fee069810bedd87754498f3d93b71c"
      ],
      "transaction": {
        "from": "0x97ba7778dd9ce27bd4953c136f3b3b7b087e14c1",
        "to": "0x7f3f876463e3f70634823be78f6f55e01720a068",
        "gas": "0x63624",
        "value": "0x1b58",
        "input": "0xce63f12a00000000000000000000000000000000000000000000000000000000000056ce000000000000000000000000000000000000000000000000000000000000004000000000000000000000000000000000000000000000000000000000000000417cbd0014d7bb57fabe8cc44f612dee4a1dc3babce0997b765b51af0eb1d2f48a22a7b8d764649fb2b7bef3061bd7acde90c5fee069810bedd87754498f3d93b71c00000000000000000000000000000000000000000000000000000000000000",
        "nonce": "0x8",
        "chainId": "0xaa36a7"
      },
      "additionalContracts": [
        {
          "transactionType": "CREATE2",
          "address": "0xbd675187fff78424d5dd7ae5f26cb83f57fe68cc",
          "initCode": "0x3d602d80600a3d3981f3363d3d373d3d3d363d732fa7eed6850019e93c22e6294b6b9a798f6a66fc5af43d82803e903d91602b57fd5bf3"
        }
      ],
      "isFixedGasLimit": false
    },
    {
      "hash": "0x8bf6b8d6ea29300bb18e6b1bc6905d012c6c3b336eebcd68e48b6ea7c49af5c9",
      "transactionType": "CALL",
      "contractName": null,
      "contractAddress": "0x7f3f876463e3f70634823be78f6f55e01720a068",
      "function": "newImplementation(uint8,address)",
      "arguments": [
        "2",
        "0x6178438A0BB1c6002B585a670AAa0f8c4D8b0aed"
      ],
      "transaction": {
        "from": "0x97ba7778dd9ce27bd4953c136f3b3b7b087e14c1",
        "to": "0x7f3f876463e3f70634823be78f6f55e01720a068",
        "gas": "0x12704",
        "value": "0x0",
        "input": "0xb5537eac00000000000000000000000000000000000000000000000000000000000000020000000000000000000000006178438a0bb1c6002b585a670aaa0f8c4d8b0aed",
        "nonce": "0x9",
        "chainId": "0xaa36a7"
      },
      "additionalContracts": [],
      "isFixedGasLimit": false
    },
    {
      "hash": "0x2fe2e1d67b8699b47871a8a42f96e764bf53be25148eb1170e2dce54dbc5ca18",
      "transactionType": "CALL",
      "contractName": null,
      "contractAddress": "0x7f3f876463e3f70634823be78f6f55e01720a068",
      "function": "createCustomERC20(address,string,string,uint256,(address,uint256)[])",
      "arguments": [
        "0x5b73C5498c1E3b4dbA84de0F1833c4a029d90519",
        "Custom ERC20 Name",
        "CUSTSYM",
        "1000000000000000000000000",
        "[(0x0000000000000000000000000000000000000001, 100), (0x0000000000000000000000000000000000000002, 200)]"
      ],
      "transaction": {
        "from": "0x97ba7778dd9ce27bd4953c136f3b3b7b087e14c1",
        "to": "0x7f3f876463e3f70634823be78f6f55e01720a068",
        "gas": "0x537a4",
        "value": "0x0",
        "input": "0x6b5eab6a0000000000000000000000005b73c5498c1e3b4dba84de0f1833c4a029d9051900000000000000000000000000000000000000000000000000000000000000a000000000000000000000000000000000000000000000000000000000000000e000000000000000000000000000000000000000000000d3c21bcecceda100000000000000000000000000000000000000000000000000000000000000000001200000000000000000000000000000000000000000000000000000000000000011437573746f6d204552433230204e616d6500000000000000000000000000000000000000000000000000000000000000000000000000000000000000000000074355535453594d00000000000000000000000000000000000000000000000000000000000000000000000000000000000000000000000000000000000000000200000000000000000000000000000000000000000000000000000000000000010000000000000000000000000000000000000000000000000000000000000064000000000000000000000000000000000000000000000000000000000000000200000000000000000000000000000000000000000000000000000000000000c8",
        "nonce": "0xa",
        "chainId": "0xaa36a7"
      },
      "additionalContracts": [
        {
          "transactionType": "CREATE",
          "address": "0x7470d704b823b7bb180dca71831666adb78a9270",
          "initCode": "0x3d602d80600a3d3981f3363d3d373d3d3d363d736178438a0bb1c6002b585a670aaa0f8c4d8b0aed5af43d82803e903d91602b57fd5bf3"
        }
      ],
      "isFixedGasLimit": false
    }
  ],
  "receipts": [
    {
      "status": "0x1",
      "cumulativeGasUsed": "0x1a8ffa1",
      "logs": [
        {
          "address": "0xbd675187fff78424d5dd7ae5f26cb83f57fe68cc",
          "topics": [
            "0xddf252ad1be2c89b69c2b068fc378daa952ba7f163c4a11628f55a4df523b3ef",
            "0x0000000000000000000000000000000000000000000000000000000000000000",
            "0x00000000000000000000000097ba7778dd9ce27bd4953c136f3b3b7b087e14c1",
            "0x0000000000000000000000000000000000000000000000000000000000000001"
          ],
          "data": "0x",
          "blockHash": "0x1e221b0809acc25ca848a5663422a464e56b8d62f119823a1f36a598b0b684bf",
          "blockNumber": "0x6e1f7c",
          "transactionHash": "0x0c5f12352358da532bf0234f6f53235089fb2cb31406171464b2202a7dec3501",
          "transactionIndex": "0xc6",
          "logIndex": "0xdf",
          "removed": false
        },
        {
          "address": "0xbd675187fff78424d5dd7ae5f26cb83f57fe68cc",
          "topics": [
            "0xf8e1a15aba9398e019f0b49df1a4fde98ee17ae345cb5f6b5e2c27f5033e8ce7"
          ],
          "data": "0x0000000000000000000000000000000000000000000000000000000000000001",
          "blockHash": "0x1e221b0809acc25ca848a5663422a464e56b8d62f119823a1f36a598b0b684bf",
          "blockNumber": "0x6e1f7c",
          "transactionHash": "0x0c5f12352358da532bf0234f6f53235089fb2cb31406171464b2202a7dec3501",
          "transactionIndex": "0xc6",
          "logIndex": "0xe0",
          "removed": false
        },
        {
          "address": "0xbd675187fff78424d5dd7ae5f26cb83f57fe68cc",
          "topics": [
            "0xfa6883374d3785c826e28c69c68c1b6dd2178accc8623f49c6829a75487419b3",
            "0x00000000000000000000000097ba7778dd9ce27bd4953c136f3b3b7b087e14c1",
            "0x0000000000000000000000000000000000000000000000000000000000000001",
            "0x0000000000000000000000000000000000000000000000000000000000000000"
          ],
          "data": "0x00000000000000000000000000000000000000000000000000000000000000200000000000000000000000000000000000000000000000000000000000000000",
          "blockHash": "0x1e221b0809acc25ca848a5663422a464e56b8d62f119823a1f36a598b0b684bf",
          "blockNumber": "0x6e1f7c",
          "transactionHash": "0x0c5f12352358da532bf0234f6f53235089fb2cb31406171464b2202a7dec3501",
          "transactionIndex": "0xc6",
          "logIndex": "0xe1",
          "removed": false
        },
        {
          "address": "0xbd675187fff78424d5dd7ae5f26cb83f57fe68cc",
          "topics": [
            "0xc7f505b2f371ae2175ee4913f4499e1f2633a7b5936321eed1cdaeb6115181d2"
          ],
          "data": "0x0000000000000000000000000000000000000000000000000000000000000001",
          "blockHash": "0x1e221b0809acc25ca848a5663422a464e56b8d62f119823a1f36a598b0b684bf",
          "blockNumber": "0x6e1f7c",
          "transactionHash": "0x0c5f12352358da532bf0234f6f53235089fb2cb31406171464b2202a7dec3501",
          "transactionIndex": "0xc6",
          "logIndex": "0xe2",
          "removed": false
        },
        {
          "address": "0x7f3f876463e3f70634823be78f6f55e01720a068",
          "topics": [
            "0x8dc66cafb77b325538c856bfa5892b31ca7305adfa48f6a09e030e261cda0795",
            "0x000000000000000000000000bd675187fff78424d5dd7ae5f26cb83f57fe68cc",
            "0x0000000000000000000000002fa7eed6850019e93c22e6294b6b9a798f6a66fc"
          ],
          "data": "0x00000000000000000000000000000000000000000000000000000000000007d2",
          "blockHash": "0x1e221b0809acc25ca848a5663422a464e56b8d62f119823a1f36a598b0b684bf",
          "blockNumber": "0x6e1f7c",
          "transactionHash": "0x0c5f12352358da532bf0234f6f53235089fb2cb31406171464b2202a7dec3501",
          "transactionIndex": "0xc6",
          "logIndex": "0xe3",
          "removed": false
        }
      ],
      "logsBloom": "0x00000000000000800000000000000000200000000000000000000000010000000000000004000000000000400000000000000000000000000000000000040000080000000000020000000108200000000000000000040000000000000000000000000000020000000000000000000800000000000018000000000010000000000000000000000000000800000000000000000000000084000000000000000080000000000000000000000000000000002000000000000000000000000000088000000012000000000000000000100000000008000004400000000000000060000000000000800000200000004000000000000040000000000000000000000000",
      "type": "0x2",
      "transactionHash": "0x0c5f12352358da532bf0234f6f53235089fb2cb31406171464b2202a7dec3501",
      "transactionIndex": "0xc6",
      "blockHash": "0x1e221b0809acc25ca848a5663422a464e56b8d62f119823a1f36a598b0b684bf",
      "blockNumber": "0x6e1f7c",
      "gasUsed": "0x47f41",
      "effectiveGasPrice": "0x4352062ea",
      "from": "0x97ba7778dd9ce27bd4953c136f3b3b7b087e14c1",
      "to": "0x7f3f876463e3f70634823be78f6f55e01720a068",
      "contractAddress": null
    },
    {
      "status": "0x1",
      "cumulativeGasUsed": "0x1a9c95a",
      "logs": [],
      "logsBloom": "0x00000000000000000000000000000000000000000000000000000000000000000000000000000000000000000000000000000000000000000000000000000000000000000000000000000000000000000000000000000000000000000000000000000000000000000000000000000000000000000000000000000000000000000000000000000000000000000000000000000000000000000000000000000000000000000000000000000000000000000000000000000000000000000000000000000000000000000000000000000000000000000000000000000000000000000000000000000000000000000000000000000000000000000000000000000000",
      "type": "0x2",
      "transactionHash": "0x8bf6b8d6ea29300bb18e6b1bc6905d012c6c3b336eebcd68e48b6ea7c49af5c9",
      "transactionIndex": "0xc7",
      "blockHash": "0x1e221b0809acc25ca848a5663422a464e56b8d62f119823a1f36a598b0b684bf",
      "blockNumber": "0x6e1f7c",
      "gasUsed": "0xc9b9",
      "effectiveGasPrice": "0x4352062ea",
      "from": "0x97ba7778dd9ce27bd4953c136f3b3b7b087e14c1",
      "to": "0x7f3f876463e3f70634823be78f6f55e01720a068",
      "contractAddress": null
    },
    {
      "status": "0x1",
      "cumulativeGasUsed": "0x1ad905a",
      "logs": [
        {
          "address": "0x7470d704b823b7bb180dca71831666adb78a9270",
          "topics": [
            "0xddf252ad1be2c89b69c2b068fc378daa952ba7f163c4a11628f55a4df523b3ef",
            "0x0000000000000000000000000000000000000000000000000000000000000000",
            "0x0000000000000000000000005b73c5498c1e3b4dba84de0f1833c4a029d90519"
          ],
          "data": "0x00000000000000000000000000000000000000000000d3c21bcecceda1000000",
          "blockHash": "0x1e221b0809acc25ca848a5663422a464e56b8d62f119823a1f36a598b0b684bf",
          "blockNumber": "0x6e1f7c",
          "transactionHash": "0x2fe2e1d67b8699b47871a8a42f96e764bf53be25148eb1170e2dce54dbc5ca18",
          "transactionIndex": "0xc8",
          "logIndex": "0xe4",
          "removed": false
        },
        {
          "address": "0x7470d704b823b7bb180dca71831666adb78a9270",
          "topics": [
            "0xddf252ad1be2c89b69c2b068fc378daa952ba7f163c4a11628f55a4df523b3ef",
            "0x0000000000000000000000005b73c5498c1e3b4dba84de0f1833c4a029d90519",
            "0x0000000000000000000000000000000000000000000000000000000000000001"
          ],
          "data": "0x0000000000000000000000000000000000000000000000000000000000000064",
          "blockHash": "0x1e221b0809acc25ca848a5663422a464e56b8d62f119823a1f36a598b0b684bf",
          "blockNumber": "0x6e1f7c",
          "transactionHash": "0x2fe2e1d67b8699b47871a8a42f96e764bf53be25148eb1170e2dce54dbc5ca18",
          "transactionIndex": "0xc8",
          "logIndex": "0xe5",
          "removed": false
        },
        {
          "address": "0x7470d704b823b7bb180dca71831666adb78a9270",
          "topics": [
            "0xddf252ad1be2c89b69c2b068fc378daa952ba7f163c4a11628f55a4df523b3ef",
            "0x0000000000000000000000005b73c5498c1e3b4dba84de0f1833c4a029d90519",
            "0x0000000000000000000000000000000000000000000000000000000000000002"
          ],
          "data": "0x00000000000000000000000000000000000000000000000000000000000000c8",
          "blockHash": "0x1e221b0809acc25ca848a5663422a464e56b8d62f119823a1f36a598b0b684bf",
          "blockNumber": "0x6e1f7c",
          "transactionHash": "0x2fe2e1d67b8699b47871a8a42f96e764bf53be25148eb1170e2dce54dbc5ca18",
          "transactionIndex": "0xc8",
          "logIndex": "0xe6",
          "removed": false
        },
        {
          "address": "0x7470d704b823b7bb180dca71831666adb78a9270",
          "topics": [
            "0xc7f505b2f371ae2175ee4913f4499e1f2633a7b5936321eed1cdaeb6115181d2"
          ],
          "data": "0x0000000000000000000000000000000000000000000000000000000000000001",
          "blockHash": "0x1e221b0809acc25ca848a5663422a464e56b8d62f119823a1f36a598b0b684bf",
          "blockNumber": "0x6e1f7c",
          "transactionHash": "0x2fe2e1d67b8699b47871a8a42f96e764bf53be25148eb1170e2dce54dbc5ca18",
          "transactionIndex": "0xc8",
          "logIndex": "0xe7",
          "removed": false
        }
      ],
      "logsBloom": "0x04000000000000000000000000100000000000000000000000000000000000000200000000000000000000000000000000000000000000000000000000040000000000000000000000000008000000000000000000040000000000000000000000000000020000000000000000000800008000000000000000000010000000000000000000000000000800000000000000000000000080000000000000000000000000000000000000000102000000000000000000000000000000000000000000000002400000000000000000000000000000000004000000000000000060000000000000000000000000000000000000000000008000000000000000000200",
      "type": "0x2",
      "transactionHash": "0x2fe2e1d67b8699b47871a8a42f96e764bf53be25148eb1170e2dce54dbc5ca18",
      "transactionIndex": "0xc8",
      "blockHash": "0x1e221b0809acc25ca848a5663422a464e56b8d62f119823a1f36a598b0b684bf",
      "blockNumber": "0x6e1f7c",
      "gasUsed": "0x3c700",
      "effectiveGasPrice": "0x4352062ea",
      "from": "0x97ba7778dd9ce27bd4953c136f3b3b7b087e14c1",
      "to": "0x7f3f876463e3f70634823be78f6f55e01720a068",
      "contractAddress": null
    }
  ],
  "libraries": [],
  "pending": [],
  "returns": {},
  "timestamp": 1733410141,
  "chain": 11155111,
  "commit": "049ef99"
}