{
  "transactions": [
    {
      "hash": "0xd5f1cd0c2318d1827311174064f615b6f9c5df25eda127c51c204c748b4007b0",
      "transactionType": "CALL",
      "contractName": null,
      "contractAddress": "0xd2c6da6809cfa805b1917b81b799e2f3bc5e4d26",
      "function": "mintPersonalMSW(uint64,bytes)",
      "arguments": [
        "22222",
        "0x7cbd0014d7bb57fabe8cc44f612dee4a1dc3babce0997b765b51af0eb1d2f48a22a7b8d764649fb2b7bef3061bd7acde90c5fee069810bedd87754498f3d93b71c"
      ],
      "transaction": {
        "from": "0xdda2f2e159d2ce413bd0e1df5988ee7a803432e3",
        "to": "0xd2c6da6809cfa805b1917b81b799e2f3bc5e4d26",
        "gas": "0x6363a",
        "value": "0x1b58",
        "input": "0xce63f12a00000000000000000000000000000000000000000000000000000000000056ce000000000000000000000000000000000000000000000000000000000000004000000000000000000000000000000000000000000000000000000000000000417cbd0014d7bb57fabe8cc44f612dee4a1dc3babce0997b765b51af0eb1d2f48a22a7b8d764649fb2b7bef3061bd7acde90c5fee069810bedd87754498f3d93b71c00000000000000000000000000000000000000000000000000000000000000",
        "nonce": "0x265",
        "chainId": "0xaa36a7"
      },
      "additionalContracts": [
        {
          "transactionType": "CREATE2",
          "address": "0x8bd74ed7e7dc441df677fe99aff92767a170f8b1",
          "initCode": "0x3d602d80600a3d3981f3363d3d373d3d3d363d732fa7eed6850019e93c22e6294b6b9a798f6a66fc5af43d82803e903d91602b57fd5bf3"
        }
      ],
      "isFixedGasLimit": false
    },
    {
      "hash": "0x2d1a42cd1ea83ebbc0680022a4b453af45b9eed494abc03bf407da6a9ef461ca",
      "transactionType": "CALL",
      "contractName": null,
      "contractAddress": "0xd2c6da6809cfa805b1917b81b799e2f3bc5e4d26",
      "function": "newImplementation(uint8,address)",
      "arguments": [
        "2",
        "0x6178438A0BB1c6002B585a670AAa0f8c4D8b0aed"
      ],
      "transaction": {
        "from": "0xdda2f2e159d2ce413bd0e1df5988ee7a803432e3",
        "to": "0xd2c6da6809cfa805b1917b81b799e2f3bc5e4d26",
        "gas": "0x12704",
        "value": "0x0",
        "input": "0xb5537eac00000000000000000000000000000000000000000000000000000000000000020000000000000000000000006178438a0bb1c6002b585a670aaa0f8c4d8b0aed",
        "nonce": "0x266",
        "chainId": "0xaa36a7"
      },
      "additionalContracts": [],
      "isFixedGasLimit": false
    },
    {
      "hash": "0x37a722e690d43fe90ff557a2b176c68f867c09604cdb9b93a40cd9439783c93a",
      "transactionType": "CALL",
      "contractName": null,
      "contractAddress": "0xd2c6da6809cfa805b1917b81b799e2f3bc5e4d26",
      "function": "createCustomERC20(address,string,string,uint256,(address,uint256)[])",
      "arguments": [
        "0x5b73C5498c1E3b4dbA84de0F1833c4a029d90519",
        "Custom ERC20 Name",
        "CUSTSYM",
        "1000000000000000000000000",
        "[(0x0000000000000000000000000000000000000001, 100), (0x0000000000000000000000000000000000000002, 200)]"
      ],
      "transaction": {
        "from": "0xdda2f2e159d2ce413bd0e1df5988ee7a803432e3",
        "to": "0xd2c6da6809cfa805b1917b81b799e2f3bc5e4d26",
        "gas": "0x537a4",
        "value": "0x0",
        "input": "0x6b5eab6a0000000000000000000000005b73c5498c1e3b4dba84de0f1833c4a029d9051900000000000000000000000000000000000000000000000000000000000000a000000000000000000000000000000000000000000000000000000000000000e000000000000000000000000000000000000000000000d3c21bcecceda100000000000000000000000000000000000000000000000000000000000000000001200000000000000000000000000000000000000000000000000000000000000011437573746f6d204552433230204e616d6500000000000000000000000000000000000000000000000000000000000000000000000000000000000000000000074355535453594d00000000000000000000000000000000000000000000000000000000000000000000000000000000000000000000000000000000000000000200000000000000000000000000000000000000000000000000000000000000010000000000000000000000000000000000000000000000000000000000000064000000000000000000000000000000000000000000000000000000000000000200000000000000000000000000000000000000000000000000000000000000c8",
        "nonce": "0x267",
        "chainId": "0xaa36a7"
      },
      "additionalContracts": [
        {
          "transactionType": "CREATE",
          "address": "0xe6cb943608780c94f4391380f1ea96c8dc5eb9e2",
          "initCode": "0x3d602d80600a3d3981f3363d3d373d3d3d363d736178438a0bb1c6002b585a670aaa0f8c4d8b0aed5af43d82803e903d91602b57fd5bf3"
        }
      ],
      "isFixedGasLimit": false
    }
  ],
  "receipts": [
    {
      "status": "0x1",
      "cumulativeGasUsed": "0x793344",
      "logs": [
        {
          "address": "0x8bd74ed7e7dc441df677fe99aff92767a170f8b1",
          "topics": [
            "0xddf252ad1be2c89b69c2b068fc378daa952ba7f163c4a11628f55a4df523b3ef",
            "0x0000000000000000000000000000000000000000000000000000000000000000",
            "0x000000000000000000000000dda2f2e159d2ce413bd0e1df5988ee7a803432e3",
            "0x0000000000000000000000000000000000000000000000000000000000000001"
          ],
          "data": "0x",
          "blockHash": "0xe8eea2bafec8669a7f9550cad7538af4986f7a7a069ad5d23436e111206c7603",
          "blockNumber": "0x6ccdf2",
          "transactionHash": "0xd5f1cd0c2318d1827311174064f615b6f9c5df25eda127c51c204c748b4007b0",
          "transactionIndex": "0x25",
          "logIndex": "0x15",
          "removed": false
        },
        {
          "address": "0x8bd74ed7e7dc441df677fe99aff92767a170f8b1",
          "topics": [
            "0xf8e1a15aba9398e019f0b49df1a4fde98ee17ae345cb5f6b5e2c27f5033e8ce7"
          ],
          "data": "0x0000000000000000000000000000000000000000000000000000000000000001",
          "blockHash": "0xe8eea2bafec8669a7f9550cad7538af4986f7a7a069ad5d23436e111206c7603",
          "blockNumber": "0x6ccdf2",
          "transactionHash": "0xd5f1cd0c2318d1827311174064f615b6f9c5df25eda127c51c204c748b4007b0",
          "transactionIndex": "0x25",
          "logIndex": "0x16",
          "removed": false
        },
        {
          "address": "0x8bd74ed7e7dc441df677fe99aff92767a170f8b1",
          "topics": [
            "0xfa6883374d3785c826e28c69c68c1b6dd2178accc8623f49c6829a75487419b3",
            "0x000000000000000000000000dda2f2e159d2ce413bd0e1df5988ee7a803432e3",
            "0x0000000000000000000000000000000000000000000000000000000000000001",
            "0x0000000000000000000000000000000000000000000000000000000000000000"
          ],
          "data": "0x00000000000000000000000000000000000000000000000000000000000000200000000000000000000000000000000000000000000000000000000000000000",
          "blockHash": "0xe8eea2bafec8669a7f9550cad7538af4986f7a7a069ad5d23436e111206c7603",
          "blockNumber": "0x6ccdf2",
          "transactionHash": "0xd5f1cd0c2318d1827311174064f615b6f9c5df25eda127c51c204c748b4007b0",
          "transactionIndex": "0x25",
          "logIndex": "0x17",
          "removed": false
        },
        {
          "address": "0x8bd74ed7e7dc441df677fe99aff92767a170f8b1",
          "topics": [
            "0xc7f505b2f371ae2175ee4913f4499e1f2633a7b5936321eed1cdaeb6115181d2"
          ],
          "data": "0x0000000000000000000000000000000000000000000000000000000000000001",
          "blockHash": "0xe8eea2bafec8669a7f9550cad7538af4986f7a7a069ad5d23436e111206c7603",
          "blockNumber": "0x6ccdf2",
          "transactionHash": "0xd5f1cd0c2318d1827311174064f615b6f9c5df25eda127c51c204c748b4007b0",
          "transactionIndex": "0x25",
          "logIndex": "0x18",
          "removed": false
        },
        {
          "address": "0xd2c6da6809cfa805b1917b81b799e2f3bc5e4d26",
          "topics": [
            "0x8dc66cafb77b325538c856bfa5892b31ca7305adfa48f6a09e030e261cda0795",
            "0x0000000000000000000000008bd74ed7e7dc441df677fe99aff92767a170f8b1",
            "0x0000000000000000000000002fa7eed6850019e93c22e6294b6b9a798f6a66fc"
          ],
          "data": "0x00000000000000000000000000000000000000000000000000000000000007d2",
          "blockHash": "0xe8eea2bafec8669a7f9550cad7538af4986f7a7a069ad5d23436e111206c7603",
          "blockNumber": "0x6ccdf2",
          "transactionHash": "0xd5f1cd0c2318d1827311174064f615b6f9c5df25eda127c51c204c748b4007b0",
          "transactionIndex": "0x25",
          "logIndex": "0x19",
          "removed": false
        }
      ],
      "logsBloom": "0x00000000080000800000000040000000000000000000000000000000000000000000000000000000000000000000000000000200000000000000000000040000080000000000020000000108000400000000000000040000020000020000000000000000020010000000000000000804000000000000000000000010000000000000000000000000000800000800000000000000000084000000000000000080000000000000000000000000000000002000000000000000000000000000008000000002000000000000000000100000000008000004400000000000000060000001000000000000200000000000100000000000000000000200000000000000",
      "type": "0x2",
      "transactionHash": "0xd5f1cd0c2318d1827311174064f615b6f9c5df25eda127c51c204c748b4007b0",
      "transactionIndex": "0x25",
      "blockHash": "0xe8eea2bafec8669a7f9550cad7538af4986f7a7a069ad5d23436e111206c7603",
      "blockNumber": "0x6ccdf2",
      "gasUsed": "0x47f51",
      "effectiveGasPrice": "0x3583139fa",
      "from": "0xdda2f2e159d2ce413bd0e1df5988ee7a803432e3",
      "to": "0xd2c6da6809cfa805b1917b81b799e2f3bc5e4d26",
      "contractAddress": null
    },
    {
      "status": "0x1",
      "cumulativeGasUsed": "0x79fcfd",
      "logs": [],
      "logsBloom": "0x00000000000000000000000000000000000000000000000000000000000000000000000000000000000000000000000000000000000000000000000000000000000000000000000000000000000000000000000000000000000000000000000000000000000000000000000000000000000000000000000000000000000000000000000000000000000000000000000000000000000000000000000000000000000000000000000000000000000000000000000000000000000000000000000000000000000000000000000000000000000000000000000000000000000000000000000000000000000000000000000000000000000000000000000000000000",
      "type": "0x2",
      "transactionHash": "0x2d1a42cd1ea83ebbc0680022a4b453af45b9eed494abc03bf407da6a9ef461ca",
      "transactionIndex": "0x26",
      "blockHash": "0xe8eea2bafec8669a7f9550cad7538af4986f7a7a069ad5d23436e111206c7603",
      "blockNumber": "0x6ccdf2",
      "gasUsed": "0xc9b9",
      "effectiveGasPrice": "0x3583139fa",
      "from": "0xdda2f2e159d2ce413bd0e1df5988ee7a803432e3",
      "to": "0xd2c6da6809cfa805b1917b81b799e2f3bc5e4d26",
      "contractAddress": null
    },
    {
      "status": "0x1",
      "cumulativeGasUsed": "0x7dc3fd",
      "logs": [
        {
          "address": "0xe6cb943608780c94f4391380f1ea96c8dc5eb9e2",
          "topics": [
            "0xddf252ad1be2c89b69c2b068fc378daa952ba7f163c4a11628f55a4df523b3ef",
            "0x0000000000000000000000000000000000000000000000000000000000000000",
            "0x0000000000000000000000005b73c5498c1e3b4dba84de0f1833c4a029d90519"
          ],
          "data": "0x00000000000000000000000000000000000000000000d3c21bcecceda1000000",
          "blockHash": "0xe8eea2bafec8669a7f9550cad7538af4986f7a7a069ad5d23436e111206c7603",
          "blockNumber": "0x6ccdf2",
          "transactionHash": "0x37a722e690d43fe90ff557a2b176c68f867c09604cdb9b93a40cd9439783c93a",
          "transactionIndex": "0x27",
          "logIndex": "0x1a",
          "removed": false
        },
        {
          "address": "0xe6cb943608780c94f4391380f1ea96c8dc5eb9e2",
          "topics": [
            "0xddf252ad1be2c89b69c2b068fc378daa952ba7f163c4a11628f55a4df523b3ef",
            "0x0000000000000000000000005b73c5498c1e3b4dba84de0f1833c4a029d90519",
            "0x0000000000000000000000000000000000000000000000000000000000000001"
          ],
          "data": "0x0000000000000000000000000000000000000000000000000000000000000064",
          "blockHash": "0xe8eea2bafec8669a7f9550cad7538af4986f7a7a069ad5d23436e111206c7603",
          "blockNumber": "0x6ccdf2",
          "transactionHash": "0x37a722e690d43fe90ff557a2b176c68f867c09604cdb9b93a40cd9439783c93a",
          "transactionIndex": "0x27",
          "logIndex": "0x1b",
          "removed": false
        },
        {
          "address": "0xe6cb943608780c94f4391380f1ea96c8dc5eb9e2",
          "topics": [
            "0xddf252ad1be2c89b69c2b068fc378daa952ba7f163c4a11628f55a4df523b3ef",
            "0x0000000000000000000000005b73c5498c1e3b4dba84de0f1833c4a029d90519",
            "0x0000000000000000000000000000000000000000000000000000000000000002"
          ],
          "data": "0x00000000000000000000000000000000000000000000000000000000000000c8",
          "blockHash": "0xe8eea2bafec8669a7f9550cad7538af4986f7a7a069ad5d23436e111206c7603",
          "blockNumber": "0x6ccdf2",
          "transactionHash": "0x37a722e690d43fe90ff557a2b176c68f867c09604cdb9b93a40cd9439783c93a",
          "transactionIndex": "0x27",
          "logIndex": "0x1c",
          "removed": false
        },
        {
          "address": "0xe6cb943608780c94f4391380f1ea96c8dc5eb9e2",
          "topics": [
            "0xc7f505b2f371ae2175ee4913f4499e1f2633a7b5936321eed1cdaeb6115181d2"
          ],
          "data": "0x0000000000000000000000000000000000000000000000000000000000000001",
          "blockHash": "0xe8eea2bafec8669a7f9550cad7538af4986f7a7a069ad5d23436e111206c7603",
          "blockNumber": "0x6ccdf2",
          "transactionHash": "0x37a722e690d43fe90ff557a2b176c68f867c09604cdb9b93a40cd9439783c93a",
          "transactionIndex": "0x27",
          "logIndex": "0x1d",
          "removed": false
        }
      ],
      "logsBloom": "0x04000000000000000000000000000000000000000000000000000000000000000000000000000000000000000000000000000000000000100000000000040000000000000000000000000008000000000000000000040000000000000200000000000000020000000000000000000800008000000000000000000010000000000000000000000000000800000000000000000000000080000000000000000000000000000000000000000122000000000000000000000000000000000000000000000002000000000000000000000000000000000004000000000000000060000000000000000000000000000000000000000000008000000000000000000200",
      "type": "0x2",
      "transactionHash": "0x37a722e690d43fe90ff557a2b176c68f867c09604cdb9b93a40cd9439783c93a",
      "transactionIndex": "0x27",
      "blockHash": "0xe8eea2bafec8669a7f9550cad7538af4986f7a7a069ad5d23436e111206c7603",
      "blockNumber": "0x6ccdf2",
      "gasUsed": "0x3c700",
      "effectiveGasPrice": "0x3583139fa",
      "from": "0xdda2f2e159d2ce413bd0e1df5988ee7a803432e3",
      "to": "0xd2c6da6809cfa805b1917b81b799e2f3bc5e4d26",
      "contractAddress": null
    }
  ],
  "libraries": [],
  "pending": [],
  "returns": {},
  "timestamp": 1732294466,
  "chain": 11155111,
  "commit": "4a3577e"
}