{
  "transactions": [
    {
      "hash": "0xa06babeaf975a239a165656b404c32446ab2c3f2799d5c63bbb24e2cab5a420b",
      "transactionType": "CALL",
      "contractName": null,
      "contractAddress": "0x0fc315f110e8e6e4b23017cdf27c71c805fec7d0",
      "function": "createWNFTonFactory((address,string,string,string,address[],bytes32[],uint256[],bytes))",
      "arguments": [
        "(0x97ba7778dD9CE27bD4953c136F3B3b7b087E14c1, Envelop V2 Smart Wallet, ENVELOPV2, https://api.envelop.is/wallet, [], [], [], 0x)"
      ],
      "transaction": {
        "from": "0x97ba7778dd9ce27bd4953c136f3b3b7b087e14c1",
        "to": "0x0fc315f110e8e6e4b23017cdf27c71c805fec7d0",
        "gas": "0x4e61f",
        "value": "0x0",
        "input": "0x7c3cc707000000000000000000000000000000000000000000000000000000000000002000000000000000000000000097ba7778dd9ce27bd4953c136f3b3b7b087e14c100000000000000000000000000000000000000000000000000000000000001000000000000000000000000000000000000000000000000000000000000000140000000000000000000000000000000000000000000000000000000000000018000000000000000000000000000000000000000000000000000000000000001c000000000000000000000000000000000000000000000000000000000000001e0000000000000000000000000000000000000000000000000000000000000020000000000000000000000000000000000000000000000000000000000000002200000000000000000000000000000000000000000000000000000000000000017456e76656c6f7020563220536d6172742057616c6c65740000000000000000000000000000000000000000000000000000000000000000000000000000000009454e56454c4f5056320000000000000000000000000000000000000000000000000000000000000000000000000000000000000000000000000000000000001d68747470733a2f2f6170692e656e76656c6f702e69732f77616c6c65740000000000000000000000000000000000000000000000000000000000000000000000000000000000000000000000000000000000000000000000000000000000000000000000000000000000000000000000000000000000000000000000000000000000000000000000000000000000000000000000000000000000000000000000",
        "nonce": "0x1d",
        "chainId": "0xaa36a7"
      },
      "additionalContracts": [
        {
          "transactionType": "CREATE",
          "address": "0x0149c0e900c6f441e9ef496a55a430d3ecc4626c",
          "initCode": "0x3d602d80600a3d3981f3363d3d373d3d3d363d730fc315f110e8e6e4b23017cdf27c71c805fec7d05af43d82803e903d91602b57fd5bf3"
        }
      ],
      "isFixedGasLimit": false
    },
    {
      "hash": "0x7f8bbbfb174adab490d7ac7096702e295f662018aab43f5d82c33b253e6034cb",
      "transactionType": "CALL",
      "contractName": null,
      "contractAddress": "0x5db9f4c9239345308614604e69258c0bba9b437f",
      "function": "transfer(address,uint256)",
      "arguments": [
        "0x0149c0e900c6f441E9Ef496a55A430D3ecc4626c",
        "1000000000000000000"
      ],
      "transaction": {
        "from": "0x97ba7778dd9ce27bd4953c136f3b3b7b087e14c1",
        "to": "0x5db9f4c9239345308614604e69258c0bba9b437f",
        "gas": "0x126a9",
        "value": "0x0",
        "input": "0xa9059cbb0000000000000000000000000149c0e900c6f441e9ef496a55a430d3ecc4626c0000000000000000000000000000000000000000000000000de0b6b3a7640000",
        "nonce": "0x1e",
        "chainId": "0xaa36a7"
      },
      "additionalContracts": [],
      "isFixedGasLimit": false
    },
    {
      "hash": "0x1a3b490c32dda840110c23a802c8abbc6b3c0c1c28f4aed115a819accd7d85a3",
      "transactionType": "CALL",
      "contractName": "CustomERC20",
      "contractAddress": "0xb4615d8e576c01d73cc840c19413a3d388060ad3",
      "function": "transfer(address,uint256)",
      "arguments": [
        "0x0149c0e900c6f441E9Ef496a55A430D3ecc4626c",
        "1000000000000000000"
      ],
      "transaction": {
        "from": "0x97ba7778dd9ce27bd4953c136f3b3b7b087e14c1",
        "to": "0xb4615d8e576c01d73cc840c19413a3d388060ad3",
        "gas": "0x1251a",
        "value": "0x0",
        "input": "0xa9059cbb0000000000000000000000000149c0e900c6f441e9ef496a55a430d3ecc4626c0000000000000000000000000000000000000000000000000de0b6b3a7640000",
        "nonce": "0x1f",
        "chainId": "0xaa36a7"
      },
      "additionalContracts": [],
      "isFixedGasLimit": false
    },
    {
      "hash": "0x026b6f4975265b726c37ac131d5f6e705235e6c8ca141a77c9dff5abc3c55005",
      "transactionType": "CALL",
      "contractName": null,
      "contractAddress": "0x0149c0e900c6f441e9ef496a55a430d3ecc4626c",
      "function": null,
      "arguments": null,
      "transaction": {
        "from": "0x97ba7778dd9ce27bd4953c136f3b3b7b087e14c1",
        "to": "0x0149c0e900c6f441e9ef496a55a430d3ecc4626c",
        "gas": "0x8a3f",
        "value": "0x110d9316ec000",
        "input": "0x",
        "nonce": "0x20",
        "chainId": "0xaa36a7"
      },
      "additionalContracts": [],
      "isFixedGasLimit": false
    },
    {
      "hash": "0xc482da0def5e6f5e2bb3e2cc972aa2bdf38702db28ea76bbe9ad7309dd058b93",
      "transactionType": "CALL",
      "contractName": null,
      "contractAddress": "0x0149c0e900c6f441e9ef496a55a430d3ecc4626c",
      "function": "executeEncodedTxBatch(address[],uint256[],bytes[])",
      "arguments": [
        "[0xBD69C7374cF9daC6b94B4386f56f58A4DefBF72c, 0x5dB9f4C9239345308614604e69258C0bba9b437f, 0x50a72EaD39baC99012beba654dbd7D3132F44C44]",
        "[0, 0, 16]",
        "[0xc56a27a0000000000000000000000000000000000000000000000000000000000000002000000000000000000000000097ba7778dd9ce27bd4953c136f3b3b7b087e14c10000000000000000000000000000000000000000000000000000000000000100000000000000000000000000000000000000000000000000000000000000012000000000000000000000000000000000000000000000000000000000000001400000000000000000000000000000000000000000000000000000000000000160000000000000000000000000000000000000000000000000000000000000018000000000000000000000000000000000000000000000000000000000000001a000000000000000000000000000000000000000000000000000000000000001c00000000000000000000000000000000000000000000000000000000000000000000000000000000000000000000000000000000000000000000000000000000000000000000000000000000000000000000000000000000000000000000000000000000000000000000000000000000000000000000000000000000000000000000000000000000000000000000000000000000000000000000000000000000000000000000000000000000000000000000000000000000000000000000000000000000000000000000000000000000000000000000000000000000000000000, 0xa9059cbb00000000000000000000000050a72ead39bac99012beba654dbd7d3132f44c440000000000000000000000000000000000000000000000000000b5e620f48000, 0x]"
      ],
      "transaction": {
        "from": "0x97ba7778dd9ce27bd4953c136f3b3b7b087e14c1",
        "to": "0x0149c0e900c6f441e9ef496a55a430d3ecc4626c",
        "gas": "0x553be",
        "value": "0x0",
        "input": "0xd42053bc000000000000000000000000000000000000000000000000000000000000006000000000000000000000000000000000000000000000000000000000000000e000000000000000000000000000000000000000000000000000000000000001600000000000000000000000000000000000000000000000000000000000000003000000000000000000000000bd69c7374cf9dac6b94b4386f56f58a4defbf72c0000000000000000000000005db9f4c9239345308614604e69258c0bba9b437f00000000000000000000000050a72ead39bac99012beba654dbd7d3132f44c4400000000000000000000000000000000000000000000000000000000000000030000000000000000000000000000000000000000000000000000000000000000000000000000000000000000000000000000000000000000000000000000000000000000000000000000000000000000000000000000000000000000000000100000000000000000000000000000000000000000000000000000000000000003000000000000000000000000000000000000000000000000000000000000006000000000000000000000000000000000000000000000000000000000000002a000000000000000000000000000000000000000000000000000000000000003200000000000000000000000000000000000000000000000000000000000000204c56a27a0000000000000000000000000000000000000000000000000000000000000002000000000000000000000000097ba7778dd9ce27bd4953c136f3b3b7b087e14c10000000000000000000000000000000000000000000000000000000000000100000000000000000000000000000000000000000000000000000000000000012000000000000000000000000000000000000000000000000000000000000001400000000000000000000000000000000000000000000000000000000000000160000000000000000000000000000000000000000000000000000000000000018000000000000000000000000000000000000000000000000000000000000001a000000000000000000000000000000000000000000000000000000000000001c00000000000000000000000000000000000000000000000000000000000000000000000000000000000000000000000000000000000000000000000000000000000000000000000000000000000000000000000000000000000000000000000000000000000000000000000000000000000000000000000000000000000000000000000000000000000000000000000000000000000000000000000000000000000000000000000000000000000000000000000000000000000000000000000000000000000000000000000000000000000000000000000000000000000000000000000000000000000000000000000000000000000000000000000000000000000000000000000000000000000000000000000000000000000000044a9059cbb00000000000000000000000050a72ead39bac99012beba654dbd7d3132f44c440000000000000000000000000000000000000000000000000000b5e620f48000000000000000000000000000000000000000000000000000000000000000000000000000000000000000000000000000000000000000000000000000",
        "nonce": "0x21",
        "chainId": "0xaa36a7"
      },
      "additionalContracts": [
        {
          "transactionType": "CREATE2",
          "address": "0x50a72ead39bac99012beba654dbd7d3132f44c44",
          "initCode": "0x3d602d80600a3d3981f3363d3d373d3d3d363d73bd69c7374cf9dac6b94b4386f56f58a4defbf72c5af43d82803e903d91602b57fd5bf3"
        }
      ],
      "isFixedGasLimit": false
    }
  ],
  "receipts": [
    {
      "status": "0x1",
      "cumulativeGasUsed": "0x6ad017",
      "logs": [
        {
          "address": "0x0149c0e900c6f441e9ef496a55a430d3ecc4626c",
          "topics": [
            "0xddf252ad1be2c89b69c2b068fc378daa952ba7f163c4a11628f55a4df523b3ef",
            "0x0000000000000000000000000000000000000000000000000000000000000000",
            "0x00000000000000000000000097ba7778dd9ce27bd4953c136f3b3b7b087e14c1",
            "0x0000000000000000000000000000000000000000000000000000000000000001"
          ],
          "data": "0x",
          "blockHash": "0x5d5b2e6afef1671afbfd31b1c73a696c79ca8b9c4f6e375b44fdc9161f2d153f",
          "blockNumber": "0x7095dc",
          "transactionHash": "0xa06babeaf975a239a165656b404c32446ab2c3f2799d5c63bbb24e2cab5a420b",
          "transactionIndex": "0x47",
          "logIndex": "0x6e",
          "removed": false
        },
        {
          "address": "0x0149c0e900c6f441e9ef496a55a430d3ecc4626c",
          "topics": [
            "0xf8e1a15aba9398e019f0b49df1a4fde98ee17ae345cb5f6b5e2c27f5033e8ce7"
          ],
          "data": "0x0000000000000000000000000000000000000000000000000000000000000001",
          "blockHash": "0x5d5b2e6afef1671afbfd31b1c73a696c79ca8b9c4f6e375b44fdc9161f2d153f",
          "blockNumber": "0x7095dc",
          "transactionHash": "0xa06babeaf975a239a165656b404c32446ab2c3f2799d5c63bbb24e2cab5a420b",
          "transactionIndex": "0x47",
          "logIndex": "0x6f",
          "removed": false
        },
        {
          "address": "0x0149c0e900c6f441e9ef496a55a430d3ecc4626c",
          "topics": [
            "0xfa6883374d3785c826e28c69c68c1b6dd2178accc8623f49c6829a75487419b3",
            "0x00000000000000000000000097ba7778dd9ce27bd4953c136f3b3b7b087e14c1",
            "0x0000000000000000000000000000000000000000000000000000000000000001",
            "0x0000000000000000000000000000000000000000000000000000000000000000"
          ],
          "data": "0x00000000000000000000000000000000000000000000000000000000000000200000000000000000000000000000000000000000000000000000000000000000",
          "blockHash": "0x5d5b2e6afef1671afbfd31b1c73a696c79ca8b9c4f6e375b44fdc9161f2d153f",
          "blockNumber": "0x7095dc",
          "transactionHash": "0xa06babeaf975a239a165656b404c32446ab2c3f2799d5c63bbb24e2cab5a420b",
          "transactionIndex": "0x47",
          "logIndex": "0x70",
          "removed": false
        },
        {
          "address": "0x0149c0e900c6f441e9ef496a55a430d3ecc4626c",
          "topics": [
            "0xc7f505b2f371ae2175ee4913f4499e1f2633a7b5936321eed1cdaeb6115181d2"
          ],
          "data": "0x0000000000000000000000000000000000000000000000000000000000000001",
          "blockHash": "0x5d5b2e6afef1671afbfd31b1c73a696c79ca8b9c4f6e375b44fdc9161f2d153f",
          "blockNumber": "0x7095dc",
          "transactionHash": "0xa06babeaf975a239a165656b404c32446ab2c3f2799d5c63bbb24e2cab5a420b",
          "transactionIndex": "0x47",
          "logIndex": "0x71",
          "removed": false
        },
        {
          "address": "0x7f3f876463e3f70634823be78f6f55e01720a068",
          "topics": [
            "0x8dc66cafb77b325538c856bfa5892b31ca7305adfa48f6a09e030e261cda0795",
            "0x0000000000000000000000000149c0e900c6f441e9ef496a55a430d3ecc4626c",
            "0x0000000000000000000000000fc315f110e8e6e4b23017cdf27c71c805fec7d0"
          ],
          "data": "0x00000000000000000000000000000000000000000000000000000000000007d2",
          "blockHash": "0x5d5b2e6afef1671afbfd31b1c73a696c79ca8b9c4f6e375b44fdc9161f2d153f",
          "blockNumber": "0x7095dc",
          "transactionHash": "0xa06babeaf975a239a165656b404c32446ab2c3f2799d5c63bbb24e2cab5a420b",
          "transactionIndex": "0x47",
          "logIndex": "0x72",
          "removed": false
        }
      ],
      "logsBloom": "0x00000000400000800000000000400000200000000000000000000000010000000000000004002000000000400000000000000000000000000000000000040000000000000008020000000108200000000000000000041000000000000000000000000000020000000000000000000800000000000000000000000010000000000000000000000000000800000000000000000000000080000000000000000080000000000000000000000000000000002000000000000000000000000000008000000002000000000000000000100100000000000004400000000000000060000000000000000040200000004080000000000000000000000000000080000000",
      "type": "0x2",
      "transactionHash": "0xa06babeaf975a239a165656b404c32446ab2c3f2799d5c63bbb24e2cab5a420b",
      "transactionIndex": "0x47",
      "blockHash": "0x5d5b2e6afef1671afbfd31b1c73a696c79ca8b9c4f6e375b44fdc9161f2d153f",
      "blockNumber": "0x7095dc",
      "gasUsed": "0x38bfb",
      "effectiveGasPrice": "0x599868254",
      "from": "0x97ba7778dd9ce27bd4953c136f3b3b7b087e14c1",
      "to": "0x0fc315f110e8e6e4b23017cdf27c71c805fec7d0",
      "contractAddress": null
    },
    {
      "status": "0x1",
      "cumulativeGasUsed": "0x6b9992",
      "logs": [
        {
          "address": "0x5db9f4c9239345308614604e69258c0bba9b437f",
          "topics": [
            "0xddf252ad1be2c89b69c2b068fc378daa952ba7f163c4a11628f55a4df523b3ef",
            "0x00000000000000000000000097ba7778dd9ce27bd4953c136f3b3b7b087e14c1",
            "0x0000000000000000000000000149c0e900c6f441e9ef496a55a430d3ecc4626c"
          ],
          "data": "0x0000000000000000000000000000000000000000000000000de0b6b3a7640000",
          "blockHash": "0x5d5b2e6afef1671afbfd31b1c73a696c79ca8b9c4f6e375b44fdc9161f2d153f",
          "blockNumber": "0x7095dc",
          "transactionHash": "0x7f8bbbfb174adab490d7ac7096702e295f662018aab43f5d82c33b253e6034cb",
          "transactionIndex": "0x48",
          "logIndex": "0x73",
          "removed": false
        }
      ],
      "logsBloom": "0x00000000000000000000000000000000000000000020000000000000000000000000000004002000000200400000000000000000000000000000000000000000000000000008000000000008000000000000000000000000000000000000000000000000000000000000000000000000000000000000000000000010000000000000000000000000000000000000000000000000000000000000000000000000000000000000000000000000000000000000000000000000000000000000000000000002000000000000000000000000000000000400000000000000000000000000000000000000000000004000000000000000000000000000000080000000",
      "type": "0x2",
      "transactionHash": "0x7f8bbbfb174adab490d7ac7096702e295f662018aab43f5d82c33b253e6034cb",
      "transactionIndex": "0x48",
      "blockHash": "0x5d5b2e6afef1671afbfd31b1c73a696c79ca8b9c4f6e375b44fdc9161f2d153f",
      "blockNumber": "0x7095dc",
      "gasUsed": "0xc97b",
      "effectiveGasPrice": "0x599868254",
      "from": "0x97ba7778dd9ce27bd4953c136f3b3b7b087e14c1",
      "to": "0x5db9f4c9239345308614604e69258c0bba9b437f",
      "contractAddress": null
    },
    {
      "status": "0x1",
      "cumulativeGasUsed": "0x6c6dc6",
      "logs": [
        {
          "address": "0xb4615d8e576c01d73cc840c19413a3d388060ad3",
          "topics": [
            "0xddf252ad1be2c89b69c2b068fc378daa952ba7f163c4a11628f55a4df523b3ef",
            "0x00000000000000000000000097ba7778dd9ce27bd4953c136f3b3b7b087e14c1",
            "0x0000000000000000000000000149c0e900c6f441e9ef496a55a430d3ecc4626c"
          ],
          "data": "0x0000000000000000000000000000000000000000000000000de0b6b3a7640000",
          "blockHash": "0x5d5b2e6afef1671afbfd31b1c73a696c79ca8b9c4f6e375b44fdc9161f2d153f",
          "blockNumber": "0x7095dc",
          "transactionHash": "0x1a3b490c32dda840110c23a802c8abbc6b3c0c1c28f4aed115a819accd7d85a3",
          "transactionIndex": "0x49",
          "logIndex": "0x74",
          "removed": false
        }
      ],
      "logsBloom": "0x00000000000000000000000000000000000000000000000000000000000000000000000004002000000000400000000000000000000000000000000000000000000000000008000000000008000000000000000000000000000000000000000000000000000000000000000000000000000000000000000000000010000000000000000000000000000000008000000000000000000000000000000000000000000000000000000000000000000000000000000000000000000000000000000000000002000000000000000000000000000000000000000000000000000000000000000800000000000000004000000000000000000000000000000080000002",
      "type": "0x2",
      "transactionHash": "0x1a3b490c32dda840110c23a802c8abbc6b3c0c1c28f4aed115a819accd7d85a3",
      "transactionIndex": "0x49",
      "blockHash": "0x5d5b2e6afef1671afbfd31b1c73a696c79ca8b9c4f6e375b44fdc9161f2d153f",
      "blockNumber": "0x7095dc",
      "gasUsed": "0xd434",
      "effectiveGasPrice": "0x599868254",
      "from": "0x97ba7778dd9ce27bd4953c136f3b3b7b087e14c1",
      "to": "0xb4615d8e576c01d73cc840c19413a3d388060ad3",
      "contractAddress": null
    },
    {
      "status": "0x1",
      "cumulativeGasUsed": "0x6cd1dd",
      "logs": [
        {
          "address": "0x0149c0e900c6f441e9ef496a55a430d3ecc4626c",
          "topics": [
            "0x26399b60fa9117e91f9cf4e690f18a117d22841f62fb4ece7e7c799a97cb6a07",
            "0x000000000000000000000000000000000000000000000000000110d9316ec000",
            "0x000000000000000000000000000000000000000000000000000110d9316ec000",
            "0x00000000000000000000000097ba7778dd9ce27bd4953c136f3b3b7b087e14c1"
          ],
          "data": "0x",
          "blockHash": "0x5d5b2e6afef1671afbfd31b1c73a696c79ca8b9c4f6e375b44fdc9161f2d153f",
          "blockNumber": "0x7095dc",
          "transactionHash": "0x026b6f4975265b726c37ac131d5f6e705235e6c8ca141a77c9dff5abc3c55005",
          "transactionIndex": "0x4a",
          "logIndex": "0x75",
          "removed": false
        }
      ],
      "logsBloom": "0x00000000000000000000000000400000000000000000000000000000000000000000000004000000000000400000000000000000000001000000000000000000000000000000000000000000000000000000000000000000000008000000800000000000000000000000000000000000000000000000000000002000000000000000000000000000000040000000000000000000000000000000000000000000000004000000000000000000000000000000000000000000000000000000000000000000000000000000000000000100000000000000000000000000000000000000000000000000000000004080000000000000000000000000000000000000",
      "type": "0x2",
      "transactionHash": "0x026b6f4975265b726c37ac131d5f6e705235e6c8ca141a77c9dff5abc3c55005",
      "transactionIndex": "0x4a",
      "blockHash": "0x5d5b2e6afef1671afbfd31b1c73a696c79ca8b9c4f6e375b44fdc9161f2d153f",
      "blockNumber": "0x7095dc",
      "gasUsed": "0x6417",
      "effectiveGasPrice": "0x599868254",
      "from": "0x97ba7778dd9ce27bd4953c136f3b3b7b087e14c1",
      "to": "0x0149c0e900c6f441e9ef496a55a430d3ecc4626c",
      "contractAddress": null
    },
    {
      "status": "0x1",
      "cumulativeGasUsed": "0x70ad35",
      "logs": [
        {
          "address": "0x50a72ead39bac99012beba654dbd7d3132f44c44",
          "topics": [
            "0xddf252ad1be2c89b69c2b068fc378daa952ba7f163c4a11628f55a4df523b3ef",
            "0x0000000000000000000000000000000000000000000000000000000000000000",
            "0x00000000000000000000000097ba7778dd9ce27bd4953c136f3b3b7b087e14c1",
            "0x0000000000000000000000000000000000000000000000000000000000000001"
          ],
          "data": "0x",
          "blockHash": "0x5d5b2e6afef1671afbfd31b1c73a696c79ca8b9c4f6e375b44fdc9161f2d153f",
          "blockNumber": "0x7095dc",
          "transactionHash": "0xc482da0def5e6f5e2bb3e2cc972aa2bdf38702db28ea76bbe9ad7309dd058b93",
          "transactionIndex": "0x4b",
          "logIndex": "0x76",
          "removed": false
        },
        {
          "address": "0x50a72ead39bac99012beba654dbd7d3132f44c44",
          "topics": [
            "0xf8e1a15aba9398e019f0b49df1a4fde98ee17ae345cb5f6b5e2c27f5033e8ce7"
          ],
          "data": "0x0000000000000000000000000000000000000000000000000000000000000001",
          "blockHash": "0x5d5b2e6afef1671afbfd31b1c73a696c79ca8b9c4f6e375b44fdc9161f2d153f",
          "blockNumber": "0x7095dc",
          "transactionHash": "0xc482da0def5e6f5e2bb3e2cc972aa2bdf38702db28ea76bbe9ad7309dd058b93",
          "transactionIndex": "0x4b",
          "logIndex": "0x77",
          "removed": false
        },
        {
          "address": "0x50a72ead39bac99012beba654dbd7d3132f44c44",
          "topics": [
            "0xfa6883374d3785c826e28c69c68c1b6dd2178accc8623f49c6829a75487419b3",
            "0x00000000000000000000000097ba7778dd9ce27bd4953c136f3b3b7b087e14c1",
            "0x0000000000000000000000000000000000000000000000000000000000000001",
            "0x0000000000000000000000000000000000000000000000000000000000000000"
          ],
          "data": "0x00000000000000000000000000000000000000000000000000000000000000200000000000000000000000000000000000000000000000000000000000000000",
          "blockHash": "0x5d5b2e6afef1671afbfd31b1c73a696c79ca8b9c4f6e375b44fdc9161f2d153f",
          "blockNumber": "0x7095dc",
          "transactionHash": "0xc482da0def5e6f5e2bb3e2cc972aa2bdf38702db28ea76bbe9ad7309dd058b93",
          "transactionIndex": "0x4b",
          "logIndex": "0x78",
          "removed": false
        },
        {
          "address": "0x50a72ead39bac99012beba654dbd7d3132f44c44",
          "topics": [
            "0xc7f505b2f371ae2175ee4913f4499e1f2633a7b5936321eed1cdaeb6115181d2"
          ],
          "data": "0x0000000000000000000000000000000000000000000000000000000000000001",
          "blockHash": "0x5d5b2e6afef1671afbfd31b1c73a696c79ca8b9c4f6e375b44fdc9161f2d153f",
          "blockNumber": "0x7095dc",
          "transactionHash": "0xc482da0def5e6f5e2bb3e2cc972aa2bdf38702db28ea76bbe9ad7309dd058b93",
          "transactionIndex": "0x4b",
          "logIndex": "0x79",
          "removed": false
        },
        {
          "address": "0x7f3f876463e3f70634823be78f6f55e01720a068",
          "topics": [
            "0x8dc66cafb77b325538c856bfa5892b31ca7305adfa48f6a09e030e261cda0795",
            "0x00000000000000000000000050a72ead39bac99012beba654dbd7d3132f44c44",
            "0x000000000000000000000000bd69c7374cf9dac6b94b4386f56f58a4defbf72c"
          ],
          "data": "0x00000000000000000000000000000000000000000000000000000000000007d2",
          "blockHash": "0x5d5b2e6afef1671afbfd31b1c73a696c79ca8b9c4f6e375b44fdc9161f2d153f",
          "blockNumber": "0x7095dc",
          "transactionHash": "0xc482da0def5e6f5e2bb3e2cc972aa2bdf38702db28ea76bbe9ad7309dd058b93",
          "transactionIndex": "0x4b",
          "logIndex": "0x7a",
          "removed": false
        },
        {
          "address": "0x5db9f4c9239345308614604e69258c0bba9b437f",
          "topics": [
            "0xddf252ad1be2c89b69c2b068fc378daa952ba7f163c4a11628f55a4df523b3ef",
            "0x0000000000000000000000000149c0e900c6f441e9ef496a55a430d3ecc4626c",
            "0x00000000000000000000000050a72ead39bac99012beba654dbd7d3132f44c44"
          ],
          "data": "0x0000000000000000000000000000000000000000000000000000b5e620f48000",
          "blockHash": "0x5d5b2e6afef1671afbfd31b1c73a696c79ca8b9c4f6e375b44fdc9161f2d153f",
          "blockNumber": "0x7095dc",
          "transactionHash": "0xc482da0def5e6f5e2bb3e2cc972aa2bdf38702db28ea76bbe9ad7309dd058b93",
          "transactionIndex": "0x4b",
          "logIndex": "0x7b",
          "removed": false
        },
        {
          "address": "0x50a72ead39bac99012beba654dbd7d3132f44c44",
          "topics": [
            "0x26399b60fa9117e91f9cf4e690f18a117d22841f62fb4ece7e7c799a97cb6a07",
            "0x0000000000000000000000000000000000000000000000000000000000000010",
            "0x0000000000000000000000000000000000000000000000000000000000000010",
            "0x0000000000000000000000000149c0e900c6f441e9ef496a55a430d3ecc4626c"
          ],
          "data": "0x",
          "blockHash": "0x5d5b2e6afef1671afbfd31b1c73a696c79ca8b9c4f6e375b44fdc9161f2d153f",
          "blockNumber": "0x7095dc",
          "transactionHash": "0xc482da0def5e6f5e2bb3e2cc972aa2bdf38702db28ea76bbe9ad7309dd058b93",
          "transactionIndex": "0x4b",
          "logIndex": "0x7c",
          "removed": false
        },
        {
          "address": "0x0149c0e900c6f441e9ef496a55a430d3ecc4626c",
          "topics": [
            "0xc4784f333fb4f086174aa7cc56e2eb0850c39bbda8f955f72ee77d54b13a3dd9",
            "0x000000000000000000000000000000000000000000000000000110d9316ec000",
            "0x000000000000000000000000000000000000000000000000000110d9316ebff0",
            "0x0000000000000000000000000000000000000000000000000000000000000000"
          ],
          "data": "0x00000000000000000000000097ba7778dd9ce27bd4953c136f3b3b7b087e14c1",
          "blockHash": "0x5d5b2e6afef1671afbfd31b1c73a696c79ca8b9c4f6e375b44fdc9161f2d153f",
          "blockNumber": "0x7095dc",
          "transactionHash": "0xc482da0def5e6f5e2bb3e2cc972aa2bdf38702db28ea76bbe9ad7309dd058b93",
          "transactionIndex": "0x4b",
          "logIndex": "0x7d",
          "removed": false
        }
      ],
      "logsBloom": "0x00000000100000800000000000400000200000000020000000800000010000000000000004002000000200400000000000000000000801000000000000040000000000000028020100000108200000000000000000040080000008400000800000000000020000000000000000000800008000001000100000002010040000000000000000000000000840000000000001000100000080000000000000000080000004000000000000000000000000002001002000000000000000000000008000000002000000000000000000100100000000000404400000800000000060000000000000020002200000004080000000000000000000000000000080000000",
      "type": "0x2",
      "transactionHash": "0xc482da0def5e6f5e2bb3e2cc972aa2bdf38702db28ea76bbe9ad7309dd058b93",
      "transactionIndex": "0x4b",
      "blockHash": "0x5d5b2e6afef1671afbfd31b1c73a696c79ca8b9c4f6e375b44fdc9161f2d153f",
      "blockNumber": "0x7095dc",
      "gasUsed": "0x3db58",
      "effectiveGasPrice": "0x599868254",
      "from": "0x97ba7778dd9ce27bd4953c136f3b3b7b087e14c1",
      "to": "0x0149c0e900c6f441e9ef496a55a430d3ecc4626c",
      "contractAddress": null
    }
  ],
  "libraries": [],
  "pending": [],
  "returns": {},
  "timestamp": 1735468812,
  "chain": 11155111,
  "commit": "de192c4"
}