{
  "transactions": [
    {
      "hash": "0xac89b313267b56e5a838838c323c68abe15ded44288ee74c61c247519d551c66",
      "transactionType": "CALL",
      "contractName": "WNFTV2Envelop721",
      "contractAddress": "0xacf48aa264fc4b2b890f0b132049e09620ebb826",
      "function": "createWNFTonFactory((address,string,string,string,address[],bytes32[],uint256[],bytes))",
      "arguments": [
        "(0x97ba7778dD9CE27bD4953c136F3B3b7b087E14c1, Envelop V2 Smart Wallet, ENVELOPV2, https://api.envelop.is/wallet, [], [], [], 0x)"
      ],
      "transaction": {
        "from": "0x97ba7778dd9ce27bd4953c136f3b3b7b087e14c1",
        "to": "0xacf48aa264fc4b2b890f0b132049e09620ebb826",
        "gas": "0x4d3da",
        "value": "0x0",
        "input": "0x7c3cc707000000000000000000000000000000000000000000000000000000000000002000000000000000000000000097ba7778dd9ce27bd4953c136f3b3b7b087e14c100000000000000000000000000000000000000000000000000000000000001000000000000000000000000000000000000000000000000000000000000000140000000000000000000000000000000000000000000000000000000000000018000000000000000000000000000000000000000000000000000000000000001c000000000000000000000000000000000000000000000000000000000000001e0000000000000000000000000000000000000000000000000000000000000020000000000000000000000000000000000000000000000000000000000000002200000000000000000000000000000000000000000000000000000000000000017456e76656c6f7020563220536d6172742057616c6c65740000000000000000000000000000000000000000000000000000000000000000000000000000000009454e56454c4f5056320000000000000000000000000000000000000000000000000000000000000000000000000000000000000000000000000000000000001d68747470733a2f2f6170692e656e76656c6f702e69732f77616c6c65740000000000000000000000000000000000000000000000000000000000000000000000000000000000000000000000000000000000000000000000000000000000000000000000000000000000000000000000000000000000000000000000000000000000000000000000000000000000000000000000000000000000000000000000",
        "nonce": "0x2c",
        "chainId": "0xaa36a7"
      },
      "additionalContracts": [
        {
          "transactionType": "CREATE",
          "address": "0x60a18519f5c76eb806784dc781667a59085de569",
          "initCode": "0x3d602d80600a3d3981f3363d3d373d3d3d363d73acf48aa264fc4b2b890f0b132049e09620ebb8265af43d82803e903d91602b57fd5bf3"
        }
      ],
      "isFixedGasLimit": false
    },
    {
      "hash": "0x7b480621f061a950cb7199d4b5369512f81abbcac8c84b1c503fc56f57f3642f",
      "transactionType": "CALL",
      "contractName": null,
      "contractAddress": "0x5db9f4c9239345308614604e69258c0bba9b437f",
      "function": "transfer(address,uint256)",
      "arguments": [
        "0x60a18519F5c76eB806784Dc781667A59085DE569",
        "1000000000000000000"
      ],
      "transaction": {
        "from": "0x97ba7778dd9ce27bd4953c136f3b3b7b087e14c1",
        "to": "0x5db9f4c9239345308614604e69258c0bba9b437f",
        "gas": "0x1165b",
        "value": "0x0",
        "input": "0xa9059cbb00000000000000000000000060a18519f5c76eb806784dc781667a59085de5690000000000000000000000000000000000000000000000000de0b6b3a7640000",
        "nonce": "0x2d",
        "chainId": "0xaa36a7"
      },
      "additionalContracts": [],
      "isFixedGasLimit": false
    },
    {
      "hash": "0xae647d823bbdbaddafeefb8f5e867ff56a37f2ee806833b06b6deb97be53ceb3",
      "transactionType": "CALL",
      "contractName": "CustomERC20",
      "contractAddress": "0xb4615d8e576c01d73cc840c19413a3d388060ad3",
      "function": "transfer(address,uint256)",
      "arguments": [
        "0x60a18519F5c76eB806784Dc781667A59085DE569",
        "1000000000000000000"
      ],
      "transaction": {
        "from": "0x97ba7778dd9ce27bd4953c136f3b3b7b087e14c1",
        "to": "0xb4615d8e576c01d73cc840c19413a3d388060ad3",
        "gas": "0x1252b",
        "value": "0x0",
        "input": "0xa9059cbb00000000000000000000000060a18519f5c76eb806784dc781667a59085de5690000000000000000000000000000000000000000000000000de0b6b3a7640000",
        "nonce": "0x2e",
        "chainId": "0xaa36a7"
      },
      "additionalContracts": [],
      "isFixedGasLimit": false
    },
    {
      "hash": "0xb26931442ea0a99b005b285170e68eecfe4c3f207d4c4f7cb7ed17b2b38e9c29",
      "transactionType": "CALL",
      "contractName": null,
      "contractAddress": "0x60a18519f5c76eb806784dc781667a59085de569",
      "function": null,
      "arguments": null,
      "transaction": {
        "from": "0x97ba7778dd9ce27bd4953c136f3b3b7b087e14c1",
        "to": "0x60a18519f5c76eb806784dc781667a59085de569",
        "gas": "0x8a3d",
        "value": "0x110d9316ec000",
        "input": "0x",
        "nonce": "0x2f",
        "chainId": "0xaa36a7"
      },
      "additionalContracts": [],
      "isFixedGasLimit": false
    },
    {
      "hash": "0xad7fd8d318ca1bd51ab633a2bd5ee64ab96cc6c6f5cb840bf93042eeeccef5b5",
      "transactionType": "CALL",
      "contractName": null,
      "contractAddress": "0x60a18519f5c76eb806784dc781667a59085de569",
      "function": "executeEncodedTxBatch(address[],uint256[],bytes[])",
      "arguments": [
        "[0x36013ECf61dBA5EAB01E4551360600440107b70D, 0x5dB9f4C9239345308614604e69258C0bba9b437f, 0xAf3F91A363b444e30832786DcD50E61BC8348665]",
        "[0, 0, 16]",
        "[0xc56a27a0000000000000000000000000000000000000000000000000000000000000002000000000000000000000000097ba7778dd9ce27bd4953c136f3b3b7b087e14c10000000000000000000000000000000000000000000000000000000000000100000000000000000000000000000000000000000000000000000000000000012000000000000000000000000000000000000000000000000000000000000001400000000000000000000000000000000000000000000000000000000000000160000000000000000000000000000000000000000000000000000000000000018000000000000000000000000000000000000000000000000000000000000001a00000000000000000000000000000000000000000000000000000000000000200000000000000000000000000000000000000000000000000000000000000000000000000000000000000000000000000000000000000000000000000000000000000000000000000000000000000000000000000000000000000000000000000000000000000000000000000000000000000000000000000000000000000000000000000000000000000000000000000000000000000000000000000000000000000000000000000000000000000000000000000000000000000000000000002000000000000000000000000000000000000000000000000000000000000000000000000000000000000000000000000000000000000000000000000000000000000000000000000000000000000000000000000000000000000000000000000, 0xa9059cbb000000000000000000000000af3f91a363b444e30832786dcd50e61bc83486650000000000000000000000000000000000000000000000000000b5e620f48000, 0x]"
      ],
      "transaction": {
        "from": "0x97ba7778dd9ce27bd4953c136f3b3b7b087e14c1",
        "to": "0x60a18519f5c76eb806784dc781667a59085de569",
        "gas": "0x5dd70",
        "value": "0x0",
        "input": "0xd42053bc000000000000000000000000000000000000000000000000000000000000006000000000000000000000000000000000000000000000000000000000000000e00000000000000000000000000000000000000000000000000000000000000160000000000000000000000000000000000000000000000000000000000000000300000000000000000000000036013ecf61dba5eab01e4551360600440107b70d0000000000000000000000005db9f4c9239345308614604e69258c0bba9b437f000000000000000000000000af3f91a363b444e30832786dcd50e61bc834866500000000000000000000000000000000000000000000000000000000000000030000000000000000000000000000000000000000000000000000000000000000000000000000000000000000000000000000000000000000000000000000000000000000000000000000000000000000000000000000000000000000000000100000000000000000000000000000000000000000000000000000000000000003000000000000000000000000000000000000000000000000000000000000006000000000000000000000000000000000000000000000000000000000000002e000000000000000000000000000000000000000000000000000000000000003600000000000000000000000000000000000000000000000000000000000000244c56a27a0000000000000000000000000000000000000000000000000000000000000002000000000000000000000000097ba7778dd9ce27bd4953c136f3b3b7b087e14c10000000000000000000000000000000000000000000000000000000000000100000000000000000000000000000000000000000000000000000000000000012000000000000000000000000000000000000000000000000000000000000001400000000000000000000000000000000000000000000000000000000000000160000000000000000000000000000000000000000000000000000000000000018000000000000000000000000000000000000000000000000000000000000001a00000000000000000000000000000000000000000000000000000000000000200000000000000000000000000000000000000000000000000000000000000000000000000000000000000000000000000000000000000000000000000000000000000000000000000000000000000000000000000000000000000000000000000000000000000000000000000000000000000000000000000000000000000000000000000000000000000000000000000000000000000000000000000000000000000000000000000000000000000000000000000000000000000000000000002000000000000000000000000000000000000000000000000000000000000000000000000000000000000000000000000000000000000000000000000000000000000000000000000000000000000000000000000000000000000000000000000000000000000000000000000000000000000000000000000000000000000000000000000000000000000000000000000000000000000000000000044a9059cbb000000000000000000000000af3f91a363b444e30832786dcd50e61bc83486650000000000000000000000000000000000000000000000000000b5e620f48000000000000000000000000000000000000000000000000000000000000000000000000000000000000000000000000000000000000000000000000000",
        "nonce": "0x30",
        "chainId": "0xaa36a7"
      },
      "additionalContracts": [
        {
          "transactionType": "CREATE2",
          "address": "0xaf3f91a363b444e30832786dcd50e61bc8348665",
          "initCode": "0x3d602d80600a3d3981f3363d3d373d3d3d363d7336013ecf61dba5eab01e4551360600440107b70d5af43d82803e903d91602b57fd5bf3"
        }
      ],
      "isFixedGasLimit": false
    }
  ],
  "receipts": [
    {
      "status": "0x1",
      "cumulativeGasUsed": "0x11d203f",
      "logs": [
        {
          "address": "0x60a18519f5c76eb806784dc781667a59085de569",
          "topics": [
            "0xddf252ad1be2c89b69c2b068fc378daa952ba7f163c4a11628f55a4df523b3ef",
            "0x0000000000000000000000000000000000000000000000000000000000000000",
            "0x00000000000000000000000097ba7778dd9ce27bd4953c136f3b3b7b087e14c1",
            "0x0000000000000000000000000000000000000000000000000000000000000001"
          ],
          "data": "0x",
          "blockHash": "0x7babb540ff6268bbc63669c6fabf3d706f96e7309ed73310d73f9f865f21ff99",
          "blockNumber": "0x729d93",
          "transactionHash": "0xac89b313267b56e5a838838c323c68abe15ded44288ee74c61c247519d551c66",
          "transactionIndex": "0x8e",
          "logIndex": "0x107",
          "removed": false
        },
        {
          "address": "0x60a18519f5c76eb806784dc781667a59085de569",
          "topics": [
            "0xf8e1a15aba9398e019f0b49df1a4fde98ee17ae345cb5f6b5e2c27f5033e8ce7"
          ],
          "data": "0x0000000000000000000000000000000000000000000000000000000000000001",
          "blockHash": "0x7babb540ff6268bbc63669c6fabf3d706f96e7309ed73310d73f9f865f21ff99",
          "blockNumber": "0x729d93",
          "transactionHash": "0xac89b313267b56e5a838838c323c68abe15ded44288ee74c61c247519d551c66",
          "transactionIndex": "0x8e",
          "logIndex": "0x108",
          "removed": false
        },
        {
          "address": "0x60a18519f5c76eb806784dc781667a59085de569",
          "topics": [
            "0xfa6883374d3785c826e28c69c68c1b6dd2178accc8623f49c6829a75487419b3",
            "0x00000000000000000000000097ba7778dd9ce27bd4953c136f3b3b7b087e14c1",
            "0x0000000000000000000000000000000000000000000000000000000000000001",
            "0x0000000000000000000000000000000000000000000000000000000000000000"
          ],
          "data": "0x00000000000000000000000000000000000000000000000000000000000000200000000000000000000000000000000000000000000000000000000000000000",
          "blockHash": "0x7babb540ff6268bbc63669c6fabf3d706f96e7309ed73310d73f9f865f21ff99",
          "blockNumber": "0x729d93",
          "transactionHash": "0xac89b313267b56e5a838838c323c68abe15ded44288ee74c61c247519d551c66",
          "transactionIndex": "0x8e",
          "logIndex": "0x109",
          "removed": false
        },
        {
          "address": "0x60a18519f5c76eb806784dc781667a59085de569",
          "topics": [
            "0xc7f505b2f371ae2175ee4913f4499e1f2633a7b5936321eed1cdaeb6115181d2"
          ],
          "data": "0x0000000000000000000000000000000000000000000000000000000000000001",
          "blockHash": "0x7babb540ff6268bbc63669c6fabf3d706f96e7309ed73310d73f9f865f21ff99",
          "blockNumber": "0x729d93",
          "transactionHash": "0xac89b313267b56e5a838838c323c68abe15ded44288ee74c61c247519d551c66",
          "transactionIndex": "0x8e",
          "logIndex": "0x10a",
          "removed": false
        },
        {
          "address": "0xa9a9b9d76c5449dcb4ff1b74e023bf3f6f8a30cf",
          "topics": [
            "0x8dc66cafb77b325538c856bfa5892b31ca7305adfa48f6a09e030e261cda0795",
            "0x00000000000000000000000060a18519f5c76eb806784dc781667a59085de569",
            "0x000000000000000000000000acf48aa264fc4b2b890f0b132049e09620ebb826"
          ],
          "data": "0x00000000000000000000000000000000000000000000000000000000000007d2",
          "blockHash": "0x7babb540ff6268bbc63669c6fabf3d706f96e7309ed73310d73f9f865f21ff99",
          "blockNumber": "0x729d93",
          "transactionHash": "0xac89b313267b56e5a838838c323c68abe15ded44288ee74c61c247519d551c66",
          "transactionIndex": "0x8e",
          "logIndex": "0x10b",
          "removed": false
        }
      ],
      "logsBloom": "0x00000000000000800002000000000000000000000000000000000000000000000000000004000000000000400000000000000000000000000000000000040000000000000000020000000108000000000000000000040000000000000000001000000000020000000040000000000800000000005000000000000010000000000000000000000000000800000000000000000000000084000000000000000080000000000000000000000800000000002000000000000000000000000000008000000006000000000000000000100000000010000004400000000000000060000000000000000000201000004000000000000000002004000000000000000000",
      "type": "0x2",
      "transactionHash": "0xac89b313267b56e5a838838c323c68abe15ded44288ee74c61c247519d551c66",
      "transactionIndex": "0x8e",
      "blockHash": "0x7babb540ff6268bbc63669c6fabf3d706f96e7309ed73310d73f9f865f21ff99",
      "blockNumber": "0x729d93",
      "gasUsed": "0x37ebd",
      "effectiveGasPrice": "0x9bd40bec",
      "from": "0x97ba7778dd9ce27bd4953c136f3b3b7b087e14c1",
      "to": "0xacf48aa264fc4b2b890f0b132049e09620ebb826",
      "contractAddress": null
    },
    {
      "status": "0x1",
      "cumulativeGasUsed": "0x11de9c6",
      "logs": [
        {
          "address": "0x5db9f4c9239345308614604e69258c0bba9b437f",
          "topics": [
            "0xddf252ad1be2c89b69c2b068fc378daa952ba7f163c4a11628f55a4df523b3ef",
            "0x00000000000000000000000097ba7778dd9ce27bd4953c136f3b3b7b087e14c1",
            "0x00000000000000000000000060a18519f5c76eb806784dc781667a59085de569"
          ],
          "data": "0x0000000000000000000000000000000000000000000000000de0b6b3a7640000",
          "blockHash": "0x7babb540ff6268bbc63669c6fabf3d706f96e7309ed73310d73f9f865f21ff99",
          "blockNumber": "0x729d93",
          "transactionHash": "0x7b480621f061a950cb7199d4b5369512f81abbcac8c84b1c503fc56f57f3642f",
          "transactionIndex": "0x8f",
          "logIndex": "0x10c",
          "removed": false
        }
      ],
      "logsBloom": "0x00000000000000000000000000000000000000000020000000000000000000000000000004000000000200400000000000000000000000000000000000000000000000000000000000000008000000000000000000000000000000000000000000000000000000000040000000000000000000005000000000000010000000000000000000000000000000000000000000000000000000000000000000000000000000000000000000000000000000000000000000000000000000000000000000000002000000000000000000000000000000000400000000000000000000000000000000000000000000004000000000000000000000000000000000000000",
      "type": "0x2",
      "transactionHash": "0x7b480621f061a950cb7199d4b5369512f81abbcac8c84b1c503fc56f57f3642f",
      "transactionIndex": "0x8f",
      "blockHash": "0x7babb540ff6268bbc63669c6fabf3d706f96e7309ed73310d73f9f865f21ff99",
      "blockNumber": "0x729d93",
      "gasUsed": "0xc987",
      "effectiveGasPrice": "0x9bd40bec",
      "from": "0x97ba7778dd9ce27bd4953c136f3b3b7b087e14c1",
      "to": "0x5db9f4c9239345308614604e69258c0bba9b437f",
      "contractAddress": null
    },
    {
      "status": "0x1",
      "cumulativeGasUsed": "0x11ebe06",
      "logs": [
        {
          "address": "0xb4615d8e576c01d73cc840c19413a3d388060ad3",
          "topics": [
            "0xddf252ad1be2c89b69c2b068fc378daa952ba7f163c4a11628f55a4df523b3ef",
            "0x00000000000000000000000097ba7778dd9ce27bd4953c136f3b3b7b087e14c1",
            "0x00000000000000000000000060a18519f5c76eb806784dc781667a59085de569"
          ],
          "data": "0x0000000000000000000000000000000000000000000000000de0b6b3a7640000",
          "blockHash": "0x7babb540ff6268bbc63669c6fabf3d706f96e7309ed73310d73f9f865f21ff99",
          "blockNumber": "0x729d93",
          "transactionHash": "0xae647d823bbdbaddafeefb8f5e867ff56a37f2ee806833b06b6deb97be53ceb3",
          "transactionIndex": "0x90",
          "logIndex": "0x10d",
          "removed": false
        }
      ],
      "logsBloom": "0x00000000000000000000000000000000000000000000000000000000000000000000000004000000000000400000000000000000000000000000000000000000000000000000000000000008000000000000000000000000000000000000000000000000000000000040000000000000000000005000000000000010000000000000000000000000000000008000000000000000000000000000000000000000000000000000000000000000000000000000000000000000000000000000000000000002000000000000000000000000000000000000000000000000000000000000000800000000000000004000000000000000000000000000000000000002",
      "type": "0x2",
      "transactionHash": "0xae647d823bbdbaddafeefb8f5e867ff56a37f2ee806833b06b6deb97be53ceb3",
      "transactionIndex": "0x90",
      "blockHash": "0x7babb540ff6268bbc63669c6fabf3d706f96e7309ed73310d73f9f865f21ff99",
      "blockNumber": "0x729d93",
      "gasUsed": "0xd440",
      "effectiveGasPrice": "0x9bd40bec",
      "from": "0x97ba7778dd9ce27bd4953c136f3b3b7b087e14c1",
      "to": "0xb4615d8e576c01d73cc840c19413a3d388060ad3",
      "contractAddress": null
    },
    {
      "status": "0x1",
      "cumulativeGasUsed": "0x11f221c",
      "logs": [
        {
          "address": "0x60a18519f5c76eb806784dc781667a59085de569",
          "topics": [
            "0x26399b60fa9117e91f9cf4e690f18a117d22841f62fb4ece7e7c799a97cb6a07",
            "0x000000000000000000000000000000000000000000000000000110d9316ec000",
            "0x000000000000000000000000000000000000000000000000000110d9316ec000",
            "0x00000000000000000000000097ba7778dd9ce27bd4953c136f3b3b7b087e14c1"
          ],
          "data": "0x",
          "blockHash": "0x7babb540ff6268bbc63669c6fabf3d706f96e7309ed73310d73f9f865f21ff99",
          "blockNumber": "0x729d93",
          "transactionHash": "0xb26931442ea0a99b005b285170e68eecfe4c3f207d4c4f7cb7ed17b2b38e9c29",
          "transactionIndex": "0x91",
          "logIndex": "0x10e",
          "removed": false
        }
      ],
      "logsBloom": "0x00000000000000000000000000000000000000000000000000000000000000000000000004000000000000400000000000000000000001000000000000000000000000000000000000000000000000000000000000000000000008000000801000000000000000000000000000000000000000000000000000002000000000000000000000000000000040000000000000000000000000000000000000000000000004000000000000000000000000000000000000000000000000000000000000000000000000000000000000000000000010000000000000000000000000000000000000000000000000004000000000000000002000000000000000000000",
      "type": "0x2",
      "transactionHash": "0xb26931442ea0a99b005b285170e68eecfe4c3f207d4c4f7cb7ed17b2b38e9c29",
      "transactionIndex": "0x91",
      "blockHash": "0x7babb540ff6268bbc63669c6fabf3d706f96e7309ed73310d73f9f865f21ff99",
      "blockNumber": "0x729d93",
      "gasUsed": "0x6416",
      "effectiveGasPrice": "0x9bd40bec",
      "from": "0x97ba7778dd9ce27bd4953c136f3b3b7b087e14c1",
      "to": "0x60a18519f5c76eb806784dc781667a59085de569",
      "contractAddress": null
    },
    {
      "status": "0x1",
      "cumulativeGasUsed": "0x1236120",
      "logs": [
        {
          "address": "0xaf3f91a363b444e30832786dcd50e61bc8348665",
          "topics": [
            "0xddf252ad1be2c89b69c2b068fc378daa952ba7f163c4a11628f55a4df523b3ef",
            "0x0000000000000000000000000000000000000000000000000000000000000000",
            "0x00000000000000000000000097ba7778dd9ce27bd4953c136f3b3b7b087e14c1",
            "0x0000000000000000000000000000000000000000000000000000000000000001"
          ],
          "data": "0x",
          "blockHash": "0x7babb540ff6268bbc63669c6fabf3d706f96e7309ed73310d73f9f865f21ff99",
          "blockNumber": "0x729d93",
          "transactionHash": "0xad7fd8d318ca1bd51ab633a2bd5ee64ab96cc6c6f5cb840bf93042eeeccef5b5",
          "transactionIndex": "0x92",
          "logIndex": "0x10f",
          "removed": false
        },
        {
          "address": "0xaf3f91a363b444e30832786dcd50e61bc8348665",
          "topics": [
            "0xf8e1a15aba9398e019f0b49df1a4fde98ee17ae345cb5f6b5e2c27f5033e8ce7"
          ],
          "data": "0x0000000000000000000000000000000000000000000000000000000000000001",
          "blockHash": "0x7babb540ff6268bbc63669c6fabf3d706f96e7309ed73310d73f9f865f21ff99",
          "blockNumber": "0x729d93",
          "transactionHash": "0xad7fd8d318ca1bd51ab633a2bd5ee64ab96cc6c6f5cb840bf93042eeeccef5b5",
          "transactionIndex": "0x92",
          "logIndex": "0x110",
          "removed": false
        },
        {
          "address": "0xaf3f91a363b444e30832786dcd50e61bc8348665",
          "topics": [
            "0xfa6883374d3785c826e28c69c68c1b6dd2178accc8623f49c6829a75487419b3",
            "0x00000000000000000000000097ba7778dd9ce27bd4953c136f3b3b7b087e14c1",
            "0x0000000000000000000000000000000000000000000000000000000000000001",
            "0x0000000000000000000000000000000000000000000000000000000000000000"
          ],
          "data": "0x000000000000000000000000000000000000000000000000000000000000002000000000000000000000000000000000000000000000000000000000000000a00000000000000000000000000000000000000000000000000000000000000020000000000000000000000000000000000000000000000000000000000000004000000000000000000000000000000000000000000000000000000000000000000000000000000000000000000000000000000000000000000000000000000005322e302e31000000000000000000000000000000000000000000000000000000",
          "blockHash": "0x7babb540ff6268bbc63669c6fabf3d706f96e7309ed73310d73f9f865f21ff99",
          "blockNumber": "0x729d93",
          "transactionHash": "0xad7fd8d318ca1bd51ab633a2bd5ee64ab96cc6c6f5cb840bf93042eeeccef5b5",
          "transactionIndex": "0x92",
          "logIndex": "0x111",
          "removed": false
        },
        {
          "address": "0xaf3f91a363b444e30832786dcd50e61bc8348665",
          "topics": [
            "0xc7f505b2f371ae2175ee4913f4499e1f2633a7b5936321eed1cdaeb6115181d2"
          ],
          "data": "0x0000000000000000000000000000000000000000000000000000000000000001",
          "blockHash": "0x7babb540ff6268bbc63669c6fabf3d706f96e7309ed73310d73f9f865f21ff99",
          "blockNumber": "0x729d93",
          "transactionHash": "0xad7fd8d318ca1bd51ab633a2bd5ee64ab96cc6c6f5cb840bf93042eeeccef5b5",
          "transactionIndex": "0x92",
          "logIndex": "0x112",
          "removed": false
        },
        {
          "address": "0xa9a9b9d76c5449dcb4ff1b74e023bf3f6f8a30cf",
          "topics": [
            "0x8dc66cafb77b325538c856bfa5892b31ca7305adfa48f6a09e030e261cda0795",
            "0x000000000000000000000000af3f91a363b444e30832786dcd50e61bc8348665",
            "0x00000000000000000000000036013ecf61dba5eab01e4551360600440107b70d"
          ],
          "data": "0x00000000000000000000000000000000000000000000000000000000000007d2",
          "blockHash": "0x7babb540ff6268bbc63669c6fabf3d706f96e7309ed73310d73f9f865f21ff99",
          "blockNumber": "0x729d93",
          "transactionHash": "0xad7fd8d318ca1bd51ab633a2bd5ee64ab96cc6c6f5cb840bf93042eeeccef5b5",
          "transactionIndex": "0x92",
          "logIndex": "0x113",
          "removed": false
        },
        {
          "address": "0x5db9f4c9239345308614604e69258c0bba9b437f",
          "topics": [
            "0xddf252ad1be2c89b69c2b068fc378daa952ba7f163c4a11628f55a4df523b3ef",
            "0x00000000000000000000000060a18519f5c76eb806784dc781667a59085de569",
            "0x000000000000000000000000af3f91a363b444e30832786dcd50e61bc8348665"
          ],
          "data": "0x0000000000000000000000000000000000000000000000000000b5e620f48000",
          "blockHash": "0x7babb540ff6268bbc63669c6fabf3d706f96e7309ed73310d73f9f865f21ff99",
          "blockNumber": "0x729d93",
          "transactionHash": "0xad7fd8d318ca1bd51ab633a2bd5ee64ab96cc6c6f5cb840bf93042eeeccef5b5",
          "transactionIndex": "0x92",
          "logIndex": "0x114",
          "removed": false
        },
        {
          "address": "0xaf3f91a363b444e30832786dcd50e61bc8348665",
          "topics": [
            "0x26399b60fa9117e91f9cf4e690f18a117d22841f62fb4ece7e7c799a97cb6a07",
            "0x0000000000000000000000000000000000000000000000000000000000000010",
            "0x0000000000000000000000000000000000000000000000000000000000000010",
            "0x00000000000000000000000060a18519f5c76eb806784dc781667a59085de569"
          ],
          "data": "0x",
          "blockHash": "0x7babb540ff6268bbc63669c6fabf3d706f96e7309ed73310d73f9f865f21ff99",
          "blockNumber": "0x729d93",
          "transactionHash": "0xad7fd8d318ca1bd51ab633a2bd5ee64ab96cc6c6f5cb840bf93042eeeccef5b5",
          "transactionIndex": "0x92",
          "logIndex": "0x115",
          "removed": false
        },
        {
          "address": "0x60a18519f5c76eb806784dc781667a59085de569",
          "topics": [
            "0xc4784f333fb4f086174aa7cc56e2eb0850c39bbda8f955f72ee77d54b13a3dd9",
            "0x000000000000000000000000000000000000000000000000000110d9316ec000",
            "0x000000000000000000000000000000000000000000000000000110d9316ebff0",
            "0x0000000000000000000000000000000000000000000000000000000000000000"
          ],
          "data": "0x00000000000000000000000097ba7778dd9ce27bd4953c136f3b3b7b087e14c1",
          "blockHash": "0x7babb540ff6268bbc63669c6fabf3d706f96e7309ed73310d73f9f865f21ff99",
          "blockNumber": "0x729d93",
          "transactionHash": "0xad7fd8d318ca1bd51ab633a2bd5ee64ab96cc6c6f5cb840bf93042eeeccef5b5",
          "transactionIndex": "0x92",
          "logIndex": "0x116",
          "removed": false
        }
      ],
      "logsBloom": "0x00000000140000c00002000000000000000000000020000000000000000000000010000004000000000200400000000000000000000001000000000000040400000000000020020000800108000000000000000000040000000008400000801000000000020000000040000000001800000000005000000000002010040000000000000000000000000840000000000000000100000084000000000000000080000004000000000000000000000000002001002000000000000000000000008000000002000000000000000004100000000010000404400000000000000060000000000000000002200000004000000000000100002004080000000000000000",
      "type": "0x2",
      "transactionHash": "0xad7fd8d318ca1bd51ab633a2bd5ee64ab96cc6c6f5cb840bf93042eeeccef5b5",
      "transactionIndex": "0x92",
      "blockHash": "0x7babb540ff6268bbc63669c6fabf3d706f96e7309ed73310d73f9f865f21ff99",
      "blockNumber": "0x729d93",
      "gasUsed": "0x43f04",
      "effectiveGasPrice": "0x9bd40bec",
      "from": "0x97ba7778dd9ce27bd4953c136f3b3b7b087e14c1",
      "to": "0x60a18519f5c76eb806784dc781667a59085de569",
      "contractAddress": null
    }
  ],
  "libraries": [],
  "pending": [],
  "returns": {},
  "timestamp": 1737120098,
  "chain": 11155111,
  "commit": "819466d"
}