{
  "transactions": [
    {
      "hash": "0x35d95aa67893b0e2727920edd69b169528262adef31cd1d0deeacdfdc0785aef",
      "transactionType": "CALL",
      "contractName": "WNFTV2Envelop721",
      "contractAddress": "0xacf48aa264fc4b2b890f0b132049e09620ebb826",
      "function": "createWNFTonFactory((address,string,string,string,address[],bytes32[],uint256[],bytes))",
      "arguments": [
        "(0x97ba7778dD9CE27bD4953c136F3B3b7b087E14c1, Envelop V2 Smart Wallet, ENVELOPV2, https://api.envelop.is/wallet, [], [], [], 0x)"
      ],
      "transaction": {
        "from": "0x97ba7778dd9ce27bd4953c136f3b3b7b087e14c1",
        "to": "0xacf48aa264fc4b2b890f0b132049e09620ebb826",
        "gas": "0x4d3da",
        "value": "0x0",
        "input": "0x7c3cc707000000000000000000000000000000000000000000000000000000000000002000000000000000000000000097ba7778dd9ce27bd4953c136f3b3b7b087e14c100000000000000000000000000000000000000000000000000000000000001000000000000000000000000000000000000000000000000000000000000000140000000000000000000000000000000000000000000000000000000000000018000000000000000000000000000000000000000000000000000000000000001c000000000000000000000000000000000000000000000000000000000000001e0000000000000000000000000000000000000000000000000000000000000020000000000000000000000000000000000000000000000000000000000000002200000000000000000000000000000000000000000000000000000000000000017456e76656c6f7020563220536d6172742057616c6c65740000000000000000000000000000000000000000000000000000000000000000000000000000000009454e56454c4f5056320000000000000000000000000000000000000000000000000000000000000000000000000000000000000000000000000000000000001d68747470733a2f2f6170692e656e76656c6f702e69732f77616c6c65740000000000000000000000000000000000000000000000000000000000000000000000000000000000000000000000000000000000000000000000000000000000000000000000000000000000000000000000000000000000000000000000000000000000000000000000000000000000000000000000000000000000000000000000",
        "nonce": "0x32",
        "chainId": "0xaa36a7"
      },
      "additionalContracts": [
        {
          "transactionType": "CREATE",
          "address": "0x87f5582f5e0f6a62e0c96b7f0600bc1c90fd1ccf",
          "initCode": "0x3d602d80600a3d3981f3363d3d373d3d3d363d73acf48aa264fc4b2b890f0b132049e09620ebb8265af43d82803e903d91602b57fd5bf3"
        }
      ],
      "isFixedGasLimit": false
    },
    {
      "hash": "0xa32aaa13380a8e2ee0c5de764a430bff220839d098fa778961b71f3ba4499e93",
      "transactionType": "CALL",
      "contractName": null,
      "contractAddress": "0x5db9f4c9239345308614604e69258c0bba9b437f",
      "function": "transfer(address,uint256)",
      "arguments": [
        "0x87f5582F5E0F6a62E0C96b7f0600bC1c90Fd1ccF",
        "1000000000000000000"
      ],
      "transaction": {
        "from": "0x97ba7778dd9ce27bd4953c136f3b3b7b087e14c1",
        "to": "0x5db9f4c9239345308614604e69258c0bba9b437f",
        "gas": "0x126a9",
        "value": "0x0",
        "input": "0xa9059cbb00000000000000000000000087f5582f5e0f6a62e0c96b7f0600bc1c90fd1ccf0000000000000000000000000000000000000000000000000de0b6b3a7640000",
        "nonce": "0x33",
        "chainId": "0xaa36a7"
      },
      "additionalContracts": [],
      "isFixedGasLimit": false
    },
    {
      "hash": "0xc01c8ec7f31a95d4eda697cfc55d4457b0a1a2f42f02433548005cb2eba19b8f",
      "transactionType": "CALL",
      "contractName": null,
      "contractAddress": "0xb4615d8e576c01d73cc840c19413a3d388060ad3",
      "function": "transfer(address,uint256)",
      "arguments": [
        "0x87f5582F5E0F6a62E0C96b7f0600bC1c90Fd1ccF",
        "1000000000000000000"
      ],
      "transaction": {
        "from": "0x97ba7778dd9ce27bd4953c136f3b3b7b087e14c1",
        "to": "0xb4615d8e576c01d73cc840c19413a3d388060ad3",
        "gas": "0x1251a",
        "value": "0x0",
        "input": "0xa9059cbb00000000000000000000000087f5582f5e0f6a62e0c96b7f0600bc1c90fd1ccf0000000000000000000000000000000000000000000000000de0b6b3a7640000",
        "nonce": "0x34",
        "chainId": "0xaa36a7"
      },
      "additionalContracts": [],
      "isFixedGasLimit": false
    },
    {
      "hash": "0xa48b48e328f1faa348247808c4b7371c291b3ae4f41b38139570571c97165937",
      "transactionType": "CALL",
      "contractName": null,
      "contractAddress": "0x87f5582f5e0f6a62e0c96b7f0600bc1c90fd1ccf",
      "function": null,
      "arguments": null,
      "transaction": {
        "from": "0x97ba7778dd9ce27bd4953c136f3b3b7b087e14c1",
        "to": "0x87f5582f5e0f6a62e0c96b7f0600bc1c90fd1ccf",
        "gas": "0x8a3d",
        "value": "0x110d9316ec000",
        "input": "0x",
        "nonce": "0x35",
        "chainId": "0xaa36a7"
      },
      "additionalContracts": [],
      "isFixedGasLimit": false
    },
    {
      "hash": "0x03950bffbe976b1879e6cea7967bb8416b3f908eb36af0fb0348515ff65904a9",
      "transactionType": "CALL",
      "contractName": null,
      "contractAddress": "0x87f5582f5e0f6a62e0c96b7f0600bc1c90fd1ccf",
      "function": "executeEncodedTxBatch(address[],uint256[],bytes[])",
      "arguments": [
        "[0x36013ECf61dBA5EAB01E4551360600440107b70D, 0x5dB9f4C9239345308614604e69258C0bba9b437f, 0x168100d505e5F12d55514eb142D21745b1dEFAFe]",
        "[0, 0, 16]",
        "[0xc56a27a0000000000000000000000000000000000000000000000000000000000000002000000000000000000000000097ba7778dd9ce27bd4953c136f3b3b7b087e14c10000000000000000000000000000000000000000000000000000000000000100000000000000000000000000000000000000000000000000000000000000012000000000000000000000000000000000000000000000000000000000000001400000000000000000000000000000000000000000000000000000000000000160000000000000000000000000000000000000000000000000000000000000018000000000000000000000000000000000000000000000000000000000000001a00000000000000000000000000000000000000000000000000000000000000200000000000000000000000000000000000000000000000000000000000000000000000000000000000000000000000000000000000000000000000000000000000000000000000000000000000000000000000000000000000000000000000000000000000000000000000000000000000000000000000000000000000000000000000000000000000000000000000000000000000000000000000000000000000000000000000000000000000000000000000000000000000000000000000002000000000000000000000000000000000000000000000000000000000000000000000000000000000000000000000000000000000000000000000000000000000000000000000000000000000000000000000000000000000000000000000000, 0xa9059cbb000000000000000000000000168100d505e5f12d55514eb142d21745b1defafe0000000000000000000000000000000000000000000000000000b5e620f48000, 0x]"
      ],
      "transaction": {
        "from": "0x97ba7778dd9ce27bd4953c136f3b3b7b087e14c1",
        "to": "0x87f5582f5e0f6a62e0c96b7f0600bc1c90fd1ccf",
        "gas": "0x5810c",
        "value": "0x0",
        "input": "0xd42053bc000000000000000000000000000000000000000000000000000000000000006000000000000000000000000000000000000000000000000000000000000000e00000000000000000000000000000000000000000000000000000000000000160000000000000000000000000000000000000000000000000000000000000000300000000000000000000000036013ecf61dba5eab01e4551360600440107b70d0000000000000000000000005db9f4c9239345308614604e69258c0bba9b437f000000000000000000000000168100d505e5f12d55514eb142d21745b1defafe00000000000000000000000000000000000000000000000000000000000000030000000000000000000000000000000000000000000000000000000000000000000000000000000000000000000000000000000000000000000000000000000000000000000000000000000000000000000000000000000000000000000000100000000000000000000000000000000000000000000000000000000000000003000000000000000000000000000000000000000000000000000000000000006000000000000000000000000000000000000000000000000000000000000002e000000000000000000000000000000000000000000000000000000000000003600000000000000000000000000000000000000000000000000000000000000244c56a27a0000000000000000000000000000000000000000000000000000000000000002000000000000000000000000097ba7778dd9ce27bd4953c136f3b3b7b087e14c10000000000000000000000000000000000000000000000000000000000000100000000000000000000000000000000000000000000000000000000000000012000000000000000000000000000000000000000000000000000000000000001400000000000000000000000000000000000000000000000000000000000000160000000000000000000000000000000000000000000000000000000000000018000000000000000000000000000000000000000000000000000000000000001a00000000000000000000000000000000000000000000000000000000000000200000000000000000000000000000000000000000000000000000000000000000000000000000000000000000000000000000000000000000000000000000000000000000000000000000000000000000000000000000000000000000000000000000000000000000000000000000000000000000000000000000000000000000000000000000000000000000000000000000000000000000000000000000000000000000000000000000000000000000000000000000000000000000000000002000000000000000000000000000000000000000000000000000000000000000000000000000000000000000000000000000000000000000000000000000000000000000000000000000000000000000000000000000000000000000000000000000000000000000000000000000000000000000000000000000000000000000000000000000000000000000000000000000000000000000000000044a9059cbb000000000000000000000000168100d505e5f12d55514eb142d21745b1defafe0000000000000000000000000000000000000000000000000000b5e620f48000000000000000000000000000000000000000000000000000000000000000000000000000000000000000000000000000000000000000000000000000",
        "nonce": "0x36",
        "chainId": "0xaa36a7"
      },
      "additionalContracts": [
        {
          "transactionType": "CREATE2",
          "address": "0x168100d505e5f12d55514eb142d21745b1defafe",
          "initCode": "0x3d602d80600a3d3981f3363d3d373d3d3d363d7336013ecf61dba5eab01e4551360600440107b70d5af43d82803e903d91602b57fd5bf3"
        }
      ],
      "isFixedGasLimit": false
    }
  ],
  "receipts": [
    {
      "status": "0x1",
      "cumulativeGasUsed": "0xa75e2b",
      "logs": [
        {
          "address": "0x87f5582f5e0f6a62e0c96b7f0600bc1c90fd1ccf",
          "topics": [
            "0xddf252ad1be2c89b69c2b068fc378daa952ba7f163c4a11628f55a4df523b3ef",
            "0x0000000000000000000000000000000000000000000000000000000000000000",
            "0x00000000000000000000000097ba7778dd9ce27bd4953c136f3b3b7b087e14c1",
            "0x0000000000000000000000000000000000000000000000000000000000000001"
          ],
          "data": "0x",
          "blockHash": "0xfc47398a3aba356ea27df22e593f18fef62471b2e03c759ee6955097e2f49bda",
          "blockNumber": "0x73aa27",
          "transactionHash": "0x35d95aa67893b0e2727920edd69b169528262adef31cd1d0deeacdfdc0785aef",
          "transactionIndex": "0x71",
          "logIndex": "0xc6",
          "removed": false
        },
        {
          "address": "0x87f5582f5e0f6a62e0c96b7f0600bc1c90fd1ccf",
          "topics": [
            "0xf8e1a15aba9398e019f0b49df1a4fde98ee17ae345cb5f6b5e2c27f5033e8ce7"
          ],
          "data": "0x0000000000000000000000000000000000000000000000000000000000000001",
          "blockHash": "0xfc47398a3aba356ea27df22e593f18fef62471b2e03c759ee6955097e2f49bda",
          "blockNumber": "0x73aa27",
          "transactionHash": "0x35d95aa67893b0e2727920edd69b169528262adef31cd1d0deeacdfdc0785aef",
          "transactionIndex": "0x71",
          "logIndex": "0xc7",
          "removed": false
        },
        {
          "address": "0x87f5582f5e0f6a62e0c96b7f0600bc1c90fd1ccf",
          "topics": [
            "0xfa6883374d3785c826e28c69c68c1b6dd2178accc8623f49c6829a75487419b3",
            "0x00000000000000000000000097ba7778dd9ce27bd4953c136f3b3b7b087e14c1",
            "0x0000000000000000000000000000000000000000000000000000000000000001",
            "0x0000000000000000000000000000000000000000000000000000000000000000"
          ],
          "data": "0x00000000000000000000000000000000000000000000000000000000000000200000000000000000000000000000000000000000000000000000000000000000",
          "blockHash": "0xfc47398a3aba356ea27df22e593f18fef62471b2e03c759ee6955097e2f49bda",
          "blockNumber": "0x73aa27",
          "transactionHash": "0x35d95aa67893b0e2727920edd69b169528262adef31cd1d0deeacdfdc0785aef",
          "transactionIndex": "0x71",
          "logIndex": "0xc8",
          "removed": false
        },
        {
          "address": "0x87f5582f5e0f6a62e0c96b7f0600bc1c90fd1ccf",
          "topics": [
            "0xc7f505b2f371ae2175ee4913f4499e1f2633a7b5936321eed1cdaeb6115181d2"
          ],
          "data": "0x0000000000000000000000000000000000000000000000000000000000000001",
          "blockHash": "0xfc47398a3aba356ea27df22e593f18fef62471b2e03c759ee6955097e2f49bda",
          "blockNumber": "0x73aa27",
          "transactionHash": "0x35d95aa67893b0e2727920edd69b169528262adef31cd1d0deeacdfdc0785aef",
          "transactionIndex": "0x71",
          "logIndex": "0xc9",
          "removed": false
        },
        {
          "address": "0xa9a9b9d76c5449dcb4ff1b74e023bf3f6f8a30cf",
          "topics": [
            "0x8dc66cafb77b325538c856bfa5892b31ca7305adfa48f6a09e030e261cda0795",
            "0x00000000000000000000000087f5582f5e0f6a62e0c96b7f0600bc1c90fd1ccf",
            "0x000000000000000000000000acf48aa264fc4b2b890f0b132049e09620ebb826"
          ],
          "data": "0x00000000000000000000000000000000000000000000000000000000000007d2",
          "blockHash": "0xfc47398a3aba356ea27df22e593f18fef62471b2e03c759ee6955097e2f49bda",
          "blockNumber": "0x73aa27",
          "transactionHash": "0x35d95aa67893b0e2727920edd69b169528262adef31cd1d0deeacdfdc0785aef",
          "transactionIndex": "0x71",
          "logIndex": "0xca",
          "removed": false
        }
      ],
      "logsBloom": "0x00000000000000800002000000000000000000000000000020000000000000000000000004000000000000400000000000000000010000000000000000040000000000000000020000000108000000000000000000040000000000000000000000000000020100000000000000000800000000000000004000000010000000000000000000000000000800000000000000000000000084000000000000000080000000000000020000000800000000802000000000000000000000000000008000000006000000000000000000100000000000000004400000000000000060000000000000000000201000004000000000000000000004000000000000000000",
      "type": "0x2",
      "transactionHash": "0x35d95aa67893b0e2727920edd69b169528262adef31cd1d0deeacdfdc0785aef",
      "transactionIndex": "0x71",
      "blockHash": "0xfc47398a3aba356ea27df22e593f18fef62471b2e03c759ee6955097e2f49bda",
      "blockNumber": "0x73aa27",
      "gasUsed": "0x37ebd",
      "effectiveGasPrice": "0x8eecb78f",
      "from": "0x97ba7778dd9ce27bd4953c136f3b3b7b087e14c1",
      "to": "0xacf48aa264fc4b2b890f0b132049e09620ebb826",
      "contractAddress": null
    },
    {
      "status": "0x1",
      "cumulativeGasUsed": "0xa827a6",
      "logs": [
        {
          "address": "0x5db9f4c9239345308614604e69258c0bba9b437f",
          "topics": [
            "0xddf252ad1be2c89b69c2b068fc378daa952ba7f163c4a11628f55a4df523b3ef",
            "0x00000000000000000000000097ba7778dd9ce27bd4953c136f3b3b7b087e14c1",
            "0x00000000000000000000000087f5582f5e0f6a62e0c96b7f0600bc1c90fd1ccf"
          ],
          "data": "0x0000000000000000000000000000000000000000000000000de0b6b3a7640000",
          "blockHash": "0xfc47398a3aba356ea27df22e593f18fef62471b2e03c759ee6955097e2f49bda",
          "blockNumber": "0x73aa27",
          "transactionHash": "0xa32aaa13380a8e2ee0c5de764a430bff220839d098fa778961b71f3ba4499e93",
          "transactionIndex": "0x72",
          "logIndex": "0xcb",
          "removed": false
        }
      ],
      "logsBloom": "0x00000000000000000000000000000000000000000020000000000000000000000000000004000000000200400000000000000000010000000000000000000000000000000000000000000008000000000000000000000000000000000000000000000000000000000000000000000000000000000000004000000010000000000000000000000000000000000000000000000000000000000000000000000000000000000000020000000000000000000000000000000000000000000000000000000002000000000000000000000000000000000400000000000000000000000000000000000000000000004000000000000000000000000000000000000000",
      "type": "0x2",
      "transactionHash": "0xa32aaa13380a8e2ee0c5de764a430bff220839d098fa778961b71f3ba4499e93",
      "transactionIndex": "0x72",
      "blockHash": "0xfc47398a3aba356ea27df22e593f18fef62471b2e03c759ee6955097e2f49bda",
      "blockNumber": "0x73aa27",
      "gasUsed": "0xc97b",
      "effectiveGasPrice": "0x8eecb78f",
      "from": "0x97ba7778dd9ce27bd4953c136f3b3b7b087e14c1",
      "to": "0x5db9f4c9239345308614604e69258c0bba9b437f",
      "contractAddress": null
    },
    {
      "status": "0x1",
      "cumulativeGasUsed": "0xa8fbda",
      "logs": [
        {
          "address": "0xb4615d8e576c01d73cc840c19413a3d388060ad3",
          "topics": [
            "0xddf252ad1be2c89b69c2b068fc378daa952ba7f163c4a11628f55a4df523b3ef",
            "0x00000000000000000000000097ba7778dd9ce27bd4953c136f3b3b7b087e14c1",
            "0x00000000000000000000000087f5582f5e0f6a62e0c96b7f0600bc1c90fd1ccf"
          ],
          "data": "0x0000000000000000000000000000000000000000000000000de0b6b3a7640000",
          "blockHash": "0xfc47398a3aba356ea27df22e593f18fef62471b2e03c759ee6955097e2f49bda",
          "blockNumber": "0x73aa27",
          "transactionHash": "0xc01c8ec7f31a95d4eda697cfc55d4457b0a1a2f42f02433548005cb2eba19b8f",
          "transactionIndex": "0x73",
          "logIndex": "0xcc",
          "removed": false
        }
      ],
      "logsBloom": "0x00000000000000000000000000000000000000000000000000000000000000000000000004000000000000400000000000000000010000000000000000000000000000000000000000000008000000000000000000000000000000000000000000000000000000000000000000000000000000000000004000000010000000000000000000000000000000008000000000000000000000000000000000000000000000000000020000000000000000000000000000000000000000000000000000000002000000000000000000000000000000000000000000000000000000000000000800000000000000004000000000000000000000000000000000000002",
      "type": "0x2",
      "transactionHash": "0xc01c8ec7f31a95d4eda697cfc55d4457b0a1a2f42f02433548005cb2eba19b8f",
      "transactionIndex": "0x73",
      "blockHash": "0xfc47398a3aba356ea27df22e593f18fef62471b2e03c759ee6955097e2f49bda",
      "blockNumber": "0x73aa27",
      "gasUsed": "0xd434",
      "effectiveGasPrice": "0x8eecb78f",
      "from": "0x97ba7778dd9ce27bd4953c136f3b3b7b087e14c1",
      "to": "0xb4615d8e576c01d73cc840c19413a3d388060ad3",
      "contractAddress": null
    },
    {
      "status": "0x1",
      "cumulativeGasUsed": "0xa95ff0",
      "logs": [
        {
          "address": "0x87f5582f5e0f6a62e0c96b7f0600bc1c90fd1ccf",
          "topics": [
            "0x26399b60fa9117e91f9cf4e690f18a117d22841f62fb4ece7e7c799a97cb6a07",
            "0x000000000000000000000000000000000000000000000000000110d9316ec000",
            "0x000000000000000000000000000000000000000000000000000110d9316ec000",
            "0x00000000000000000000000097ba7778dd9ce27bd4953c136f3b3b7b087e14c1"
          ],
          "data": "0x",
          "blockHash": "0xfc47398a3aba356ea27df22e593f18fef62471b2e03c759ee6955097e2f49bda",
          "blockNumber": "0x73aa27",
          "transactionHash": "0xa48b48e328f1faa348247808c4b7371c291b3ae4f41b38139570571c97165937",
          "transactionIndex": "0x74",
          "logIndex": "0xcd",
          "removed": false
        }
      ],
      "logsBloom": "0x00000000000000000000000000000000000000000000000020000000000000000000000004000000000000400000000000000000000001000000000000000000000000000000000000000000000000000000000000000000000008000000800000000000000100000000000000000000000000000000000000002000000000000000000000000000000040000000000000000000000000000000000000000000000004000000000000000000000000800000000000000000000000000000000000000000000000000000000000000000000000000000000000000000000000000000000000000000000000004000000000000000000000000000000000000000",
      "type": "0x2",
      "transactionHash": "0xa48b48e328f1faa348247808c4b7371c291b3ae4f41b38139570571c97165937",
      "transactionIndex": "0x74",
      "blockHash": "0xfc47398a3aba356ea27df22e593f18fef62471b2e03c759ee6955097e2f49bda",
      "blockNumber": "0x73aa27",
      "gasUsed": "0x6416",
      "effectiveGasPrice": "0x8eecb78f",
      "from": "0x97ba7778dd9ce27bd4953c136f3b3b7b087e14c1",
      "to": "0x87f5582f5e0f6a62e0c96b7f0600bc1c90fd1ccf",
      "contractAddress": null
    },
    {
      "status": "0x1",
      "cumulativeGasUsed": "0xad5c10",
      "logs": [
        {
          "address": "0x168100d505e5f12d55514eb142d21745b1defafe",
          "topics": [
            "0xddf252ad1be2c89b69c2b068fc378daa952ba7f163c4a11628f55a4df523b3ef",
            "0x0000000000000000000000000000000000000000000000000000000000000000",
            "0x00000000000000000000000097ba7778dd9ce27bd4953c136f3b3b7b087e14c1",
            "0x0000000000000000000000000000000000000000000000000000000000000001"
          ],
          "data": "0x",
          "blockHash": "0xfc47398a3aba356ea27df22e593f18fef62471b2e03c759ee6955097e2f49bda",
          "blockNumber": "0x73aa27",
          "transactionHash": "0x03950bffbe976b1879e6cea7967bb8416b3f908eb36af0fb0348515ff65904a9",
          "transactionIndex": "0x75",
          "logIndex": "0xce",
          "removed": false
        },
        {
          "address": "0x168100d505e5f12d55514eb142d21745b1defafe",
          "topics": [
            "0xf8e1a15aba9398e019f0b49df1a4fde98ee17ae345cb5f6b5e2c27f5033e8ce7"
          ],
          "data": "0x0000000000000000000000000000000000000000000000000000000000000001",
          "blockHash": "0xfc47398a3aba356ea27df22e593f18fef62471b2e03c759ee6955097e2f49bda",
          "blockNumber": "0x73aa27",
          "transactionHash": "0x03950bffbe976b1879e6cea7967bb8416b3f908eb36af0fb0348515ff65904a9",
          "transactionIndex": "0x75",
          "logIndex": "0xcf",
          "removed": false
        },
        {
          "address": "0x168100d505e5f12d55514eb142d21745b1defafe",
          "topics": [
            "0xfa6883374d3785c826e28c69c68c1b6dd2178accc8623f49c6829a75487419b3",
            "0x00000000000000000000000097ba7778dd9ce27bd4953c136f3b3b7b087e14c1",
            "0x0000000000000000000000000000000000000000000000000000000000000001",
            "0x0000000000000000000000000000000000000000000000000000000000000000"
          ],
          "data": "0x000000000000000000000000000000000000000000000000000000000000002000000000000000000000000000000000000000000000000000000000000000a00000000000000000000000000000000000000000000000000000000000000020000000000000000000000000000000000000000000000000000000000000004000000000000000000000000000000000000000000000000000000000000000000000000000000000000000000000000000000000000000000000000000000005322e302e31000000000000000000000000000000000000000000000000000000",
          "blockHash": "0xfc47398a3aba356ea27df22e593f18fef62471b2e03c759ee6955097e2f49bda",
          "blockNumber": "0x73aa27",
          "transactionHash": "0x03950bffbe976b1879e6cea7967bb8416b3f908eb36af0fb0348515ff65904a9",
          "transactionIndex": "0x75",
          "logIndex": "0xd0",
          "removed": false
        },
        {
          "address": "0x168100d505e5f12d55514eb142d21745b1defafe",
          "topics": [
            "0xc7f505b2f371ae2175ee4913f4499e1f2633a7b5936321eed1cdaeb6115181d2"
          ],
          "data": "0x0000000000000000000000000000000000000000000000000000000000000001",
          "blockHash": "0xfc47398a3aba356ea27df22e593f18fef62471b2e03c759ee6955097e2f49bda",
          "blockNumber": "0x73aa27",
          "transactionHash": "0x03950bffbe976b1879e6cea7967bb8416b3f908eb36af0fb0348515ff65904a9",
          "transactionIndex": "0x75",
          "logIndex": "0xd1",
          "removed": false
        },
        {
          "address": "0xa9a9b9d76c5449dcb4ff1b74e023bf3f6f8a30cf",
          "topics": [
            "0x8dc66cafb77b325538c856bfa5892b31ca7305adfa48f6a09e030e261cda0795",
            "0x000000000000000000000000168100d505e5f12d55514eb142d21745b1defafe",
            "0x00000000000000000000000036013ecf61dba5eab01e4551360600440107b70d"
          ],
          "data": "0x00000000000000000000000000000000000000000000000000000000000007d2",
          "blockHash": "0xfc47398a3aba356ea27df22e593f18fef62471b2e03c759ee6955097e2f49bda",
          "blockNumber": "0x73aa27",
          "transactionHash": "0x03950bffbe976b1879e6cea7967bb8416b3f908eb36af0fb0348515ff65904a9",
          "transactionIndex": "0x75",
          "logIndex": "0xd2",
          "removed": false
        },
        {
          "address": "0x5db9f4c9239345308614604e69258c0bba9b437f",
          "topics": [
            "0xddf252ad1be2c89b69c2b068fc378daa952ba7f163c4a11628f55a4df523b3ef",
            "0x00000000000000000000000087f5582f5e0f6a62e0c96b7f0600bc1c90fd1ccf",
            "0x000000000000000000000000168100d505e5f12d55514eb142d21745b1defafe"
          ],
          "data": "0x0000000000000000000000000000000000000000000000000000b5e620f48000",
          "blockHash": "0xfc47398a3aba356ea27df22e593f18fef62471b2e03c759ee6955097e2f49bda",
          "blockNumber": "0x73aa27",
          "transactionHash": "0x03950bffbe976b1879e6cea7967bb8416b3f908eb36af0fb0348515ff65904a9",
          "transactionIndex": "0x75",
          "logIndex": "0xd3",
          "removed": false
        },
        {
          "address": "0x168100d505e5f12d55514eb142d21745b1defafe",
          "topics": [
            "0x26399b60fa9117e91f9cf4e690f18a117d22841f62fb4ece7e7c799a97cb6a07",
            "0x0000000000000000000000000000000000000000000000000000000000000010",
            "0x0000000000000000000000000000000000000000000000000000000000000010",
            "0x00000000000000000000000087f5582f5e0f6a62e0c96b7f0600bc1c90fd1ccf"
          ],
          "data": "0x",
          "blockHash": "0xfc47398a3aba356ea27df22e593f18fef62471b2e03c759ee6955097e2f49bda",
          "blockNumber": "0x73aa27",
          "transactionHash": "0x03950bffbe976b1879e6cea7967bb8416b3f908eb36af0fb0348515ff65904a9",
          "transactionIndex": "0x75",
          "logIndex": "0xd4",
          "removed": false
        },
        {
          "address": "0x87f5582f5e0f6a62e0c96b7f0600bc1c90fd1ccf",
          "topics": [
            "0xc4784f333fb4f086174aa7cc56e2eb0850c39bbda8f955f72ee77d54b13a3dd9",
            "0x000000000000000000000000000000000000000000000000000110d9316ec000",
            "0x000000000000000000000000000000000000000000000000000110d9316ebff0",
            "0x0000000000000000000000000000000000000000000000000000000000000000"
          ],
          "data": "0x00000000000000000000000097ba7778dd9ce27bd4953c136f3b3b7b087e14c1",
          "blockHash": "0xfc47398a3aba356ea27df22e593f18fef62471b2e03c759ee6955097e2f49bda",
          "blockNumber": "0x73aa27",
          "transactionHash": "0x03950bffbe976b1879e6cea7967bb8416b3f908eb36af0fb0348515ff65904a9",
          "transactionIndex": "0x75",
          "logIndex": "0xd5",
          "removed": false
        }
      ],
      "logsBloom": "0x00000000140000800002000000000000000000000020000020000000000000000000000004000000000200400000000000000000010001000000020000040000000000010020020000800108000000000000000000040000000008400000800000000000020100000000000000000800000000001000004000002010040000000000000000000000000840000000000000000100000084400000000000000080000004010000020000000000000000802001002000000000000000000000008000000002000000000000000000120000000080000404400000000000000060000000000000000002200000004000000000000000000004080000000000000000",
      "type": "0x2",
      "transactionHash": "0x03950bffbe976b1879e6cea7967bb8416b3f908eb36af0fb0348515ff65904a9",
      "transactionIndex": "0x75",
      "blockHash": "0xfc47398a3aba356ea27df22e593f18fef62471b2e03c759ee6955097e2f49bda",
      "blockNumber": "0x73aa27",
      "gasUsed": "0x3fc20",
      "effectiveGasPrice": "0x8eecb78f",
      "from": "0x97ba7778dd9ce27bd4953c136f3b3b7b087e14c1",
      "to": "0x87f5582f5e0f6a62e0c96b7f0600bc1c90fd1ccf",
      "contractAddress": null
    }
  ],
  "libraries": [],
  "pending": [],
  "returns": {},
  "timestamp": 1737963530,
  "chain": 11155111,
  "commit": "3fc134a"
}