{
  "transactions": [
    {
      "hash": "0xbb6194649ccfce8f2659fae2f1329dfa99b673c7f112d45e3e763c4812d5089c",
      "transactionType": "CALL",
      "contractName": "WNFTV2Envelop721",
      "contractAddress": "0xacf48aa264fc4b2b890f0b132049e09620ebb826",
      "function": "createWNFTonFactory((address,string,string,string,address[],bytes32[],uint256[],bytes))",
      "arguments": [
        "(0x5992Fe461F81C8E0aFFA95b831E50e9b3854BA0E, Envelop V2 Smart Wallet, ENVELOPV2, https://api.envelop.is/wallet, [], [], [], 0x)"
      ],
      "transaction": {
        "from": "0x5992fe461f81c8e0affa95b831e50e9b3854ba0e",
        "to": "0xacf48aa264fc4b2b890f0b132049e09620ebb826",
        "gas": "0x4d3da",
        "value": "0x0",
        "input": "0x7c3cc70700000000000000000000000000000000000000000000000000000000000000200000000000000000000000005992fe461f81c8e0affa95b831e50e9b3854ba0e00000000000000000000000000000000000000000000000000000000000001000000000000000000000000000000000000000000000000000000000000000140000000000000000000000000000000000000000000000000000000000000018000000000000000000000000000000000000000000000000000000000000001c000000000000000000000000000000000000000000000000000000000000001e0000000000000000000000000000000000000000000000000000000000000020000000000000000000000000000000000000000000000000000000000000002200000000000000000000000000000000000000000000000000000000000000017456e76656c6f7020563220536d6172742057616c6c65740000000000000000000000000000000000000000000000000000000000000000000000000000000009454e56454c4f5056320000000000000000000000000000000000000000000000000000000000000000000000000000000000000000000000000000000000001d68747470733a2f2f6170692e656e76656c6f702e69732f77616c6c65740000000000000000000000000000000000000000000000000000000000000000000000000000000000000000000000000000000000000000000000000000000000000000000000000000000000000000000000000000000000000000000000000000000000000000000000000000000000000000000000000000000000000000000000",
        "nonce": "0x543",
        "chainId": "0xaa36a7"
      },
      "additionalContracts": [
        {
          "transactionType": "CREATE",
          "address": "0x347baef71ab3f9ebfb43c3b216016b7351478bfb",
          "initCode": "0x3d602d80600a3d3981f3363d3d373d3d3d363d73acf48aa264fc4b2b890f0b132049e09620ebb8265af43d82803e903d91602b57fd5bf3"
        }
      ],
      "isFixedGasLimit": false
    }
  ],
  "receipts": [
    {
      "status": "0x1",
      "cumulativeGasUsed": "0x13e8947",
      "logs": [
        {
          "address": "0x347baef71ab3f9ebfb43c3b216016b7351478bfb",
          "topics": [
            "0xddf252ad1be2c89b69c2b068fc378daa952ba7f163c4a11628f55a4df523b3ef",
            "0x0000000000000000000000000000000000000000000000000000000000000000",
            "0x0000000000000000000000005992fe461f81c8e0affa95b831e50e9b3854ba0e",
            "0x0000000000000000000000000000000000000000000000000000000000000001"
          ],
          "data": "0x",
          "blockHash": "0xf7d2fc9696b02b58c2b9e3f82ccd92818647d1d3ce13588963d664fd69d91b74",
          "blockNumber": "0x73aaa8",
          "transactionHash": "0xbb6194649ccfce8f2659fae2f1329dfa99b673c7f112d45e3e763c4812d5089c",
          "transactionIndex": "0xc9",
          "logIndex": "0x142",
          "removed": false
        },
        {
          "address": "0x347baef71ab3f9ebfb43c3b216016b7351478bfb",
          "topics": [
            "0xf8e1a15aba9398e019f0b49df1a4fde98ee17ae345cb5f6b5e2c27f5033e8ce7"
          ],
          "data": "0x0000000000000000000000000000000000000000000000000000000000000001",
          "blockHash": "0xf7d2fc9696b02b58c2b9e3f82ccd92818647d1d3ce13588963d664fd69d91b74",
          "blockNumber": "0x73aaa8",
          "transactionHash": "0xbb6194649ccfce8f2659fae2f1329dfa99b673c7f112d45e3e763c4812d5089c",
          "transactionIndex": "0xc9",
          "logIndex": "0x143",
          "removed": false
        },
        {
          "address": "0x347baef71ab3f9ebfb43c3b216016b7351478bfb",
          "topics": [
            "0xfa6883374d3785c826e28c69c68c1b6dd2178accc8623f49c6829a75487419b3",
            "0x0000000000000000000000005992fe461f81c8e0affa95b831e50e9b3854ba0e",
            "0x0000000000000000000000000000000000000000000000000000000000000001",
            "0x0000000000000000000000000000000000000000000000000000000000000000"
          ],
          "data": "0x00000000000000000000000000000000000000000000000000000000000000200000000000000000000000000000000000000000000000000000000000000000",
          "blockHash": "0xf7d2fc9696b02b58c2b9e3f82ccd92818647d1d3ce13588963d664fd69d91b74",
          "blockNumber": "0x73aaa8",
          "transactionHash": "0xbb6194649ccfce8f2659fae2f1329dfa99b673c7f112d45e3e763c4812d5089c",
          "transactionIndex": "0xc9",
          "logIndex": "0x144",
          "removed": false
        },
        {
          "address": "0x347baef71ab3f9ebfb43c3b216016b7351478bfb",
          "topics": [
            "0xc7f505b2f371ae2175ee4913f4499e1f2633a7b5936321eed1cdaeb6115181d2"
          ],
          "data": "0x0000000000000000000000000000000000000000000000000000000000000001",
          "blockHash": "0xf7d2fc9696b02b58c2b9e3f82ccd92818647d1d3ce13588963d664fd69d91b74",
          "blockNumber": "0x73aaa8",
          "transactionHash": "0xbb6194649ccfce8f2659fae2f1329dfa99b673c7f112d45e3e763c4812d5089c",
          "transactionIndex": "0xc9",
          "logIndex": "0x145",
          "removed": false
        },
        {
          "address": "0xa9a9b9d76c5449dcb4ff1b74e023bf3f6f8a30cf",
          "topics": [
            "0x8dc66cafb77b325538c856bfa5892b31ca7305adfa48f6a09e030e261cda0795",
            "0x000000000000000000000000347baef71ab3f9ebfb43c3b216016b7351478bfb",
            "0x000000000000000000000000acf48aa264fc4b2b890f0b132049e09620ebb826"
          ],
          "data": "0x00000000000000000000000000000000000000000000000000000000000007d2",
          "blockHash": "0xf7d2fc9696b02b58c2b9e3f82ccd92818647d1d3ce13588963d664fd69d91b74",
          "blockNumber": "0x73aaa8",
          "transactionHash": "0xbb6194649ccfce8f2659fae2f1329dfa99b673c7f112d45e3e763c4812d5089c",
          "transactionIndex": "0xc9",
          "logIndex": "0x146",
          "removed": false
        }
      ],
      "logsBloom": "0x00000000000000800082000000000000000000000000000000000000000000000000000000000000000000000084000000000000000000000000000000040000000000000000020000000108000000000000000000040000000000000000000000000000020000000000000000000800000000000000000000400010000000000000000800000000000800000000000020000000000084000000000000004080000040000000000000000800000000002000000000000000040000000000008000000006000000000000000000100000000000000004400000000000000060000000000000000000201000000000000000000000000004000000000000000000",
      "type": "0x2",
      "transactionHash": "0xbb6194649ccfce8f2659fae2f1329dfa99b673c7f112d45e3e763c4812d5089c",
      "transactionIndex": "0xc9",
      "blockHash": "0xf7d2fc9696b02b58c2b9e3f82ccd92818647d1d3ce13588963d664fd69d91b74",
      "blockNumber": "0x73aaa8",
      "gasUsed": "0x37ebd",
      "effectiveGasPrice": "0x15df0b687",
      "from": "0x5992fe461f81c8e0affa95b831e50e9b3854ba0e",
      "to": "0xacf48aa264fc4b2b890f0b132049e09620ebb826",
      "contractAddress": null
    }
  ],
  "libraries": [],
  "pending": [],
  "returns": {},
  "timestamp": 1737965172,
  "chain": 11155111,
  "commit": "3fc134a"
}