{
  "transactions": [
    {
      "hash": "0xaee5e7ee6514a0bca81a8788a7d003ac5459632489389f9826a906affa8e9eea",
      "transactionType": "CALL",
      "contractName": "WNFTV2Envelop721",
      "contractAddress": "0x8a910c12fc12cb32f1e9611978df60d0c1dd180b",
      "function": "createWNFTonFactory((address,string,string,string,address[],bytes32[],uint256[],bytes))",
      "arguments": [
        "(0x97ba7778dD9CE27bD4953c136F3B3b7b087E14c1, Envelop V2 Smart Wallet, ENVELOPV2, https://api.envelop.is/wallet, [], [], [], 0x)"
      ],
      "transaction": {
        "from": "0x97ba7778dd9ce27bd4953c136f3b3b7b087e14c1",
        "to": "0x8a910c12fc12cb32f1e9611978df60d0c1dd180b",
        "gas": "0x4d380",
        "value": "0x0",
        "input": "0x7c3cc707000000000000000000000000000000000000000000000000000000000000002000000000000000000000000097ba7778dd9ce27bd4953c136f3b3b7b087e14c100000000000000000000000000000000000000000000000000000000000001000000000000000000000000000000000000000000000000000000000000000140000000000000000000000000000000000000000000000000000000000000018000000000000000000000000000000000000000000000000000000000000001c000000000000000000000000000000000000000000000000000000000000001e0000000000000000000000000000000000000000000000000000000000000020000000000000000000000000000000000000000000000000000000000000002200000000000000000000000000000000000000000000000000000000000000017456e76656c6f7020563220536d6172742057616c6c65740000000000000000000000000000000000000000000000000000000000000000000000000000000009454e56454c4f5056320000000000000000000000000000000000000000000000000000000000000000000000000000000000000000000000000000000000001d68747470733a2f2f6170692e656e76656c6f702e69732f77616c6c65740000000000000000000000000000000000000000000000000000000000000000000000000000000000000000000000000000000000000000000000000000000000000000000000000000000000000000000000000000000000000000000000000000000000000000000000000000000000000000000000000000000000000000000000",
        "nonce": "0x61",
        "chainId": "0xaa36a7"
      },
      "additionalContracts": [
        {
          "transactionType": "CREATE",
          "address": "0x673d0cc05aeb874869c13f34a630960b5131d6f7",
          "initCode": "0x3d602d80600a3d3981f3363d3d373d3d3d363d738a910c12fc12cb32f1e9611978df60d0c1dd180b5af43d82803e903d91602b57fd5bf3"
        }
      ],
      "isFixedGasLimit": false
    },
    {
      "hash": "0xf212b6b74620d8fea688e4bc816faa32886d7778364aa6feef7639e81d9270de",
      "transactionType": "CALL",
      "contractName": null,
      "contractAddress": "0x5db9f4c9239345308614604e69258c0bba9b437f",
      "function": "transfer(address,uint256)",
      "arguments": [
        "0x673d0cc05AEB874869C13F34A630960b5131d6f7",
        "1000000000000000000"
      ],
      "transaction": {
        "from": "0x97ba7778dd9ce27bd4953c136f3b3b7b087e14c1",
        "to": "0x5db9f4c9239345308614604e69258c0bba9b437f",
        "gas": "0x1165b",
        "value": "0x0",
        "input": "0xa9059cbb000000000000000000000000673d0cc05aeb874869c13f34a630960b5131d6f70000000000000000000000000000000000000000000000000de0b6b3a7640000",
        "nonce": "0x62",
        "chainId": "0xaa36a7"
      },
      "additionalContracts": [],
      "isFixedGasLimit": false
    },
    {
      "hash": "0x6a204d5e16811aaf88763a98b0d31f267e9f54ca9670185762b81c0d9253b720",
      "transactionType": "CALL",
      "contractName": "CustomERC20",
      "contractAddress": "0xb4615d8e576c01d73cc840c19413a3d388060ad3",
      "function": "transfer(address,uint256)",
      "arguments": [
        "0x673d0cc05AEB874869C13F34A630960b5131d6f7",
        "1000000000000000000"
      ],
      "transaction": {
        "from": "0x97ba7778dd9ce27bd4953c136f3b3b7b087e14c1",
        "to": "0xb4615d8e576c01d73cc840c19413a3d388060ad3",
        "gas": "0x1252b",
        "value": "0x0",
        "input": "0xa9059cbb000000000000000000000000673d0cc05aeb874869c13f34a630960b5131d6f70000000000000000000000000000000000000000000000000de0b6b3a7640000",
        "nonce": "0x63",
        "chainId": "0xaa36a7"
      },
      "additionalContracts": [],
      "isFixedGasLimit": false
    },
    {
      "hash": "0xca236ce1cde46af7534f0e7a29f67d15185fe2de1c798a78a238cbb2d392d82c",
      "transactionType": "CALL",
      "contractName": null,
      "contractAddress": "0x673d0cc05aeb874869c13f34a630960b5131d6f7",
      "function": null,
      "arguments": null,
      "transaction": {
        "from": "0x97ba7778dd9ce27bd4953c136f3b3b7b087e14c1",
        "to": "0x673d0cc05aeb874869c13f34a630960b5131d6f7",
        "gas": "0x8a3d",
        "value": "0x110d9316ec000",
        "input": "0x",
        "nonce": "0x64",
        "chainId": "0xaa36a7"
      },
      "additionalContracts": [],
      "isFixedGasLimit": false
    },
    {
      "hash": "0xf2cc82da3f2c0593aad79b68d93ee3e04029edd8f0f13463e693700e28d34d37",
      "transactionType": "CALL",
      "contractName": null,
      "contractAddress": "0x673d0cc05aeb874869c13f34a630960b5131d6f7",
      "function": "executeEncodedTxBatch(address[],uint256[],bytes[])",
      "arguments": [
        "[0x32452a25D664d4ccD781e082129Aa07CDB276D88, 0x5dB9f4C9239345308614604e69258C0bba9b437f, 0x2fDC8Da455064938Ac75C91BE42930c973C373F2]",
        "[0, 0, 16]",
        "[0xc56a27a0000000000000000000000000000000000000000000000000000000000000002000000000000000000000000097ba7778dd9ce27bd4953c136f3b3b7b087e14c10000000000000000000000000000000000000000000000000000000000000100000000000000000000000000000000000000000000000000000000000000012000000000000000000000000000000000000000000000000000000000000001400000000000000000000000000000000000000000000000000000000000000160000000000000000000000000000000000000000000000000000000000000018000000000000000000000000000000000000000000000000000000000000001a00000000000000000000000000000000000000000000000000000000000000200000000000000000000000000000000000000000000000000000000000000000000000000000000000000000000000000000000000000000000000000000000000000000000000000000000000000000000000000000000000000000000000000000000000000000000000000000000000000000000000000000000000000000000000000000000000000000000000000000000000000000000000000000000000000000000000000000000000000000000000000000000000000000000000002000000000000000000000000000000000000000000000000000000000000000000000000000000000000000000000000000000000000000000000000000000000000000000000000000000000000000000000000000000000000000000000000, 0xa9059cbb0000000000000000000000002fdc8da455064938ac75c91be42930c973c373f20000000000000000000000000000000000000000000000000000b5e620f48000, 0x]"
      ],
      "transaction": {
        "from": "0x97ba7778dd9ce27bd4953c136f3b3b7b087e14c1",
        "to": "0x673d0cc05aeb874869c13f34a630960b5131d6f7",
        "gas": "0x6676f",
        "value": "0x0",
        "input": "0xd42053bc000000000000000000000000000000000000000000000000000000000000006000000000000000000000000000000000000000000000000000000000000000e00000000000000000000000000000000000000000000000000000000000000160000000000000000000000000000000000000000000000000000000000000000300000000000000000000000032452a25d664d4ccd781e082129aa07cdb276d880000000000000000000000005db9f4c9239345308614604e69258c0bba9b437f0000000000000000000000002fdc8da455064938ac75c91be42930c973c373f200000000000000000000000000000000000000000000000000000000000000030000000000000000000000000000000000000000000000000000000000000000000000000000000000000000000000000000000000000000000000000000000000000000000000000000000000000000000000000000000000000000000000100000000000000000000000000000000000000000000000000000000000000003000000000000000000000000000000000000000000000000000000000000006000000000000000000000000000000000000000000000000000000000000002e000000000000000000000000000000000000000000000000000000000000003600000000000000000000000000000000000000000000000000000000000000244c56a27a0000000000000000000000000000000000000000000000000000000000000002000000000000000000000000097ba7778dd9ce27bd4953c136f3b3b7b087e14c10000000000000000000000000000000000000000000000000000000000000100000000000000000000000000000000000000000000000000000000000000012000000000000000000000000000000000000000000000000000000000000001400000000000000000000000000000000000000000000000000000000000000160000000000000000000000000000000000000000000000000000000000000018000000000000000000000000000000000000000000000000000000000000001a00000000000000000000000000000000000000000000000000000000000000200000000000000000000000000000000000000000000000000000000000000000000000000000000000000000000000000000000000000000000000000000000000000000000000000000000000000000000000000000000000000000000000000000000000000000000000000000000000000000000000000000000000000000000000000000000000000000000000000000000000000000000000000000000000000000000000000000000000000000000000000000000000000000000000002000000000000000000000000000000000000000000000000000000000000000000000000000000000000000000000000000000000000000000000000000000000000000000000000000000000000000000000000000000000000000000000000000000000000000000000000000000000000000000000000000000000000000000000000000000000000000000000000000000000000000000000044a9059cbb0000000000000000000000002fdc8da455064938ac75c91be42930c973c373f20000000000000000000000000000000000000000000000000000b5e620f48000000000000000000000000000000000000000000000000000000000000000000000000000000000000000000000000000000000000000000000000000",
        "nonce": "0x65",
        "chainId": "0xaa36a7"
      },
      "additionalContracts": [
        {
          "transactionType": "CREATE2",
          "address": "0x892fea978f22e61b47a16c8fe9231304b939de49",
          "initCode": "0x3d602d80600a3d3981f3363d3d373d3d3d363d7332452a25d664d4ccd781e082129aa07cdb276d885af43d82803e903d91602b57fd5bf3"
        }
      ],
      "isFixedGasLimit": false
    }
  ],
  "receipts": [
    {
      "status": "0x1",
      "cumulativeGasUsed": "0x1ca1b8a",
      "logs": [
        {
          "address": "0x673d0cc05aeb874869c13f34a630960b5131d6f7",
          "topics": [
            "0xddf252ad1be2c89b69c2b068fc378daa952ba7f163c4a11628f55a4df523b3ef",
            "0x0000000000000000000000000000000000000000000000000000000000000000",
            "0x00000000000000000000000097ba7778dd9ce27bd4953c136f3b3b7b087e14c1",
            "0x0000000000000000000000000000000000000000000000000000000000000001"
          ],
          "data": "0x",
          "blockHash": "0x915047e6c17ebe07838ea59f2d4887d7d7f653dd6831974122040fb44b9f51f6",
          "blockNumber": "0x81f6ac",
          "transactionHash": "0xaee5e7ee6514a0bca81a8788a7d003ac5459632489389f9826a906affa8e9eea",
          "transactionIndex": "0x10b",
          "logIndex": "0x124",
          "removed": false
        },
        {
          "address": "0x673d0cc05aeb874869c13f34a630960b5131d6f7",
          "topics": [
            "0xf8e1a15aba9398e019f0b49df1a4fde98ee17ae345cb5f6b5e2c27f5033e8ce7"
          ],
          "data": "0x0000000000000000000000000000000000000000000000000000000000000001",
          "blockHash": "0x915047e6c17ebe07838ea59f2d4887d7d7f653dd6831974122040fb44b9f51f6",
          "blockNumber": "0x81f6ac",
          "transactionHash": "0xaee5e7ee6514a0bca81a8788a7d003ac5459632489389f9826a906affa8e9eea",
          "transactionIndex": "0x10b",
          "logIndex": "0x125",
          "removed": false
        },
        {
          "address": "0x673d0cc05aeb874869c13f34a630960b5131d6f7",
          "topics": [
            "0xfa6883374d3785c826e28c69c68c1b6dd2178accc8623f49c6829a75487419b3",
            "0x00000000000000000000000097ba7778dd9ce27bd4953c136f3b3b7b087e14c1",
            "0x0000000000000000000000000000000000000000000000000000000000000001",
            "0x0000000000000000000000000000000000000000000000000000000000000000"
          ],
          "data": "0x00000000000000000000000000000000000000000000000000000000000000200000000000000000000000000000000000000000000000000000000000000000",
          "blockHash": "0x915047e6c17ebe07838ea59f2d4887d7d7f653dd6831974122040fb44b9f51f6",
          "blockNumber": "0x81f6ac",
          "transactionHash": "0xaee5e7ee6514a0bca81a8788a7d003ac5459632489389f9826a906affa8e9eea",
          "transactionIndex": "0x10b",
          "logIndex": "0x126",
          "removed": false
        },
        {
          "address": "0x673d0cc05aeb874869c13f34a630960b5131d6f7",
          "topics": [
            "0xc7f505b2f371ae2175ee4913f4499e1f2633a7b5936321eed1cdaeb6115181d2"
          ],
          "data": "0x0000000000000000000000000000000000000000000000000000000000000001",
          "blockHash": "0x915047e6c17ebe07838ea59f2d4887d7d7f653dd6831974122040fb44b9f51f6",
          "blockNumber": "0x81f6ac",
          "transactionHash": "0xaee5e7ee6514a0bca81a8788a7d003ac5459632489389f9826a906affa8e9eea",
          "transactionIndex": "0x10b",
          "logIndex": "0x127",
          "removed": false
        },
        {
          "address": "0xa9a9b9d76c5449dcb4ff1b74e023bf3f6f8a30cf",
          "topics": [
            "0x8dc66cafb77b325538c856bfa5892b31ca7305adfa48f6a09e030e261cda0795",
            "0x000000000000000000000000673d0cc05aeb874869c13f34a630960b5131d6f7",
            "0x0000000000000000000000008a910c12fc12cb32f1e9611978df60d0c1dd180b"
          ],
          "data": "0x00000000000000000000000000000000000000000000000000000000000007d2",
          "blockHash": "0x915047e6c17ebe07838ea59f2d4887d7d7f653dd6831974122040fb44b9f51f6",
          "blockNumber": "0x81f6ac",
          "transactionHash": "0xaee5e7ee6514a0bca81a8788a7d003ac5459632489389f9826a906affa8e9eea",
          "transactionIndex": "0x10b",
          "logIndex": "0x128",
          "removed": false
        }
      ],
      "logsBloom": "0x00000000000000800002000000000000040000000002000000000000000000000000000004000000000000400000000000000000000000000000008000040000000000000000020000000108000000000000000000040000000000000000000000000000020000000000000000000800000000000000000000400010000000000000100000000000000800000000000000000000000084000000000000000080000000000000000000000000000000002000000000000000000000000000408000000002000010000000000000100000000000000004400000000000000060000000000000000000200000004000000000004000000004000000000100000000",
      "type": "0x2",
      "transactionHash": "0xaee5e7ee6514a0bca81a8788a7d003ac5459632489389f9826a906affa8e9eea",
      "transactionIndex": "0x10b",
      "blockHash": "0x915047e6c17ebe07838ea59f2d4887d7d7f653dd6831974122040fb44b9f51f6",
      "blockNumber": "0x81f6ac",
      "gasUsed": "0x37e7c",
      "effectiveGasPrice": "0xb14369",
      "from": "0x97ba7778dd9ce27bd4953c136f3b3b7b087e14c1",
      "to": "0x8a910c12fc12cb32f1e9611978df60d0c1dd180b",
      "contractAddress": null
    },
    {
      "status": "0x1",
      "cumulativeGasUsed": "0x19f92ff",
      "logs": [
        {
          "address": "0x5db9f4c9239345308614604e69258c0bba9b437f",
          "topics": [
            "0xddf252ad1be2c89b69c2b068fc378daa952ba7f163c4a11628f55a4df523b3ef",
            "0x00000000000000000000000097ba7778dd9ce27bd4953c136f3b3b7b087e14c1",
            "0x000000000000000000000000673d0cc05aeb874869c13f34a630960b5131d6f7"
          ],
          "data": "0x0000000000000000000000000000000000000000000000000de0b6b3a7640000",
          "blockHash": "0x10d1aa52834f8b7e690deb5285bb6fdc0c44f8f2548eda314d85c1f431e7f8ba",
          "blockNumber": "0x81f6ae",
          "transactionHash": "0xf212b6b74620d8fea688e4bc816faa32886d7778364aa6feef7639e81d9270de",
          "transactionIndex": "0xbf",
          "logIndex": "0xc9",
          "removed": false
        }
      ],
      "logsBloom": "0x00000000000000000000000000000000000000000022000000000000000000000000000004000000000200400000000000000000000000000000000000000000000000000000000000000008000000000000000000000000000000000000000000000000000000000000000000000000000000000000000000400010000000000000000000000000000000000000000000000000000000000000000000000000000000000000000000000000000000000000000000000000000000000000000000000002000000000000000000000000000000000400000000000000000000000000000000000000000000004000000000000000000000000000000100000000",
      "type": "0x2",
      "transactionHash": "0xf212b6b74620d8fea688e4bc816faa32886d7778364aa6feef7639e81d9270de",
      "transactionIndex": "0xbf",
      "blockHash": "0x10d1aa52834f8b7e690deb5285bb6fdc0c44f8f2548eda314d85c1f431e7f8ba",
      "blockNumber": "0x81f6ae",
      "gasUsed": "0xc987",
      "effectiveGasPrice": "0xb042f7",
      "from": "0x97ba7778dd9ce27bd4953c136f3b3b7b087e14c1",
      "to": "0x5db9f4c9239345308614604e69258c0bba9b437f",
      "contractAddress": null
    },
    {
      "status": "0x1",
      "cumulativeGasUsed": "0x1a0673f",
      "logs": [
        {
          "address": "0xb4615d8e576c01d73cc840c19413a3d388060ad3",
          "topics": [
            "0xddf252ad1be2c89b69c2b068fc378daa952ba7f163c4a11628f55a4df523b3ef",
            "0x00000000000000000000000097ba7778dd9ce27bd4953c136f3b3b7b087e14c1",
            "0x000000000000000000000000673d0cc05aeb874869c13f34a630960b5131d6f7"
          ],
          "data": "0x0000000000000000000000000000000000000000000000000de0b6b3a7640000",
          "blockHash": "0x10d1aa52834f8b7e690deb5285bb6fdc0c44f8f2548eda314d85c1f431e7f8ba",
          "blockNumber": "0x81f6ae",
          "transactionHash": "0x6a204d5e16811aaf88763a98b0d31f267e9f54ca9670185762b81c0d9253b720",
          "transactionIndex": "0xc0",
          "logIndex": "0xca",
          "removed": false
        }
      ],
      "logsBloom": "0x00000000000000000000000000000000000000000002000000000000000000000000000004000000000000400000000000000000000000000000000000000000000000000000000000000008000000000000000000000000000000000000000000000000000000000000000000000000000000000000000000400010000000000000000000000000000000008000000000000000000000000000000000000000000000000000000000000000000000000000000000000000000000000000000000000002000000000000000000000000000000000000000000000000000000000000000800000000000000004000000000000000000000000000000100000002",
      "type": "0x2",
      "transactionHash": "0x6a204d5e16811aaf88763a98b0d31f267e9f54ca9670185762b81c0d9253b720",
      "transactionIndex": "0xc0",
      "blockHash": "0x10d1aa52834f8b7e690deb5285bb6fdc0c44f8f2548eda314d85c1f431e7f8ba",
      "blockNumber": "0x81f6ae",
      "gasUsed": "0xd440",
      "effectiveGasPrice": "0xb042f7",
      "from": "0x97ba7778dd9ce27bd4953c136f3b3b7b087e14c1",
      "to": "0xb4615d8e576c01d73cc840c19413a3d388060ad3",
      "contractAddress": null
    },
    {
      "status": "0x1",
      "cumulativeGasUsed": "0x1a0cb55",
      "logs": [
        {
          "address": "0x673d0cc05aeb874869c13f34a630960b5131d6f7",
          "topics": [
            "0x26399b60fa9117e91f9cf4e690f18a117d22841f62fb4ece7e7c799a97cb6a07",
            "0x000000000000000000000000000000000000000000000000000110d9316ec000",
            "0x000000000000000000000000000000000000000000000000000110d9316ec000",
            "0x00000000000000000000000097ba7778dd9ce27bd4953c136f3b3b7b087e14c1"
          ],
          "data": "0x",
          "blockHash": "0x10d1aa52834f8b7e690deb5285bb6fdc0c44f8f2548eda314d85c1f431e7f8ba",
          "blockNumber": "0x81f6ae",
          "transactionHash": "0xca236ce1cde46af7534f0e7a29f67d15185fe2de1c798a78a238cbb2d392d82c",
          "transactionIndex": "0xc1",
          "logIndex": "0xcb",
          "removed": false
        }
      ],
      "logsBloom": "0x00000000000000000000000000000000000000000000000000000000000000000000000004000000000000400000000000000000000001000000008000000000000000000000000000000000000000000000000000000000000008000000800000000000000000000000000000000000000000000000000000002000000000000000100000000000000040000000000000000000000000000000000000000000000004000000000000000000000000000000000000000000000000000000000000000000000000000000000000000000000000000000000000000000000000000000000000000000000000004000000000004000000000000000000000000000",
      "type": "0x2",
      "transactionHash": "0xca236ce1cde46af7534f0e7a29f67d15185fe2de1c798a78a238cbb2d392d82c",
      "transactionIndex": "0xc1",
      "blockHash": "0x10d1aa52834f8b7e690deb5285bb6fdc0c44f8f2548eda314d85c1f431e7f8ba",
      "blockNumber": "0x81f6ae",
      "gasUsed": "0x6416",
      "effectiveGasPrice": "0xb042f7",
      "from": "0x97ba7778dd9ce27bd4953c136f3b3b7b087e14c1",
      "to": "0x673d0cc05aeb874869c13f34a630960b5131d6f7",
      "contractAddress": null
    },
    {
      "status": "0x1",
      "cumulativeGasUsed": "0x1a56e42",
      "logs": [
        {
          "address": "0x892fea978f22e61b47a16c8fe9231304b939de49",
          "topics": [
            "0xddf252ad1be2c89b69c2b068fc378daa952ba7f163c4a11628f55a4df523b3ef",
            "0x0000000000000000000000000000000000000000000000000000000000000000",
            "0x00000000000000000000000097ba7778dd9ce27bd4953c136f3b3b7b087e14c1",
            "0x0000000000000000000000000000000000000000000000000000000000000001"
          ],
          "data": "0x",
          "blockHash": "0x10d1aa52834f8b7e690deb5285bb6fdc0c44f8f2548eda314d85c1f431e7f8ba",
          "blockNumber": "0x81f6ae",
          "transactionHash": "0xf2cc82da3f2c0593aad79b68d93ee3e04029edd8f0f13463e693700e28d34d37",
          "transactionIndex": "0xc2",
          "logIndex": "0xcc",
          "removed": false
        },
        {
          "address": "0x892fea978f22e61b47a16c8fe9231304b939de49",
          "topics": [
            "0xf8e1a15aba9398e019f0b49df1a4fde98ee17ae345cb5f6b5e2c27f5033e8ce7"
          ],
          "data": "0x0000000000000000000000000000000000000000000000000000000000000001",
          "blockHash": "0x10d1aa52834f8b7e690deb5285bb6fdc0c44f8f2548eda314d85c1f431e7f8ba",
          "blockNumber": "0x81f6ae",
          "transactionHash": "0xf2cc82da3f2c0593aad79b68d93ee3e04029edd8f0f13463e693700e28d34d37",
          "transactionIndex": "0xc2",
          "logIndex": "0xcd",
          "removed": false
        },
        {
          "address": "0x892fea978f22e61b47a16c8fe9231304b939de49",
          "topics": [
            "0xfa6883374d3785c826e28c69c68c1b6dd2178accc8623f49c6829a75487419b3",
            "0x00000000000000000000000097ba7778dd9ce27bd4953c136f3b3b7b087e14c1",
            "0x0000000000000000000000000000000000000000000000000000000000000001",
            "0x0000000000000000000000000000000000000000000000000000000000000000"
          ],
          "data": "0x000000000000000000000000000000000000000000000000000000000000002000000000000000000000000000000000000000000000000000000000000000a00000000000000000000000000000000000000000000000000000000000000020000000000000000000000000000000000000000000000000000000000000004000000000000000000000000000000000000000000000000000000000000000000000000000000000000000000000000000000000000000000000000000000005322e302e32000000000000000000000000000000000000000000000000000000",
          "blockHash": "0x10d1aa52834f8b7e690deb5285bb6fdc0c44f8f2548eda314d85c1f431e7f8ba",
          "blockNumber": "0x81f6ae",
          "transactionHash": "0xf2cc82da3f2c0593aad79b68d93ee3e04029edd8f0f13463e693700e28d34d37",
          "transactionIndex": "0xc2",
          "logIndex": "0xce",
          "removed": false
        },
        {
          "address": "0x892fea978f22e61b47a16c8fe9231304b939de49",
          "topics": [
            "0xc7f505b2f371ae2175ee4913f4499e1f2633a7b5936321eed1cdaeb6115181d2"
          ],
          "data": "0x0000000000000000000000000000000000000000000000000000000000000001",
          "blockHash": "0x10d1aa52834f8b7e690deb5285bb6fdc0c44f8f2548eda314d85c1f431e7f8ba",
          "blockNumber": "0x81f6ae",
          "transactionHash": "0xf2cc82da3f2c0593aad79b68d93ee3e04029edd8f0f13463e693700e28d34d37",
          "transactionIndex": "0xc2",
          "logIndex": "0xcf",
          "removed": false
        },
        {
          "address": "0xa9a9b9d76c5449dcb4ff1b74e023bf3f6f8a30cf",
          "topics": [
            "0x8dc66cafb77b325538c856bfa5892b31ca7305adfa48f6a09e030e261cda0795",
            "0x000000000000000000000000892fea978f22e61b47a16c8fe9231304b939de49",
            "0x00000000000000000000000032452a25d664d4ccd781e082129aa07cdb276d88"
          ],
          "data": "0x00000000000000000000000000000000000000000000000000000000000007d2",
          "blockHash": "0x10d1aa52834f8b7e690deb5285bb6fdc0c44f8f2548eda314d85c1f431e7f8ba",
          "blockNumber": "0x81f6ae",
          "transactionHash": "0xf2cc82da3f2c0593aad79b68d93ee3e04029edd8f0f13463e693700e28d34d37",
          "transactionIndex": "0xc2",
          "logIndex": "0xd0",
          "removed": false
        },
        {
          "address": "0x5db9f4c9239345308614604e69258c0bba9b437f",
          "topics": [
            "0xddf252ad1be2c89b69c2b068fc378daa952ba7f163c4a11628f55a4df523b3ef",
            "0x000000000000000000000000673d0cc05aeb874869c13f34a630960b5131d6f7",
            "0x0000000000000000000000002fdc8da455064938ac75c91be42930c973c373f2"
          ],
          "data": "0x0000000000000000000000000000000000000000000000000000b5e620f48000",
          "blockHash": "0x10d1aa52834f8b7e690deb5285bb6fdc0c44f8f2548eda314d85c1f431e7f8ba",
          "blockNumber": "0x81f6ae",
          "transactionHash": "0xf2cc82da3f2c0593aad79b68d93ee3e04029edd8f0f13463e693700e28d34d37",
          "transactionIndex": "0xc2",
          "logIndex": "0xd1",
          "removed": false
        },
        {
          "address": "0x673d0cc05aeb874869c13f34a630960b5131d6f7",
          "topics": [
            "0xc4784f333fb4f086174aa7cc56e2eb0850c39bbda8f955f72ee77d54b13a3dd9",
            "0x000000000000000000000000000000000000000000000000000110d9316ec000",
            "0x000000000000000000000000000000000000000000000000000110d9316ebff0",
            "0x0000000000000000000000000000000000000000000000000000000000000000"
          ],
          "data": "0x00000000000000000000000097ba7778dd9ce27bd4953c136f3b3b7b087e14c1",
          "blockHash": "0x10d1aa52834f8b7e690deb5285bb6fdc0c44f8f2548eda314d85c1f431e7f8ba",
          "blockNumber": "0x81f6ae",
          "transactionHash": "0xf2cc82da3f2c0593aad79b68d93ee3e04029edd8f0f13463e693700e28d34d37",
          "transactionIndex": "0xc2",
          "logIndex": "0xd2",
          "removed": false
        }
      ],
      "logsBloom": "0x000000000000008000020000000000000000000000220000000000000400000000000000041000000002004000000002000000000000000000000080000400000000000000200200000011080000000000000000000400000000084004008000000000000240040000000000000008000000000010000000004000100000000000001000000000000008400000000000000000000080840000000000000000800000000080000000000000000000000020010020000000000000000000000080000000020000000000000000001000000000000004044000000000000000e0000000000000000002200000004000000000004000000004000000008100000000",
      "type": "0x2",
      "transactionHash": "0xf2cc82da3f2c0593aad79b68d93ee3e04029edd8f0f13463e693700e28d34d37",
      "transactionIndex": "0xc2",
      "blockHash": "0x10d1aa52834f8b7e690deb5285bb6fdc0c44f8f2548eda314d85c1f431e7f8ba",
      "blockNumber": "0x81f6ae",
      "gasUsed": "0x4a2ed",
      "effectiveGasPrice": "0xb042f7",
      "from": "0x97ba7778dd9ce27bd4953c136f3b3b7b087e14c1",
      "to": "0x673d0cc05aeb874869c13f34a630960b5131d6f7",
      "contractAddress": null
    }
  ],
  "libraries": [],
  "pending": [],
  "returns": {},
  "timestamp": 1749547575,
  "chain": 11155111,
  "commit": "f798767"
}