{
  "transactions": [
    {
      "hash": null,
      "transactionType": "CALL",
      "contractName": "WNFTV2Index",
      "contractAddress": "0x36013ecf61dba5eab01e4551360600440107b70d",
      "function": "createWNFTonFactory2((address,string,string,string,address[],bytes32[],uint256[],bytes))",
      "arguments": [
        "(0x5992Fe461F81C8E0aFFA95b831E50e9b3854BA0E, Envelop V2 Smart Index, ENVELOPV2, https://api.envelopm.is/wallet, [], [], [0, 0], 0x)"
      ],
      "transaction": {
        "from": "0x5992fe461f81c8e0affa95b831e50e9b3854ba0e",
        "to": "0x36013ecf61dba5eab01e4551360600440107b70d",
        "gas": "0x4254a",
        "value": "0x0",
        "input": "0xc56a27a000000000000000000000000000000000000000000000000000000000000000200000000000000000000000005992fe461f81c8e0affa95b831e50e9b3854ba0e00000000000000000000000000000000000000000000000000000000000001000000000000000000000000000000000000000000000000000000000000000140000000000000000000000000000000000000000000000000000000000000018000000000000000000000000000000000000000000000000000000000000001c000000000000000000000000000000000000000000000000000000000000001e0000000000000000000000000000000000000000000000000000000000000020000000000000000000000000000000000000000000000000000000000000002600000000000000000000000000000000000000000000000000000000000000016456e76656c6f7020563220536d61727420496e646578000000000000000000000000000000000000000000000000000000000000000000000000000000000009454e56454c4f5056320000000000000000000000000000000000000000000000000000000000000000000000000000000000000000000000000000000000001e68747470733a2f2f6170692e656e76656c6f706d2e69732f77616c6c65740000000000000000000000000000000000000000000000000000000000000000000000000000000000000000000000000000000000000000000000000000000000000000000000000000000000000000000000000000000000000000000000000002000000000000000000000000000000000000000000000000000000000000000000000000000000000000000000000000000000000000000000000000000000000000000000000000000000000000000000000000000000000000000000000000",
        "nonce": "0x557",
        "chainId": "0xaa36a7"
      },
      "additionalContracts": [
        {
          "transactionType": "CREATE2",
          "address": "0x64f95e5a243c408701a1d145ed9e749c0a19025a",
          "initCode": "0x3d602d80600a3d3981f3363d3d373d3d3d363d7336013ecf61dba5eab01e4551360600440107b70d5af43d82803e903d91602b57fd5bf3"
        }
      ],
      "isFixedGasLimit": false
    }
  ],
  "receipts": [],
  "libraries": [],
  "pending": [],
  "returns": {},
  "timestamp": 1739883977,
  "chain": 11155111,
  "commit": "7f28d97"
}