{
  "transactions": [
    {
      "hash": "0x0697781c1528e1fa7df374dd115f59431bdb20cb5624434392d0a97a835566cc",
      "transactionType": "CALL",
      "contractName": "WNFTV2Index",
      "contractAddress": "0x36013ecf61dba5eab01e4551360600440107b70d",
      "function": "createWNFTonFactory((address,string,string,string,address[],bytes32[],uint256[],bytes))",
      "arguments": [
        "(0x5992Fe461F81C8E0aFFA95b831E50e9b3854BA0E, , , , [], [], [0, 0], 0x)"
      ],
      "transaction": {
        "from": "0x5992fe461f81c8e0affa95b831e50e9b3854ba0e",
        "to": "0x36013ecf61dba5eab01e4551360600440107b70d",
        "gas": "0x402c9",
        "value": "0x0",
        "input": "0x7c3cc70700000000000000000000000000000000000000000000000000000000000000200000000000000000000000005992fe461f81c8e0affa95b831e50e9b3854ba0e0000000000000000000000000000000000000000000000000000000000000100000000000000000000000000000000000000000000000000000000000000012000000000000000000000000000000000000000000000000000000000000001400000000000000000000000000000000000000000000000000000000000000160000000000000000000000000000000000000000000000000000000000000018000000000000000000000000000000000000000000000000000000000000001a00000000000000000000000000000000000000000000000000000000000000200000000000000000000000000000000000000000000000000000000000000000000000000000000000000000000000000000000000000000000000000000000000000000000000000000000000000000000000000000000000000000000000000000000000000000000000000000000000000000000000000000000000000000000000000000000000000000000000000000000000000000000000000000000000000000000000000000000000000000000000000000000000000000000000002000000000000000000000000000000000000000000000000000000000000000000000000000000000000000000000000000000000000000000000000000000000000000000000000000000000000000000000000000000000000000000000000",
        "nonce": "0x544",
        "chainId": "0xaa36a7"
      },
      "additionalContracts": [
        {
          "transactionType": "CREATE",
          "address": "0x952aa40b73ccecf866c25d4f42fbbdbc35164002",
          "initCode": "0x3d602d80600a3d3981f3363d3d373d3d3d363d7336013ecf61dba5eab01e4551360600440107b70d5af43d82803e903d91602b57fd5bf3"
        }
      ],
      "isFixedGasLimit": false
    }
  ],
  "receipts": [
    {
      "status": "0x1",
      "cumulativeGasUsed": "0xaf0a26",
      "logs": [
        {
          "address": "0x952aa40b73ccecf866c25d4f42fbbdbc35164002",
          "topics": [
            "0xddf252ad1be2c89b69c2b068fc378daa952ba7f163c4a11628f55a4df523b3ef",
            "0x0000000000000000000000000000000000000000000000000000000000000000",
            "0x0000000000000000000000005992fe461f81c8e0affa95b831e50e9b3854ba0e",
            "0x0000000000000000000000000000000000000000000000000000000000000001"
          ],
          "data": "0x",
          "blockHash": "0xe8f9395911df738d848e2d0ea45c8184b16bd2bc09be811f64194301ff47044a",
          "blockNumber": "0x73aade",
          "transactionHash": "0x0697781c1528e1fa7df374dd115f59431bdb20cb5624434392d0a97a835566cc",
          "transactionIndex": "0x56",
          "logIndex": "0xd4",
          "removed": false
        },
        {
          "address": "0x952aa40b73ccecf866c25d4f42fbbdbc35164002",
          "topics": [
            "0xf8e1a15aba9398e019f0b49df1a4fde98ee17ae345cb5f6b5e2c27f5033e8ce7"
          ],
          "data": "0x0000000000000000000000000000000000000000000000000000000000000001",
          "blockHash": "0xe8f9395911df738d848e2d0ea45c8184b16bd2bc09be811f64194301ff47044a",
          "blockNumber": "0x73aade",
          "transactionHash": "0x0697781c1528e1fa7df374dd115f59431bdb20cb5624434392d0a97a835566cc",
          "transactionIndex": "0x56",
          "logIndex": "0xd5",
          "removed": false
        },
        {
          "address": "0x952aa40b73ccecf866c25d4f42fbbdbc35164002",
          "topics": [
            "0xfa6883374d3785c826e28c69c68c1b6dd2178accc8623f49c6829a75487419b3",
            "0x0000000000000000000000005992fe461f81c8e0affa95b831e50e9b3854ba0e",
            "0x0000000000000000000000000000000000000000000000000000000000000001",
            "0x0000000000000000000000000000000000000000000000000000000000000000"
          ],
          "data": "0x000000000000000000000000000000000000000000000000000000000000002000000000000000000000000000000000000000000000000000000000000000a00000000000000000000000000000000000000000000000000000000000000020000000000000000000000000000000000000000000000000000000000000004000000000000000000000000000000000000000000000000000000000000000000000000000000000000000000000000000000000000000000000000000000005322e302e31000000000000000000000000000000000000000000000000000000",
          "blockHash": "0xe8f9395911df738d848e2d0ea45c8184b16bd2bc09be811f64194301ff47044a",
          "blockNumber": "0x73aade",
          "transactionHash": "0x0697781c1528e1fa7df374dd115f59431bdb20cb5624434392d0a97a835566cc",
          "transactionIndex": "0x56",
          "logIndex": "0xd6",
          "removed": false
        },
        {
          "address": "0x952aa40b73ccecf866c25d4f42fbbdbc35164002",
          "topics": [
            "0xc7f505b2f371ae2175ee4913f4499e1f2633a7b5936321eed1cdaeb6115181d2"
          ],
          "data": "0x0000000000000000000000000000000000000000000000000000000000000001",
          "blockHash": "0xe8f9395911df738d848e2d0ea45c8184b16bd2bc09be811f64194301ff47044a",
          "blockNumber": "0x73aade",
          "transactionHash": "0x0697781c1528e1fa7df374dd115f59431bdb20cb5624434392d0a97a835566cc",
          "transactionIndex": "0x56",
          "logIndex": "0xd7",
          "removed": false
        },
        {
          "address": "0xa9a9b9d76c5449dcb4ff1b74e023bf3f6f8a30cf",
          "topics": [
            "0x8dc66cafb77b325538c856bfa5892b31ca7305adfa48f6a09e030e261cda0795",
            "0x000000000000000000000000952aa40b73ccecf866c25d4f42fbbdbc35164002",
            "0x00000000000000000000000036013ecf61dba5eab01e4551360600440107b70d"
          ],
          "data": "0x00000000000000000000000000000000000000000000000000000000000007d2",
          "blockHash": "0xe8f9395911df738d848e2d0ea45c8184b16bd2bc09be811f64194301ff47044a",
          "blockNumber": "0x73aade",
          "transactionHash": "0x0697781c1528e1fa7df374dd115f59431bdb20cb5624434392d0a97a835566cc",
          "transactionIndex": "0x56",
          "logIndex": "0xd8",
          "removed": false
        }
      ],
      "logsBloom": "0x00000000040000800002000000000000000000000000000000000000000000000000000000000000000000000000000000000000000000000000001000040000000000000000020000800108000000000000000000040040000000000000000000008000020000000000000000000800000000000000000000000010000000000000000800000000000800000000000000000000000084000000000000004080000000000000000100000000000000002000000000000000040000000200008000000002000001000000000000100000000000000004400000000000000060000000000000000000200000000000000000000000000004080000000000000000",
      "type": "0x2",
      "transactionHash": "0x0697781c1528e1fa7df374dd115f59431bdb20cb5624434392d0a97a835566cc",
      "transactionIndex": "0x56",
      "blockHash": "0xe8f9395911df738d848e2d0ea45c8184b16bd2bc09be811f64194301ff47044a",
      "blockNumber": "0x73aade",
      "gasUsed": "0x2e760",
      "effectiveGasPrice": "0x1ad6324df",
      "from": "0x5992fe461f81c8e0affa95b831e50e9b3854ba0e",
      "to": "0x36013ecf61dba5eab01e4551360600440107b70d",
      "contractAddress": null
    }
  ],
  "libraries": [],
  "pending": [],
  "returns": {},
  "timestamp": 1737965845,
  "chain": 11155111,
  "commit": "3fc134a"
}