{
  "transactions": [
    {
      "hash": "0xece68f4647248daeeaaed15815b15b3126c0dc8fe8639982d45e4f3ea5403f10",
      "transactionType": "CALL",
      "contractName": "WNFTV2Index",
      "contractAddress": "0x36013ecf61dba5eab01e4551360600440107b70d",
      "function": "createWNFTonFactory2((address,string,string,string,address[],bytes32[],uint256[],bytes))",
      "arguments": [
        "(0x5992Fe461F81C8E0aFFA95b831E50e9b3854BA0E, Envelop V2 Smart Index, ENVELOPV2, https://api.envelopm.is/wallet, [], [], [0, 0], 0x)"
      ],
      "transaction": {
        "from": "0x5992fe461f81c8e0affa95b831e50e9b3854ba0e",
        "to": "0x36013ecf61dba5eab01e4551360600440107b70d",
        "gas": "0x4254a",
        "value": "0x0",
        "input": "0xc56a27a000000000000000000000000000000000000000000000000000000000000000200000000000000000000000005992fe461f81c8e0affa95b831e50e9b3854ba0e00000000000000000000000000000000000000000000000000000000000001000000000000000000000000000000000000000000000000000000000000000140000000000000000000000000000000000000000000000000000000000000018000000000000000000000000000000000000000000000000000000000000001c000000000000000000000000000000000000000000000000000000000000001e0000000000000000000000000000000000000000000000000000000000000020000000000000000000000000000000000000000000000000000000000000002600000000000000000000000000000000000000000000000000000000000000016456e76656c6f7020563220536d61727420496e646578000000000000000000000000000000000000000000000000000000000000000000000000000000000009454e56454c4f5056320000000000000000000000000000000000000000000000000000000000000000000000000000000000000000000000000000000000001e68747470733a2f2f6170692e656e76656c6f706d2e69732f77616c6c65740000000000000000000000000000000000000000000000000000000000000000000000000000000000000000000000000000000000000000000000000000000000000000000000000000000000000000000000000000000000000000000000000002000000000000000000000000000000000000000000000000000000000000000000000000000000000000000000000000000000000000000000000000000000000000000000000000000000000000000000000000000000000000000000000000",
        "nonce": "0x557",
        "chainId": "0xaa36a7"
      },
      "additionalContracts": [
        {
          "transactionType": "CREATE2",
          "address": "0x64f95e5a243c408701a1d145ed9e749c0a19025a",
          "initCode": "0x3d602d80600a3d3981f3363d3d373d3d3d363d7336013ecf61dba5eab01e4551360600440107b70d5af43d82803e903d91602b57fd5bf3"
        }
      ],
      "isFixedGasLimit": false
    }
  ],
  "receipts": [
    {
      "status": "0x1",
      "cumulativeGasUsed": "0xfcbca9",
      "logs": [
        {
          "address": "0x64f95e5a243c408701a1d145ed9e749c0a19025a",
          "topics": [
            "0xddf252ad1be2c89b69c2b068fc378daa952ba7f163c4a11628f55a4df523b3ef",
            "0x0000000000000000000000000000000000000000000000000000000000000000",
            "0x0000000000000000000000005992fe461f81c8e0affa95b831e50e9b3854ba0e",
            "0x0000000000000000000000000000000000000000000000000000000000000001"
          ],
          "data": "0x",
          "blockHash": "0x04f16ce80567dc4bc20ac9fc3592f7005d24d9511b20ea7a37ca7eea0e2c09a1",
          "blockNumber": "0x7602df",
          "transactionHash": "0xece68f4647248daeeaaed15815b15b3126c0dc8fe8639982d45e4f3ea5403f10",
          "transactionIndex": "0x89",
          "logIndex": "0x9d",
          "removed": false
        },
        {
          "address": "0x64f95e5a243c408701a1d145ed9e749c0a19025a",
          "topics": [
            "0xf8e1a15aba9398e019f0b49df1a4fde98ee17ae345cb5f6b5e2c27f5033e8ce7"
          ],
          "data": "0x0000000000000000000000000000000000000000000000000000000000000001",
          "blockHash": "0x04f16ce80567dc4bc20ac9fc3592f7005d24d9511b20ea7a37ca7eea0e2c09a1",
          "blockNumber": "0x7602df",
          "transactionHash": "0xece68f4647248daeeaaed15815b15b3126c0dc8fe8639982d45e4f3ea5403f10",
          "transactionIndex": "0x89",
          "logIndex": "0x9e",
          "removed": false
        },
        {
          "address": "0x64f95e5a243c408701a1d145ed9e749c0a19025a",
          "topics": [
            "0xfa6883374d3785c826e28c69c68c1b6dd2178accc8623f49c6829a75487419b3",
            "0x0000000000000000000000005992fe461f81c8e0affa95b831e50e9b3854ba0e",
            "0x0000000000000000000000000000000000000000000000000000000000000001",
            "0x0000000000000000000000000000000000000000000000000000000000000000"
          ],
          "data": "0x000000000000000000000000000000000000000000000000000000000000002000000000000000000000000000000000000000000000000000000000000000a00000000000000000000000000000000000000000000000000000000000000020000000000000000000000000000000000000000000000000000000000000004000000000000000000000000000000000000000000000000000000000000000000000000000000000000000000000000000000000000000000000000000000005322e302e31000000000000000000000000000000000000000000000000000000",
          "blockHash": "0x04f16ce80567dc4bc20ac9fc3592f7005d24d9511b20ea7a37ca7eea0e2c09a1",
          "blockNumber": "0x7602df",
          "transactionHash": "0xece68f4647248daeeaaed15815b15b3126c0dc8fe8639982d45e4f3ea5403f10",
          "transactionIndex": "0x89",
          "logIndex": "0x9f",
          "removed": false
        },
        {
          "address": "0x64f95e5a243c408701a1d145ed9e749c0a19025a",
          "topics": [
            "0xc7f505b2f371ae2175ee4913f4499e1f2633a7b5936321eed1cdaeb6115181d2"
          ],
          "data": "0x0000000000000000000000000000000000000000000000000000000000000001",
          "blockHash": "0x04f16ce80567dc4bc20ac9fc3592f7005d24d9511b20ea7a37ca7eea0e2c09a1",
          "blockNumber": "0x7602df",
          "transactionHash": "0xece68f4647248daeeaaed15815b15b3126c0dc8fe8639982d45e4f3ea5403f10",
          "transactionIndex": "0x89",
          "logIndex": "0xa0",
          "removed": false
        },
        {
          "address": "0xa9a9b9d76c5449dcb4ff1b74e023bf3f6f8a30cf",
          "topics": [
            "0x8dc66cafb77b325538c856bfa5892b31ca7305adfa48f6a09e030e261cda0795",
            "0x00000000000000000000000064f95e5a243c408701a1d145ed9e749c0a19025a",
            "0x00000000000000000000000036013ecf61dba5eab01e4551360600440107b70d"
          ],
          "data": "0x00000000000000000000000000000000000000000000000000000000000007d2",
          "blockHash": "0x04f16ce80567dc4bc20ac9fc3592f7005d24d9511b20ea7a37ca7eea0e2c09a1",
          "blockNumber": "0x7602df",
          "transactionHash": "0xece68f4647248daeeaaed15815b15b3126c0dc8fe8639982d45e4f3ea5403f10",
          "transactionIndex": "0x89",
          "logIndex": "0xa1",
          "removed": false
        }
      ],
      "logsBloom": "0x00000000040000800002000000000000000000000000000000000000000000000000000000000000000000000000000000000000000000000000000000040000020000000000020000800108000000000000000000040000000000000000000000000000020000000000000000000800000000000000000000000010000000000000000800000000000800000000000000000000000084000002000000004080000002000000008000000000000000002000000000000000040000000000008000000002000000000000000000100000000000000004400042000000000060000000000000000000200000000000000000000000000004080000000000000000",
      "type": "0x2",
      "transactionHash": "0xece68f4647248daeeaaed15815b15b3126c0dc8fe8639982d45e4f3ea5403f10",
      "transactionIndex": "0x89",
      "blockHash": "0x04f16ce80567dc4bc20ac9fc3592f7005d24d9511b20ea7a37ca7eea0e2c09a1",
      "blockNumber": "0x7602df",
      "gasUsed": "0x3005c",
      "effectiveGasPrice": "0x413915aa",
      "from": "0x5992fe461f81c8e0affa95b831e50e9b3854ba0e",
      "to": "0x36013ecf61dba5eab01e4551360600440107b70d",
      "contractAddress": null
    }
  ],
  "libraries": [],
  "pending": [],
  "returns": {},
  "timestamp": 1739884009,
  "chain": 11155111,
  "commit": "7f28d97"
}