{
  "transactions": [
    {
      "hash": "0x496c1b751183d3dfb0d25e9bc78981d94a9517e20c1e0c0231102d1b5fc63062",
      "transactionType": "CALL",
      "contractName": null,
      "contractAddress": "0x952aa40b73ccecf866c25d4f42fbbdbc35164002",
      "function": "executeEncodedTxBatch(address[],uint256[],bytes[])",
      "arguments": [
        "[0x36013ECf61dBA5EAB01E4551360600440107b70D, 0x36013ECf61dBA5EAB01E4551360600440107b70D]",
        "[0, 0]",
        "[0xc56a27a000000000000000000000000000000000000000000000000000000000000000200000000000000000000000005992fe461f81c8e0affa95b831e50e9b3854ba0e0000000000000000000000000000000000000000000000000000000000000100000000000000000000000000000000000000000000000000000000000000012000000000000000000000000000000000000000000000000000000000000001400000000000000000000000000000000000000000000000000000000000000160000000000000000000000000000000000000000000000000000000000000018000000000000000000000000000000000000000000000000000000000000001a00000000000000000000000000000000000000000000000000000000000000200000000000000000000000000000000000000000000000000000000000000000000000000000000000000000000000000000000000000000000000000000000000000000000000000000000000000000000000000000000000000000000000000000000000000000000000000000000000000000000000000000000000000000000000000000000000000000000000000000000000000000000000000000000000000000000000000000000000000000000000000000000000000000000000002000000000000000000000000000000000000000000000000000000000000000000000000000000000000000000000000000000000000000000000000000000000000000000000000000000000000000000000000000000000000000000000000, 0xc56a27a000000000000000000000000000000000000000000000000000000000000000200000000000000000000000005992fe461f81c8e0affa95b831e50e9b3854ba0e0000000000000000000000000000000000000000000000000000000000000100000000000000000000000000000000000000000000000000000000000000012000000000000000000000000000000000000000000000000000000000000001400000000000000000000000000000000000000000000000000000000000000160000000000000000000000000000000000000000000000000000000000000018000000000000000000000000000000000000000000000000000000000000001a00000000000000000000000000000000000000000000000000000000000000200000000000000000000000000000000000000000000000000000000000000000000000000000000000000000000000000000000000000000000000000000000000000000000000000000000000000000000000000000000000000000000000000000000000000000000000000000000000000000000000000000000000000000000000000000000000000000000000000000000000000000000000000000000000000000000000000000000000000000000000000000000000000000000000002000000000000000000000000000000000000000000000000000000000000000000000000000000000000000000000000000000000000000000000000000000000000000000000000000000000000000000000000000000000000000000000000]"
      ],
      "transaction": {
        "from": "0x5992fe461f81c8e0affa95b831e50e9b3854ba0e",
        "to": "0x952aa40b73ccecf866c25d4f42fbbdbc35164002",
        "gas": "0x888aa",
        "value": "0x0",
        "input": "0xd42053bc000000000000000000000000000000000000000000000000000000000000006000000000000000000000000000000000000000000000000000000000000000c00000000000000000000000000000000000000000000000000000000000000120000000000000000000000000000000000000000000000000000000000000000200000000000000000000000036013ecf61dba5eab01e4551360600440107b70d00000000000000000000000036013ecf61dba5eab01e4551360600440107b70d0000000000000000000000000000000000000000000000000000000000000002000000000000000000000000000000000000000000000000000000000000000000000000000000000000000000000000000000000000000000000000000000000000000000000000000000000000000000000000000000000000000000000002000000000000000000000000000000000000000000000000000000000000004000000000000000000000000000000000000000000000000000000000000002c00000000000000000000000000000000000000000000000000000000000000244c56a27a000000000000000000000000000000000000000000000000000000000000000200000000000000000000000005992fe461f81c8e0affa95b831e50e9b3854ba0e0000000000000000000000000000000000000000000000000000000000000100000000000000000000000000000000000000000000000000000000000000012000000000000000000000000000000000000000000000000000000000000001400000000000000000000000000000000000000000000000000000000000000160000000000000000000000000000000000000000000000000000000000000018000000000000000000000000000000000000000000000000000000000000001a00000000000000000000000000000000000000000000000000000000000000200000000000000000000000000000000000000000000000000000000000000000000000000000000000000000000000000000000000000000000000000000000000000000000000000000000000000000000000000000000000000000000000000000000000000000000000000000000000000000000000000000000000000000000000000000000000000000000000000000000000000000000000000000000000000000000000000000000000000000000000000000000000000000000000002000000000000000000000000000000000000000000000000000000000000000000000000000000000000000000000000000000000000000000000000000000000000000000000000000000000000000000000000000000000000000000000000000000000000000000000000000000000000000000000000000000000000000000000000000000000000000000000000000000000000000000000244c56a27a000000000000000000000000000000000000000000000000000000000000000200000000000000000000000005992fe461f81c8e0affa95b831e50e9b3854ba0e0000000000000000000000000000000000000000000000000000000000000100000000000000000000000000000000000000000000000000000000000000012000000000000000000000000000000000000000000000000000000000000001400000000000000000000000000000000000000000000000000000000000000160000000000000000000000000000000000000000000000000000000000000018000000000000000000000000000000000000000000000000000000000000001a0000000000000000000000000000000000000000000000000000000000000020000000000000000000000000000000000000000000000000000000000000000000000000000000000000000000000000000000000000000000000000000000000000000000000000000000000000000000000000000000000000000000000000000000000000000000000000000000000000000000000000000000000000000000000000000000000000000000000000000000000000000000000000000000000000000000000000000000000000000000000000000000000000000000000000200000000000000000000000000000000000000000000000000000000000000000000000000000000000000000000000000000000000000000000000000000000000000000000000000000000000000000000000000000000000000000000000000000000000000000000000000000000000000000000000000000000",
        "nonce": "0x545",
        "chainId": "0xaa36a7"
      },
      "additionalContracts": [
        {
          "transactionType": "CREATE2",
          "address": "0xaa87ada13a5f5f7ba5a33619feb4b9f3dd11fdb7",
          "initCode": "0x3d602d80600a3d3981f3363d3d373d3d3d363d7336013ecf61dba5eab01e4551360600440107b70d5af43d82803e903d91602b57fd5bf3"
        },
        {
          "transactionType": "CREATE2",
          "address": "0xea727b4c9a6386b7d5883496c4ec7e2bfd401996",
          "initCode": "0x3d602d80600a3d3981f3363d3d373d3d3d363d7336013ecf61dba5eab01e4551360600440107b70d5af43d82803e903d91602b57fd5bf3"
        }
      ],
      "isFixedGasLimit": false
    }
  ],
  "receipts": [
    {
      "status": "0x1",
      "cumulativeGasUsed": "0x911291",
      "logs": [
        {
          "address": "0xaa87ada13a5f5f7ba5a33619feb4b9f3dd11fdb7",
          "topics": [
            "0xddf252ad1be2c89b69c2b068fc378daa952ba7f163c4a11628f55a4df523b3ef",
            "0x0000000000000000000000000000000000000000000000000000000000000000",
            "0x0000000000000000000000005992fe461f81c8e0affa95b831e50e9b3854ba0e",
            "0x0000000000000000000000000000000000000000000000000000000000000001"
          ],
          "data": "0x",
          "blockHash": "0xb520faa5a0de580faeaff8b2f7e7586039a7bb733228bf915edc89410cbd2bea",
          "blockNumber": "0x73ab49",
          "transactionHash": "0x496c1b751183d3dfb0d25e9bc78981d94a9517e20c1e0c0231102d1b5fc63062",
          "transactionIndex": "0x4e",
          "logIndex": "0x61",
          "removed": false
        },
        {
          "address": "0xaa87ada13a5f5f7ba5a33619feb4b9f3dd11fdb7",
          "topics": [
            "0xf8e1a15aba9398e019f0b49df1a4fde98ee17ae345cb5f6b5e2c27f5033e8ce7"
          ],
          "data": "0x0000000000000000000000000000000000000000000000000000000000000001",
          "blockHash": "0xb520faa5a0de580faeaff8b2f7e7586039a7bb733228bf915edc89410cbd2bea",
          "blockNumber": "0x73ab49",
          "transactionHash": "0x496c1b751183d3dfb0d25e9bc78981d94a9517e20c1e0c0231102d1b5fc63062",
          "transactionIndex": "0x4e",
          "logIndex": "0x62",
          "removed": false
        },
        {
          "address": "0xaa87ada13a5f5f7ba5a33619feb4b9f3dd11fdb7",
          "topics": [
            "0xfa6883374d3785c826e28c69c68c1b6dd2178accc8623f49c6829a75487419b3",
            "0x0000000000000000000000005992fe461f81c8e0affa95b831e50e9b3854ba0e",
            "0x0000000000000000000000000000000000000000000000000000000000000001",
            "0x0000000000000000000000000000000000000000000000000000000000000000"
          ],
          "data": "0x000000000000000000000000000000000000000000000000000000000000002000000000000000000000000000000000000000000000000000000000000000a00000000000000000000000000000000000000000000000000000000000000020000000000000000000000000000000000000000000000000000000000000004000000000000000000000000000000000000000000000000000000000000000000000000000000000000000000000000000000000000000000000000000000005322e302e31000000000000000000000000000000000000000000000000000000",
          "blockHash": "0xb520faa5a0de580faeaff8b2f7e7586039a7bb733228bf915edc89410cbd2bea",
          "blockNumber": "0x73ab49",
          "transactionHash": "0x496c1b751183d3dfb0d25e9bc78981d94a9517e20c1e0c0231102d1b5fc63062",
          "transactionIndex": "0x4e",
          "logIndex": "0x63",
          "removed": false
        },
        {
          "address": "0xaa87ada13a5f5f7ba5a33619feb4b9f3dd11fdb7",
          "topics": [
            "0xc7f505b2f371ae2175ee4913f4499e1f2633a7b5936321eed1cdaeb6115181d2"
          ],
          "data": "0x0000000000000000000000000000000000000000000000000000000000000001",
          "blockHash": "0xb520faa5a0de580faeaff8b2f7e7586039a7bb733228bf915edc89410cbd2bea",
          "blockNumber": "0x73ab49",
          "transactionHash": "0x496c1b751183d3dfb0d25e9bc78981d94a9517e20c1e0c0231102d1b5fc63062",
          "transactionIndex": "0x4e",
          "logIndex": "0x64",
          "removed": false
        },
        {
          "address": "0xa9a9b9d76c5449dcb4ff1b74e023bf3f6f8a30cf",
          "topics": [
            "0x8dc66cafb77b325538c856bfa5892b31ca7305adfa48f6a09e030e261cda0795",
            "0x000000000000000000000000aa87ada13a5f5f7ba5a33619feb4b9f3dd11fdb7",
            "0x00000000000000000000000036013ecf61dba5eab01e4551360600440107b70d"
          ],
          "data": "0x00000000000000000000000000000000000000000000000000000000000007d2",
          "blockHash": "0xb520faa5a0de580faeaff8b2f7e7586039a7bb733228bf915edc89410cbd2bea",
          "blockNumber": "0x73ab49",
          "transactionHash": "0x496c1b751183d3dfb0d25e9bc78981d94a9517e20c1e0c0231102d1b5fc63062",
          "transactionIndex": "0x4e",
          "logIndex": "0x65",
          "removed": false
        },
        {
          "address": "0xea727b4c9a6386b7d5883496c4ec7e2bfd401996",
          "topics": [
            "0xddf252ad1be2c89b69c2b068fc378daa952ba7f163c4a11628f55a4df523b3ef",
            "0x0000000000000000000000000000000000000000000000000000000000000000",
            "0x0000000000000000000000005992fe461f81c8e0affa95b831e50e9b3854ba0e",
            "0x0000000000000000000000000000000000000000000000000000000000000001"
          ],
          "data": "0x",
          "blockHash": "0xb520faa5a0de580faeaff8b2f7e7586039a7bb733228bf915edc89410cbd2bea",
          "blockNumber": "0x73ab49",
          "transactionHash": "0x496c1b751183d3dfb0d25e9bc78981d94a9517e20c1e0c0231102d1b5fc63062",
          "transactionIndex": "0x4e",
          "logIndex": "0x66",
          "removed": false
        },
        {
          "address": "0xea727b4c9a6386b7d5883496c4ec7e2bfd401996",
          "topics": [
            "0xf8e1a15aba9398e019f0b49df1a4fde98ee17ae345cb5f6b5e2c27f5033e8ce7"
          ],
          "data": "0x0000000000000000000000000000000000000000000000000000000000000001",
          "blockHash": "0xb520faa5a0de580faeaff8b2f7e7586039a7bb733228bf915edc89410cbd2bea",
          "blockNumber": "0x73ab49",
          "transactionHash": "0x496c1b751183d3dfb0d25e9bc78981d94a9517e20c1e0c0231102d1b5fc63062",
          "transactionIndex": "0x4e",
          "logIndex": "0x67",
          "removed": false
        },
        {
          "address": "0xea727b4c9a6386b7d5883496c4ec7e2bfd401996",
          "topics": [
            "0xfa6883374d3785c826e28c69c68c1b6dd2178accc8623f49c6829a75487419b3",
            "0x0000000000000000000000005992fe461f81c8e0affa95b831e50e9b3854ba0e",
            "0x0000000000000000000000000000000000000000000000000000000000000001",
            "0x0000000000000000000000000000000000000000000000000000000000000000"
          ],
          "data": "0x000000000000000000000000000000000000000000000000000000000000002000000000000000000000000000000000000000000000000000000000000000a00000000000000000000000000000000000000000000000000000000000000020000000000000000000000000000000000000000000000000000000000000004000000000000000000000000000000000000000000000000000000000000000000000000000000000000000000000000000000000000000000000000000000005322e302e31000000000000000000000000000000000000000000000000000000",
          "blockHash": "0xb520faa5a0de580faeaff8b2f7e7586039a7bb733228bf915edc89410cbd2bea",
          "blockNumber": "0x73ab49",
          "transactionHash": "0x496c1b751183d3dfb0d25e9bc78981d94a9517e20c1e0c0231102d1b5fc63062",
          "transactionIndex": "0x4e",
          "logIndex": "0x68",
          "removed": false
        },
        {
          "address": "0xea727b4c9a6386b7d5883496c4ec7e2bfd401996",
          "topics": [
            "0xc7f505b2f371ae2175ee4913f4499e1f2633a7b5936321eed1cdaeb6115181d2"
          ],
          "data": "0x0000000000000000000000000000000000000000000000000000000000000001",
          "blockHash": "0xb520faa5a0de580faeaff8b2f7e7586039a7bb733228bf915edc89410cbd2bea",
          "blockNumber": "0x73ab49",
          "transactionHash": "0x496c1b751183d3dfb0d25e9bc78981d94a9517e20c1e0c0231102d1b5fc63062",
          "transactionIndex": "0x4e",
          "logIndex": "0x69",
          "removed": false
        },
        {
          "address": "0xa9a9b9d76c5449dcb4ff1b74e023bf3f6f8a30cf",
          "topics": [
            "0x8dc66cafb77b325538c856bfa5892b31ca7305adfa48f6a09e030e261cda0795",
            "0x000000000000000000000000ea727b4c9a6386b7d5883496c4ec7e2bfd401996",
            "0x00000000000000000000000036013ecf61dba5eab01e4551360600440107b70d"
          ],
          "data": "0x00000000000000000000000000000000000000000000000000000000000007d2",
          "blockHash": "0xb520faa5a0de580faeaff8b2f7e7586039a7bb733228bf915edc89410cbd2bea",
          "blockNumber": "0x73ab49",
          "transactionHash": "0x496c1b751183d3dfb0d25e9bc78981d94a9517e20c1e0c0231102d1b5fc63062",
          "transactionIndex": "0x4e",
          "logIndex": "0x6a",
          "removed": false
        }
      ],
      "logsBloom": "0x00000000040000800002000000000000000000000000000000000000000000000000000000000000000000000000000000000000000000000000000000040000000000000000020000800108000000000001000000040000000000400000000080000000020000000000000000000800000000000000000000000010000000000004000800000000000800000000000044000000000184000000008000004080000000004000000000000000000000002000000000000000040000000000008000000002000000000000000000100000000000040004400000000040000060000000000000000000200000000000000000000000000004080000100000000000",
      "type": "0x2",
      "transactionHash": "0x496c1b751183d3dfb0d25e9bc78981d94a9517e20c1e0c0231102d1b5fc63062",
      "transactionIndex": "0x4e",
      "blockHash": "0xb520faa5a0de580faeaff8b2f7e7586039a7bb733228bf915edc89410cbd2bea",
      "blockNumber": "0x73ab49",
      "gasUsed": "0x5d5ca",
      "effectiveGasPrice": "0x26ad6c080",
      "from": "0x5992fe461f81c8e0affa95b831e50e9b3854ba0e",
      "to": "0x952aa40b73ccecf866c25d4f42fbbdbc35164002",
      "contractAddress": null
    }
  ],
  "libraries": [],
  "pending": [],
  "returns": {},
  "timestamp": 1737967236,
  "chain": 11155111,
  "commit": "3fc134a"
}