{
  "transactions": [
    {
      "hash": "0xb283c8cf8de6a4c81b1eca75b9a1981a88e799bff7cf43c7e38638fd729a9338",
      "transactionType": "CALL",
      "contractName": "WNFTV2Envelop721",
      "contractAddress": "0x53e5ca35761cd24d83479f9066e4c0281ded59da",
      "function": "createWNFTonFactory((address,string,string,string,address[],bytes32[],uint256[],bytes))",
      "arguments": [
        "(0x5992Fe461F81C8E0aFFA95b831E50e9b3854BA0E, Envelop, ENV, https://api.envelop.is/metadata/, [], [], [], 0x)"
      ],
      "transaction": {
        "from": "0x5992fe461f81c8e0affa95b831e50e9b3854ba0e",
        "to": "0x53e5ca35761cd24d83479f9066e4c0281ded59da",
        "gas": "0x59eb1",
        "value": "0x0",
        "input": "0x7c3cc70700000000000000000000000000000000000000000000000000000000000000200000000000000000000000005992fe461f81c8e0affa95b831e50e9b3854ba0e00000000000000000000000000000000000000000000000000000000000001000000000000000000000000000000000000000000000000000000000000000140000000000000000000000000000000000000000000000000000000000000018000000000000000000000000000000000000000000000000000000000000001c000000000000000000000000000000000000000000000000000000000000001e0000000000000000000000000000000000000000000000000000000000000020000000000000000000000000000000000000000000000000000000000000002200000000000000000000000000000000000000000000000000000000000000007456e76656c6f70000000000000000000000000000000000000000000000000000000000000000000000000000000000000000000000000000000000000000003454e560000000000000000000000000000000000000000000000000000000000000000000000000000000000000000000000000000000000000000000000002068747470733a2f2f6170692e656e76656c6f702e69732f6d657461646174612f0000000000000000000000000000000000000000000000000000000000000000000000000000000000000000000000000000000000000000000000000000000000000000000000000000000000000000000000000000000000000000000000000000000000000000000000000000000000000000000000000000000000000000",
        "nonce": "0x542",
        "chainId": "0xaa36a7"
      },
      "additionalContracts": [],
      "isFixedGasLimit": false
    }
  ],
  "receipts": [
    {
      "status": "0x1",
      "cumulativeGasUsed": "0xf8f8b2",
      "logs": [
        {
          "address": "0xf380e30a1592a10cf92b64d4998c25d60fe5dca2",
          "topics": [
            "0xddf252ad1be2c89b69c2b068fc378daa952ba7f163c4a11628f55a4df523b3ef",
            "0x0000000000000000000000000000000000000000000000000000000000000000",
            "0x0000000000000000000000005992fe461f81c8e0affa95b831e50e9b3854ba0e",
            "0x0000000000000000000000000000000000000000000000000000000000000001"
          ],
          "data": "0x",
          "blockHash": "0xfd3b2f0dcddf094cc6a2d9ed3062e50f7afdf48322e7efccbe63410def19a783",
          "blockNumber": "0x73a710",
          "transactionHash": "0xb283c8cf8de6a4c81b1eca75b9a1981a88e799bff7cf43c7e38638fd729a9338",
          "transactionIndex": "0x68",
          "logIndex": "0xf8",
          "removed": false
        },
        {
          "address": "0xf380e30a1592a10cf92b64d4998c25d60fe5dca2",
          "topics": [
            "0xf8e1a15aba9398e019f0b49df1a4fde98ee17ae345cb5f6b5e2c27f5033e8ce7"
          ],
          "data": "0x0000000000000000000000000000000000000000000000000000000000000001",
          "blockHash": "0xfd3b2f0dcddf094cc6a2d9ed3062e50f7afdf48322e7efccbe63410def19a783",
          "blockNumber": "0x73a710",
          "transactionHash": "0xb283c8cf8de6a4c81b1eca75b9a1981a88e799bff7cf43c7e38638fd729a9338",
          "transactionIndex": "0x68",
          "logIndex": "0xf9",
          "removed": false
        },
        {
          "address": "0xf380e30a1592a10cf92b64d4998c25d60fe5dca2",
          "topics": [
            "0xfa6883374d3785c826e28c69c68c1b6dd2178accc8623f49c6829a75487419b3",
            "0x0000000000000000000000005992fe461f81c8e0affa95b831e50e9b3854ba0e",
            "0x0000000000000000000000000000000000000000000000000000000000000001",
            "0x0000000000000000000000000000000000000000000000000000000000000000"
          ],
          "data": "0x00000000000000000000000000000000000000000000000000000000000000200000000000000000000000000000000000000000000000000000000000000000",
          "blockHash": "0xfd3b2f0dcddf094cc6a2d9ed3062e50f7afdf48322e7efccbe63410def19a783",
          "blockNumber": "0x73a710",
          "transactionHash": "0xb283c8cf8de6a4c81b1eca75b9a1981a88e799bff7cf43c7e38638fd729a9338",
          "transactionIndex": "0x68",
          "logIndex": "0xfa",
          "removed": false
        },
        {
          "address": "0xf380e30a1592a10cf92b64d4998c25d60fe5dca2",
          "topics": [
            "0xc7f505b2f371ae2175ee4913f4499e1f2633a7b5936321eed1cdaeb6115181d2"
          ],
          "data": "0x0000000000000000000000000000000000000000000000000000000000000001",
          "blockHash": "0xfd3b2f0dcddf094cc6a2d9ed3062e50f7afdf48322e7efccbe63410def19a783",
          "blockNumber": "0x73a710",
          "transactionHash": "0xb283c8cf8de6a4c81b1eca75b9a1981a88e799bff7cf43c7e38638fd729a9338",
          "transactionIndex": "0x68",
          "logIndex": "0xfb",
          "removed": false
        },
        {
          "address": "0x431db5c6ce5d85a0baa2198aa7aa0e65d37a25c8",
          "topics": [
            "0x8dc66cafb77b325538c856bfa5892b31ca7305adfa48f6a09e030e261cda0795",
            "0x000000000000000000000000f380e30a1592a10cf92b64d4998c25d60fe5dca2",
            "0x00000000000000000000000053e5ca35761cd24d83479f9066e4c0281ded59da"
          ],
          "data": "0x00000000000000000000000000000000000000000000000000000000000007d2",
          "blockHash": "0xfd3b2f0dcddf094cc6a2d9ed3062e50f7afdf48322e7efccbe63410def19a783",
          "blockNumber": "0x73a710",
          "transactionHash": "0xb283c8cf8de6a4c81b1eca75b9a1981a88e799bff7cf43c7e38638fd729a9338",
          "transactionIndex": "0x68",
          "logIndex": "0xfc",
          "removed": false
        }
      ],
      "logsBloom": "0x00000000000100800000001000000000000000000000000000000000020002000100000000000000000000000000000000000000000000000000000000040000000000000000020000000108000000000000000000040000000000000000000000000000820000000000000100000800000000000000000000000010000000000000000800000180000800000000000000000000000080000000004000004080000000000000000000000000000000002000000000000000040000000000008000000002000000000000000000100000000000000004400000000000000062000000000000000000200000004000000000000000000000000000000000000000",
      "type": "0x2",
      "transactionHash": "0xb283c8cf8de6a4c81b1eca75b9a1981a88e799bff7cf43c7e38638fd729a9338",
      "transactionIndex": "0x68",
      "blockHash": "0xfd3b2f0dcddf094cc6a2d9ed3062e50f7afdf48322e7efccbe63410def19a783",
      "blockNumber": "0x73a710",
      "gasUsed": "0x3d7bd",
      "effectiveGasPrice": "0x64cf4294",
      "from": "0x5992fe461f81c8e0affa95b831e50e9b3854ba0e",
      "to": "0x53e5ca35761cd24d83479f9066e4c0281ded59da",
      "contractAddress": null
    }
  ],
  "libraries": [],
  "pending": [],
  "returns": {},
  "timestamp": 1737953546,
  "chain": 11155111,
  "commit": "3fc134a"
}