{
  "transactions": [
    {
      "hash": "0x98e81a5aa31d0c42e67070dc1e3a4602e84a830411ba5715dc2f4df5cc55d71c",
      "transactionType": "CALL",
      "contractName": "WNFTV2Index",
      "contractAddress": "0x3bfd12a303a41a6b31bb62af90657b0b53eb6efc",
      "function": "executeEncodedTx(address,uint256,bytes)",
      "arguments": [
        "0x5992Fe461F81C8E0aFFA95b831E50e9b3854BA0E",
        "10000000",
        "0x"
      ],
      "transaction": {
        "from": "0x5992fe461f81c8e0affa95b831e50e9b3854ba0e",
        "to": "0x3bfd12a303a41a6b31bb62af90657b0b53eb6efc",
        "gas": "0xd7a5",
        "value": "0x0",
        "input": "0xdc15f5300000000000000000000000005992fe461f81c8e0affa95b831e50e9b3854ba0e000000000000000000000000000000000000000000000000000000000098968000000000000000000000000000000000000000000000000000000000000000600000000000000000000000000000000000000000000000000000000000000000",
        "nonce": "0x53d",
        "chainId": "0xaa36a7"
      },
      "additionalContracts": [],
      "isFixedGasLimit": false
    }
  ],
  "receipts": [
    {
      "status": "0x1",
      "cumulativeGasUsed": "0x1b1ca7b",
      "logs": [
        {
          "address": "0x3bfd12a303a41a6b31bb62af90657b0b53eb6efc",
          "topics": [
            "0xc4784f333fb4f086174aa7cc56e2eb0850c39bbda8f955f72ee77d54b13a3dd9",
            "0x00000000000000000000000000000000000000000000000000005af3107a4000",
            "0x00000000000000000000000000000000000000000000000000005af30fe1a980",
            "0x0000000000000000000000000000000000000000000000000000000000000000"
          ],
          "data": "0x0000000000000000000000005992fe461f81c8e0affa95b831e50e9b3854ba0e",
          "blockHash": "0x606ab11c0b28778d15420e4eae5d735014b243130304168fdd21b35d30cd5c8c",
          "blockNumber": "0x716a37",
          "transactionHash": "0x98e81a5aa31d0c42e67070dc1e3a4602e84a830411ba5715dc2f4df5cc55d71c",
          "transactionIndex": "0xce",
          "logIndex": "0x141",
          "removed": false
        }
      ],
      "logsBloom": "0x00000000000000000000000000000000000000800000000000000020000000000000000000000000000000000000000000000000000000000000000000000000000000000020000000000000000000000000000000000000000000000000000000000000020800000000000000000800000000001000000000000000000000000000000000000000000000000000000000000000000000000000000000000000000008000000000000000000000000000000000000000000000000000000800000000000000000000800000000000000000000800000000000000000004020000000000000000002000000000000001000000000000000000000000000000000",
      "type": "0x2",
      "transactionHash": "0x98e81a5aa31d0c42e67070dc1e3a4602e84a830411ba5715dc2f4df5cc55d71c",
      "transactionIndex": "0xce",
      "blockHash": "0x606ab11c0b28778d15420e4eae5d735014b243130304168fdd21b35d30cd5c8c",
      "blockNumber": "0x716a37",
      "gasUsed": "0x9c20",
      "effectiveGasPrice": "0x58aea8d1d",
      "from": "0x5992fe461f81c8e0affa95b831e50e9b3854ba0e",
      "to": "0x3bfd12a303a41a6b31bb62af90657b0b53eb6efc",
      "contractAddress": null
    }
  ],
  "libraries": [],
  "pending": [],
  "returns": {},
  "timestamp": 1736162125,
  "chain": 11155111,
  "commit": "614f8b3"
}