{
  "transactions": [
    {
      "hash": null,
      "transactionType": "CALL",
      "contractName": "WNFTV2Envelop721",
      "contractAddress": "0xe738cd578e1adc6c7da7f0796775f4cefb37d146",
      "function": "createWNFTonFactory((address,string,string,string,address[],bytes32[],uint256[],bytes))",
      "arguments": [
        "(0x13B9cBcB46aD79878af8c9faa835Bee19B977D3D, Envelop V2 Smart Wallet, ENVELOPV2, https://api.envelop.is/wallet, [], [], [], 0x)"
      ],
      "transaction": {
        "from": "0x13b9cbcb46ad79878af8c9faa835bee19b977d3d",
        "to": "0xe738cd578e1adc6c7da7f0796775f4cefb37d146",
        "gas": "0x4d380",
        "value": "0x0",
        "input": "0x7c3cc707000000000000000000000000000000000000000000000000000000000000002000000000000000000000000013b9cbcb46ad79878af8c9faa835bee19b977d3d00000000000000000000000000000000000000000000000000000000000001000000000000000000000000000000000000000000000000000000000000000140000000000000000000000000000000000000000000000000000000000000018000000000000000000000000000000000000000000000000000000000000001c000000000000000000000000000000000000000000000000000000000000001e0000000000000000000000000000000000000000000000000000000000000020000000000000000000000000000000000000000000000000000000000000002200000000000000000000000000000000000000000000000000000000000000017456e76656c6f7020563220536d6172742057616c6c65740000000000000000000000000000000000000000000000000000000000000000000000000000000009454e56454c4f5056320000000000000000000000000000000000000000000000000000000000000000000000000000000000000000000000000000000000001d68747470733a2f2f6170692e656e76656c6f702e69732f77616c6c65740000000000000000000000000000000000000000000000000000000000000000000000000000000000000000000000000000000000000000000000000000000000000000000000000000000000000000000000000000000000000000000000000000000000000000000000000000000000000000000000000000000000000000000000",
        "nonce": "0x27",
        "chainId": "0x38"
      },
      "additionalContracts": [
        {
          "transactionType": "CREATE",
          "address": "0x86a41d5fcb3f08aa369e0df983f60f2dd27369de",
          "initCode": "0x3d602d80600a3d3981f3363d3d373d3d3d363d73e738cd578e1adc6c7da7f0796775f4cefb37d1465af43d82803e903d91602b57fd5bf3"
        }
      ],
      "isFixedGasLimit": false
    },
    {
      "hash": null,
      "transactionType": "CALL",
      "contractName": null,
      "contractAddress": "0x7728cd70b3dd86210e2bd321437f448231b81733",
      "function": "transfer(address,uint256)",
      "arguments": [
        "0x86A41D5fcB3F08aA369e0df983f60F2dd27369DE",
        "1000000000000000000"
      ],
      "transaction": {
        "from": "0x13b9cbcb46ad79878af8c9faa835bee19b977d3d",
        "to": "0x7728cd70b3dd86210e2bd321437f448231b81733",
        "gas": "0x126b2",
        "value": "0x0",
        "input": "0xa9059cbb00000000000000000000000086a41d5fcb3f08aa369e0df983f60f2dd27369de0000000000000000000000000000000000000000000000000de0b6b3a7640000",
        "nonce": "0x28",
        "chainId": "0x38"
      },
      "additionalContracts": [],
      "isFixedGasLimit": false
    },
    {
      "hash": null,
      "transactionType": "CALL",
      "contractName": null,
      "contractAddress": "0x86a41d5fcb3f08aa369e0df983f60f2dd27369de",
      "function": null,
      "arguments": null,
      "transaction": {
        "from": "0x13b9cbcb46ad79878af8c9faa835bee19b977d3d",
        "to": "0x86a41d5fcb3f08aa369e0df983f60f2dd27369de",
        "gas": "0x8a3d",
        "value": "0x110d9316ec000",
        "input": "0x",
        "nonce": "0x29",
        "chainId": "0x38"
      },
      "additionalContracts": [],
      "isFixedGasLimit": false
    },
    {
      "hash": null,
      "transactionType": "CALL",
      "contractName": null,
      "contractAddress": "0x86a41d5fcb3f08aa369e0df983f60f2dd27369de",
      "function": "executeEncodedTxBatch(address[],uint256[],bytes[])",
      "arguments": [
        "[0x062858fdA4c60FEcCC662a05291EbED7C900D7E2, 0x7728cd70b3dD86210e2bd321437F448231B81733, 0x88F55b1D584C99777E6b4a92f4964134eCF1a4Ed]",
        "[0, 0, 16]",
        "[0xc56a27a0000000000000000000000000000000000000000000000000000000000000002000000000000000000000000013b9cbcb46ad79878af8c9faa835bee19b977d3d0000000000000000000000000000000000000000000000000000000000000100000000000000000000000000000000000000000000000000000000000000012000000000000000000000000000000000000000000000000000000000000001400000000000000000000000000000000000000000000000000000000000000160000000000000000000000000000000000000000000000000000000000000018000000000000000000000000000000000000000000000000000000000000001a00000000000000000000000000000000000000000000000000000000000000200000000000000000000000000000000000000000000000000000000000000000000000000000000000000000000000000000000000000000000000000000000000000000000000000000000000000000000000000000000000000000000000000000000000000000000000000000000000000000000000000000000000000000000000000000000000000000000000000000000000000000000000000000000000000000000000000000000000000000000000000000000000000000000000002000000000000000000000000000000000000000000000000000000000000000000000000000000000000000000000000000000000000000000000000000000000000000000000000000000000000000000000000000000000000000000000000, 0xa9059cbb00000000000000000000000088f55b1d584c99777e6b4a92f4964134ecf1a4ed0000000000000000000000000000000000000000000000000000b5e620f48000, 0x]"
      ],
      "transaction": {
        "from": "0x13b9cbcb46ad79878af8c9faa835bee19b977d3d",
        "to": "0x86a41d5fcb3f08aa369e0df983f60f2dd27369de",
        "gas": "0x58430",
        "value": "0x0",
        "input": "0xd42053bc000000000000000000000000000000000000000000000000000000000000006000000000000000000000000000000000000000000000000000000000000000e000000000000000000000000000000000000000000000000000000000000001600000000000000000000000000000000000000000000000000000000000000003000000000000000000000000062858fda4c60feccc662a05291ebed7c900d7e20000000000000000000000007728cd70b3dd86210e2bd321437f448231b8173300000000000000000000000088f55b1d584c99777e6b4a92f4964134ecf1a4ed00000000000000000000000000000000000000000000000000000000000000030000000000000000000000000000000000000000000000000000000000000000000000000000000000000000000000000000000000000000000000000000000000000000000000000000000000000000000000000000000000000000000000100000000000000000000000000000000000000000000000000000000000000003000000000000000000000000000000000000000000000000000000000000006000000000000000000000000000000000000000000000000000000000000002e000000000000000000000000000000000000000000000000000000000000003600000000000000000000000000000000000000000000000000000000000000244c56a27a0000000000000000000000000000000000000000000000000000000000000002000000000000000000000000013b9cbcb46ad79878af8c9faa835bee19b977d3d0000000000000000000000000000000000000000000000000000000000000100000000000000000000000000000000000000000000000000000000000000012000000000000000000000000000000000000000000000000000000000000001400000000000000000000000000000000000000000000000000000000000000160000000000000000000000000000000000000000000000000000000000000018000000000000000000000000000000000000000000000000000000000000001a00000000000000000000000000000000000000000000000000000000000000200000000000000000000000000000000000000000000000000000000000000000000000000000000000000000000000000000000000000000000000000000000000000000000000000000000000000000000000000000000000000000000000000000000000000000000000000000000000000000000000000000000000000000000000000000000000000000000000000000000000000000000000000000000000000000000000000000000000000000000000000000000000000000000000002000000000000000000000000000000000000000000000000000000000000000000000000000000000000000000000000000000000000000000000000000000000000000000000000000000000000000000000000000000000000000000000000000000000000000000000000000000000000000000000000000000000000000000000000000000000000000000000000000000000000000000000044a9059cbb00000000000000000000000088f55b1d584c99777e6b4a92f4964134ecf1a4ed0000000000000000000000000000000000000000000000000000b5e620f48000000000000000000000000000000000000000000000000000000000000000000000000000000000000000000000000000000000000000000000000000",
        "nonce": "0x2a",
        "chainId": "0x38"
      },
      "additionalContracts": [
        {
          "transactionType": "CREATE2",
          "address": "0x6687fec4f799f6bfba7403fea7a442ed3079f08e",
          "initCode": "0x3d602d80600a3d3981f3363d3d373d3d3d363d73062858fda4c60feccc662a05291ebed7c900d7e25af43d82803e903d91602b57fd5bf3"
        }
      ],
      "isFixedGasLimit": false
    }
  ],
  "receipts": [],
  "libraries": [],
  "pending": [],
  "returns": {},
  "timestamp": 1749548659,
  "chain": 56,
  "commit": "f798767"
}