{
  "transactions": [
    {
      "hash": "0x1a9f3a234878bcec4beeffca701ea8e8e16644016393b0f0220699ec29a3f3eb",
      "transactionType": "CALL",
      "contractName": "WNFTV2Envelop721",
      "contractAddress": "0xe738cd578e1adc6c7da7f0796775f4cefb37d146",
      "function": "createWNFTonFactory((address,string,string,string,address[],bytes32[],uint256[],bytes))",
      "arguments": [
        "(0x13B9cBcB46aD79878af8c9faa835Bee19B977D3D, Envelop V2 Smart Wallet, ENVELOPV2, https://api.envelop.is/wallet, [], [], [], 0x)"
      ],
      "transaction": {
        "from": "0x13b9cbcb46ad79878af8c9faa835bee19b977d3d",
        "to": "0xe738cd578e1adc6c7da7f0796775f4cefb37d146",
        "gas": "0x4d380",
        "value": "0x0",
        "input": "0x7c3cc707000000000000000000000000000000000000000000000000000000000000002000000000000000000000000013b9cbcb46ad79878af8c9faa835bee19b977d3d00000000000000000000000000000000000000000000000000000000000001000000000000000000000000000000000000000000000000000000000000000140000000000000000000000000000000000000000000000000000000000000018000000000000000000000000000000000000000000000000000000000000001c000000000000000000000000000000000000000000000000000000000000001e0000000000000000000000000000000000000000000000000000000000000020000000000000000000000000000000000000000000000000000000000000002200000000000000000000000000000000000000000000000000000000000000017456e76656c6f7020563220536d6172742057616c6c65740000000000000000000000000000000000000000000000000000000000000000000000000000000009454e56454c4f5056320000000000000000000000000000000000000000000000000000000000000000000000000000000000000000000000000000000000001d68747470733a2f2f6170692e656e76656c6f702e69732f77616c6c65740000000000000000000000000000000000000000000000000000000000000000000000000000000000000000000000000000000000000000000000000000000000000000000000000000000000000000000000000000000000000000000000000000000000000000000000000000000000000000000000000000000000000000000000",
        "nonce": "0x23",
        "chainId": "0x38"
      },
      "additionalContracts": [
        {
          "transactionType": "CREATE",
          "address": "0xbf588543379c9b85b391509b871684a1808dbdb3",
          "initCode": "0x3d602d80600a3d3981f3363d3d373d3d3d363d73e738cd578e1adc6c7da7f0796775f4cefb37d1465af43d82803e903d91602b57fd5bf3"
        }
      ],
      "isFixedGasLimit": false
    },
    {
      "hash": "0xc74e1ad9882d85473e819a0011fc57a849f67bd13ec0871c3e8e73d8db6a5dbe",
      "transactionType": "CALL",
      "contractName": null,
      "contractAddress": "0x7728cd70b3dd86210e2bd321437f448231b81733",
      "function": "transfer(address,uint256)",
      "arguments": [
        "0xbF588543379c9b85b391509B871684A1808DbDB3",
        "1000000000000000000"
      ],
      "transaction": {
        "from": "0x13b9cbcb46ad79878af8c9faa835bee19b977d3d",
        "to": "0x7728cd70b3dd86210e2bd321437f448231b81733",
        "gas": "0x126b2",
        "value": "0x0",
        "input": "0xa9059cbb000000000000000000000000bf588543379c9b85b391509b871684a1808dbdb30000000000000000000000000000000000000000000000000de0b6b3a7640000",
        "nonce": "0x24",
        "chainId": "0x38"
      },
      "additionalContracts": [],
      "isFixedGasLimit": false
    },
    {
      "hash": "0x9b051986d79b5ea0d10d237a7b41a20d43de5faa67d2b711116295637b4f49ae",
      "transactionType": "CALL",
      "contractName": null,
      "contractAddress": "0xbf588543379c9b85b391509b871684a1808dbdb3",
      "function": null,
      "arguments": null,
      "transaction": {
        "from": "0x13b9cbcb46ad79878af8c9faa835bee19b977d3d",
        "to": "0xbf588543379c9b85b391509b871684a1808dbdb3",
        "gas": "0x8a3d",
        "value": "0x110d9316ec000",
        "input": "0x",
        "nonce": "0x25",
        "chainId": "0x38"
      },
      "additionalContracts": [],
      "isFixedGasLimit": false
    },
    {
      "hash": "0xbc6cf1abcf4642ed5965aeb8cf773ef766a713f5ae5c4450fdf248c96b51f018",
      "transactionType": "CALL",
      "contractName": null,
      "contractAddress": "0xbf588543379c9b85b391509b871684a1808dbdb3",
      "function": "executeEncodedTxBatch(address[],uint256[],bytes[])",
      "arguments": [
        "[0x062858fdA4c60FEcCC662a05291EbED7C900D7E2, 0x7728cd70b3dD86210e2bd321437F448231B81733, 0x88F55b1D584C99777E6b4a92f4964134eCF1a4Ed]",
        "[0, 0, 16]",
        "[0xc56a27a0000000000000000000000000000000000000000000000000000000000000002000000000000000000000000013b9cbcb46ad79878af8c9faa835bee19b977d3d0000000000000000000000000000000000000000000000000000000000000100000000000000000000000000000000000000000000000000000000000000012000000000000000000000000000000000000000000000000000000000000001400000000000000000000000000000000000000000000000000000000000000160000000000000000000000000000000000000000000000000000000000000018000000000000000000000000000000000000000000000000000000000000001a00000000000000000000000000000000000000000000000000000000000000200000000000000000000000000000000000000000000000000000000000000000000000000000000000000000000000000000000000000000000000000000000000000000000000000000000000000000000000000000000000000000000000000000000000000000000000000000000000000000000000000000000000000000000000000000000000000000000000000000000000000000000000000000000000000000000000000000000000000000000000000000000000000000000000002000000000000000000000000000000000000000000000000000000000000000000000000000000000000000000000000000000000000000000000000000000000000000000000000000000000000000000000000000000000000000000000000, 0xa9059cbb00000000000000000000000088f55b1d584c99777e6b4a92f4964134ecf1a4ed0000000000000000000000000000000000000000000000000000b5e620f48000, 0x]"
      ],
      "transaction": {
        "from": "0x13b9cbcb46ad79878af8c9faa835bee19b977d3d",
        "to": "0xbf588543379c9b85b391509b871684a1808dbdb3",
        "gas": "0x6c7c6",
        "value": "0x0",
        "input": "0xd42053bc000000000000000000000000000000000000000000000000000000000000006000000000000000000000000000000000000000000000000000000000000000e000000000000000000000000000000000000000000000000000000000000001600000000000000000000000000000000000000000000000000000000000000003000000000000000000000000062858fda4c60feccc662a05291ebed7c900d7e20000000000000000000000007728cd70b3dd86210e2bd321437f448231b8173300000000000000000000000088f55b1d584c99777e6b4a92f4964134ecf1a4ed00000000000000000000000000000000000000000000000000000000000000030000000000000000000000000000000000000000000000000000000000000000000000000000000000000000000000000000000000000000000000000000000000000000000000000000000000000000000000000000000000000000000000100000000000000000000000000000000000000000000000000000000000000003000000000000000000000000000000000000000000000000000000000000006000000000000000000000000000000000000000000000000000000000000002e000000000000000000000000000000000000000000000000000000000000003600000000000000000000000000000000000000000000000000000000000000244c56a27a0000000000000000000000000000000000000000000000000000000000000002000000000000000000000000013b9cbcb46ad79878af8c9faa835bee19b977d3d0000000000000000000000000000000000000000000000000000000000000100000000000000000000000000000000000000000000000000000000000000012000000000000000000000000000000000000000000000000000000000000001400000000000000000000000000000000000000000000000000000000000000160000000000000000000000000000000000000000000000000000000000000018000000000000000000000000000000000000000000000000000000000000001a00000000000000000000000000000000000000000000000000000000000000200000000000000000000000000000000000000000000000000000000000000000000000000000000000000000000000000000000000000000000000000000000000000000000000000000000000000000000000000000000000000000000000000000000000000000000000000000000000000000000000000000000000000000000000000000000000000000000000000000000000000000000000000000000000000000000000000000000000000000000000000000000000000000000000002000000000000000000000000000000000000000000000000000000000000000000000000000000000000000000000000000000000000000000000000000000000000000000000000000000000000000000000000000000000000000000000000000000000000000000000000000000000000000000000000000000000000000000000000000000000000000000000000000000000000000000000044a9059cbb00000000000000000000000088f55b1d584c99777e6b4a92f4964134ecf1a4ed0000000000000000000000000000000000000000000000000000b5e620f48000000000000000000000000000000000000000000000000000000000000000000000000000000000000000000000000000000000000000000000000000",
        "nonce": "0x26",
        "chainId": "0x38"
      },
      "additionalContracts": [
        {
          "transactionType": "CREATE2",
          "address": "0xb28893b01428462a08e5f658b0e4625d9fa31bb8",
          "initCode": "0x3d602d80600a3d3981f3363d3d373d3d3d363d73062858fda4c60feccc662a05291ebed7c900d7e25af43d82803e903d91602b57fd5bf3"
        }
      ],
      "isFixedGasLimit": false
    }
  ],
  "receipts": [
    {
      "status": "0x1",
      "cumulativeGasUsed": "0x34a5521",
      "logs": [
        {
          "address": "0xbf588543379c9b85b391509b871684a1808dbdb3",
          "topics": [
            "0xddf252ad1be2c89b69c2b068fc378daa952ba7f163c4a11628f55a4df523b3ef",
            "0x0000000000000000000000000000000000000000000000000000000000000000",
            "0x00000000000000000000000013b9cbcb46ad79878af8c9faa835bee19b977d3d",
            "0x0000000000000000000000000000000000000000000000000000000000000001"
          ],
          "data": "0x",
          "blockHash": "0xb59ea6a310f7143d2276484b44bb4ded998512e212fd02a834147f1416a13a14",
          "blockNumber": "0x30d4bbe",
          "transactionHash": "0x1a9f3a234878bcec4beeffca701ea8e8e16644016393b0f0220699ec29a3f3eb",
          "transactionIndex": "0x10d",
          "logIndex": "0x9a7",
          "removed": false
        },
        {
          "address": "0xbf588543379c9b85b391509b871684a1808dbdb3",
          "topics": [
            "0xf8e1a15aba9398e019f0b49df1a4fde98ee17ae345cb5f6b5e2c27f5033e8ce7"
          ],
          "data": "0x0000000000000000000000000000000000000000000000000000000000000001",
          "blockHash": "0xb59ea6a310f7143d2276484b44bb4ded998512e212fd02a834147f1416a13a14",
          "blockNumber": "0x30d4bbe",
          "transactionHash": "0x1a9f3a234878bcec4beeffca701ea8e8e16644016393b0f0220699ec29a3f3eb",
          "transactionIndex": "0x10d",
          "logIndex": "0x9a8",
          "removed": false
        },
        {
          "address": "0xbf588543379c9b85b391509b871684a1808dbdb3",
          "topics": [
            "0xfa6883374d3785c826e28c69c68c1b6dd2178accc8623f49c6829a75487419b3",
            "0x00000000000000000000000013b9cbcb46ad79878af8c9faa835bee19b977d3d",
            "0x0000000000000000000000000000000000000000000000000000000000000001",
            "0x0000000000000000000000000000000000000000000000000000000000000000"
          ],
          "data": "0x00000000000000000000000000000000000000000000000000000000000000200000000000000000000000000000000000000000000000000000000000000000",
          "blockHash": "0xb59ea6a310f7143d2276484b44bb4ded998512e212fd02a834147f1416a13a14",
          "blockNumber": "0x30d4bbe",
          "transactionHash": "0x1a9f3a234878bcec4beeffca701ea8e8e16644016393b0f0220699ec29a3f3eb",
          "transactionIndex": "0x10d",
          "logIndex": "0x9a9",
          "removed": false
        },
        {
          "address": "0xbf588543379c9b85b391509b871684a1808dbdb3",
          "topics": [
            "0xc7f505b2f371ae2175ee4913f4499e1f2633a7b5936321eed1cdaeb6115181d2"
          ],
          "data": "0x0000000000000000000000000000000000000000000000000000000000000001",
          "blockHash": "0xb59ea6a310f7143d2276484b44bb4ded998512e212fd02a834147f1416a13a14",
          "blockNumber": "0x30d4bbe",
          "transactionHash": "0x1a9f3a234878bcec4beeffca701ea8e8e16644016393b0f0220699ec29a3f3eb",
          "transactionIndex": "0x10d",
          "logIndex": "0x9aa",
          "removed": false
        },
        {
          "address": "0xbdb5201565925ae934a5622f0e7091affceed5eb",
          "topics": [
            "0x8dc66cafb77b325538c856bfa5892b31ca7305adfa48f6a09e030e261cda0795",
            "0x000000000000000000000000bf588543379c9b85b391509b871684a1808dbdb3",
            "0x000000000000000000000000e738cd578e1adc6c7da7f0796775f4cefb37d146"
          ],
          "data": "0x00000000000000000000000000000000000000000000000000000000000007d2",
          "blockHash": "0xb59ea6a310f7143d2276484b44bb4ded998512e212fd02a834147f1416a13a14",
          "blockNumber": "0x30d4bbe",
          "transactionHash": "0x1a9f3a234878bcec4beeffca701ea8e8e16644016393b0f0220699ec29a3f3eb",
          "transactionIndex": "0x10d",
          "logIndex": "0x9ab",
          "removed": false
        }
      ],
      "logsBloom": "0x00000000000000800000000000000000000000000000000000000000000000000000000000000000000000000000000000000100000000000000000000040000000000000000020000000108000000000000000000040000000000800000000000000000020000000000000000000800000000000000000000000010000000000000000000000000000800000010020000000001000080000000000800400080000000000000000000000000000000002000000001000000200000000000008000000002000001000000000000100002000000000004400000000000000060000000000000008000201000000000000000000000000000010000008000000000",
      "type": "0x0",
      "transactionHash": "0x1a9f3a234878bcec4beeffca701ea8e8e16644016393b0f0220699ec29a3f3eb",
      "transactionIndex": "0x10d",
      "blockHash": "0xb59ea6a310f7143d2276484b44bb4ded998512e212fd02a834147f1416a13a14",
      "blockNumber": "0x30d4bbe",
      "gasUsed": "0x37e7c",
      "effectiveGasPrice": "0x5f5e100",
      "from": "0x13b9cbcb46ad79878af8c9faa835bee19b977d3d",
      "to": "0xe738cd578e1adc6c7da7f0796775f4cefb37d146",
      "contractAddress": null
    },
    {
      "status": "0x1",
      "cumulativeGasUsed": "0x34b1ea2",
      "logs": [
        {
          "address": "0x7728cd70b3dd86210e2bd321437f448231b81733",
          "topics": [
            "0xddf252ad1be2c89b69c2b068fc378daa952ba7f163c4a11628f55a4df523b3ef",
            "0x00000000000000000000000013b9cbcb46ad79878af8c9faa835bee19b977d3d",
            "0x000000000000000000000000bf588543379c9b85b391509b871684a1808dbdb3"
          ],
          "data": "0x0000000000000000000000000000000000000000000000000de0b6b3a7640000",
          "blockHash": "0xb59ea6a310f7143d2276484b44bb4ded998512e212fd02a834147f1416a13a14",
          "blockNumber": "0x30d4bbe",
          "transactionHash": "0xc74e1ad9882d85473e819a0011fc57a849f67bd13ec0871c3e8e73d8db6a5dbe",
          "transactionIndex": "0x10e",
          "logIndex": "0x9ac",
          "removed": false
        }
      ],
      "logsBloom": "0x00000000000000000000000400000000000000000000000000000000000000000000000000000000000000000000000000000000000000000000000000000000000000000000000000000008000000000000000000000000000000800000000000000000000000000000000000000000000000000000000000000010000000000000000000000000000000000000000000000000000000000000000800400000000000000000000000000000010000000000000000000000000000000000000000000002000000000000000000000002000400000000000000000000000000000000000000000000001000000000000000000000000000010000000000000000",
      "type": "0x0",
      "transactionHash": "0xc74e1ad9882d85473e819a0011fc57a849f67bd13ec0871c3e8e73d8db6a5dbe",
      "transactionIndex": "0x10e",
      "blockHash": "0xb59ea6a310f7143d2276484b44bb4ded998512e212fd02a834147f1416a13a14",
      "blockNumber": "0x30d4bbe",
      "gasUsed": "0xc981",
      "effectiveGasPrice": "0x5f5e100",
      "from": "0x13b9cbcb46ad79878af8c9faa835bee19b977d3d",
      "to": "0x7728cd70b3dd86210e2bd321437f448231b81733",
      "contractAddress": null
    },
    {
      "status": "0x1",
      "cumulativeGasUsed": "0x34b82b8",
      "logs": [
        {
          "address": "0xbf588543379c9b85b391509b871684a1808dbdb3",
          "topics": [
            "0x26399b60fa9117e91f9cf4e690f18a117d22841f62fb4ece7e7c799a97cb6a07",
            "0x000000000000000000000000000000000000000000000000000110d9316ec000",
            "0x000000000000000000000000000000000000000000000000000110d9316ec000",
            "0x00000000000000000000000013b9cbcb46ad79878af8c9faa835bee19b977d3d"
          ],
          "data": "0x",
          "blockHash": "0xb59ea6a310f7143d2276484b44bb4ded998512e212fd02a834147f1416a13a14",
          "blockNumber": "0x30d4bbe",
          "transactionHash": "0x9b051986d79b5ea0d10d237a7b41a20d43de5faa67d2b711116295637b4f49ae",
          "transactionIndex": "0x10f",
          "logIndex": "0x9ad",
          "removed": false
        }
      ],
      "logsBloom": "0x00000000000000000000000000000000000000000000000000000000000000000000000000000000000000000000000000000000000001000000000000000000000000000000000000000000000000000000000000000000000008800000800000000000000000000000000000000000000000000000000000002000000000000000000000000000000040000010000000000001000000000000000800400000000004000000000000000000000000000000000000000000200000000000000000000000000000000000000000000000000000000000000000000000000000000000000000000000000000000000000000000000000000000000000000000000",
      "type": "0x0",
      "transactionHash": "0x9b051986d79b5ea0d10d237a7b41a20d43de5faa67d2b711116295637b4f49ae",
      "transactionIndex": "0x10f",
      "blockHash": "0xb59ea6a310f7143d2276484b44bb4ded998512e212fd02a834147f1416a13a14",
      "blockNumber": "0x30d4bbe",
      "gasUsed": "0x6416",
      "effectiveGasPrice": "0x5f5e100",
      "from": "0x13b9cbcb46ad79878af8c9faa835bee19b977d3d",
      "to": "0xbf588543379c9b85b391509b871684a1808dbdb3",
      "contractAddress": null
    },
    {
      "status": "0x1",
      "cumulativeGasUsed": "0x3502593",
      "logs": [
        {
          "address": "0xb28893b01428462a08e5f658b0e4625d9fa31bb8",
          "topics": [
            "0xddf252ad1be2c89b69c2b068fc378daa952ba7f163c4a11628f55a4df523b3ef",
            "0x0000000000000000000000000000000000000000000000000000000000000000",
            "0x00000000000000000000000013b9cbcb46ad79878af8c9faa835bee19b977d3d",
            "0x0000000000000000000000000000000000000000000000000000000000000001"
          ],
          "data": "0x",
          "blockHash": "0xb59ea6a310f7143d2276484b44bb4ded998512e212fd02a834147f1416a13a14",
          "blockNumber": "0x30d4bbe",
          "transactionHash": "0xbc6cf1abcf4642ed5965aeb8cf773ef766a713f5ae5c4450fdf248c96b51f018",
          "transactionIndex": "0x110",
          "logIndex": "0x9ae",
          "removed": false
        },
        {
          "address": "0xb28893b01428462a08e5f658b0e4625d9fa31bb8",
          "topics": [
            "0xf8e1a15aba9398e019f0b49df1a4fde98ee17ae345cb5f6b5e2c27f5033e8ce7"
          ],
          "data": "0x0000000000000000000000000000000000000000000000000000000000000001",
          "blockHash": "0xb59ea6a310f7143d2276484b44bb4ded998512e212fd02a834147f1416a13a14",
          "blockNumber": "0x30d4bbe",
          "transactionHash": "0xbc6cf1abcf4642ed5965aeb8cf773ef766a713f5ae5c4450fdf248c96b51f018",
          "transactionIndex": "0x110",
          "logIndex": "0x9af",
          "removed": false
        },
        {
          "address": "0xb28893b01428462a08e5f658b0e4625d9fa31bb8",
          "topics": [
            "0xfa6883374d3785c826e28c69c68c1b6dd2178accc8623f49c6829a75487419b3",
            "0x00000000000000000000000013b9cbcb46ad79878af8c9faa835bee19b977d3d",
            "0x0000000000000000000000000000000000000000000000000000000000000001",
            "0x0000000000000000000000000000000000000000000000000000000000000000"
          ],
          "data": "0x000000000000000000000000000000000000000000000000000000000000002000000000000000000000000000000000000000000000000000000000000000a00000000000000000000000000000000000000000000000000000000000000020000000000000000000000000000000000000000000000000000000000000004000000000000000000000000000000000000000000000000000000000000000000000000000000000000000000000000000000000000000000000000000000005322e302e32000000000000000000000000000000000000000000000000000000",
          "blockHash": "0xb59ea6a310f7143d2276484b44bb4ded998512e212fd02a834147f1416a13a14",
          "blockNumber": "0x30d4bbe",
          "transactionHash": "0xbc6cf1abcf4642ed5965aeb8cf773ef766a713f5ae5c4450fdf248c96b51f018",
          "transactionIndex": "0x110",
          "logIndex": "0x9b0",
          "removed": false
        },
        {
          "address": "0xb28893b01428462a08e5f658b0e4625d9fa31bb8",
          "topics": [
            "0xc7f505b2f371ae2175ee4913f4499e1f2633a7b5936321eed1cdaeb6115181d2"
          ],
          "data": "0x0000000000000000000000000000000000000000000000000000000000000001",
          "blockHash": "0xb59ea6a310f7143d2276484b44bb4ded998512e212fd02a834147f1416a13a14",
          "blockNumber": "0x30d4bbe",
          "transactionHash": "0xbc6cf1abcf4642ed5965aeb8cf773ef766a713f5ae5c4450fdf248c96b51f018",
          "transactionIndex": "0x110",
          "logIndex": "0x9b1",
          "removed": false
        },
        {
          "address": "0xbdb5201565925ae934a5622f0e7091affceed5eb",
          "topics": [
            "0x8dc66cafb77b325538c856bfa5892b31ca7305adfa48f6a09e030e261cda0795",
            "0x000000000000000000000000b28893b01428462a08e5f658b0e4625d9fa31bb8",
            "0x000000000000000000000000062858fda4c60feccc662a05291ebed7c900d7e2"
          ],
          "data": "0x00000000000000000000000000000000000000000000000000000000000007d2",
          "blockHash": "0xb59ea6a310f7143d2276484b44bb4ded998512e212fd02a834147f1416a13a14",
          "blockNumber": "0x30d4bbe",
          "transactionHash": "0xbc6cf1abcf4642ed5965aeb8cf773ef766a713f5ae5c4450fdf248c96b51f018",
          "transactionIndex": "0x110",
          "logIndex": "0x9b2",
          "removed": false
        },
        {
          "address": "0x7728cd70b3dd86210e2bd321437f448231b81733",
          "topics": [
            "0xddf252ad1be2c89b69c2b068fc378daa952ba7f163c4a11628f55a4df523b3ef",
            "0x000000000000000000000000bf588543379c9b85b391509b871684a1808dbdb3",
            "0x00000000000000000000000088f55b1d584c99777e6b4a92f4964134ecf1a4ed"
          ],
          "data": "0x0000000000000000000000000000000000000000000000000000b5e620f48000",
          "blockHash": "0xb59ea6a310f7143d2276484b44bb4ded998512e212fd02a834147f1416a13a14",
          "blockNumber": "0x30d4bbe",
          "transactionHash": "0xbc6cf1abcf4642ed5965aeb8cf773ef766a713f5ae5c4450fdf248c96b51f018",
          "transactionIndex": "0x110",
          "logIndex": "0x9b3",
          "removed": false
        },
        {
          "address": "0xbf588543379c9b85b391509b871684a1808dbdb3",
          "topics": [
            "0xc4784f333fb4f086174aa7cc56e2eb0850c39bbda8f955f72ee77d54b13a3dd9",
            "0x000000000000000000000000000000000000000000000000000110d9316ec000",
            "0x000000000000000000000000000000000000000000000000000110d9316ebff0",
            "0x0000000000000000000000000000000000000000000000000000000000000000"
          ],
          "data": "0x00000000000000000000000013b9cbcb46ad79878af8c9faa835bee19b977d3d",
          "blockHash": "0xb59ea6a310f7143d2276484b44bb4ded998512e212fd02a834147f1416a13a14",
          "blockNumber": "0x30d4bbe",
          "transactionHash": "0xbc6cf1abcf4642ed5965aeb8cf773ef766a713f5ae5c4450fdf248c96b51f018",
          "transactionIndex": "0x110",
          "logIndex": "0x9b4",
          "removed": false
        }
      ],
      "logsBloom": "0x00000000000000804000000400000000000000000000000000400000000000000000080000000000000000000000000000000100000150000000000000040000000000000020020000000108000000000000000000040000000008c00000800080000000020000000000000000400800000000001000000000000010000000000000000000000000000840000010000000000001000080000000000840400080000000000000000000000000050000002001002001000010200000000000008000000002000000000000000000100002000400000004400200000000000060000000000000008002201000000000000000000000000000010000000000000000",
      "type": "0x0",
      "transactionHash": "0xbc6cf1abcf4642ed5965aeb8cf773ef766a713f5ae5c4450fdf248c96b51f018",
      "transactionIndex": "0x110",
      "blockHash": "0xb59ea6a310f7143d2276484b44bb4ded998512e212fd02a834147f1416a13a14",
      "blockNumber": "0x30d4bbe",
      "gasUsed": "0x4a2db",
      "effectiveGasPrice": "0x5f5e100",
      "from": "0x13b9cbcb46ad79878af8c9faa835bee19b977d3d",
      "to": "0xbf588543379c9b85b391509b871684a1808dbdb3",
      "contractAddress": null
    }
  ],
  "libraries": [],
  "pending": [],
  "returns": {},
  "timestamp": 1749548591,
  "chain": 56,
  "commit": "f798767"
}