{
  "transactions": [
    {
      "hash": "0x1cce183b8c8633e264e362f1e98f6af71162558a864d0dcf98efd127f77c8c83",
      "transactionType": "CALL",
      "contractName": "WNFTV2Envelop721",
      "contractAddress": "0xe738cd578e1adc6c7da7f0796775f4cefb37d146",
      "function": "createWNFTonFactory((address,string,string,string,address[],bytes32[],uint256[],bytes))",
      "arguments": [
        "(0x13B9cBcB46aD79878af8c9faa835Bee19B977D3D, Envelop V2 Smart Wallet, ENVELOPV2, https://api.envelop.is/wallet, [], [], [], 0x)"
      ],
      "transaction": {
        "from": "0x13b9cbcb46ad79878af8c9faa835bee19b977d3d",
        "to": "0xe738cd578e1adc6c7da7f0796775f4cefb37d146",
        "gas": "0x4d380",
        "value": "0x0",
        "input": "0x7c3cc707000000000000000000000000000000000000000000000000000000000000002000000000000000000000000013b9cbcb46ad79878af8c9faa835bee19b977d3d00000000000000000000000000000000000000000000000000000000000001000000000000000000000000000000000000000000000000000000000000000140000000000000000000000000000000000000000000000000000000000000018000000000000000000000000000000000000000000000000000000000000001c000000000000000000000000000000000000000000000000000000000000001e0000000000000000000000000000000000000000000000000000000000000020000000000000000000000000000000000000000000000000000000000000002200000000000000000000000000000000000000000000000000000000000000017456e76656c6f7020563220536d6172742057616c6c65740000000000000000000000000000000000000000000000000000000000000000000000000000000009454e56454c4f5056320000000000000000000000000000000000000000000000000000000000000000000000000000000000000000000000000000000000001d68747470733a2f2f6170692e656e76656c6f702e69732f77616c6c65740000000000000000000000000000000000000000000000000000000000000000000000000000000000000000000000000000000000000000000000000000000000000000000000000000000000000000000000000000000000000000000000000000000000000000000000000000000000000000000000000000000000000000000000",
        "nonce": "0x27",
        "chainId": "0x38"
      },
      "additionalContracts": [
        {
          "transactionType": "CREATE",
          "address": "0x86a41d5fcb3f08aa369e0df983f60f2dd27369de",
          "initCode": "0x3d602d80600a3d3981f3363d3d373d3d3d363d73e738cd578e1adc6c7da7f0796775f4cefb37d1465af43d82803e903d91602b57fd5bf3"
        }
      ],
      "isFixedGasLimit": false
    },
    {
      "hash": "0xa7a09b63aeb7399f80c84183c39e9f916e6299ab3acaa79142324b0162519872",
      "transactionType": "CALL",
      "contractName": null,
      "contractAddress": "0x7728cd70b3dd86210e2bd321437f448231b81733",
      "function": "transfer(address,uint256)",
      "arguments": [
        "0x86A41D5fcB3F08aA369e0df983f60F2dd27369DE",
        "1000000000000000000"
      ],
      "transaction": {
        "from": "0x13b9cbcb46ad79878af8c9faa835bee19b977d3d",
        "to": "0x7728cd70b3dd86210e2bd321437f448231b81733",
        "gas": "0x126b2",
        "value": "0x0",
        "input": "0xa9059cbb00000000000000000000000086a41d5fcb3f08aa369e0df983f60f2dd27369de0000000000000000000000000000000000000000000000000de0b6b3a7640000",
        "nonce": "0x28",
        "chainId": "0x38"
      },
      "additionalContracts": [],
      "isFixedGasLimit": false
    },
    {
      "hash": "0xde79b309da4df88ad34bac0894be6092f862851af1457b94da39829d6c27a62a",
      "transactionType": "CALL",
      "contractName": null,
      "contractAddress": "0x86a41d5fcb3f08aa369e0df983f60f2dd27369de",
      "function": null,
      "arguments": null,
      "transaction": {
        "from": "0x13b9cbcb46ad79878af8c9faa835bee19b977d3d",
        "to": "0x86a41d5fcb3f08aa369e0df983f60f2dd27369de",
        "gas": "0x8a3d",
        "value": "0x110d9316ec000",
        "input": "0x",
        "nonce": "0x29",
        "chainId": "0x38"
      },
      "additionalContracts": [],
      "isFixedGasLimit": false
    },
    {
      "hash": "0x0b78f9d57523bc09e34c356b932245dcab602c2755af5db6ba5485613670afaa",
      "transactionType": "CALL",
      "contractName": null,
      "contractAddress": "0x86a41d5fcb3f08aa369e0df983f60f2dd27369de",
      "function": "executeEncodedTxBatch(address[],uint256[],bytes[])",
      "arguments": [
        "[0x062858fdA4c60FEcCC662a05291EbED7C900D7E2, 0x7728cd70b3dD86210e2bd321437F448231B81733, 0x88F55b1D584C99777E6b4a92f4964134eCF1a4Ed]",
        "[0, 0, 16]",
        "[0xc56a27a0000000000000000000000000000000000000000000000000000000000000002000000000000000000000000013b9cbcb46ad79878af8c9faa835bee19b977d3d0000000000000000000000000000000000000000000000000000000000000100000000000000000000000000000000000000000000000000000000000000012000000000000000000000000000000000000000000000000000000000000001400000000000000000000000000000000000000000000000000000000000000160000000000000000000000000000000000000000000000000000000000000018000000000000000000000000000000000000000000000000000000000000001a00000000000000000000000000000000000000000000000000000000000000200000000000000000000000000000000000000000000000000000000000000000000000000000000000000000000000000000000000000000000000000000000000000000000000000000000000000000000000000000000000000000000000000000000000000000000000000000000000000000000000000000000000000000000000000000000000000000000000000000000000000000000000000000000000000000000000000000000000000000000000000000000000000000000000002000000000000000000000000000000000000000000000000000000000000000000000000000000000000000000000000000000000000000000000000000000000000000000000000000000000000000000000000000000000000000000000000, 0xa9059cbb00000000000000000000000088f55b1d584c99777e6b4a92f4964134ecf1a4ed0000000000000000000000000000000000000000000000000000b5e620f48000, 0x]"
      ],
      "transaction": {
        "from": "0x13b9cbcb46ad79878af8c9faa835bee19b977d3d",
        "to": "0x86a41d5fcb3f08aa369e0df983f60f2dd27369de",
        "gas": "0x58430",
        "value": "0x0",
        "input": "0xd42053bc000000000000000000000000000000000000000000000000000000000000006000000000000000000000000000000000000000000000000000000000000000e000000000000000000000000000000000000000000000000000000000000001600000000000000000000000000000000000000000000000000000000000000003000000000000000000000000062858fda4c60feccc662a05291ebed7c900d7e20000000000000000000000007728cd70b3dd86210e2bd321437f448231b8173300000000000000000000000088f55b1d584c99777e6b4a92f4964134ecf1a4ed00000000000000000000000000000000000000000000000000000000000000030000000000000000000000000000000000000000000000000000000000000000000000000000000000000000000000000000000000000000000000000000000000000000000000000000000000000000000000000000000000000000000000100000000000000000000000000000000000000000000000000000000000000003000000000000000000000000000000000000000000000000000000000000006000000000000000000000000000000000000000000000000000000000000002e000000000000000000000000000000000000000000000000000000000000003600000000000000000000000000000000000000000000000000000000000000244c56a27a0000000000000000000000000000000000000000000000000000000000000002000000000000000000000000013b9cbcb46ad79878af8c9faa835bee19b977d3d0000000000000000000000000000000000000000000000000000000000000100000000000000000000000000000000000000000000000000000000000000012000000000000000000000000000000000000000000000000000000000000001400000000000000000000000000000000000000000000000000000000000000160000000000000000000000000000000000000000000000000000000000000018000000000000000000000000000000000000000000000000000000000000001a00000000000000000000000000000000000000000000000000000000000000200000000000000000000000000000000000000000000000000000000000000000000000000000000000000000000000000000000000000000000000000000000000000000000000000000000000000000000000000000000000000000000000000000000000000000000000000000000000000000000000000000000000000000000000000000000000000000000000000000000000000000000000000000000000000000000000000000000000000000000000000000000000000000000000002000000000000000000000000000000000000000000000000000000000000000000000000000000000000000000000000000000000000000000000000000000000000000000000000000000000000000000000000000000000000000000000000000000000000000000000000000000000000000000000000000000000000000000000000000000000000000000000000000000000000000000000044a9059cbb00000000000000000000000088f55b1d584c99777e6b4a92f4964134ecf1a4ed0000000000000000000000000000000000000000000000000000b5e620f48000000000000000000000000000000000000000000000000000000000000000000000000000000000000000000000000000000000000000000000000000",
        "nonce": "0x2a",
        "chainId": "0x38"
      },
      "additionalContracts": [
        {
          "transactionType": "CREATE2",
          "address": "0x6687fec4f799f6bfba7403fea7a442ed3079f08e",
          "initCode": "0x3d602d80600a3d3981f3363d3d373d3d3d363d73062858fda4c60feccc662a05291ebed7c900d7e25af43d82803e903d91602b57fd5bf3"
        }
      ],
      "isFixedGasLimit": false
    }
  ],
  "receipts": [
    {
      "status": "0x1",
      "cumulativeGasUsed": "0x45f7625",
      "logs": [
        {
          "address": "0x86a41d5fcb3f08aa369e0df983f60f2dd27369de",
          "topics": [
            "0xddf252ad1be2c89b69c2b068fc378daa952ba7f163c4a11628f55a4df523b3ef",
            "0x0000000000000000000000000000000000000000000000000000000000000000",
            "0x00000000000000000000000013b9cbcb46ad79878af8c9faa835bee19b977d3d",
            "0x0000000000000000000000000000000000000000000000000000000000000001"
          ],
          "data": "0x",
          "blockHash": "0x03254b8f69d08d6bc7f09a47b56b62ace972d8e3e31816c2933dd4deca387d6f",
          "blockNumber": "0x30d4bfa",
          "transactionHash": "0x1cce183b8c8633e264e362f1e98f6af71162558a864d0dcf98efd127f77c8c83",
          "transactionIndex": "0x120",
          "logIndex": "0xaa4",
          "removed": false
        },
        {
          "address": "0x86a41d5fcb3f08aa369e0df983f60f2dd27369de",
          "topics": [
            "0xf8e1a15aba9398e019f0b49df1a4fde98ee17ae345cb5f6b5e2c27f5033e8ce7"
          ],
          "data": "0x0000000000000000000000000000000000000000000000000000000000000001",
          "blockHash": "0x03254b8f69d08d6bc7f09a47b56b62ace972d8e3e31816c2933dd4deca387d6f",
          "blockNumber": "0x30d4bfa",
          "transactionHash": "0x1cce183b8c8633e264e362f1e98f6af71162558a864d0dcf98efd127f77c8c83",
          "transactionIndex": "0x120",
          "logIndex": "0xaa5",
          "removed": false
        },
        {
          "address": "0x86a41d5fcb3f08aa369e0df983f60f2dd27369de",
          "topics": [
            "0xfa6883374d3785c826e28c69c68c1b6dd2178accc8623f49c6829a75487419b3",
            "0x00000000000000000000000013b9cbcb46ad79878af8c9faa835bee19b977d3d",
            "0x0000000000000000000000000000000000000000000000000000000000000001",
            "0x0000000000000000000000000000000000000000000000000000000000000000"
          ],
          "data": "0x00000000000000000000000000000000000000000000000000000000000000200000000000000000000000000000000000000000000000000000000000000000",
          "blockHash": "0x03254b8f69d08d6bc7f09a47b56b62ace972d8e3e31816c2933dd4deca387d6f",
          "blockNumber": "0x30d4bfa",
          "transactionHash": "0x1cce183b8c8633e264e362f1e98f6af71162558a864d0dcf98efd127f77c8c83",
          "transactionIndex": "0x120",
          "logIndex": "0xaa6",
          "removed": false
        },
        {
          "address": "0x86a41d5fcb3f08aa369e0df983f60f2dd27369de",
          "topics": [
            "0xc7f505b2f371ae2175ee4913f4499e1f2633a7b5936321eed1cdaeb6115181d2"
          ],
          "data": "0x0000000000000000000000000000000000000000000000000000000000000001",
          "blockHash": "0x03254b8f69d08d6bc7f09a47b56b62ace972d8e3e31816c2933dd4deca387d6f",
          "blockNumber": "0x30d4bfa",
          "transactionHash": "0x1cce183b8c8633e264e362f1e98f6af71162558a864d0dcf98efd127f77c8c83",
          "transactionIndex": "0x120",
          "logIndex": "0xaa7",
          "removed": false
        },
        {
          "address": "0xbdb5201565925ae934a5622f0e7091affceed5eb",
          "topics": [
            "0x8dc66cafb77b325538c856bfa5892b31ca7305adfa48f6a09e030e261cda0795",
            "0x00000000000000000000000086a41d5fcb3f08aa369e0df983f60f2dd27369de",
            "0x000000000000000000000000e738cd578e1adc6c7da7f0796775f4cefb37d146"
          ],
          "data": "0x00000000000000000000000000000000000000000000000000000000000007d2",
          "blockHash": "0x03254b8f69d08d6bc7f09a47b56b62ace972d8e3e31816c2933dd4deca387d6f",
          "blockNumber": "0x30d4bfa",
          "transactionHash": "0x1cce183b8c8633e264e362f1e98f6af71162558a864d0dcf98efd127f77c8c83",
          "transactionIndex": "0x120",
          "logIndex": "0xaa8",
          "removed": false
        }
      ],
      "logsBloom": "0x00000000000000800000000000000000000000000000000000000000000000000000000000000000000004000000000000000100000000000000000000040000000000000000020000000108000000000000040000040000000000800000000000000000020000000400000000000800000000000000000000000010000000000000000000000000000800000000020000000000000080000000000800400080000000000000000000000000000000002000000001000001000000000000008000000002000001000000000000100000000000000004400000000000000060800400000000008000200000000000000000000000000000000000008000000000",
      "type": "0x0",
      "transactionHash": "0x1cce183b8c8633e264e362f1e98f6af71162558a864d0dcf98efd127f77c8c83",
      "transactionIndex": "0x120",
      "blockHash": "0x03254b8f69d08d6bc7f09a47b56b62ace972d8e3e31816c2933dd4deca387d6f",
      "blockNumber": "0x30d4bfa",
      "gasUsed": "0x37e7c",
      "effectiveGasPrice": "0x5f5e100",
      "from": "0x13b9cbcb46ad79878af8c9faa835bee19b977d3d",
      "to": "0xe738cd578e1adc6c7da7f0796775f4cefb37d146",
      "contractAddress": null
    },
    {
      "status": "0x1",
      "cumulativeGasUsed": "0x4603fa6",
      "logs": [
        {
          "address": "0x7728cd70b3dd86210e2bd321437f448231b81733",
          "topics": [
            "0xddf252ad1be2c89b69c2b068fc378daa952ba7f163c4a11628f55a4df523b3ef",
            "0x00000000000000000000000013b9cbcb46ad79878af8c9faa835bee19b977d3d",
            "0x00000000000000000000000086a41d5fcb3f08aa369e0df983f60f2dd27369de"
          ],
          "data": "0x0000000000000000000000000000000000000000000000000de0b6b3a7640000",
          "blockHash": "0x03254b8f69d08d6bc7f09a47b56b62ace972d8e3e31816c2933dd4deca387d6f",
          "blockNumber": "0x30d4bfa",
          "transactionHash": "0xa7a09b63aeb7399f80c84183c39e9f916e6299ab3acaa79142324b0162519872",
          "transactionIndex": "0x121",
          "logIndex": "0xaa9",
          "removed": false
        }
      ],
      "logsBloom": "0x00000000000000000000000400000000000000000000000000000000000000000000000000000000000004000000000000000000000000000000000000000000000000000000000000000008000000000000000000000000000000800000000000000000000000000000000000000000000000000000000000000010000000000000000000000000000000000000000000000000000000000000000800400000000000000000000000000000010000000000000000000001000000000000000000000002000000000000000000000000000400000000000000000000000000800000000000000000000000000000000000000000000000000000000000000000",
      "type": "0x0",
      "transactionHash": "0xa7a09b63aeb7399f80c84183c39e9f916e6299ab3acaa79142324b0162519872",
      "transactionIndex": "0x121",
      "blockHash": "0x03254b8f69d08d6bc7f09a47b56b62ace972d8e3e31816c2933dd4deca387d6f",
      "blockNumber": "0x30d4bfa",
      "gasUsed": "0xc981",
      "effectiveGasPrice": "0x5f5e100",
      "from": "0x13b9cbcb46ad79878af8c9faa835bee19b977d3d",
      "to": "0x7728cd70b3dd86210e2bd321437f448231b81733",
      "contractAddress": null
    },
    {
      "status": "0x1",
      "cumulativeGasUsed": "0x460a3bc",
      "logs": [
        {
          "address": "0x86a41d5fcb3f08aa369e0df983f60f2dd27369de",
          "topics": [
            "0x26399b60fa9117e91f9cf4e690f18a117d22841f62fb4ece7e7c799a97cb6a07",
            "0x000000000000000000000000000000000000000000000000000110d9316ec000",
            "0x000000000000000000000000000000000000000000000000000110d9316ec000",
            "0x00000000000000000000000013b9cbcb46ad79878af8c9faa835bee19b977d3d"
          ],
          "data": "0x",
          "blockHash": "0x03254b8f69d08d6bc7f09a47b56b62ace972d8e3e31816c2933dd4deca387d6f",
          "blockNumber": "0x30d4bfa",
          "transactionHash": "0xde79b309da4df88ad34bac0894be6092f862851af1457b94da39829d6c27a62a",
          "transactionIndex": "0x122",
          "logIndex": "0xaaa",
          "removed": false
        }
      ],
      "logsBloom": "0x00000000000000000000000000000000000000000000000000000000000000000000000000000000000000000000000000000000000001000000000000000000000000000000000000000000000000000000040000000000000008800000800000000000000000000400000000000000000000000000000000002000000000000000000000000000000040000000000000000000000000000000000800400000000004000000000000000000000000000000000000000000000000000000000000000000000000000000000000000000000000000000000000000000000000000400000000000000000000000000000000000000000000000000000000000000",
      "type": "0x0",
      "transactionHash": "0xde79b309da4df88ad34bac0894be6092f862851af1457b94da39829d6c27a62a",
      "transactionIndex": "0x122",
      "blockHash": "0x03254b8f69d08d6bc7f09a47b56b62ace972d8e3e31816c2933dd4deca387d6f",
      "blockNumber": "0x30d4bfa",
      "gasUsed": "0x6416",
      "effectiveGasPrice": "0x5f5e100",
      "from": "0x13b9cbcb46ad79878af8c9faa835bee19b977d3d",
      "to": "0x86a41d5fcb3f08aa369e0df983f60f2dd27369de",
      "contractAddress": null
    },
    {
      "status": "0x1",
      "cumulativeGasUsed": "0x464a223",
      "logs": [
        {
          "address": "0x6687fec4f799f6bfba7403fea7a442ed3079f08e",
          "topics": [
            "0xddf252ad1be2c89b69c2b068fc378daa952ba7f163c4a11628f55a4df523b3ef",
            "0x0000000000000000000000000000000000000000000000000000000000000000",
            "0x00000000000000000000000013b9cbcb46ad79878af8c9faa835bee19b977d3d",
            "0x0000000000000000000000000000000000000000000000000000000000000001"
          ],
          "data": "0x",
          "blockHash": "0x03254b8f69d08d6bc7f09a47b56b62ace972d8e3e31816c2933dd4deca387d6f",
          "blockNumber": "0x30d4bfa",
          "transactionHash": "0x0b78f9d57523bc09e34c356b932245dcab602c2755af5db6ba5485613670afaa",
          "transactionIndex": "0x123",
          "logIndex": "0xaab",
          "removed": false
        },
        {
          "address": "0x6687fec4f799f6bfba7403fea7a442ed3079f08e",
          "topics": [
            "0xf8e1a15aba9398e019f0b49df1a4fde98ee17ae345cb5f6b5e2c27f5033e8ce7"
          ],
          "data": "0x0000000000000000000000000000000000000000000000000000000000000001",
          "blockHash": "0x03254b8f69d08d6bc7f09a47b56b62ace972d8e3e31816c2933dd4deca387d6f",
          "blockNumber": "0x30d4bfa",
          "transactionHash": "0x0b78f9d57523bc09e34c356b932245dcab602c2755af5db6ba5485613670afaa",
          "transactionIndex": "0x123",
          "logIndex": "0xaac",
          "removed": false
        },
        {
          "address": "0x6687fec4f799f6bfba7403fea7a442ed3079f08e",
          "topics": [
            "0xfa6883374d3785c826e28c69c68c1b6dd2178accc8623f49c6829a75487419b3",
            "0x00000000000000000000000013b9cbcb46ad79878af8c9faa835bee19b977d3d",
            "0x0000000000000000000000000000000000000000000000000000000000000001",
            "0x0000000000000000000000000000000000000000000000000000000000000000"
          ],
          "data": "0x000000000000000000000000000000000000000000000000000000000000002000000000000000000000000000000000000000000000000000000000000000a00000000000000000000000000000000000000000000000000000000000000020000000000000000000000000000000000000000000000000000000000000004000000000000000000000000000000000000000000000000000000000000000000000000000000000000000000000000000000000000000000000000000000005322e302e32000000000000000000000000000000000000000000000000000000",
          "blockHash": "0x03254b8f69d08d6bc7f09a47b56b62ace972d8e3e31816c2933dd4deca387d6f",
          "blockNumber": "0x30d4bfa",
          "transactionHash": "0x0b78f9d57523bc09e34c356b932245dcab602c2755af5db6ba5485613670afaa",
          "transactionIndex": "0x123",
          "logIndex": "0xaad",
          "removed": false
        },
        {
          "address": "0x6687fec4f799f6bfba7403fea7a442ed3079f08e",
          "topics": [
            "0xc7f505b2f371ae2175ee4913f4499e1f2633a7b5936321eed1cdaeb6115181d2"
          ],
          "data": "0x0000000000000000000000000000000000000000000000000000000000000001",
          "blockHash": "0x03254b8f69d08d6bc7f09a47b56b62ace972d8e3e31816c2933dd4deca387d6f",
          "blockNumber": "0x30d4bfa",
          "transactionHash": "0x0b78f9d57523bc09e34c356b932245dcab602c2755af5db6ba5485613670afaa",
          "transactionIndex": "0x123",
          "logIndex": "0xaae",
          "removed": false
        },
        {
          "address": "0xbdb5201565925ae934a5622f0e7091affceed5eb",
          "topics": [
            "0x8dc66cafb77b325538c856bfa5892b31ca7305adfa48f6a09e030e261cda0795",
            "0x0000000000000000000000006687fec4f799f6bfba7403fea7a442ed3079f08e",
            "0x000000000000000000000000062858fda4c60feccc662a05291ebed7c900d7e2"
          ],
          "data": "0x00000000000000000000000000000000000000000000000000000000000007d2",
          "blockHash": "0x03254b8f69d08d6bc7f09a47b56b62ace972d8e3e31816c2933dd4deca387d6f",
          "blockNumber": "0x30d4bfa",
          "transactionHash": "0x0b78f9d57523bc09e34c356b932245dcab602c2755af5db6ba5485613670afaa",
          "transactionIndex": "0x123",
          "logIndex": "0xaaf",
          "removed": false
        },
        {
          "address": "0x7728cd70b3dd86210e2bd321437f448231b81733",
          "topics": [
            "0xddf252ad1be2c89b69c2b068fc378daa952ba7f163c4a11628f55a4df523b3ef",
            "0x00000000000000000000000086a41d5fcb3f08aa369e0df983f60f2dd27369de",
            "0x00000000000000000000000088f55b1d584c99777e6b4a92f4964134ecf1a4ed"
          ],
          "data": "0x0000000000000000000000000000000000000000000000000000b5e620f48000",
          "blockHash": "0x03254b8f69d08d6bc7f09a47b56b62ace972d8e3e31816c2933dd4deca387d6f",
          "blockNumber": "0x30d4bfa",
          "transactionHash": "0x0b78f9d57523bc09e34c356b932245dcab602c2755af5db6ba5485613670afaa",
          "transactionIndex": "0x123",
          "logIndex": "0xab0",
          "removed": false
        },
        {
          "address": "0x86a41d5fcb3f08aa369e0df983f60f2dd27369de",
          "topics": [
            "0xc4784f333fb4f086174aa7cc56e2eb0850c39bbda8f955f72ee77d54b13a3dd9",
            "0x000000000000000000000000000000000000000000000000000110d9316ec000",
            "0x000000000000000000000000000000000000000000000000000110d9316ebff0",
            "0x0000000000000000000000000000000000000000000000000000000000000000"
          ],
          "data": "0x00000000000000000000000013b9cbcb46ad79878af8c9faa835bee19b977d3d",
          "blockHash": "0x03254b8f69d08d6bc7f09a47b56b62ace972d8e3e31816c2933dd4deca387d6f",
          "blockNumber": "0x30d4bfa",
          "transactionHash": "0x0b78f9d57523bc09e34c356b932245dcab602c2755af5db6ba5485613670afaa",
          "transactionIndex": "0x123",
          "logIndex": "0xab1",
          "removed": false
        }
      ],
      "logsBloom": "0x00000000000000800000000400000000000000000000000000400000000000000001080000000000080004000000000000000900000140000000000000040000000000000020020000000108000000000000040000040000000008c00000800080000000020000000400000000000800000000001000100000000010000000000000000000000000000840000000000000000000000080000000000800400080000000000000000000000000050000002001002001000001000000200000008000000002000000000000000000100000000400000004400000000000000060800400000000008002200000000000000000000000000000000000000000000000",
      "type": "0x0",
      "transactionHash": "0x0b78f9d57523bc09e34c356b932245dcab602c2755af5db6ba5485613670afaa",
      "transactionIndex": "0x123",
      "blockHash": "0x03254b8f69d08d6bc7f09a47b56b62ace972d8e3e31816c2933dd4deca387d6f",
      "blockNumber": "0x30d4bfa",
      "gasUsed": "0x3fe67",
      "effectiveGasPrice": "0x5f5e100",
      "from": "0x13b9cbcb46ad79878af8c9faa835bee19b977d3d",
      "to": "0x86a41d5fcb3f08aa369e0df983f60f2dd27369de",
      "contractAddress": null
    }
  ],
  "libraries": [],
  "pending": [],
  "returns": {},
  "timestamp": 1749548680,
  "chain": 56,
  "commit": "f798767"
}