{
  "transactions": [
    {
      "hash": "0xab8ecee238ff1095f76448cf65375d589bcd528d58bd643bded44c4438100dc7",
      "transactionType": "CALL",
      "contractName": "WNFTV2Envelop721",
      "contractAddress": "0x22bbbe241464ab67c9b4f0881fa45f7f2d26870f",
      "function": "createWNFTonFactory((address,string,string,string,address[],bytes32[],uint256[],bytes))",
      "arguments": [
        "(0x13B9cBcB46aD79878af8c9faa835Bee19B977D3D, Envelop V2 Smart Wallet, ENVELOPV2, https://api.envelop.is/wallet, [], [], [], 0x)"
      ],
      "transaction": {
        "from": "0x13b9cbcb46ad79878af8c9faa835bee19b977d3d",
        "to": "0x22bbbe241464ab67c9b4f0881fa45f7f2d26870f",
        "gas": "0x4d3da",
        "value": "0x0",
        "input": "0x7c3cc707000000000000000000000000000000000000000000000000000000000000002000000000000000000000000013b9cbcb46ad79878af8c9faa835bee19b977d3d00000000000000000000000000000000000000000000000000000000000001000000000000000000000000000000000000000000000000000000000000000140000000000000000000000000000000000000000000000000000000000000018000000000000000000000000000000000000000000000000000000000000001c000000000000000000000000000000000000000000000000000000000000001e0000000000000000000000000000000000000000000000000000000000000020000000000000000000000000000000000000000000000000000000000000002200000000000000000000000000000000000000000000000000000000000000017456e76656c6f7020563220536d6172742057616c6c65740000000000000000000000000000000000000000000000000000000000000000000000000000000009454e56454c4f5056320000000000000000000000000000000000000000000000000000000000000000000000000000000000000000000000000000000000001d68747470733a2f2f6170692e656e76656c6f702e69732f77616c6c65740000000000000000000000000000000000000000000000000000000000000000000000000000000000000000000000000000000000000000000000000000000000000000000000000000000000000000000000000000000000000000000000000000000000000000000000000000000000000000000000000000000000000000000000",
        "nonce": "0x10",
        "chainId": "0x38"
      },
      "additionalContracts": [
        {
          "transactionType": "CREATE",
          "address": "0x645ec5781e8615a20e36ee13f338b79f89640aaf",
          "initCode": "0x3d602d80600a3d3981f3363d3d373d3d3d363d7322bbbe241464ab67c9b4f0881fa45f7f2d26870f5af43d82803e903d91602b57fd5bf3"
        }
      ],
      "isFixedGasLimit": false
    },
    {
      "hash": "0x133a59fc057d4588a46c4b1e8f12f1b0e33fe9f72746e8499dde5a3883f00534",
      "transactionType": "CALL",
      "contractName": null,
      "contractAddress": "0x7728cd70b3dd86210e2bd321437f448231b81733",
      "function": "transfer(address,uint256)",
      "arguments": [
        "0x645ec5781e8615A20E36EE13F338b79f89640AAf",
        "1000000000000000000"
      ],
      "transaction": {
        "from": "0x13b9cbcb46ad79878af8c9faa835bee19b977d3d",
        "to": "0x7728cd70b3dd86210e2bd321437f448231b81733",
        "gas": "0x126b2",
        "value": "0x0",
        "input": "0xa9059cbb000000000000000000000000645ec5781e8615a20e36ee13f338b79f89640aaf0000000000000000000000000000000000000000000000000de0b6b3a7640000",
        "nonce": "0x11",
        "chainId": "0x38"
      },
      "additionalContracts": [],
      "isFixedGasLimit": false
    },
    {
      "hash": "0x5b937346034b1eb29293b93e9e48c7d0f9140613afb03a8f76b7e0e4c451d224",
      "transactionType": "CALL",
      "contractName": null,
      "contractAddress": "0x645ec5781e8615a20e36ee13f338b79f89640aaf",
      "function": null,
      "arguments": null,
      "transaction": {
        "from": "0x13b9cbcb46ad79878af8c9faa835bee19b977d3d",
        "to": "0x645ec5781e8615a20e36ee13f338b79f89640aaf",
        "gas": "0x8a3d",
        "value": "0x110d9316ec000",
        "input": "0x",
        "nonce": "0x12",
        "chainId": "0x38"
      },
      "additionalContracts": [],
      "isFixedGasLimit": false
    },
    {
      "hash": "0x9a7051e46b252d2368c126923a7970a851ed1139d97e124a7e178f5677ea28d7",
      "transactionType": "CALL",
      "contractName": null,
      "contractAddress": "0x645ec5781e8615a20e36ee13f338b79f89640aaf",
      "function": "executeEncodedTxBatch(address[],uint256[],bytes[])",
      "arguments": [
        "[0x28466e3e92CB6FB292618D0faEbB49624f4d6f0C, 0x7728cd70b3dD86210e2bd321437F448231B81733, 0x9B1296F104b4195dbA015039D529167990036908]",
        "[0, 0, 16]",
        "[0xc56a27a0000000000000000000000000000000000000000000000000000000000000002000000000000000000000000013b9cbcb46ad79878af8c9faa835bee19b977d3d0000000000000000000000000000000000000000000000000000000000000100000000000000000000000000000000000000000000000000000000000000012000000000000000000000000000000000000000000000000000000000000001400000000000000000000000000000000000000000000000000000000000000160000000000000000000000000000000000000000000000000000000000000018000000000000000000000000000000000000000000000000000000000000001a00000000000000000000000000000000000000000000000000000000000000200000000000000000000000000000000000000000000000000000000000000000000000000000000000000000000000000000000000000000000000000000000000000000000000000000000000000000000000000000000000000000000000000000000000000000000000000000000000000000000000000000000000000000000000000000000000000000000000000000000000000000000000000000000000000000000000000000000000000000000000000000000000000000000000002000000000000000000000000000000000000000000000000000000000000000000000000000000000000000000000000000000000000000000000000000000000000000000000000000000000000000000000000000000000000000000000000, 0xa9059cbb0000000000000000000000009b1296f104b4195dba015039d5291679900369080000000000000000000000000000000000000000000000000000b5e620f48000, 0x]"
      ],
      "transaction": {
        "from": "0x13b9cbcb46ad79878af8c9faa835bee19b977d3d",
        "to": "0x645ec5781e8615a20e36ee13f338b79f89640aaf",
        "gas": "0x635cb",
        "value": "0x0",
        "input": "0xd42053bc000000000000000000000000000000000000000000000000000000000000006000000000000000000000000000000000000000000000000000000000000000e00000000000000000000000000000000000000000000000000000000000000160000000000000000000000000000000000000000000000000000000000000000300000000000000000000000028466e3e92cb6fb292618d0faebb49624f4d6f0c0000000000000000000000007728cd70b3dd86210e2bd321437f448231b817330000000000000000000000009b1296f104b4195dba015039d52916799003690800000000000000000000000000000000000000000000000000000000000000030000000000000000000000000000000000000000000000000000000000000000000000000000000000000000000000000000000000000000000000000000000000000000000000000000000000000000000000000000000000000000000000100000000000000000000000000000000000000000000000000000000000000003000000000000000000000000000000000000000000000000000000000000006000000000000000000000000000000000000000000000000000000000000002e000000000000000000000000000000000000000000000000000000000000003600000000000000000000000000000000000000000000000000000000000000244c56a27a0000000000000000000000000000000000000000000000000000000000000002000000000000000000000000013b9cbcb46ad79878af8c9faa835bee19b977d3d0000000000000000000000000000000000000000000000000000000000000100000000000000000000000000000000000000000000000000000000000000012000000000000000000000000000000000000000000000000000000000000001400000000000000000000000000000000000000000000000000000000000000160000000000000000000000000000000000000000000000000000000000000018000000000000000000000000000000000000000000000000000000000000001a00000000000000000000000000000000000000000000000000000000000000200000000000000000000000000000000000000000000000000000000000000000000000000000000000000000000000000000000000000000000000000000000000000000000000000000000000000000000000000000000000000000000000000000000000000000000000000000000000000000000000000000000000000000000000000000000000000000000000000000000000000000000000000000000000000000000000000000000000000000000000000000000000000000000000002000000000000000000000000000000000000000000000000000000000000000000000000000000000000000000000000000000000000000000000000000000000000000000000000000000000000000000000000000000000000000000000000000000000000000000000000000000000000000000000000000000000000000000000000000000000000000000000000000000000000000000000044a9059cbb0000000000000000000000009b1296f104b4195dba015039d5291679900369080000000000000000000000000000000000000000000000000000b5e620f48000000000000000000000000000000000000000000000000000000000000000000000000000000000000000000000000000000000000000000000000000",
        "nonce": "0x13",
        "chainId": "0x38"
      },
      "additionalContracts": [
        {
          "transactionType": "CREATE2",
          "address": "0x9b1296f104b4195dba015039d529167990036908",
          "initCode": "0x3d602d80600a3d3981f3363d3d373d3d3d363d7328466e3e92cb6fb292618d0faebb49624f4d6f0c5af43d82803e903d91602b57fd5bf3"
        }
      ],
      "isFixedGasLimit": false
    }
  ],
  "receipts": [
    {
      "status": "0x1",
      "cumulativeGasUsed": "0xb6c6de",
      "logs": [
        {
          "address": "0x645ec5781e8615a20e36ee13f338b79f89640aaf",
          "topics": [
            "0xddf252ad1be2c89b69c2b068fc378daa952ba7f163c4a11628f55a4df523b3ef",
            "0x0000000000000000000000000000000000000000000000000000000000000000",
            "0x00000000000000000000000013b9cbcb46ad79878af8c9faa835bee19b977d3d",
            "0x0000000000000000000000000000000000000000000000000000000000000001"
          ],
          "data": "0x",
          "blockHash": "0xbf33dc696fd01e9cda127e24cbbae8bbcd35d01a87d0abb628c99a26c663ef14",
          "blockNumber": "0x2be2cc5",
          "transactionHash": "0xab8ecee238ff1095f76448cf65375d589bcd528d58bd643bded44c4438100dc7",
          "transactionIndex": "0x81",
          "logIndex": "0x14d",
          "removed": false
        },
        {
          "address": "0x645ec5781e8615a20e36ee13f338b79f89640aaf",
          "topics": [
            "0xf8e1a15aba9398e019f0b49df1a4fde98ee17ae345cb5f6b5e2c27f5033e8ce7"
          ],
          "data": "0x0000000000000000000000000000000000000000000000000000000000000001",
          "blockHash": "0xbf33dc696fd01e9cda127e24cbbae8bbcd35d01a87d0abb628c99a26c663ef14",
          "blockNumber": "0x2be2cc5",
          "transactionHash": "0xab8ecee238ff1095f76448cf65375d589bcd528d58bd643bded44c4438100dc7",
          "transactionIndex": "0x81",
          "logIndex": "0x14e",
          "removed": false
        },
        {
          "address": "0x645ec5781e8615a20e36ee13f338b79f89640aaf",
          "topics": [
            "0xfa6883374d3785c826e28c69c68c1b6dd2178accc8623f49c6829a75487419b3",
            "0x00000000000000000000000013b9cbcb46ad79878af8c9faa835bee19b977d3d",
            "0x0000000000000000000000000000000000000000000000000000000000000001",
            "0x0000000000000000000000000000000000000000000000000000000000000000"
          ],
          "data": "0x00000000000000000000000000000000000000000000000000000000000000200000000000000000000000000000000000000000000000000000000000000000",
          "blockHash": "0xbf33dc696fd01e9cda127e24cbbae8bbcd35d01a87d0abb628c99a26c663ef14",
          "blockNumber": "0x2be2cc5",
          "transactionHash": "0xab8ecee238ff1095f76448cf65375d589bcd528d58bd643bded44c4438100dc7",
          "transactionIndex": "0x81",
          "logIndex": "0x14f",
          "removed": false
        },
        {
          "address": "0x645ec5781e8615a20e36ee13f338b79f89640aaf",
          "topics": [
            "0xc7f505b2f371ae2175ee4913f4499e1f2633a7b5936321eed1cdaeb6115181d2"
          ],
          "data": "0x0000000000000000000000000000000000000000000000000000000000000001",
          "blockHash": "0xbf33dc696fd01e9cda127e24cbbae8bbcd35d01a87d0abb628c99a26c663ef14",
          "blockNumber": "0x2be2cc5",
          "transactionHash": "0xab8ecee238ff1095f76448cf65375d589bcd528d58bd643bded44c4438100dc7",
          "transactionIndex": "0x81",
          "logIndex": "0x150",
          "removed": false
        },
        {
          "address": "0xbdb5201565925ae934a5622f0e7091affceed5eb",
          "topics": [
            "0x8dc66cafb77b325538c856bfa5892b31ca7305adfa48f6a09e030e261cda0795",
            "0x000000000000000000000000645ec5781e8615a20e36ee13f338b79f89640aaf",
            "0x00000000000000000000000022bbbe241464ab67c9b4f0881fa45f7f2d26870f"
          ],
          "data": "0x00000000000000000000000000000000000000000000000000000000000007d2",
          "blockHash": "0xbf33dc696fd01e9cda127e24cbbae8bbcd35d01a87d0abb628c99a26c663ef14",
          "blockNumber": "0x2be2cc5",
          "transactionHash": "0xab8ecee238ff1095f76448cf65375d589bcd528d58bd643bded44c4438100dc7",
          "transactionIndex": "0x81",
          "logIndex": "0x151",
          "removed": false
        }
      ],
      "logsBloom": "0x00000000000000840000000000000000000000000200000000000000000100000000000000000000000000000000000000000100000200000000000000040000000000000000020000000108000000000000000000040000000000800000000000000000020000000000000000000800000020000000000000000010000000000000000000000000000800000001000000000000004080000000000800400080000000000000000000000000000000002000000001000000000000000000008000000002000000000000000000100000000000000004400000000000000060000000000000008000201000000004000000000000000000000000000000000000",
      "type": "0x0",
      "transactionHash": "0xab8ecee238ff1095f76448cf65375d589bcd528d58bd643bded44c4438100dc7",
      "transactionIndex": "0x81",
      "blockHash": "0xbf33dc696fd01e9cda127e24cbbae8bbcd35d01a87d0abb628c99a26c663ef14",
      "blockNumber": "0x2be2cc5",
      "gasUsed": "0x37ebd",
      "effectiveGasPrice": "0x3b9aca00",
      "from": "0x13b9cbcb46ad79878af8c9faa835bee19b977d3d",
      "to": "0x22bbbe241464ab67c9b4f0881fa45f7f2d26870f",
      "contractAddress": null
    },
    {
      "status": "0x1",
      "cumulativeGasUsed": "0xb7905f",
      "logs": [
        {
          "address": "0x7728cd70b3dd86210e2bd321437f448231b81733",
          "topics": [
            "0xddf252ad1be2c89b69c2b068fc378daa952ba7f163c4a11628f55a4df523b3ef",
            "0x00000000000000000000000013b9cbcb46ad79878af8c9faa835bee19b977d3d",
            "0x000000000000000000000000645ec5781e8615a20e36ee13f338b79f89640aaf"
          ],
          "data": "0x0000000000000000000000000000000000000000000000000de0b6b3a7640000",
          "blockHash": "0xbf33dc696fd01e9cda127e24cbbae8bbcd35d01a87d0abb628c99a26c663ef14",
          "blockNumber": "0x2be2cc5",
          "transactionHash": "0x133a59fc057d4588a46c4b1e8f12f1b0e33fe9f72746e8499dde5a3883f00534",
          "transactionIndex": "0x82",
          "logIndex": "0x152",
          "removed": false
        }
      ],
      "logsBloom": "0x00000000000000040000000400000000000000000000000000000000000000000000000000000000000000000000000000000000000200000000000000000000000000000000000000000008000000000000000000000000000000800000000000000000000000000000000000000000000000000000000000000010000000000000000000000000000000000001000000000000000000000000000800400000000000000000000000000000010000000000000000000000000000000000000000000002000000000000000000000000000400000000000000000000000000000000000000000000000000000000000000000000000000000000000000000000",
      "type": "0x0",
      "transactionHash": "0x133a59fc057d4588a46c4b1e8f12f1b0e33fe9f72746e8499dde5a3883f00534",
      "transactionIndex": "0x82",
      "blockHash": "0xbf33dc696fd01e9cda127e24cbbae8bbcd35d01a87d0abb628c99a26c663ef14",
      "blockNumber": "0x2be2cc5",
      "gasUsed": "0xc981",
      "effectiveGasPrice": "0x3b9aca00",
      "from": "0x13b9cbcb46ad79878af8c9faa835bee19b977d3d",
      "to": "0x7728cd70b3dd86210e2bd321437f448231b81733",
      "contractAddress": null
    },
    {
      "status": "0x1",
      "cumulativeGasUsed": "0xb7f475",
      "logs": [
        {
          "address": "0x645ec5781e8615a20e36ee13f338b79f89640aaf",
          "topics": [
            "0x26399b60fa9117e91f9cf4e690f18a117d22841f62fb4ece7e7c799a97cb6a07",
            "0x000000000000000000000000000000000000000000000000000110d9316ec000",
            "0x000000000000000000000000000000000000000000000000000110d9316ec000",
            "0x00000000000000000000000013b9cbcb46ad79878af8c9faa835bee19b977d3d"
          ],
          "data": "0x",
          "blockHash": "0xbf33dc696fd01e9cda127e24cbbae8bbcd35d01a87d0abb628c99a26c663ef14",
          "blockNumber": "0x2be2cc5",
          "transactionHash": "0x5b937346034b1eb29293b93e9e48c7d0f9140613afb03a8f76b7e0e4c451d224",
          "transactionIndex": "0x83",
          "logIndex": "0x153",
          "removed": false
        }
      ],
      "logsBloom": "0x00000000000000000000000000000000000000000200000000000000000000000000000000000000000000000000000000000000000001000000000000000000000000000000000000000000000000000000000000000000000008800000800000000000000000000000000000000000000020000000000000002000000000000000000000000000000040000000000000000000004000000000000800400000000004000000000000000000000000000000000000000000000000000000000000000000000000000000000000000000000000000000000000000000000000000000000000000000000000000000000000000000000000000000000000000000",
      "type": "0x0",
      "transactionHash": "0x5b937346034b1eb29293b93e9e48c7d0f9140613afb03a8f76b7e0e4c451d224",
      "transactionIndex": "0x83",
      "blockHash": "0xbf33dc696fd01e9cda127e24cbbae8bbcd35d01a87d0abb628c99a26c663ef14",
      "blockNumber": "0x2be2cc5",
      "gasUsed": "0x6416",
      "effectiveGasPrice": "0x3b9aca00",
      "from": "0x13b9cbcb46ad79878af8c9faa835bee19b977d3d",
      "to": "0x645ec5781e8615a20e36ee13f338b79f89640aaf",
      "contractAddress": null
    },
    {
      "status": "0x1",
      "cumulativeGasUsed": "0xbcbe8c",
      "logs": [
        {
          "address": "0x9b1296f104b4195dba015039d529167990036908",
          "topics": [
            "0xddf252ad1be2c89b69c2b068fc378daa952ba7f163c4a11628f55a4df523b3ef",
            "0x0000000000000000000000000000000000000000000000000000000000000000",
            "0x00000000000000000000000013b9cbcb46ad79878af8c9faa835bee19b977d3d",
            "0x0000000000000000000000000000000000000000000000000000000000000001"
          ],
          "data": "0x",
          "blockHash": "0xbf33dc696fd01e9cda127e24cbbae8bbcd35d01a87d0abb628c99a26c663ef14",
          "blockNumber": "0x2be2cc5",
          "transactionHash": "0x9a7051e46b252d2368c126923a7970a851ed1139d97e124a7e178f5677ea28d7",
          "transactionIndex": "0x85",
          "logIndex": "0x155",
          "removed": false
        },
        {
          "address": "0x9b1296f104b4195dba015039d529167990036908",
          "topics": [
            "0xf8e1a15aba9398e019f0b49df1a4fde98ee17ae345cb5f6b5e2c27f5033e8ce7"
          ],
          "data": "0x0000000000000000000000000000000000000000000000000000000000000001",
          "blockHash": "0xbf33dc696fd01e9cda127e24cbbae8bbcd35d01a87d0abb628c99a26c663ef14",
          "blockNumber": "0x2be2cc5",
          "transactionHash": "0x9a7051e46b252d2368c126923a7970a851ed1139d97e124a7e178f5677ea28d7",
          "transactionIndex": "0x85",
          "logIndex": "0x156",
          "removed": false
        },
        {
          "address": "0x9b1296f104b4195dba015039d529167990036908",
          "topics": [
            "0xfa6883374d3785c826e28c69c68c1b6dd2178accc8623f49c6829a75487419b3",
            "0x00000000000000000000000013b9cbcb46ad79878af8c9faa835bee19b977d3d",
            "0x0000000000000000000000000000000000000000000000000000000000000001",
            "0x0000000000000000000000000000000000000000000000000000000000000000"
          ],
          "data": "0x000000000000000000000000000000000000000000000000000000000000002000000000000000000000000000000000000000000000000000000000000000a00000000000000000000000000000000000000000000000000000000000000020000000000000000000000000000000000000000000000000000000000000004000000000000000000000000000000000000000000000000000000000000000000000000000000000000000000000000000000000000000000000000000000005322e302e31000000000000000000000000000000000000000000000000000000",
          "blockHash": "0xbf33dc696fd01e9cda127e24cbbae8bbcd35d01a87d0abb628c99a26c663ef14",
          "blockNumber": "0x2be2cc5",
          "transactionHash": "0x9a7051e46b252d2368c126923a7970a851ed1139d97e124a7e178f5677ea28d7",
          "transactionIndex": "0x85",
          "logIndex": "0x157",
          "removed": false
        },
        {
          "address": "0x9b1296f104b4195dba015039d529167990036908",
          "topics": [
            "0xc7f505b2f371ae2175ee4913f4499e1f2633a7b5936321eed1cdaeb6115181d2"
          ],
          "data": "0x0000000000000000000000000000000000000000000000000000000000000001",
          "blockHash": "0xbf33dc696fd01e9cda127e24cbbae8bbcd35d01a87d0abb628c99a26c663ef14",
          "blockNumber": "0x2be2cc5",
          "transactionHash": "0x9a7051e46b252d2368c126923a7970a851ed1139d97e124a7e178f5677ea28d7",
          "transactionIndex": "0x85",
          "logIndex": "0x158",
          "removed": false
        },
        {
          "address": "0xbdb5201565925ae934a5622f0e7091affceed5eb",
          "topics": [
            "0x8dc66cafb77b325538c856bfa5892b31ca7305adfa48f6a09e030e261cda0795",
            "0x0000000000000000000000009b1296f104b4195dba015039d529167990036908",
            "0x00000000000000000000000028466e3e92cb6fb292618d0faebb49624f4d6f0c"
          ],
          "data": "0x00000000000000000000000000000000000000000000000000000000000007d2",
          "blockHash": "0xbf33dc696fd01e9cda127e24cbbae8bbcd35d01a87d0abb628c99a26c663ef14",
          "blockNumber": "0x2be2cc5",
          "transactionHash": "0x9a7051e46b252d2368c126923a7970a851ed1139d97e124a7e178f5677ea28d7",
          "transactionIndex": "0x85",
          "logIndex": "0x159",
          "removed": false
        },
        {
          "address": "0x7728cd70b3dd86210e2bd321437f448231b81733",
          "topics": [
            "0xddf252ad1be2c89b69c2b068fc378daa952ba7f163c4a11628f55a4df523b3ef",
            "0x000000000000000000000000645ec5781e8615a20e36ee13f338b79f89640aaf",
            "0x0000000000000000000000009b1296f104b4195dba015039d529167990036908"
          ],
          "data": "0x0000000000000000000000000000000000000000000000000000b5e620f48000",
          "blockHash": "0xbf33dc696fd01e9cda127e24cbbae8bbcd35d01a87d0abb628c99a26c663ef14",
          "blockNumber": "0x2be2cc5",
          "transactionHash": "0x9a7051e46b252d2368c126923a7970a851ed1139d97e124a7e178f5677ea28d7",
          "transactionIndex": "0x85",
          "logIndex": "0x15a",
          "removed": false
        },
        {
          "address": "0x9b1296f104b4195dba015039d529167990036908",
          "topics": [
            "0x26399b60fa9117e91f9cf4e690f18a117d22841f62fb4ece7e7c799a97cb6a07",
            "0x0000000000000000000000000000000000000000000000000000000000000010",
            "0x0000000000000000000000000000000000000000000000000000000000000010",
            "0x000000000000000000000000645ec5781e8615a20e36ee13f338b79f89640aaf"
          ],
          "data": "0x",
          "blockHash": "0xbf33dc696fd01e9cda127e24cbbae8bbcd35d01a87d0abb628c99a26c663ef14",
          "blockNumber": "0x2be2cc5",
          "transactionHash": "0x9a7051e46b252d2368c126923a7970a851ed1139d97e124a7e178f5677ea28d7",
          "transactionIndex": "0x85",
          "logIndex": "0x15b",
          "removed": false
        },
        {
          "address": "0x645ec5781e8615a20e36ee13f338b79f89640aaf",
          "topics": [
            "0xc4784f333fb4f086174aa7cc56e2eb0850c39bbda8f955f72ee77d54b13a3dd9",
            "0x000000000000000000000000000000000000000000000000000110d9316ec000",
            "0x000000000000000000000000000000000000000000000000000110d9316ebff0",
            "0x0000000000000000000000000000000000000000000000000000000000000000"
          ],
          "data": "0x00000000000000000000000013b9cbcb46ad79878af8c9faa835bee19b977d3d",
          "blockHash": "0xbf33dc696fd01e9cda127e24cbbae8bbcd35d01a87d0abb628c99a26c663ef14",
          "blockNumber": "0x2be2cc5",
          "transactionHash": "0x9a7051e46b252d2368c126923a7970a851ed1139d97e124a7e178f5677ea28d7",
          "transactionIndex": "0x85",
          "logIndex": "0x15c",
          "removed": false
        }
      ],
      "logsBloom": "0x00100000100000840000000400000000000000000200000000000000000000000000000000000000000000000000000000000100000201000000000000040020000000000020020000008108000008000000000000040000000088c00000800400000000020000000000000000000800000020001000000400002010040000000000000000020000000840000001000000000100004080000000000800400080000004000000000000000000010000002001002001000000000000000000008000000802000000000000000000100000000400000004400000000000000060000000000000008002200000000000000000000000000000000000000000000000",
      "type": "0x0",
      "transactionHash": "0x9a7051e46b252d2368c126923a7970a851ed1139d97e124a7e178f5677ea28d7",
      "transactionIndex": "0x85",
      "blockHash": "0xbf33dc696fd01e9cda127e24cbbae8bbcd35d01a87d0abb628c99a26c663ef14",
      "blockNumber": "0x2be2cc5",
      "gasUsed": "0x43f0a",
      "effectiveGasPrice": "0x3b9aca00",
      "from": "0x13b9cbcb46ad79878af8c9faa835bee19b977d3d",
      "to": "0x645ec5781e8615a20e36ee13f338b79f89640aaf",
      "contractAddress": null
    }
  ],
  "libraries": [],
  "pending": [],
  "returns": {},
  "timestamp": 1737634498,
  "chain": 56,
  "commit": "7b70d68"
}