{
  "transactions": [
    {
      "hash": "0x53ce24c8b6808966c81bcf73bd427d2c754696a778c80ce8c119cfaad73847e0",
      "transactionType": "CALL",
      "contractName": null,
      "contractAddress": "0x52ef6f15ef7182bc9cf61b00389c1a69bcf4b988",
      "function": null,
      "arguments": null,
      "transaction": {
        "from": "0x13b9cbcb46ad79878af8c9faa835bee19b977d3d",
        "to": "0x52ef6f15ef7182bc9cf61b00389c1a69bcf4b988",
        "gas": "0x714d",
        "value": "0xb5e620f48000",
        "input": "0x",
        "nonce": "0x48",
        "chainId": "0x38"
      },
      "additionalContracts": [],
      "isFixedGasLimit": false
    },
    {
      "hash": "0x05874b918276d42f17007b3cc7b9cff59b073f942eb13d13dcf9e0528e9d372a",
      "transactionType": "CALL",
      "contractName": null,
      "contractAddress": "0xc396a63a67b7f569f76fb41501ddc577e895e0a6",
      "function": "setSignerStatus(address,bool)",
      "arguments": [
        "0x13B9cBcB46aD79878af8c9faa835Bee19B977D3D",
        "true"
      ],
      "transaction": {
        "from": "0x13b9cbcb46ad79878af8c9faa835bee19b977d3d",
        "to": "0xc396a63a67b7f569f76fb41501ddc577e895e0a6",
        "gas": "0x97ec",
        "value": "0x0",
        "input": "0x8d0abcda00000000000000000000000013b9cbcb46ad79878af8c9faa835bee19b977d3d0000000000000000000000000000000000000000000000000000000000000001",
        "nonce": "0x49",
        "chainId": "0x38"
      },
      "additionalContracts": [],
      "isFixedGasLimit": false
    },
    {
      "hash": "0x5d94a8400f1706e1d682ae4024995e0e96ef373a9ebdede060a277b371a873dd",
      "transactionType": "CALL",
      "contractName": null,
      "contractAddress": "0xc396a63a67b7f569f76fb41501ddc577e895e0a6",
      "function": "setSignerStatus(address,bool)",
      "arguments": [
        "0x4b664eD07D19d0b192A037Cfb331644cA536029d",
        "true"
      ],
      "transaction": {
        "from": "0x13b9cbcb46ad79878af8c9faa835bee19b977d3d",
        "to": "0xc396a63a67b7f569f76fb41501ddc577e895e0a6",
        "gas": "0x97ec",
        "value": "0x0",
        "input": "0x8d0abcda0000000000000000000000004b664ed07d19d0b192a037cfb331644ca536029d0000000000000000000000000000000000000000000000000000000000000001",
        "nonce": "0x4a",
        "chainId": "0x38"
      },
      "additionalContracts": [],
      "isFixedGasLimit": false
    },
    {
      "hash": "0x98121344890b545111a2d088ea350394a0e87f65235f4c032080ac6bde8459c3",
      "transactionType": "CALL",
      "contractName": null,
      "contractAddress": "0xc396a63a67b7f569f76fb41501ddc577e895e0a6",
      "function": "mintPersonalMSW(uint64,bytes)",
      "arguments": [
        "0",
        "0x"
      ],
      "transaction": {
        "from": "0x13b9cbcb46ad79878af8c9faa835bee19b977d3d",
        "to": "0xc396a63a67b7f569f76fb41501ddc577e895e0a6",
        "gas": "0x5dcca",
        "value": "0x0",
        "input": "0xce63f12a000000000000000000000000000000000000000000000000000000000000000000000000000000000000000000000000000000000000000000000000000000400000000000000000000000000000000000000000000000000000000000000000",
        "nonce": "0x4b",
        "chainId": "0x38"
      },
      "additionalContracts": [
        {
          "transactionType": "CREATE2",
          "address": "0x19238b2702ce16b9f5ca8873f3bacf6d2b61dbc6",
          "initCode": "0x3d602d80600a3d3981f3363d3d373d3d3d363d73d97e06e6f23bce9cd2e32b090da7308ee7d0a4d35af43d82803e903d91602b57fd5bf3"
        }
      ],
      "isFixedGasLimit": false
    },
    {
      "hash": null,
      "transactionType": "CALL",
      "contractName": null,
      "contractAddress": "0xc396a63a67b7f569f76fb41501ddc577e895e0a6",
      "function": "mintPersonalMSW(uint64,bytes)",
      "arguments": [
        "22222",
        "0x1b1e3fce77b7ee1dc9c6a63ace642b3eaa93eb6e0c4449a927850ae095c1b989136412055aeae9f10b31151e16be604cbfc016ca0f290df62714652c18db4e301c"
      ],
      "transaction": {
        "from": "0x52ef6f15ef7182bc9cf61b00389c1a69bcf4b988",
        "to": "0xc396a63a67b7f569f76fb41501ddc577e895e0a6",
        "gas": "0x6a27b",
        "value": "0x5af3107a4000",
        "input": "0xce63f12a00000000000000000000000000000000000000000000000000000000000056ce000000000000000000000000000000000000000000000000000000000000004000000000000000000000000000000000000000000000000000000000000000411b1e3fce77b7ee1dc9c6a63ace642b3eaa93eb6e0c4449a927850ae095c1b989136412055aeae9f10b31151e16be604cbfc016ca0f290df62714652c18db4e301c00000000000000000000000000000000000000000000000000000000000000",
        "nonce": "0x0",
        "chainId": "0x38"
      },
      "additionalContracts": [
        {
          "transactionType": "CREATE2",
          "address": "0x1c81fbd0633de354a85b140f351e2b2219e6c840",
          "initCode": "0x3d602d80600a3d3981f3363d3d373d3d3d363d73d97e06e6f23bce9cd2e32b090da7308ee7d0a4d35af43d82803e903d91602b57fd5bf3"
        }
      ],
      "isFixedGasLimit": false
    },
    {
      "hash": null,
      "transactionType": "CALL",
      "contractName": null,
      "contractAddress": "0x1c81fbd0633de354a85b140f351e2b2219e6c840",
      "function": "setRelayerStatus(address,bool)",
      "arguments": [
        "0x19238b2702Ce16B9F5CA8873F3BaCF6D2b61Dbc6",
        "true"
      ],
      "transaction": {
        "from": "0x52ef6f15ef7182bc9cf61b00389c1a69bcf4b988",
        "to": "0x1c81fbd0633de354a85b140f351e2b2219e6c840",
        "gas": "0x9f40",
        "value": "0x0",
        "input": "0x8601583400000000000000000000000019238b2702ce16b9f5ca8873f3bacf6d2b61dbc60000000000000000000000000000000000000000000000000000000000000001",
        "nonce": "0x1",
        "chainId": "0x38"
      },
      "additionalContracts": [],
      "isFixedGasLimit": false
    },
    {
      "hash": null,
      "transactionType": "CALL",
      "contractName": null,
      "contractAddress": "0xc396a63a67b7f569f76fb41501ddc577e895e0a6",
      "function": "createCustomERC20(address,string,string,uint256,(address,uint256)[])",
      "arguments": [
        "0x13B9cBcB46aD79878af8c9faa835Bee19B977D3D",
        "Custom ERC20 Name",
        "CUSTSYM",
        "1000000000000000000000000",
        "[(0x19238b2702Ce16B9F5CA8873F3BaCF6D2b61Dbc6, 10000000000000000000), (0x0000000000000000000000000000000000000002, 200)]"
      ],
      "transaction": {
        "from": "0x13b9cbcb46ad79878af8c9faa835bee19b977d3d",
        "to": "0xc396a63a67b7f569f76fb41501ddc577e895e0a6",
        "gas": "0x53031",
        "value": "0x0",
        "input": "0x6b5eab6a00000000000000000000000013b9cbcb46ad79878af8c9faa835bee19b977d3d00000000000000000000000000000000000000000000000000000000000000a000000000000000000000000000000000000000000000000000000000000000e000000000000000000000000000000000000000000000d3c21bcecceda100000000000000000000000000000000000000000000000000000000000000000001200000000000000000000000000000000000000000000000000000000000000011437573746f6d204552433230204e616d6500000000000000000000000000000000000000000000000000000000000000000000000000000000000000000000074355535453594d00000000000000000000000000000000000000000000000000000000000000000000000000000000000000000000000000000000000000000200000000000000000000000019238b2702ce16b9f5ca8873f3bacf6d2b61dbc60000000000000000000000000000000000000000000000008ac7230489e80000000000000000000000000000000000000000000000000000000000000000000200000000000000000000000000000000000000000000000000000000000000c8",
        "nonce": "0x4c",
        "chainId": "0x38"
      },
      "additionalContracts": [
        {
          "transactionType": "CREATE",
          "address": "0x0c46a9c3c17c9b9c131496630ad377ae15f9c638",
          "initCode": "0x3d602d80600a3d3981f3363d3d373d3d3d363d737a3c8f45b809078da58d17fb6cd059334622838f5af43d82803e903d91602b57fd5bf3"
        }
      ],
      "isFixedGasLimit": false
    }
  ],
  "receipts": [
    {
      "status": "0x1",
      "cumulativeGasUsed": "0x3c40979",
      "logs": [],
      "logsBloom": "0x00000000000000000000000000000000000000000000000000000000000000000000000000000000000000000000000000000000000000000000000000000000000000000000000000000000000000000000000000000000000000000000000000000000000000000000000000000000000000000000000000000000000000000000000000000000000000000000000000000000000000000000000000000000000000000000000000000000000000000000000000000000000000000000000000000000000000000000000000000000000000000000000000000000000000000000000000000000000000000000000000000000000000000000000000000000",
      "type": "0x0",
      "transactionHash": "0x53ce24c8b6808966c81bcf73bd427d2c754696a778c80ce8c119cfaad73847e0",
      "transactionIndex": "0x151",
      "blockHash": "0x8f58770aa2ccb7e5b1ec7261c9ee92b76f64f06ebe6e62a6405659f512c7455d",
      "blockNumber": "0x30d77d5",
      "gasUsed": "0x5208",
      "effectiveGasPrice": "0x5f5e100",
      "from": "0x13b9cbcb46ad79878af8c9faa835bee19b977d3d",
      "to": "0x52ef6f15ef7182bc9cf61b00389c1a69bcf4b988",
      "contractAddress": null
    },
    {
      "status": "0x1",
      "cumulativeGasUsed": "0x41acdc1",
      "logs": [],
      "logsBloom": "0x00000000000000000000000000000000000000000000000000000000000000000000000000000000000000000000000000000000000000000000000000000000000000000000000000000000000000000000000000000000000000000000000000000000000000000000000000000000000000000000000000000000000000000000000000000000000000000000000000000000000000000000000000000000000000000000000000000000000000000000000000000000000000000000000000000000000000000000000000000000000000000000000000000000000000000000000000000000000000000000000000000000000000000000000000000000",
      "type": "0x0",
      "transactionHash": "0x05874b918276d42f17007b3cc7b9cff59b073f942eb13d13dcf9e0528e9d372a",
      "transactionIndex": "0x161",
      "blockHash": "0xabfa6ade353e8df4d5aea43d850ebaa604da94ed21991fb1485a19d6d71022e8",
      "blockNumber": "0x30d77d7",
      "gasUsed": "0x67e1",
      "effectiveGasPrice": "0x5f5e100",
      "from": "0x13b9cbcb46ad79878af8c9faa835bee19b977d3d",
      "to": "0xc396a63a67b7f569f76fb41501ddc577e895e0a6",
      "contractAddress": null
    },
    {
      "status": "0x1",
      "cumulativeGasUsed": "0x406e7ad",
      "logs": [],
      "logsBloom": "0x00000000000000000000000000000000000000000000000000000000000000000000000000000000000000000000000000000000000000000000000000000000000000000000000000000000000000000000000000000000000000000000000000000000000000000000000000000000000000000000000000000000000000000000000000000000000000000000000000000000000000000000000000000000000000000000000000000000000000000000000000000000000000000000000000000000000000000000000000000000000000000000000000000000000000000000000000000000000000000000000000000000000000000000000000000000",
      "type": "0x0",
      "transactionHash": "0x5d94a8400f1706e1d682ae4024995e0e96ef373a9ebdede060a277b371a873dd",
      "transactionIndex": "0x143",
      "blockHash": "0x603d9dd7deae59e2a973873f9d9ef6410980b76fad0f8f3573d3d6c81c7d1254",
      "blockNumber": "0x30d77d9",
      "gasUsed": "0x67e1",
      "effectiveGasPrice": "0x5f5e100",
      "from": "0x13b9cbcb46ad79878af8c9faa835bee19b977d3d",
      "to": "0xc396a63a67b7f569f76fb41501ddc577e895e0a6",
      "contractAddress": null
    },
    {
      "status": "0x1",
      "cumulativeGasUsed": "0x42d216a",
      "logs": [
        {
          "address": "0x19238b2702ce16b9f5ca8873f3bacf6d2b61dbc6",
          "topics": [
            "0xddf252ad1be2c89b69c2b068fc378daa952ba7f163c4a11628f55a4df523b3ef",
            "0x0000000000000000000000000000000000000000000000000000000000000000",
            "0x00000000000000000000000013b9cbcb46ad79878af8c9faa835bee19b977d3d",
            "0x0000000000000000000000000000000000000000000000000000000000000001"
          ],
          "data": "0x",
          "blockHash": "0x9ed0bb838b7127c4a810d7d7b62a00a2f567713db5395ff8c10fff66d0c0e05b",
          "blockNumber": "0x30d77dc",
          "transactionHash": "0x98121344890b545111a2d088ea350394a0e87f65235f4c032080ac6bde8459c3",
          "transactionIndex": "0x14a",
          "logIndex": "0xae4",
          "removed": false
        },
        {
          "address": "0x19238b2702ce16b9f5ca8873f3bacf6d2b61dbc6",
          "topics": [
            "0xf8e1a15aba9398e019f0b49df1a4fde98ee17ae345cb5f6b5e2c27f5033e8ce7"
          ],
          "data": "0x0000000000000000000000000000000000000000000000000000000000000001",
          "blockHash": "0x9ed0bb838b7127c4a810d7d7b62a00a2f567713db5395ff8c10fff66d0c0e05b",
          "blockNumber": "0x30d77dc",
          "transactionHash": "0x98121344890b545111a2d088ea350394a0e87f65235f4c032080ac6bde8459c3",
          "transactionIndex": "0x14a",
          "logIndex": "0xae5",
          "removed": false
        },
        {
          "address": "0x19238b2702ce16b9f5ca8873f3bacf6d2b61dbc6",
          "topics": [
            "0xfa6883374d3785c826e28c69c68c1b6dd2178accc8623f49c6829a75487419b3",
            "0x00000000000000000000000013b9cbcb46ad79878af8c9faa835bee19b977d3d",
            "0x0000000000000000000000000000000000000000000000000000000000000001",
            "0x0004000000000000000000000000000000000000000000000000000000000000"
          ],
          "data": "0x00000000000000000000000000000000000000000000000000000000000000200000000000000000000000000000000000000000000000000000000000000000",
          "blockHash": "0x9ed0bb838b7127c4a810d7d7b62a00a2f567713db5395ff8c10fff66d0c0e05b",
          "blockNumber": "0x30d77dc",
          "transactionHash": "0x98121344890b545111a2d088ea350394a0e87f65235f4c032080ac6bde8459c3",
          "transactionIndex": "0x14a",
          "logIndex": "0xae6",
          "removed": false
        },
        {
          "address": "0x19238b2702ce16b9f5ca8873f3bacf6d2b61dbc6",
          "topics": [
            "0xc7f505b2f371ae2175ee4913f4499e1f2633a7b5936321eed1cdaeb6115181d2"
          ],
          "data": "0x0000000000000000000000000000000000000000000000000000000000000001",
          "blockHash": "0x9ed0bb838b7127c4a810d7d7b62a00a2f567713db5395ff8c10fff66d0c0e05b",
          "blockNumber": "0x30d77dc",
          "transactionHash": "0x98121344890b545111a2d088ea350394a0e87f65235f4c032080ac6bde8459c3",
          "transactionIndex": "0x14a",
          "logIndex": "0xae7",
          "removed": false
        },
        {
          "address": "0xc396a63a67b7f569f76fb41501ddc577e895e0a6",
          "topics": [
            "0x8dc66cafb77b325538c856bfa5892b31ca7305adfa48f6a09e030e261cda0795",
            "0x00000000000000000000000019238b2702ce16b9f5ca8873f3bacf6d2b61dbc6",
            "0x000000000000000000000000d97e06e6f23bce9cd2e32b090da7308ee7d0a4d3"
          ],
          "data": "0x00000000000000000000000000000000000000000000000000000000000007d2",
          "blockHash": "0x9ed0bb838b7127c4a810d7d7b62a00a2f567713db5395ff8c10fff66d0c0e05b",
          "blockNumber": "0x30d77dc",
          "transactionHash": "0x98121344890b545111a2d088ea350394a0e87f65235f4c032080ac6bde8459c3",
          "transactionIndex": "0x14a",
          "logIndex": "0xae8",
          "removed": false
        }
      ],
      "logsBloom": "0x00000000008000800000000000000000000000000000000000800000000000000000000000000000004000000000000000000000000000000000000100040000000000000000020000000108120000000000000000040000000001800000000000000000024000000000000000000800000000000000000000004010000000000000000000000000000840100000000000000000000080000000000808400080000000000000000000000000000000002000000000010000000000000000008400000002000000000000000000100000000000000004400000010000000060000000000000000000200000000000000000000000000000000000000000000000",
      "type": "0x0",
      "transactionHash": "0x98121344890b545111a2d088ea350394a0e87f65235f4c032080ac6bde8459c3",
      "transactionIndex": "0x14a",
      "blockHash": "0x9ed0bb838b7127c4a810d7d7b62a00a2f567713db5395ff8c10fff66d0c0e05b",
      "blockNumber": "0x30d77dc",
      "gasUsed": "0x43e8c",
      "effectiveGasPrice": "0x5f5e100",
      "from": "0x13b9cbcb46ad79878af8c9faa835bee19b977d3d",
      "to": "0xc396a63a67b7f569f76fb41501ddc577e895e0a6",
      "contractAddress": null
    }
  ],
  "libraries": [],
  "pending": [],
  "returns": {},
  "timestamp": 1749565534,
  "chain": 56,
  "commit": "f798767"
}