{
  "transactions": [
    {
      "hash": "0x252701fb829cbf55f6b2d7a94da960ea9ed02cea9eb2614817965e0e0129543e",
      "transactionType": "CALL",
      "contractName": "MyShchFactory",
      "contractAddress": "0xf58208676a7b5a604df41ca25b5310f3cc997bf3",
      "function": "setSignerStatus(address,bool)",
      "arguments": [
        "0x7EC0BF0a4D535Ea220c6bD961e352B752906D568",
        "true"
      ],
      "transaction": {
        "from": "0x13b9cbcb46ad79878af8c9faa835bee19b977d3d",
        "to": "0xf58208676a7b5a604df41ca25b5310f3cc997bf3",
        "gas": "0xfabb",
        "value": "0x0",
        "input": "0x8d0abcda0000000000000000000000007ec0bf0a4d535ea220c6bd961e352b752906d5680000000000000000000000000000000000000000000000000000000000000001",
        "nonce": "0x14",
        "chainId": "0x38"
      },
      "additionalContracts": [],
      "isFixedGasLimit": false
    },
    {
      "hash": "0x0ca4ef0ca289e1a46d65b67295091764ede768bce3480a54f82d3c9f6fc16aa9",
      "transactionType": "CALL",
      "contractName": "MyShchFactory",
      "contractAddress": "0xf58208676a7b5a604df41ca25b5310f3cc997bf3",
      "function": "setSignerStatus(address,bool)",
      "arguments": [
        "0x4b664eD07D19d0b192A037Cfb331644cA536029d",
        "true"
      ],
      "transaction": {
        "from": "0x13b9cbcb46ad79878af8c9faa835bee19b977d3d",
        "to": "0xf58208676a7b5a604df41ca25b5310f3cc997bf3",
        "gas": "0xfabb",
        "value": "0x0",
        "input": "0x8d0abcda0000000000000000000000004b664ed07d19d0b192a037cfb331644ca536029d0000000000000000000000000000000000000000000000000000000000000001",
        "nonce": "0x15",
        "chainId": "0x38"
      },
      "additionalContracts": [],
      "isFixedGasLimit": false
    }
  ],
  "receipts": [
    {
      "status": "0x1",
      "cumulativeGasUsed": "0xfa5290",
      "logs": [],
      "logsBloom": "0x00000000000000000000000000000000000000000000000000000000000000000000000000000000000000000000000000000000000000000000000000000000000000000000000000000000000000000000000000000000000000000000000000000000000000000000000000000000000000000000000000000000000000000000000000000000000000000000000000000000000000000000000000000000000000000000000000000000000000000000000000000000000000000000000000000000000000000000000000000000000000000000000000000000000000000000000000000000000000000000000000000000000000000000000000000000",
      "type": "0x0",
      "transactionHash": "0x252701fb829cbf55f6b2d7a94da960ea9ed02cea9eb2614817965e0e0129543e",
      "transactionIndex": "0xa5",
      "blockHash": "0xc8dabe8c0b02b6e9bd4f24b40e05e6ec1de69cf8508a683ddf8f59ed85083dcc",
      "blockNumber": "0x2bffb4a",
      "gasUsed": "0xb587",
      "effectiveGasPrice": "0x3b9aca00",
      "from": "0x13b9cbcb46ad79878af8c9faa835bee19b977d3d",
      "to": "0xf58208676a7b5a604df41ca25b5310f3cc997bf3",
      "contractAddress": null
    },
    {
      "status": "0x1",
      "cumulativeGasUsed": "0x116ef25",
      "logs": [],
      "logsBloom": "0x00000000000000000000000000000000000000000000000000000000000000000000000000000000000000000000000000000000000000000000000000000000000000000000000000000000000000000000000000000000000000000000000000000000000000000000000000000000000000000000000000000000000000000000000000000000000000000000000000000000000000000000000000000000000000000000000000000000000000000000000000000000000000000000000000000000000000000000000000000000000000000000000000000000000000000000000000000000000000000000000000000000000000000000000000000000",
      "type": "0x0",
      "transactionHash": "0x0ca4ef0ca289e1a46d65b67295091764ede768bce3480a54f82d3c9f6fc16aa9",
      "transactionIndex": "0xb4",
      "blockHash": "0xc8dabe8c0b02b6e9bd4f24b40e05e6ec1de69cf8508a683ddf8f59ed85083dcc",
      "blockNumber": "0x2bffb4a",
      "gasUsed": "0xb587",
      "effectiveGasPrice": "0x3b9aca00",
      "from": "0x13b9cbcb46ad79878af8c9faa835bee19b977d3d",
      "to": "0xf58208676a7b5a604df41ca25b5310f3cc997bf3",
      "contractAddress": null
    }
  ],
  "libraries": [],
  "pending": [],
  "returns": {},
  "timestamp": 1737989722,
  "chain": 56,
  "commit": "3fc134a"
}