{
  "transactions": [
    {
      "hash": "0xa36e813935e7410428a69d09af5037fe1b6b6a279e55327e3d90ea17c44b6477",
      "transactionType": "CALL",
      "contractName": null,
      "contractAddress": "0x6f9aaaad96180b3d6c71fbbae2c1c5d5193a64ec",
      "function": null,
      "arguments": null,
      "transaction": {
        "from": "0x13b9cbcb46ad79878af8c9faa835bee19b977d3d",
        "to": "0x6f9aaaad96180b3d6c71fbbae2c1c5d5193a64ec",
        "gas": "0x714d",
        "value": "0x470de4df820000",
        "input": "0x",
        "nonce": "0x30",
        "chainId": "0x38"
      },
      "additionalContracts": [],
      "isFixedGasLimit": false
    },
    {
      "hash": "0x161fa907ebcc8e56f25da39198992be6e74e06ac6f6793841eb76093d540d4e0",
      "transactionType": "CALL",
      "contractName": null,
      "contractAddress": "0xc396a63a67b7f569f76fb41501ddc577e895e0a6",
      "function": "setSignerStatus(address,bool)",
      "arguments": [
        "0x13B9cBcB46aD79878af8c9faa835Bee19B977D3D",
        "true"
      ],
      "transaction": {
        "from": "0x13b9cbcb46ad79878af8c9faa835bee19b977d3d",
        "to": "0xc396a63a67b7f569f76fb41501ddc577e895e0a6",
        "gas": "0xfad9",
        "value": "0x0",
        "input": "0x8d0abcda00000000000000000000000013b9cbcb46ad79878af8c9faa835bee19b977d3d0000000000000000000000000000000000000000000000000000000000000001",
        "nonce": "0x31",
        "chainId": "0x38"
      },
      "additionalContracts": [],
      "isFixedGasLimit": false
    },
    {
      "hash": "0x5dbff9b534f58923c9c1eaa1a76570eb5320ffc74a0a3c585140b29050c22b19",
      "transactionType": "CALL",
      "contractName": null,
      "contractAddress": "0xc396a63a67b7f569f76fb41501ddc577e895e0a6",
      "function": "setSignerStatus(address,bool)",
      "arguments": [
        "0x4b664eD07D19d0b192A037Cfb331644cA536029d",
        "true"
      ],
      "transaction": {
        "from": "0x13b9cbcb46ad79878af8c9faa835bee19b977d3d",
        "to": "0xc396a63a67b7f569f76fb41501ddc577e895e0a6",
        "gas": "0x97ec",
        "value": "0x0",
        "input": "0x8d0abcda0000000000000000000000004b664ed07d19d0b192a037cfb331644ca536029d0000000000000000000000000000000000000000000000000000000000000001",
        "nonce": "0x32",
        "chainId": "0x38"
      },
      "additionalContracts": [],
      "isFixedGasLimit": false
    },
    {
      "hash": "0x93c9d55162749f9bd6a2633ebd220287683775dcd54af0f032c1e55fca99e867",
      "transactionType": "CALL",
      "contractName": null,
      "contractAddress": "0xc396a63a67b7f569f76fb41501ddc577e895e0a6",
      "function": "mintPersonalMSW(uint64,bytes)",
      "arguments": [
        "0",
        "0x"
      ],
      "transaction": {
        "from": "0x13b9cbcb46ad79878af8c9faa835bee19b977d3d",
        "to": "0xc396a63a67b7f569f76fb41501ddc577e895e0a6",
        "gas": "0x6390d",
        "value": "0x0",
        "input": "0xce63f12a000000000000000000000000000000000000000000000000000000000000000000000000000000000000000000000000000000000000000000000000000000400000000000000000000000000000000000000000000000000000000000000000",
        "nonce": "0x33",
        "chainId": "0x38"
      },
      "additionalContracts": [
        {
          "transactionType": "CREATE2",
          "address": "0xd5c3c50a4bcca2c3819eb30d4734ce9b85311866",
          "initCode": "0x3d602d80600a3d3981f3363d3d373d3d3d363d73d97e06e6f23bce9cd2e32b090da7308ee7d0a4d35af43d82803e903d91602b57fd5bf3"
        }
      ],
      "isFixedGasLimit": false
    },
    {
      "hash": null,
      "transactionType": "CALL",
      "contractName": null,
      "contractAddress": "0xc396a63a67b7f569f76fb41501ddc577e895e0a6",
      "function": "mintPersonalMSW(uint64,bytes)",
      "arguments": [
        "22222",
        "0x1b1e3fce77b7ee1dc9c6a63ace642b3eaa93eb6e0c4449a927850ae095c1b989136412055aeae9f10b31151e16be604cbfc016ca0f290df62714652c18db4e301c"
      ],
      "transaction": {
        "from": "0x6f9aaaad96180b3d6c71fbbae2c1c5d5193a64ec",
        "to": "0xc396a63a67b7f569f76fb41501ddc577e895e0a6",
        "gas": "0x6a27b",
        "value": "0x2386f26fc10000",
        "input": "0xce63f12a00000000000000000000000000000000000000000000000000000000000056ce000000000000000000000000000000000000000000000000000000000000004000000000000000000000000000000000000000000000000000000000000000411b1e3fce77b7ee1dc9c6a63ace642b3eaa93eb6e0c4449a927850ae095c1b989136412055aeae9f10b31151e16be604cbfc016ca0f290df62714652c18db4e301c00000000000000000000000000000000000000000000000000000000000000",
        "nonce": "0x0",
        "chainId": "0x38"
      },
      "additionalContracts": [
        {
          "transactionType": "CREATE2",
          "address": "0x1c81fbd0633de354a85b140f351e2b2219e6c840",
          "initCode": "0x3d602d80600a3d3981f3363d3d373d3d3d363d73d97e06e6f23bce9cd2e32b090da7308ee7d0a4d35af43d82803e903d91602b57fd5bf3"
        }
      ],
      "isFixedGasLimit": false
    },
    {
      "hash": null,
      "transactionType": "CALL",
      "contractName": null,
      "contractAddress": "0x1c81fbd0633de354a85b140f351e2b2219e6c840",
      "function": "setRelayerStatus(address,bool)",
      "arguments": [
        "0xd5C3C50a4bccA2c3819eB30D4734CE9B85311866",
        "true"
      ],
      "transaction": {
        "from": "0x6f9aaaad96180b3d6c71fbbae2c1c5d5193a64ec",
        "to": "0x1c81fbd0633de354a85b140f351e2b2219e6c840",
        "gas": "0x9f40",
        "value": "0x0",
        "input": "0x86015834000000000000000000000000d5c3c50a4bcca2c3819eb30d4734ce9b853118660000000000000000000000000000000000000000000000000000000000000001",
        "nonce": "0x1",
        "chainId": "0x38"
      },
      "additionalContracts": [],
      "isFixedGasLimit": false
    },
    {
      "hash": null,
      "transactionType": "CALL",
      "contractName": null,
      "contractAddress": "0xc396a63a67b7f569f76fb41501ddc577e895e0a6",
      "function": "createCustomERC20(address,string,string,uint256,(address,uint256)[])",
      "arguments": [
        "0x13B9cBcB46aD79878af8c9faa835Bee19B977D3D",
        "Custom ERC20 Name",
        "CUSTSYM",
        "1000000000000000000000000",
        "[(0xd5C3C50a4bccA2c3819eB30D4734CE9B85311866, 10000000000000000000), (0x0000000000000000000000000000000000000002, 200)]"
      ],
      "transaction": {
        "from": "0x13b9cbcb46ad79878af8c9faa835bee19b977d3d",
        "to": "0xc396a63a67b7f569f76fb41501ddc577e895e0a6",
        "gas": "0x53031",
        "value": "0x0",
        "input": "0x6b5eab6a00000000000000000000000013b9cbcb46ad79878af8c9faa835bee19b977d3d00000000000000000000000000000000000000000000000000000000000000a000000000000000000000000000000000000000000000000000000000000000e000000000000000000000000000000000000000000000d3c21bcecceda100000000000000000000000000000000000000000000000000000000000000000001200000000000000000000000000000000000000000000000000000000000000011437573746f6d204552433230204e616d6500000000000000000000000000000000000000000000000000000000000000000000000000000000000000000000074355535453594d000000000000000000000000000000000000000000000000000000000000000000000000000000000000000000000000000000000000000002000000000000000000000000d5c3c50a4bcca2c3819eb30d4734ce9b853118660000000000000000000000000000000000000000000000008ac7230489e80000000000000000000000000000000000000000000000000000000000000000000200000000000000000000000000000000000000000000000000000000000000c8",
        "nonce": "0x34",
        "chainId": "0x38"
      },
      "additionalContracts": [
        {
          "transactionType": "CREATE",
          "address": "0xab82f5690d9f477e3f54e3354f5aec5d97c6ef3b",
          "initCode": "0x3d602d80600a3d3981f3363d3d373d3d3d363d737a3c8f45b809078da58d17fb6cd059334622838f5af43d82803e903d91602b57fd5bf3"
        }
      ],
      "isFixedGasLimit": false
    }
  ],
  "receipts": [
    {
      "status": "0x1",
      "cumulativeGasUsed": "0x37e697b",
      "logs": [],
      "logsBloom": "0x00000000000000000000000000000000000000000000000000000000000000000000000000000000000000000000000000000000000000000000000000000000000000000000000000000000000000000000000000000000000000000000000000000000000000000000000000000000000000000000000000000000000000000000000000000000000000000000000000000000000000000000000000000000000000000000000000000000000000000000000000000000000000000000000000000000000000000000000000000000000000000000000000000000000000000000000000000000000000000000000000000000000000000000000000000000",
      "type": "0x0",
      "transactionHash": "0xa36e813935e7410428a69d09af5037fe1b6b6a279e55327e3d90ea17c44b6477",
      "transactionIndex": "0x152",
      "blockHash": "0x157c057a88dfa21f373700950afb1b602de99d28a4eda822736de417a31112c0",
      "blockNumber": "0x30d4f00",
      "gasUsed": "0x5208",
      "effectiveGasPrice": "0x5f5e100",
      "from": "0x13b9cbcb46ad79878af8c9faa835bee19b977d3d",
      "to": "0x6f9aaaad96180b3d6c71fbbae2c1c5d5193a64ec",
      "contractAddress": null
    },
    {
      "status": "0x1",
      "cumulativeGasUsed": "0x357d9b9",
      "logs": [],
      "logsBloom": "0x00000000000000000000000000000000000000000000000000000000000000000000000000000000000000000000000000000000000000000000000000000000000000000000000000000000000000000000000000000000000000000000000000000000000000000000000000000000000000000000000000000000000000000000000000000000000000000000000000000000000000000000000000000000000000000000000000000000000000000000000000000000000000000000000000000000000000000000000000000000000000000000000000000000000000000000000000000000000000000000000000000000000000000000000000000000",
      "type": "0x0",
      "transactionHash": "0x161fa907ebcc8e56f25da39198992be6e74e06ac6f6793841eb76093d540d4e0",
      "transactionIndex": "0x120",
      "blockHash": "0x9391dc0dc47345ac14ba4f58ec46c79d8ba371b85228e65399773bd22b06bd90",
      "blockNumber": "0x30d4f03",
      "gasUsed": "0xb59d",
      "effectiveGasPrice": "0x5f5e100",
      "from": "0x13b9cbcb46ad79878af8c9faa835bee19b977d3d",
      "to": "0xc396a63a67b7f569f76fb41501ddc577e895e0a6",
      "contractAddress": null
    },
    {
      "status": "0x1",
      "cumulativeGasUsed": "0x3a3ff80",
      "logs": [],
      "logsBloom": "0x00000000000000000000000000000000000000000000000000000000000000000000000000000000000000000000000000000000000000000000000000000000000000000000000000000000000000000000000000000000000000000000000000000000000000000000000000000000000000000000000000000000000000000000000000000000000000000000000000000000000000000000000000000000000000000000000000000000000000000000000000000000000000000000000000000000000000000000000000000000000000000000000000000000000000000000000000000000000000000000000000000000000000000000000000000000",
      "type": "0x0",
      "transactionHash": "0x5dbff9b534f58923c9c1eaa1a76570eb5320ffc74a0a3c585140b29050c22b19",
      "transactionIndex": "0x12b",
      "blockHash": "0x07ba83309560fb433b6baf3ecac4f3f6b91be69d8ed3eb3f1176e6feaa20699e",
      "blockNumber": "0x30d4f05",
      "gasUsed": "0x67e1",
      "effectiveGasPrice": "0x5f5e100",
      "from": "0x13b9cbcb46ad79878af8c9faa835bee19b977d3d",
      "to": "0xc396a63a67b7f569f76fb41501ddc577e895e0a6",
      "contractAddress": null
    },
    {
      "status": "0x1",
      "cumulativeGasUsed": "0x39961f1",
      "logs": [
        {
          "address": "0xd5c3c50a4bcca2c3819eb30d4734ce9b85311866",
          "topics": [
            "0xddf252ad1be2c89b69c2b068fc378daa952ba7f163c4a11628f55a4df523b3ef",
            "0x0000000000000000000000000000000000000000000000000000000000000000",
            "0x00000000000000000000000013b9cbcb46ad79878af8c9faa835bee19b977d3d",
            "0x0000000000000000000000000000000000000000000000000000000000000001"
          ],
          "data": "0x",
          "blockHash": "0xee72463565e4c994de72aa764646f4ee9fef6e7b3a704db248376bc96c93b257",
          "blockNumber": "0x30d4f07",
          "transactionHash": "0x93c9d55162749f9bd6a2633ebd220287683775dcd54af0f032c1e55fca99e867",
          "transactionIndex": "0x169",
          "logIndex": "0x8fd",
          "removed": false
        },
        {
          "address": "0xd5c3c50a4bcca2c3819eb30d4734ce9b85311866",
          "topics": [
            "0xf8e1a15aba9398e019f0b49df1a4fde98ee17ae345cb5f6b5e2c27f5033e8ce7"
          ],
          "data": "0x0000000000000000000000000000000000000000000000000000000000000001",
          "blockHash": "0xee72463565e4c994de72aa764646f4ee9fef6e7b3a704db248376bc96c93b257",
          "blockNumber": "0x30d4f07",
          "transactionHash": "0x93c9d55162749f9bd6a2633ebd220287683775dcd54af0f032c1e55fca99e867",
          "transactionIndex": "0x169",
          "logIndex": "0x8fe",
          "removed": false
        },
        {
          "address": "0xd5c3c50a4bcca2c3819eb30d4734ce9b85311866",
          "topics": [
            "0xfa6883374d3785c826e28c69c68c1b6dd2178accc8623f49c6829a75487419b3",
            "0x00000000000000000000000013b9cbcb46ad79878af8c9faa835bee19b977d3d",
            "0x0000000000000000000000000000000000000000000000000000000000000001",
            "0x0004000000000000000000000000000000000000000000000000000000000000"
          ],
          "data": "0x00000000000000000000000000000000000000000000000000000000000000200000000000000000000000000000000000000000000000000000000000000000",
          "blockHash": "0xee72463565e4c994de72aa764646f4ee9fef6e7b3a704db248376bc96c93b257",
          "blockNumber": "0x30d4f07",
          "transactionHash": "0x93c9d55162749f9bd6a2633ebd220287683775dcd54af0f032c1e55fca99e867",
          "transactionIndex": "0x169",
          "logIndex": "0x8ff",
          "removed": false
        },
        {
          "address": "0xd5c3c50a4bcca2c3819eb30d4734ce9b85311866",
          "topics": [
            "0xc7f505b2f371ae2175ee4913f4499e1f2633a7b5936321eed1cdaeb6115181d2"
          ],
          "data": "0x0000000000000000000000000000000000000000000000000000000000000001",
          "blockHash": "0xee72463565e4c994de72aa764646f4ee9fef6e7b3a704db248376bc96c93b257",
          "blockNumber": "0x30d4f07",
          "transactionHash": "0x93c9d55162749f9bd6a2633ebd220287683775dcd54af0f032c1e55fca99e867",
          "transactionIndex": "0x169",
          "logIndex": "0x900",
          "removed": false
        },
        {
          "address": "0xc396a63a67b7f569f76fb41501ddc577e895e0a6",
          "topics": [
            "0x8dc66cafb77b325538c856bfa5892b31ca7305adfa48f6a09e030e261cda0795",
            "0x000000000000000000000000d5c3c50a4bcca2c3819eb30d4734ce9b85311866",
            "0x000000000000000000000000d97e06e6f23bce9cd2e32b090da7308ee7d0a4d3"
          ],
          "data": "0x00000000000000000000000000000000000000000000000000000000000007d2",
          "blockHash": "0xee72463565e4c994de72aa764646f4ee9fef6e7b3a704db248376bc96c93b257",
          "blockNumber": "0x30d4f07",
          "transactionHash": "0x93c9d55162749f9bd6a2633ebd220287683775dcd54af0f032c1e55fca99e867",
          "transactionIndex": "0x169",
          "logIndex": "0x901",
          "removed": false
        }
      ],
      "logsBloom": "0x00000000008000800000000000000000000000000000000000800000000000000000000000000000004000000000000000000000002000000000000100040000000000000000020000000108100000000000000000040000000000800000000000000000024000000000000000000800000800000000000000004010000000000000000000000000000800000000000000000000000080000000000800400080000000000000000000000000000000002000000000000000000200000000008400000002000000000000000000100000004000000004400000010000000060000001000000000000200000000000000000000000000000000000000000000000",
      "type": "0x0",
      "transactionHash": "0x93c9d55162749f9bd6a2633ebd220287683775dcd54af0f032c1e55fca99e867",
      "transactionIndex": "0x169",
      "blockHash": "0xee72463565e4c994de72aa764646f4ee9fef6e7b3a704db248376bc96c93b257",
      "blockNumber": "0x30d4f07",
      "gasUsed": "0x48158",
      "effectiveGasPrice": "0x5f5e100",
      "from": "0x13b9cbcb46ad79878af8c9faa835bee19b977d3d",
      "to": "0xc396a63a67b7f569f76fb41501ddc577e895e0a6",
      "contractAddress": null
    }
  ],
  "libraries": [],
  "pending": [],
  "returns": {},
  "timestamp": 1749549851,
  "chain": 56,
  "commit": "f798767"
}