{
  "transactions": [
    {
      "hash": "0x29088548532e4f947da8f6ec42431100062694bcb8e70d30ee3bf3ac44af9073",
      "transactionType": "CALL",
      "contractName": "MyShchFactory",
      "contractAddress": "0xf58208676a7b5a604df41ca25b5310f3cc997bf3",
      "function": "mintPersonalMSW(uint64,bytes)",
      "arguments": [
        "22222",
        "0x1b1e3fce77b7ee1dc9c6a63ace642b3eaa93eb6e0c4449a927850ae095c1b989136412055aeae9f10b31151e16be604cbfc016ca0f290df62714652c18db4e301c"
      ],
      "transaction": {
        "from": "0x13b9cbcb46ad79878af8c9faa835bee19b977d3d",
        "to": "0xf58208676a7b5a604df41ca25b5310f3cc997bf3",
        "gas": "0x62937",
        "value": "0x1b58",
        "input": "0xce63f12a00000000000000000000000000000000000000000000000000000000000056ce000000000000000000000000000000000000000000000000000000000000004000000000000000000000000000000000000000000000000000000000000000411b1e3fce77b7ee1dc9c6a63ace642b3eaa93eb6e0c4449a927850ae095c1b989136412055aeae9f10b31151e16be604cbfc016ca0f290df62714652c18db4e301c00000000000000000000000000000000000000000000000000000000000000",
        "nonce": "0x16",
        "chainId": "0x38"
      },
      "additionalContracts": [
        {
          "transactionType": "CREATE2",
          "address": "0x086cf886322c115aacf5425c73ed63ca0117708c",
          "initCode": "0x3d602d80600a3d3981f3363d3d373d3d3d363d739c10ed902ae7fd997d92eed7535849f204b727b75af43d82803e903d91602b57fd5bf3"
        }
      ],
      "isFixedGasLimit": false
    },
    {
      "hash": "0xb86b06c0433e72a90cdaf92f685ee915d156390e18d028cc26e69701b54e02a2",
      "transactionType": "CALL",
      "contractName": "MyShchFactory",
      "contractAddress": "0xf58208676a7b5a604df41ca25b5310f3cc997bf3",
      "function": "newImplementation(uint8,address)",
      "arguments": [
        "2",
        "0x7A3c8F45b809078da58d17fb6Cd059334622838F"
      ],
      "transaction": {
        "from": "0x13b9cbcb46ad79878af8c9faa835bee19b977d3d",
        "to": "0xf58208676a7b5a604df41ca25b5310f3cc997bf3",
        "gas": "0x116a8",
        "value": "0x0",
        "input": "0xb5537eac00000000000000000000000000000000000000000000000000000000000000020000000000000000000000007a3c8f45b809078da58d17fb6cd059334622838f",
        "nonce": "0x17",
        "chainId": "0x38"
      },
      "additionalContracts": [],
      "isFixedGasLimit": false
    },
    {
      "hash": "0xa8bdf6bccd8f6d1a875ff571bba29f4a72c6bb2631f12a0490a118767fecae1c",
      "transactionType": "CALL",
      "contractName": "MyShchFactory",
      "contractAddress": "0xf58208676a7b5a604df41ca25b5310f3cc997bf3",
      "function": "createCustomERC20(address,string,string,uint256,(address,uint256)[])",
      "arguments": [
        "0x5b73C5498c1E3b4dbA84de0F1833c4a029d90519",
        "Custom ERC20 Name",
        "CUSTSYM",
        "1000000000000000000000000",
        "[(0x0000000000000000000000000000000000000001, 100), (0x0000000000000000000000000000000000000002, 200)]"
      ],
      "transaction": {
        "from": "0x13b9cbcb46ad79878af8c9faa835bee19b977d3d",
        "to": "0xf58208676a7b5a604df41ca25b5310f3cc997bf3",
        "gas": "0x52e3f",
        "value": "0x0",
        "input": "0x6b5eab6a0000000000000000000000005b73c5498c1e3b4dba84de0f1833c4a029d9051900000000000000000000000000000000000000000000000000000000000000a000000000000000000000000000000000000000000000000000000000000000e000000000000000000000000000000000000000000000d3c21bcecceda100000000000000000000000000000000000000000000000000000000000000000001200000000000000000000000000000000000000000000000000000000000000011437573746f6d204552433230204e616d6500000000000000000000000000000000000000000000000000000000000000000000000000000000000000000000074355535453594d00000000000000000000000000000000000000000000000000000000000000000000000000000000000000000000000000000000000000000200000000000000000000000000000000000000000000000000000000000000010000000000000000000000000000000000000000000000000000000000000064000000000000000000000000000000000000000000000000000000000000000200000000000000000000000000000000000000000000000000000000000000c8",
        "nonce": "0x18",
        "chainId": "0x38"
      },
      "additionalContracts": [
        {
          "transactionType": "CREATE",
          "address": "0x813899d191fc6afb018d1272898ef21580965ee5",
          "initCode": "0x3d602d80600a3d3981f3363d3d373d3d3d363d737a3c8f45b809078da58d17fb6cd059334622838f5af43d82803e903d91602b57fd5bf3"
        }
      ],
      "isFixedGasLimit": false
    }
  ],
  "receipts": [
    {
      "status": "0x1",
      "cumulativeGasUsed": "0x8fd2d7",
      "logs": [
        {
          "address": "0x086cf886322c115aacf5425c73ed63ca0117708c",
          "topics": [
            "0xddf252ad1be2c89b69c2b068fc378daa952ba7f163c4a11628f55a4df523b3ef",
            "0x0000000000000000000000000000000000000000000000000000000000000000",
            "0x00000000000000000000000013b9cbcb46ad79878af8c9faa835bee19b977d3d",
            "0x0000000000000000000000000000000000000000000000000000000000000001"
          ],
          "data": "0x",
          "blockHash": "0xc0edd35f122b8a4e5da0faf46d3ca395fbc244c00ef78056c75306633d0c9a8b",
          "blockNumber": "0x2bffd28",
          "transactionHash": "0x29088548532e4f947da8f6ec42431100062694bcb8e70d30ee3bf3ac44af9073",
          "transactionIndex": "0x63",
          "logIndex": "0x126",
          "removed": false
        },
        {
          "address": "0x086cf886322c115aacf5425c73ed63ca0117708c",
          "topics": [
            "0xf8e1a15aba9398e019f0b49df1a4fde98ee17ae345cb5f6b5e2c27f5033e8ce7"
          ],
          "data": "0x0000000000000000000000000000000000000000000000000000000000000001",
          "blockHash": "0xc0edd35f122b8a4e5da0faf46d3ca395fbc244c00ef78056c75306633d0c9a8b",
          "blockNumber": "0x2bffd28",
          "transactionHash": "0x29088548532e4f947da8f6ec42431100062694bcb8e70d30ee3bf3ac44af9073",
          "transactionIndex": "0x63",
          "logIndex": "0x127",
          "removed": false
        },
        {
          "address": "0x086cf886322c115aacf5425c73ed63ca0117708c",
          "topics": [
            "0xfa6883374d3785c826e28c69c68c1b6dd2178accc8623f49c6829a75487419b3",
            "0x00000000000000000000000013b9cbcb46ad79878af8c9faa835bee19b977d3d",
            "0x0000000000000000000000000000000000000000000000000000000000000001",
            "0x0000000000000000000000000000000000000000000000000000000000000000"
          ],
          "data": "0x00000000000000000000000000000000000000000000000000000000000000200000000000000000000000000000000000000000000000000000000000000000",
          "blockHash": "0xc0edd35f122b8a4e5da0faf46d3ca395fbc244c00ef78056c75306633d0c9a8b",
          "blockNumber": "0x2bffd28",
          "transactionHash": "0x29088548532e4f947da8f6ec42431100062694bcb8e70d30ee3bf3ac44af9073",
          "transactionIndex": "0x63",
          "logIndex": "0x128",
          "removed": false
        },
        {
          "address": "0x086cf886322c115aacf5425c73ed63ca0117708c",
          "topics": [
            "0xc7f505b2f371ae2175ee4913f4499e1f2633a7b5936321eed1cdaeb6115181d2"
          ],
          "data": "0x0000000000000000000000000000000000000000000000000000000000000001",
          "blockHash": "0xc0edd35f122b8a4e5da0faf46d3ca395fbc244c00ef78056c75306633d0c9a8b",
          "blockNumber": "0x2bffd28",
          "transactionHash": "0x29088548532e4f947da8f6ec42431100062694bcb8e70d30ee3bf3ac44af9073",
          "transactionIndex": "0x63",
          "logIndex": "0x129",
          "removed": false
        },
        {
          "address": "0xf58208676a7b5a604df41ca25b5310f3cc997bf3",
          "topics": [
            "0x8dc66cafb77b325538c856bfa5892b31ca7305adfa48f6a09e030e261cda0795",
            "0x000000000000000000000000086cf886322c115aacf5425c73ed63ca0117708c",
            "0x0000000000000000000000009c10ed902ae7fd997d92eed7535849f204b727b7"
          ],
          "data": "0x00000000000000000000000000000000000000000000000000000000000007d2",
          "blockHash": "0xc0edd35f122b8a4e5da0faf46d3ca395fbc244c00ef78056c75306633d0c9a8b",
          "blockNumber": "0x2bffd28",
          "transactionHash": "0x29088548532e4f947da8f6ec42431100062694bcb8e70d30ee3bf3ac44af9073",
          "transactionIndex": "0x63",
          "logIndex": "0x12a",
          "removed": false
        }
      ],
      "logsBloom": "0x00008000000800800000000000000000000000000000000000000000000000000000000000000000000000000000000000000000000000000000000000040000400000000000020010000108000000000000000000040000000000800000000000000000020000001000000000000800000000008000000000000010000000000000000000000000000800000000000000000000000080000000000800400080000000000000000100000000000000802000000000000000800000000000008000000002000000000000000000100000000000000004400000000000000060000800000000000000200100000000000000000000100000000000000000000000",
      "type": "0x0",
      "transactionHash": "0x29088548532e4f947da8f6ec42431100062694bcb8e70d30ee3bf3ac44af9073",
      "transactionIndex": "0x63",
      "blockHash": "0xc0edd35f122b8a4e5da0faf46d3ca395fbc244c00ef78056c75306633d0c9a8b",
      "blockNumber": "0x2bffd28",
      "gasUsed": "0x475e0",
      "effectiveGasPrice": "0x3b9aca00",
      "from": "0x13b9cbcb46ad79878af8c9faa835bee19b977d3d",
      "to": "0xf58208676a7b5a604df41ca25b5310f3cc997bf3",
      "contractAddress": null
    },
    {
      "status": "0x1",
      "cumulativeGasUsed": "0x93d7ed",
      "logs": [],
      "logsBloom": "0x00000000000000000000000000000000000000000000000000000000000000000000000000000000000000000000000000000000000000000000000000000000000000000000000000000000000000000000000000000000000000000000000000000000000000000000000000000000000000000000000000000000000000000000000000000000000000000000000000000000000000000000000000000000000000000000000000000000000000000000000000000000000000000000000000000000000000000000000000000000000000000000000000000000000000000000000000000000000000000000000000000000000000000000000000000000",
      "type": "0x0",
      "transactionHash": "0xb86b06c0433e72a90cdaf92f685ee915d156390e18d028cc26e69701b54e02a2",
      "transactionIndex": "0x66",
      "blockHash": "0xc0edd35f122b8a4e5da0faf46d3ca395fbc244c00ef78056c75306633d0c9a8b",
      "blockNumber": "0x2bffd28",
      "gasUsed": "0xc9bf",
      "effectiveGasPrice": "0x3b9aca00",
      "from": "0x13b9cbcb46ad79878af8c9faa835bee19b977d3d",
      "to": "0xf58208676a7b5a604df41ca25b5310f3cc997bf3",
      "contractAddress": null
    },
    {
      "status": "0x1",
      "cumulativeGasUsed": "0x99156b",
      "logs": [
        {
          "address": "0x813899d191fc6afb018d1272898ef21580965ee5",
          "topics": [
            "0xddf252ad1be2c89b69c2b068fc378daa952ba7f163c4a11628f55a4df523b3ef",
            "0x0000000000000000000000000000000000000000000000000000000000000000",
            "0x0000000000000000000000005b73c5498c1e3b4dba84de0f1833c4a029d90519"
          ],
          "data": "0x00000000000000000000000000000000000000000000d3c21bcecceda1000000",
          "blockHash": "0xc0edd35f122b8a4e5da0faf46d3ca395fbc244c00ef78056c75306633d0c9a8b",
          "blockNumber": "0x2bffd28",
          "transactionHash": "0xa8bdf6bccd8f6d1a875ff571bba29f4a72c6bb2631f12a0490a118767fecae1c",
          "transactionIndex": "0x68",
          "logIndex": "0x12e",
          "removed": false
        },
        {
          "address": "0x813899d191fc6afb018d1272898ef21580965ee5",
          "topics": [
            "0xddf252ad1be2c89b69c2b068fc378daa952ba7f163c4a11628f55a4df523b3ef",
            "0x0000000000000000000000005b73c5498c1e3b4dba84de0f1833c4a029d90519",
            "0x0000000000000000000000000000000000000000000000000000000000000001"
          ],
          "data": "0x0000000000000000000000000000000000000000000000000000000000000064",
          "blockHash": "0xc0edd35f122b8a4e5da0faf46d3ca395fbc244c00ef78056c75306633d0c9a8b",
          "blockNumber": "0x2bffd28",
          "transactionHash": "0xa8bdf6bccd8f6d1a875ff571bba29f4a72c6bb2631f12a0490a118767fecae1c",
          "transactionIndex": "0x68",
          "logIndex": "0x12f",
          "removed": false
        },
        {
          "address": "0x813899d191fc6afb018d1272898ef21580965ee5",
          "topics": [
            "0xddf252ad1be2c89b69c2b068fc378daa952ba7f163c4a11628f55a4df523b3ef",
            "0x0000000000000000000000005b73c5498c1e3b4dba84de0f1833c4a029d90519",
            "0x0000000000000000000000000000000000000000000000000000000000000002"
          ],
          "data": "0x00000000000000000000000000000000000000000000000000000000000000c8",
          "blockHash": "0xc0edd35f122b8a4e5da0faf46d3ca395fbc244c00ef78056c75306633d0c9a8b",
          "blockNumber": "0x2bffd28",
          "transactionHash": "0xa8bdf6bccd8f6d1a875ff571bba29f4a72c6bb2631f12a0490a118767fecae1c",
          "transactionIndex": "0x68",
          "logIndex": "0x130",
          "removed": false
        },
        {
          "address": "0x813899d191fc6afb018d1272898ef21580965ee5",
          "topics": [
            "0xc7f505b2f371ae2175ee4913f4499e1f2633a7b5936321eed1cdaeb6115181d2"
          ],
          "data": "0x0000000000000000000000000000000000000000000000000000000000000001",
          "blockHash": "0xc0edd35f122b8a4e5da0faf46d3ca395fbc244c00ef78056c75306633d0c9a8b",
          "blockNumber": "0x2bffd28",
          "transactionHash": "0xa8bdf6bccd8f6d1a875ff571bba29f4a72c6bb2631f12a0490a118767fecae1c",
          "transactionIndex": "0x68",
          "logIndex": "0x131",
          "removed": false
        }
      ],
      "logsBloom": "0x04000000000000000000000000000000000000000000000000000000000000000000000000000000000000000000000000000000000000000000000000040000000000000000000000000008002000000000000000040000000000000000000000000000020000000000000000000800008000000080000000000010000000000000000000000000000800000000000000000000000080000000000000000000000000000000000000000102000000000000000000000000000000000000000000000002000000000000000000000000000000000004000008000000000060000000000000000000000000000000000000000000008000000000000000000200",
      "type": "0x0",
      "transactionHash": "0xa8bdf6bccd8f6d1a875ff571bba29f4a72c6bb2631f12a0490a118767fecae1c",
      "transactionIndex": "0x68",
      "blockHash": "0xc0edd35f122b8a4e5da0faf46d3ca395fbc244c00ef78056c75306633d0c9a8b",
      "blockNumber": "0x2bffd28",
      "gasUsed": "0x3c02f",
      "effectiveGasPrice": "0x3b9aca00",
      "from": "0x13b9cbcb46ad79878af8c9faa835bee19b977d3d",
      "to": "0xf58208676a7b5a604df41ca25b5310f3cc997bf3",
      "contractAddress": null
    }
  ],
  "libraries": [],
  "pending": [],
  "returns": {},
  "timestamp": 1737991155,
  "chain": 56,
  "commit": "3fc134a"
}