{
  "transactions": [
    {
      "hash": "0x15da4b4d86190e9382b60b266a634ae04aff21b022e0c511bf8d7ca0de2b4716",
      "transactionType": "CALL",
      "contractName": null,
      "contractAddress": "0xcf75f3e05b31d0d7a3ed97f6963950377f07610c",
      "function": null,
      "arguments": null,
      "transaction": {
        "from": "0x13b9cbcb46ad79878af8c9faa835bee19b977d3d",
        "to": "0xcf75f3e05b31d0d7a3ed97f6963950377f07610c",
        "gas": "0x714d",
        "value": "0xb5e620f48000",
        "input": "0x",
        "nonce": "0x4c",
        "chainId": "0x38"
      },
      "additionalContracts": [],
      "isFixedGasLimit": false
    },
    {
      "hash": "0x14929a610848840ff2474ca3c5fd89afbf7daf405dadd7746ecd099971c10716",
      "transactionType": "CALL",
      "contractName": null,
      "contractAddress": "0xc396a63a67b7f569f76fb41501ddc577e895e0a6",
      "function": "setSignerStatus(address,bool)",
      "arguments": [
        "0x13B9cBcB46aD79878af8c9faa835Bee19B977D3D",
        "true"
      ],
      "transaction": {
        "from": "0x13b9cbcb46ad79878af8c9faa835bee19b977d3d",
        "to": "0xc396a63a67b7f569f76fb41501ddc577e895e0a6",
        "gas": "0x97ec",
        "value": "0x0",
        "input": "0x8d0abcda00000000000000000000000013b9cbcb46ad79878af8c9faa835bee19b977d3d0000000000000000000000000000000000000000000000000000000000000001",
        "nonce": "0x4d",
        "chainId": "0x38"
      },
      "additionalContracts": [],
      "isFixedGasLimit": false
    },
    {
      "hash": "0x9fa7f38f06fc0709c51482fe023625a308d1bc28d511341782e1c7a512754ab9",
      "transactionType": "CALL",
      "contractName": null,
      "contractAddress": "0xc396a63a67b7f569f76fb41501ddc577e895e0a6",
      "function": "setSignerStatus(address,bool)",
      "arguments": [
        "0x4b664eD07D19d0b192A037Cfb331644cA536029d",
        "true"
      ],
      "transaction": {
        "from": "0x13b9cbcb46ad79878af8c9faa835bee19b977d3d",
        "to": "0xc396a63a67b7f569f76fb41501ddc577e895e0a6",
        "gas": "0x97ec",
        "value": "0x0",
        "input": "0x8d0abcda0000000000000000000000004b664ed07d19d0b192a037cfb331644ca536029d0000000000000000000000000000000000000000000000000000000000000001",
        "nonce": "0x4e",
        "chainId": "0x38"
      },
      "additionalContracts": [],
      "isFixedGasLimit": false
    },
    {
      "hash": "0xc655a12f6b125a6cdd5c10d0dca10489f50034bee0c902965dc0b5f033b0b609",
      "transactionType": "CALL",
      "contractName": null,
      "contractAddress": "0xc396a63a67b7f569f76fb41501ddc577e895e0a6",
      "function": "mintPersonalMSW(uint64,bytes)",
      "arguments": [
        "0",
        "0x"
      ],
      "transaction": {
        "from": "0x13b9cbcb46ad79878af8c9faa835bee19b977d3d",
        "to": "0xc396a63a67b7f569f76fb41501ddc577e895e0a6",
        "gas": "0x5dcca",
        "value": "0x0",
        "input": "0xce63f12a000000000000000000000000000000000000000000000000000000000000000000000000000000000000000000000000000000000000000000000000000000400000000000000000000000000000000000000000000000000000000000000000",
        "nonce": "0x4f",
        "chainId": "0x38"
      },
      "additionalContracts": [
        {
          "transactionType": "CREATE2",
          "address": "0xa2d8e913c5e8a39f40871eb32c80a2e434989c28",
          "initCode": "0x3d602d80600a3d3981f3363d3d373d3d3d363d73d97e06e6f23bce9cd2e32b090da7308ee7d0a4d35af43d82803e903d91602b57fd5bf3"
        }
      ],
      "isFixedGasLimit": false
    },
    {
      "hash": "0x6dda268d906635fa117ff969645fce99130e6a59df41ef4529afe61797d1faf3",
      "transactionType": "CALL",
      "contractName": null,
      "contractAddress": "0xc396a63a67b7f569f76fb41501ddc577e895e0a6",
      "function": "mintPersonalMSW(uint64,bytes)",
      "arguments": [
        "22222",
        "0x1b1e3fce77b7ee1dc9c6a63ace642b3eaa93eb6e0c4449a927850ae095c1b989136412055aeae9f10b31151e16be604cbfc016ca0f290df62714652c18db4e301c"
      ],
      "transaction": {
        "from": "0xcf75f3e05b31d0d7a3ed97f6963950377f07610c",
        "to": "0xc396a63a67b7f569f76fb41501ddc577e895e0a6",
        "gas": "0x6a27b",
        "value": "0x5af3107a4000",
        "input": "0xce63f12a00000000000000000000000000000000000000000000000000000000000056ce000000000000000000000000000000000000000000000000000000000000004000000000000000000000000000000000000000000000000000000000000000411b1e3fce77b7ee1dc9c6a63ace642b3eaa93eb6e0c4449a927850ae095c1b989136412055aeae9f10b31151e16be604cbfc016ca0f290df62714652c18db4e301c00000000000000000000000000000000000000000000000000000000000000",
        "nonce": "0x0",
        "chainId": "0x38"
      },
      "additionalContracts": [
        {
          "transactionType": "CREATE2",
          "address": "0x1c81fbd0633de354a85b140f351e2b2219e6c840",
          "initCode": "0x3d602d80600a3d3981f3363d3d373d3d3d363d73d97e06e6f23bce9cd2e32b090da7308ee7d0a4d35af43d82803e903d91602b57fd5bf3"
        }
      ],
      "isFixedGasLimit": false
    },
    {
      "hash": "0xbb1aab5fe062d9ba5261c4989b016da314dbabf1d20fff36e43ee4ea4bc76385",
      "transactionType": "CALL",
      "contractName": null,
      "contractAddress": "0x1c81fbd0633de354a85b140f351e2b2219e6c840",
      "function": "setRelayerStatus(address,bool)",
      "arguments": [
        "0xA2D8E913C5E8A39F40871EB32C80A2e434989C28",
        "true"
      ],
      "transaction": {
        "from": "0xcf75f3e05b31d0d7a3ed97f6963950377f07610c",
        "to": "0x1c81fbd0633de354a85b140f351e2b2219e6c840",
        "gas": "0x9f40",
        "value": "0x0",
        "input": "0x86015834000000000000000000000000a2d8e913c5e8a39f40871eb32c80a2e434989c280000000000000000000000000000000000000000000000000000000000000001",
        "nonce": "0x1",
        "chainId": "0x38"
      },
      "additionalContracts": [],
      "isFixedGasLimit": false
    },
    {
      "hash": "0xf487c7c7107f58131fbe487ab564b8f664debacf57b3ebd6c2b9f6d93cdb7ce4",
      "transactionType": "CALL",
      "contractName": null,
      "contractAddress": "0xc396a63a67b7f569f76fb41501ddc577e895e0a6",
      "function": "createCustomERC20(address,string,string,uint256,(address,uint256)[])",
      "arguments": [
        "0x13B9cBcB46aD79878af8c9faa835Bee19B977D3D",
        "Custom ERC20 Name",
        "CUSTSYM",
        "1000000000000000000000000",
        "[(0xA2D8E913C5E8A39F40871EB32C80A2e434989C28, 10000000000000000000), (0x0000000000000000000000000000000000000002, 200)]"
      ],
      "transaction": {
        "from": "0x13b9cbcb46ad79878af8c9faa835bee19b977d3d",
        "to": "0xc396a63a67b7f569f76fb41501ddc577e895e0a6",
        "gas": "0x53031",
        "value": "0x0",
        "input": "0x6b5eab6a00000000000000000000000013b9cbcb46ad79878af8c9faa835bee19b977d3d00000000000000000000000000000000000000000000000000000000000000a000000000000000000000000000000000000000000000000000000000000000e000000000000000000000000000000000000000000000d3c21bcecceda100000000000000000000000000000000000000000000000000000000000000000001200000000000000000000000000000000000000000000000000000000000000011437573746f6d204552433230204e616d6500000000000000000000000000000000000000000000000000000000000000000000000000000000000000000000074355535453594d000000000000000000000000000000000000000000000000000000000000000000000000000000000000000000000000000000000000000002000000000000000000000000a2d8e913c5e8a39f40871eb32c80a2e434989c280000000000000000000000000000000000000000000000008ac7230489e80000000000000000000000000000000000000000000000000000000000000000000200000000000000000000000000000000000000000000000000000000000000c8",
        "nonce": "0x50",
        "chainId": "0x38"
      },
      "additionalContracts": [
        {
          "transactionType": "CREATE",
          "address": "0xd06681a5793cf94087b13c628495114717c0fba6",
          "initCode": "0x3d602d80600a3d3981f3363d3d373d3d3d363d737a3c8f45b809078da58d17fb6cd059334622838f5af43d82803e903d91602b57fd5bf3"
        }
      ],
      "isFixedGasLimit": false
    }
  ],
  "receipts": [
    {
      "status": "0x1",
      "cumulativeGasUsed": "0x44358b9",
      "logs": [],
      "logsBloom": "0x00000000000000000000000000000000000000000000000000000000000000000000000000000000000000000000000000000000000000000000000000000000000000000000000000000000000000000000000000000000000000000000000000000000000000000000000000000000000000000000000000000000000000000000000000000000000000000000000000000000000000000000000000000000000000000000000000000000000000000000000000000000000000000000000000000000000000000000000000000000000000000000000000000000000000000000000000000000000000000000000000000000000000000000000000000000",
      "type": "0x0",
      "transactionHash": "0x15da4b4d86190e9382b60b266a634ae04aff21b022e0c511bf8d7ca0de2b4716",
      "transactionIndex": "0x152",
      "blockHash": "0x3c5b65d7317cbf1b9cf91ceeb16c1368e9805984e967a403fa33b91891144087",
      "blockNumber": "0x30d7d3e",
      "gasUsed": "0x5208",
      "effectiveGasPrice": "0x5f5e100",
      "from": "0x13b9cbcb46ad79878af8c9faa835bee19b977d3d",
      "to": "0xcf75f3e05b31d0d7a3ed97f6963950377f07610c",
      "contractAddress": null
    },
    {
      "status": "0x1",
      "cumulativeGasUsed": "0x541fa2a",
      "logs": [],
      "logsBloom": "0x00000000000000000000000000000000000000000000000000000000000000000000000000000000000000000000000000000000000000000000000000000000000000000000000000000000000000000000000000000000000000000000000000000000000000000000000000000000000000000000000000000000000000000000000000000000000000000000000000000000000000000000000000000000000000000000000000000000000000000000000000000000000000000000000000000000000000000000000000000000000000000000000000000000000000000000000000000000000000000000000000000000000000000000000000000000",
      "type": "0x0",
      "transactionHash": "0x14929a610848840ff2474ca3c5fd89afbf7daf405dadd7746ecd099971c10716",
      "transactionIndex": "0x1db",
      "blockHash": "0xf0dabc1c8da6c4fa8d82a12915c0b117eee27918bf3eba5de6b8a79603049030",
      "blockNumber": "0x30d7d41",
      "gasUsed": "0x67e1",
      "effectiveGasPrice": "0x5f5e100",
      "from": "0x13b9cbcb46ad79878af8c9faa835bee19b977d3d",
      "to": "0xc396a63a67b7f569f76fb41501ddc577e895e0a6",
      "contractAddress": null
    },
    {
      "status": "0x1",
      "cumulativeGasUsed": "0x3e9779b",
      "logs": [],
      "logsBloom": "0x00000000000000000000000000000000000000000000000000000000000000000000000000000000000000000000000000000000000000000000000000000000000000000000000000000000000000000000000000000000000000000000000000000000000000000000000000000000000000000000000000000000000000000000000000000000000000000000000000000000000000000000000000000000000000000000000000000000000000000000000000000000000000000000000000000000000000000000000000000000000000000000000000000000000000000000000000000000000000000000000000000000000000000000000000000000",
      "type": "0x0",
      "transactionHash": "0x9fa7f38f06fc0709c51482fe023625a308d1bc28d511341782e1c7a512754ab9",
      "transactionIndex": "0x193",
      "blockHash": "0x38a16467ea726cf17d2406ec27d7244081e6ecb255dc4571e95b551b96a624d1",
      "blockNumber": "0x30d7d43",
      "gasUsed": "0x67e1",
      "effectiveGasPrice": "0x5f5e100",
      "from": "0x13b9cbcb46ad79878af8c9faa835bee19b977d3d",
      "to": "0xc396a63a67b7f569f76fb41501ddc577e895e0a6",
      "contractAddress": null
    },
    {
      "status": "0x1",
      "cumulativeGasUsed": "0x4d36479",
      "logs": [
        {
          "address": "0xa2d8e913c5e8a39f40871eb32c80a2e434989c28",
          "topics": [
            "0xddf252ad1be2c89b69c2b068fc378daa952ba7f163c4a11628f55a4df523b3ef",
            "0x0000000000000000000000000000000000000000000000000000000000000000",
            "0x00000000000000000000000013b9cbcb46ad79878af8c9faa835bee19b977d3d",
            "0x0000000000000000000000000000000000000000000000000000000000000001"
          ],
          "data": "0x",
          "blockHash": "0x9f157f301818e1af8efcfe38f3093116681ae48b129afbe45a397820a8684e76",
          "blockNumber": "0x30d7d45",
          "transactionHash": "0xc655a12f6b125a6cdd5c10d0dca10489f50034bee0c902965dc0b5f033b0b609",
          "transactionIndex": "0x1d2",
          "logIndex": "0xa19",
          "removed": false
        },
        {
          "address": "0xa2d8e913c5e8a39f40871eb32c80a2e434989c28",
          "topics": [
            "0xf8e1a15aba9398e019f0b49df1a4fde98ee17ae345cb5f6b5e2c27f5033e8ce7"
          ],
          "data": "0x0000000000000000000000000000000000000000000000000000000000000001",
          "blockHash": "0x9f157f301818e1af8efcfe38f3093116681ae48b129afbe45a397820a8684e76",
          "blockNumber": "0x30d7d45",
          "transactionHash": "0xc655a12f6b125a6cdd5c10d0dca10489f50034bee0c902965dc0b5f033b0b609",
          "transactionIndex": "0x1d2",
          "logIndex": "0xa1a",
          "removed": false
        },
        {
          "address": "0xa2d8e913c5e8a39f40871eb32c80a2e434989c28",
          "topics": [
            "0xfa6883374d3785c826e28c69c68c1b6dd2178accc8623f49c6829a75487419b3",
            "0x00000000000000000000000013b9cbcb46ad79878af8c9faa835bee19b977d3d",
            "0x0000000000000000000000000000000000000000000000000000000000000001",
            "0x0004000000000000000000000000000000000000000000000000000000000000"
          ],
          "data": "0x00000000000000000000000000000000000000000000000000000000000000200000000000000000000000000000000000000000000000000000000000000000",
          "blockHash": "0x9f157f301818e1af8efcfe38f3093116681ae48b129afbe45a397820a8684e76",
          "blockNumber": "0x30d7d45",
          "transactionHash": "0xc655a12f6b125a6cdd5c10d0dca10489f50034bee0c902965dc0b5f033b0b609",
          "transactionIndex": "0x1d2",
          "logIndex": "0xa1b",
          "removed": false
        },
        {
          "address": "0xa2d8e913c5e8a39f40871eb32c80a2e434989c28",
          "topics": [
            "0xc7f505b2f371ae2175ee4913f4499e1f2633a7b5936321eed1cdaeb6115181d2"
          ],
          "data": "0x0000000000000000000000000000000000000000000000000000000000000001",
          "blockHash": "0x9f157f301818e1af8efcfe38f3093116681ae48b129afbe45a397820a8684e76",
          "blockNumber": "0x30d7d45",
          "transactionHash": "0xc655a12f6b125a6cdd5c10d0dca10489f50034bee0c902965dc0b5f033b0b609",
          "transactionIndex": "0x1d2",
          "logIndex": "0xa1c",
          "removed": false
        },
        {
          "address": "0xc396a63a67b7f569f76fb41501ddc577e895e0a6",
          "topics": [
            "0x8dc66cafb77b325538c856bfa5892b31ca7305adfa48f6a09e030e261cda0795",
            "0x000000000000000000000000a2d8e913c5e8a39f40871eb32c80a2e434989c28",
            "0x000000000000000000000000d97e06e6f23bce9cd2e32b090da7308ee7d0a4d3"
          ],
          "data": "0x00000000000000000000000000000000000000000000000000000000000007d2",
          "blockHash": "0x9f157f301818e1af8efcfe38f3093116681ae48b129afbe45a397820a8684e76",
          "blockNumber": "0x30d7d45",
          "transactionHash": "0xc655a12f6b125a6cdd5c10d0dca10489f50034bee0c902965dc0b5f033b0b609",
          "transactionIndex": "0x1d2",
          "logIndex": "0xa1d",
          "removed": false
        }
      ],
      "logsBloom": "0x00000000008000800000000000000000000000000000000000800000000000000000000000000080004000000000000000000000000000000000080110040000800000000000020000000108100000000000000000040000000000800000000000000000024000000000000000000800000000000000400000004010000000000000000000000000000c00000000000000000000000080000000000800400080000000000000000000000000000000002000000000000000000000000000008400000002000000000000000000100000000000000004400000010000000060000000000000000000200000000000000000000000000000000000000000000000",
      "type": "0x0",
      "transactionHash": "0xc655a12f6b125a6cdd5c10d0dca10489f50034bee0c902965dc0b5f033b0b609",
      "transactionIndex": "0x1d2",
      "blockHash": "0x9f157f301818e1af8efcfe38f3093116681ae48b129afbe45a397820a8684e76",
      "blockNumber": "0x30d7d45",
      "gasUsed": "0x43e8c",
      "effectiveGasPrice": "0x5f5e100",
      "from": "0x13b9cbcb46ad79878af8c9faa835bee19b977d3d",
      "to": "0xc396a63a67b7f569f76fb41501ddc577e895e0a6",
      "contractAddress": null
    },
    {
      "status": "0x1",
      "cumulativeGasUsed": "0x38d7827",
      "logs": [
        {
          "address": "0x1c81fbd0633de354a85b140f351e2b2219e6c840",
          "topics": [
            "0xddf252ad1be2c89b69c2b068fc378daa952ba7f163c4a11628f55a4df523b3ef",
            "0x0000000000000000000000000000000000000000000000000000000000000000",
            "0x000000000000000000000000cf75f3e05b31d0d7a3ed97f6963950377f07610c",
            "0x0000000000000000000000000000000000000000000000000000000000000001"
          ],
          "data": "0x",
          "blockHash": "0x84791a1e3569e97d2f7e21a33e6be88ac8eddca7a1252e64559793ee55d590ce",
          "blockNumber": "0x30d7d47",
          "transactionHash": "0x6dda268d906635fa117ff969645fce99130e6a59df41ef4529afe61797d1faf3",
          "transactionIndex": "0x14d",
          "logIndex": "0x91c",
          "removed": false
        },
        {
          "address": "0x1c81fbd0633de354a85b140f351e2b2219e6c840",
          "topics": [
            "0xf8e1a15aba9398e019f0b49df1a4fde98ee17ae345cb5f6b5e2c27f5033e8ce7"
          ],
          "data": "0x0000000000000000000000000000000000000000000000000000000000000001",
          "blockHash": "0x84791a1e3569e97d2f7e21a33e6be88ac8eddca7a1252e64559793ee55d590ce",
          "blockNumber": "0x30d7d47",
          "transactionHash": "0x6dda268d906635fa117ff969645fce99130e6a59df41ef4529afe61797d1faf3",
          "transactionIndex": "0x14d",
          "logIndex": "0x91d",
          "removed": false
        },
        {
          "address": "0x1c81fbd0633de354a85b140f351e2b2219e6c840",
          "topics": [
            "0xfa6883374d3785c826e28c69c68c1b6dd2178accc8623f49c6829a75487419b3",
            "0x000000000000000000000000cf75f3e05b31d0d7a3ed97f6963950377f07610c",
            "0x0000000000000000000000000000000000000000000000000000000000000001",
            "0x0000000000000000000000000000000000000000000000000000000000000000"
          ],
          "data": "0x00000000000000000000000000000000000000000000000000000000000000200000000000000000000000000000000000000000000000000000000000000000",
          "blockHash": "0x84791a1e3569e97d2f7e21a33e6be88ac8eddca7a1252e64559793ee55d590ce",
          "blockNumber": "0x30d7d47",
          "transactionHash": "0x6dda268d906635fa117ff969645fce99130e6a59df41ef4529afe61797d1faf3",
          "transactionIndex": "0x14d",
          "logIndex": "0x91e",
          "removed": false
        },
        {
          "address": "0x1c81fbd0633de354a85b140f351e2b2219e6c840",
          "topics": [
            "0xc7f505b2f371ae2175ee4913f4499e1f2633a7b5936321eed1cdaeb6115181d2"
          ],
          "data": "0x0000000000000000000000000000000000000000000000000000000000000001",
          "blockHash": "0x84791a1e3569e97d2f7e21a33e6be88ac8eddca7a1252e64559793ee55d590ce",
          "blockNumber": "0x30d7d47",
          "transactionHash": "0x6dda268d906635fa117ff969645fce99130e6a59df41ef4529afe61797d1faf3",
          "transactionIndex": "0x14d",
          "logIndex": "0x91f",
          "removed": false
        },
        {
          "address": "0xc396a63a67b7f569f76fb41501ddc577e895e0a6",
          "topics": [
            "0x8dc66cafb77b325538c856bfa5892b31ca7305adfa48f6a09e030e261cda0795",
            "0x0000000000000000000000001c81fbd0633de354a85b140f351e2b2219e6c840",
            "0x000000000000000000000000d97e06e6f23bce9cd2e32b090da7308ee7d0a4d3"
          ],
          "data": "0x00000000000000000000000000000000000000000000000000000000000007d2",
          "blockHash": "0x84791a1e3569e97d2f7e21a33e6be88ac8eddca7a1252e64559793ee55d590ce",
          "blockNumber": "0x30d7d47",
          "transactionHash": "0x6dda268d906635fa117ff969645fce99130e6a59df41ef4529afe61797d1faf3",
          "transactionIndex": "0x14d",
          "logIndex": "0x920",
          "removed": false
        }
      ],
      "logsBloom": "0x00000000008000800000000000000000000000000000000010800000000000000000000000000000004000000000000000000000000000000000000000040000000000048000020000000108100000000000000000040000000000000000000000000000024000000000000000000800000000000000000000000010800000000000000000000000000800000000000000000000000080000000000000000080000000000080020000000000000000002000000000000000000000040000008400000002000000000000000000100000000000000004400000000000000060000000000000000000208000000000040000000000000000000000000000000000",
      "type": "0x0",
      "transactionHash": "0x6dda268d906635fa117ff969645fce99130e6a59df41ef4529afe61797d1faf3",
      "transactionIndex": "0x14d",
      "blockHash": "0x84791a1e3569e97d2f7e21a33e6be88ac8eddca7a1252e64559793ee55d590ce",
      "blockNumber": "0x30d7d47",
      "gasUsed": "0x4cdac",
      "effectiveGasPrice": "0x5f5e100",
      "from": "0xcf75f3e05b31d0d7a3ed97f6963950377f07610c",
      "to": "0xc396a63a67b7f569f76fb41501ddc577e895e0a6",
      "contractAddress": null
    },
    {
      "status": "0x1",
      "cumulativeGasUsed": "0x3be1374",
      "logs": [],
      "logsBloom": "0x00000000000000000000000000000000000000000000000000000000000000000000000000000000000000000000000000000000000000000000000000000000000000000000000000000000000000000000000000000000000000000000000000000000000000000000000000000000000000000000000000000000000000000000000000000000000000000000000000000000000000000000000000000000000000000000000000000000000000000000000000000000000000000000000000000000000000000000000000000000000000000000000000000000000000000000000000000000000000000000000000000000000000000000000000000000",
      "type": "0x0",
      "transactionHash": "0xbb1aab5fe062d9ba5261c4989b016da314dbabf1d20fff36e43ee4ea4bc76385",
      "transactionIndex": "0x12d",
      "blockHash": "0x3f5e6ea9a38d5c52bf339728c64470348a3681d49097809de87ac1f6ae21ed3f",
      "blockNumber": "0x30d7d49",
      "gasUsed": "0x734c",
      "effectiveGasPrice": "0x5f5e100",
      "from": "0xcf75f3e05b31d0d7a3ed97f6963950377f07610c",
      "to": "0x1c81fbd0633de354a85b140f351e2b2219e6c840",
      "contractAddress": null
    },
    {
      "status": "0x1",
      "cumulativeGasUsed": "0x3ba828c",
      "logs": [
        {
          "address": "0xd06681a5793cf94087b13c628495114717c0fba6",
          "topics": [
            "0xddf252ad1be2c89b69c2b068fc378daa952ba7f163c4a11628f55a4df523b3ef",
            "0x0000000000000000000000000000000000000000000000000000000000000000",
            "0x00000000000000000000000013b9cbcb46ad79878af8c9faa835bee19b977d3d"
          ],
          "data": "0x00000000000000000000000000000000000000000000d3c21bcecceda1000000",
          "blockHash": "0xb0bb2d723eef4725c8aea8bfd15a0c00ad3d8edd16144a6709f929ccc7ab769e",
          "blockNumber": "0x30d7d4b",
          "transactionHash": "0xf487c7c7107f58131fbe487ab564b8f664debacf57b3ebd6c2b9f6d93cdb7ce4",
          "transactionIndex": "0x10b",
          "logIndex": "0xbac",
          "removed": false
        },
        {
          "address": "0xd06681a5793cf94087b13c628495114717c0fba6",
          "topics": [
            "0xddf252ad1be2c89b69c2b068fc378daa952ba7f163c4a11628f55a4df523b3ef",
            "0x00000000000000000000000013b9cbcb46ad79878af8c9faa835bee19b977d3d",
            "0x000000000000000000000000a2d8e913c5e8a39f40871eb32c80a2e434989c28"
          ],
          "data": "0x0000000000000000000000000000000000000000000000008ac7230489e80000",
          "blockHash": "0xb0bb2d723eef4725c8aea8bfd15a0c00ad3d8edd16144a6709f929ccc7ab769e",
          "blockNumber": "0x30d7d4b",
          "transactionHash": "0xf487c7c7107f58131fbe487ab564b8f664debacf57b3ebd6c2b9f6d93cdb7ce4",
          "transactionIndex": "0x10b",
          "logIndex": "0xbad",
          "removed": false
        },
        {
          "address": "0xd06681a5793cf94087b13c628495114717c0fba6",
          "topics": [
            "0xddf252ad1be2c89b69c2b068fc378daa952ba7f163c4a11628f55a4df523b3ef",
            "0x00000000000000000000000013b9cbcb46ad79878af8c9faa835bee19b977d3d",
            "0x0000000000000000000000000000000000000000000000000000000000000002"
          ],
          "data": "0x00000000000000000000000000000000000000000000000000000000000000c8",
          "blockHash": "0xb0bb2d723eef4725c8aea8bfd15a0c00ad3d8edd16144a6709f929ccc7ab769e",
          "blockNumber": "0x30d7d4b",
          "transactionHash": "0xf487c7c7107f58131fbe487ab564b8f664debacf57b3ebd6c2b9f6d93cdb7ce4",
          "transactionIndex": "0x10b",
          "logIndex": "0xbae",
          "removed": false
        },
        {
          "address": "0xd06681a5793cf94087b13c628495114717c0fba6",
          "topics": [
            "0xc7f505b2f371ae2175ee4913f4499e1f2633a7b5936321eed1cdaeb6115181d2"
          ],
          "data": "0x0000000000000000000000000000000000000000000000000000000000000001",
          "blockHash": "0xb0bb2d723eef4725c8aea8bfd15a0c00ad3d8edd16144a6709f929ccc7ab769e",
          "blockNumber": "0x30d7d4b",
          "transactionHash": "0xf487c7c7107f58131fbe487ab564b8f664debacf57b3ebd6c2b9f6d93cdb7ce4",
          "transactionIndex": "0x10b",
          "logIndex": "0xbaf",
          "removed": false
        }
      ],
      "logsBloom": "0x04000000000000000000000000000000000000000000000000000000000000000000000000000080000000000000000000000000000000000000080000000000000000000000000000000008000000000000000000000000000000800000000000000000020000000000000000000800000000000000400000000010000000000000000000000000000800000000020000000000000080000000000800400100010000000000000000000100000000000000000000000000000000000000000000000002000000000000000000000000000000000004000000000000000020000000000000000000000000000000000000000000008000000000000000000000",
      "type": "0x0",
      "transactionHash": "0xf487c7c7107f58131fbe487ab564b8f664debacf57b3ebd6c2b9f6d93cdb7ce4",
      "transactionIndex": "0x10b",
      "blockHash": "0xb0bb2d723eef4725c8aea8bfd15a0c00ad3d8edd16144a6709f929ccc7ab769e",
      "blockNumber": "0x30d7d4b",
      "gasUsed": "0x3c197",
      "effectiveGasPrice": "0x5f5e100",
      "from": "0x13b9cbcb46ad79878af8c9faa835bee19b977d3d",
      "to": "0xc396a63a67b7f569f76fb41501ddc577e895e0a6",
      "contractAddress": null
    }
  ],
  "libraries": [],
  "pending": [],
  "returns": {},
  "timestamp": 1749567620,
  "chain": 56,
  "commit": "f798767"
}