{
  "transactions": [
    {
      "hash": "0x290b24ca3fba27775d675c183f4f5b1a28e3d3f1e6d1038f2a8e60540b5d96ea",
      "transactionType": "CALL",
      "contractName": null,
      "contractAddress": "0xbded9c8c786727499f13261cc34b997dfa260538",
      "function": "createWNFTonFactory((address,string,string,string,address[],bytes32[],uint256[],bytes))",
      "arguments": [
        "(0x5992Fe461F81C8E0aFFA95b831E50e9b3854BA0E, , , , [], [], [0, 500000000000000000], 0x)"
      ],
      "transaction": {
        "from": "0x5992fe461f81c8e0affa95b831e50e9b3854ba0e",
        "to": "0xbded9c8c786727499f13261cc34b997dfa260538",
        "gas": "0x3eb83",
        "value": "0x0",
        "input": "0x7c3cc70700000000000000000000000000000000000000000000000000000000000000200000000000000000000000005992fe461f81c8e0affa95b831e50e9b3854ba0e0000000000000000000000000000000000000000000000000000000000000100000000000000000000000000000000000000000000000000000000000000012000000000000000000000000000000000000000000000000000000000000001400000000000000000000000000000000000000000000000000000000000000160000000000000000000000000000000000000000000000000000000000000018000000000000000000000000000000000000000000000000000000000000001a00000000000000000000000000000000000000000000000000000000000000200000000000000000000000000000000000000000000000000000000000000000000000000000000000000000000000000000000000000000000000000000000000000000000000000000000000000000000000000000000000000000000000000000000000000000000000000000000000000000000000000000000000000000000000000000000000000000000000000000000000000000000000000000000000000000000000000000000000000000000000000000000000000000000000002000000000000000000000000000000000000000000000000000000000000000000000000000000000000000000000000000000000000000006f05b59d3b200000000000000000000000000000000000000000000000000000000000000000000",
        "nonce": "0x44e",
        "chainId": "0xa4b1"
      },
      "additionalContracts": [
        {
          "transactionType": "CREATE",
          "address": "0xc09696867cce0b5b2392b1804a80b1173c677d96",
          "initCode": "0x3d602d80600a3d3981f3363d3d373d3d3d363d73bded9c8c786727499f13261cc34b997dfa2605385af43d82803e903d91602b57fd5bf3"
        }
      ],
      "isFixedGasLimit": false
    }
  ],
  "receipts": [
    {
      "status": "0x1",
      "cumulativeGasUsed": "0xa44c5",
      "logs": [
        {
          "address": "0xc09696867cce0b5b2392b1804a80b1173c677d96",
          "topics": [
            "0xddf252ad1be2c89b69c2b068fc378daa952ba7f163c4a11628f55a4df523b3ef",
            "0x0000000000000000000000000000000000000000000000000000000000000000",
            "0x0000000000000000000000005992fe461f81c8e0affa95b831e50e9b3854ba0e",
            "0x0000000000000000000000000000000000000000000000000000000000000001"
          ],
          "data": "0x",
          "blockHash": "0x4eb2157448590698461f7dd64317c10c984e878925e1d68801a2ce3bfe03e102",
          "blockNumber": "0x166ca05c",
          "transactionHash": "0x290b24ca3fba27775d675c183f4f5b1a28e3d3f1e6d1038f2a8e60540b5d96ea",
          "transactionIndex": "0x7",
          "logIndex": "0x9",
          "removed": false
        },
        {
          "address": "0xc09696867cce0b5b2392b1804a80b1173c677d96",
          "topics": [
            "0xf8e1a15aba9398e019f0b49df1a4fde98ee17ae345cb5f6b5e2c27f5033e8ce7"
          ],
          "data": "0x0000000000000000000000000000000000000000000000000000000000000001",
          "blockHash": "0x4eb2157448590698461f7dd64317c10c984e878925e1d68801a2ce3bfe03e102",
          "blockNumber": "0x166ca05c",
          "transactionHash": "0x290b24ca3fba27775d675c183f4f5b1a28e3d3f1e6d1038f2a8e60540b5d96ea",
          "transactionIndex": "0x7",
          "logIndex": "0xa",
          "removed": false
        },
        {
          "address": "0xc09696867cce0b5b2392b1804a80b1173c677d96",
          "topics": [
            "0xfa6883374d3785c826e28c69c68c1b6dd2178accc8623f49c6829a75487419b3",
            "0x0000000000000000000000005992fe461f81c8e0affa95b831e50e9b3854ba0e",
            "0x0000000000000000000000000000000000000000000000000000000000000001",
            "0x0000000000000000000000000000000000000000000000000000000000000000"
          ],
          "data": "0x000000000000000000000000000000000000000000000000000000000000002000000000000000000000000000000000000000000000000000000000000000a00000000000000000000000000000000000000000000000000000000000000020000000000000000000000000000000000000000000000000000000000000004000000000000000000000000000000000000000000000000006f05b59d3b200000000000000000000000000000000000000000000000000000000000000000005322e302e32000000000000000000000000000000000000000000000000000000",
          "blockHash": "0x4eb2157448590698461f7dd64317c10c984e878925e1d68801a2ce3bfe03e102",
          "blockNumber": "0x166ca05c",
          "transactionHash": "0x290b24ca3fba27775d675c183f4f5b1a28e3d3f1e6d1038f2a8e60540b5d96ea",
          "transactionIndex": "0x7",
          "logIndex": "0xb",
          "removed": false
        },
        {
          "address": "0xc09696867cce0b5b2392b1804a80b1173c677d96",
          "topics": [
            "0xc7f505b2f371ae2175ee4913f4499e1f2633a7b5936321eed1cdaeb6115181d2"
          ],
          "data": "0x0000000000000000000000000000000000000000000000000000000000000001",
          "blockHash": "0x4eb2157448590698461f7dd64317c10c984e878925e1d68801a2ce3bfe03e102",
          "blockNumber": "0x166ca05c",
          "transactionHash": "0x290b24ca3fba27775d675c183f4f5b1a28e3d3f1e6d1038f2a8e60540b5d96ea",
          "transactionIndex": "0x7",
          "logIndex": "0xc",
          "removed": false
        },
        {
          "address": "0xbdb5201565925ae934a5622f0e7091affceed5eb",
          "topics": [
            "0x8dc66cafb77b325538c856bfa5892b31ca7305adfa48f6a09e030e261cda0795",
            "0x000000000000000000000000c09696867cce0b5b2392b1804a80b1173c677d96",
            "0x000000000000000000000000bded9c8c786727499f13261cc34b997dfa260538"
          ],
          "data": "0x00000000000000000000000000000000000000000000000000000000000007d2",
          "blockHash": "0x4eb2157448590698461f7dd64317c10c984e878925e1d68801a2ce3bfe03e102",
          "blockNumber": "0x166ca05c",
          "transactionHash": "0x290b24ca3fba27775d675c183f4f5b1a28e3d3f1e6d1038f2a8e60540b5d96ea",
          "transactionIndex": "0x7",
          "logIndex": "0xd",
          "removed": false
        }
      ],
      "logsBloom": "0x00000000000000800000100000000000000000000000000000004000000000000000000000000000000000010000000000000100020000000000000000040000000000020000020000000108000000000000000000040000000000000000000000000000420000000000000000000800000000000000000000000010000000000000000800000000000800000000000000040000000080000000000000004080000000000000000000000000000000002000000001000000040000000000008000000002000000000000000000100000000000000004400000000000000060000000000000008000200000001000000000000000100000000000000000000000",
      "type": "0x2",
      "transactionHash": "0x290b24ca3fba27775d675c183f4f5b1a28e3d3f1e6d1038f2a8e60540b5d96ea",
      "transactionIndex": "0x7",
      "blockHash": "0x4eb2157448590698461f7dd64317c10c984e878925e1d68801a2ce3bfe03e102",
      "blockNumber": "0x166ca05c",
      "gasUsed": "0x2ed8f",
      "effectiveGasPrice": "0x989680",
      "from": "0x5992fe461f81c8e0affa95b831e50e9b3854ba0e",
      "to": "0xbded9c8c786727499f13261cc34b997dfa260538",
      "contractAddress": null,
      "gasUsedForL1": "0x5e0",
      "l1BlockNumber": "0x1639158",
      "timeboosted": false
    }
  ],
  "libraries": [],
  "pending": [],
  "returns": {},
  "timestamp": 1757142734,
  "chain": 42161,
  "commit": "f7e9686"
}