{
  "transactions": [
    {
      "hash": "0x8417c7b073e3316937468b8fc68a0f90fb67a5093e4bb91d4d46054ca388274b",
      "transactionType": "CALL",
      "contractName": null,
      "contractAddress": "0xbded9c8c786727499f13261cc34b997dfa260538",
      "function": "createWNFTonFactory((address,string,string,string,address[],bytes32[],uint256[],bytes))",
      "arguments": [
        "(0x5992Fe461F81C8E0aFFA95b831E50e9b3854BA0E, , , , [], [], [0, 10], 0x)"
      ],
      "transaction": {
        "from": "0x5992fe461f81c8e0affa95b831e50e9b3854ba0e",
        "to": "0xbded9c8c786727499f13261cc34b997dfa260538",
        "gas": "0x3e7d8",
        "value": "0x0",
        "input": "0x7c3cc70700000000000000000000000000000000000000000000000000000000000000200000000000000000000000005992fe461f81c8e0affa95b831e50e9b3854ba0e0000000000000000000000000000000000000000000000000000000000000100000000000000000000000000000000000000000000000000000000000000012000000000000000000000000000000000000000000000000000000000000001400000000000000000000000000000000000000000000000000000000000000160000000000000000000000000000000000000000000000000000000000000018000000000000000000000000000000000000000000000000000000000000001a000000000000000000000000000000000000000000000000000000000000002000000000000000000000000000000000000000000000000000000000000000000000000000000000000000000000000000000000000000000000000000000000000000000000000000000000000000000000000000000000000000000000000000000000000000000000000000000000000000000000000000000000000000000000000000000000000000000000000000000000000000000000000000000000000000000000000000000000000000000000000000000000000000000000000020000000000000000000000000000000000000000000000000000000000000000000000000000000000000000000000000000000000000000000000000000000a0000000000000000000000000000000000000000000000000000000000000000",
        "nonce": "0x450",
        "chainId": "0xa4b1"
      },
      "additionalContracts": [
        {
          "transactionType": "CREATE",
          "address": "0x4fa92b34e3f5033da55044ae96e1f97b3a06effd",
          "initCode": "0x3d602d80600a3d3981f3363d3d373d3d3d363d73bded9c8c786727499f13261cc34b997dfa2605385af43d82803e903d91602b57fd5bf3"
        }
      ],
      "isFixedGasLimit": false
    },
    {
      "hash": "0xbef338fdf55ae78040c8747afeb11901d8e3151bf0b01d76764ee36221620757",
      "transactionType": "CALL",
      "contractName": null,
      "contractAddress": "0x120e49d7ab1edc0bfbf509fa8566ca5b5dcaad40",
      "function": "transfer(address,uint256)",
      "arguments": [
        "0x4fa92B34E3F5033Da55044ae96e1F97b3a06efFd",
        "1000000000000000000"
      ],
      "transaction": {
        "from": "0x5992fe461f81c8e0affa95b831e50e9b3854ba0e",
        "to": "0x120e49d7ab1edc0bfbf509fa8566ca5b5dcaad40",
        "gas": "0x10df4",
        "value": "0x0",
        "input": "0xa9059cbb0000000000000000000000004fa92b34e3f5033da55044ae96e1f97b3a06effd0000000000000000000000000000000000000000000000000de0b6b3a7640000",
        "nonce": "0x451",
        "chainId": "0xa4b1"
      },
      "additionalContracts": [],
      "isFixedGasLimit": false
    },
    {
      "hash": "0xb60578c01f13472b333b7d996d4e8637210ec44758658a524525a0d28bf945aa",
      "transactionType": "CALL",
      "contractName": null,
      "contractAddress": "0xfd086bc7cd5c481dcc9c85ebe478a1c0b69fcbb9",
      "function": "transfer(address,uint256)",
      "arguments": [
        "0x4fa92B34E3F5033Da55044ae96e1F97b3a06efFd",
        "50000"
      ],
      "transaction": {
        "from": "0x5992fe461f81c8e0affa95b831e50e9b3854ba0e",
        "to": "0xfd086bc7cd5c481dcc9c85ebe478a1c0b69fcbb9",
        "gas": "0x13e7c",
        "value": "0x0",
        "input": "0xa9059cbb0000000000000000000000004fa92b34e3f5033da55044ae96e1f97b3a06effd000000000000000000000000000000000000000000000000000000000000c350",
        "nonce": "0x452",
        "chainId": "0xa4b1"
      },
      "additionalContracts": [],
      "isFixedGasLimit": false
    }
  ],
  "receipts": [
    {
      "status": "0x1",
      "cumulativeGasUsed": "0x84a73",
      "logs": [
        {
          "address": "0x4fa92b34e3f5033da55044ae96e1f97b3a06effd",
          "topics": [
            "0xddf252ad1be2c89b69c2b068fc378daa952ba7f163c4a11628f55a4df523b3ef",
            "0x0000000000000000000000000000000000000000000000000000000000000000",
            "0x0000000000000000000000005992fe461f81c8e0affa95b831e50e9b3854ba0e",
            "0x0000000000000000000000000000000000000000000000000000000000000001"
          ],
          "data": "0x",
          "blockHash": "0xab58a1cbd8d8250ccc30a1d3829e87bca0734a000abf3bc69bf6e15d10fabf05",
          "blockNumber": "0x166cd24a",
          "transactionHash": "0x8417c7b073e3316937468b8fc68a0f90fb67a5093e4bb91d4d46054ca388274b",
          "transactionIndex": "0x9",
          "logIndex": "0x9",
          "removed": false
        },
        {
          "address": "0x4fa92b34e3f5033da55044ae96e1f97b3a06effd",
          "topics": [
            "0xf8e1a15aba9398e019f0b49df1a4fde98ee17ae345cb5f6b5e2c27f5033e8ce7"
          ],
          "data": "0x0000000000000000000000000000000000000000000000000000000000000001",
          "blockHash": "0xab58a1cbd8d8250ccc30a1d3829e87bca0734a000abf3bc69bf6e15d10fabf05",
          "blockNumber": "0x166cd24a",
          "transactionHash": "0x8417c7b073e3316937468b8fc68a0f90fb67a5093e4bb91d4d46054ca388274b",
          "transactionIndex": "0x9",
          "logIndex": "0xa",
          "removed": false
        },
        {
          "address": "0x4fa92b34e3f5033da55044ae96e1f97b3a06effd",
          "topics": [
            "0xfa6883374d3785c826e28c69c68c1b6dd2178accc8623f49c6829a75487419b3",
            "0x0000000000000000000000005992fe461f81c8e0affa95b831e50e9b3854ba0e",
            "0x0000000000000000000000000000000000000000000000000000000000000001",
            "0x0000000000000000000000000000000000000000000000000000000000000000"
          ],
          "data": "0x000000000000000000000000000000000000000000000000000000000000002000000000000000000000000000000000000000000000000000000000000000a000000000000000000000000000000000000000000000000000000000000000200000000000000000000000000000000000000000000000000000000000000040000000000000000000000000000000000000000000000000000000000000000a0000000000000000000000000000000000000000000000000000000000000005322e302e32000000000000000000000000000000000000000000000000000000",
          "blockHash": "0xab58a1cbd8d8250ccc30a1d3829e87bca0734a000abf3bc69bf6e15d10fabf05",
          "blockNumber": "0x166cd24a",
          "transactionHash": "0x8417c7b073e3316937468b8fc68a0f90fb67a5093e4bb91d4d46054ca388274b",
          "transactionIndex": "0x9",
          "logIndex": "0xb",
          "removed": false
        },
        {
          "address": "0x4fa92b34e3f5033da55044ae96e1f97b3a06effd",
          "topics": [
            "0xc7f505b2f371ae2175ee4913f4499e1f2633a7b5936321eed1cdaeb6115181d2"
          ],
          "data": "0x0000000000000000000000000000000000000000000000000000000000000001",
          "blockHash": "0xab58a1cbd8d8250ccc30a1d3829e87bca0734a000abf3bc69bf6e15d10fabf05",
          "blockNumber": "0x166cd24a",
          "transactionHash": "0x8417c7b073e3316937468b8fc68a0f90fb67a5093e4bb91d4d46054ca388274b",
          "transactionIndex": "0x9",
          "logIndex": "0xc",
          "removed": false
        },
        {
          "address": "0xbdb5201565925ae934a5622f0e7091affceed5eb",
          "topics": [
            "0x8dc66cafb77b325538c856bfa5892b31ca7305adfa48f6a09e030e261cda0795",
            "0x0000000000000000000000004fa92b34e3f5033da55044ae96e1f97b3a06effd",
            "0x000000000000000000000000bded9c8c786727499f13261cc34b997dfa260538"
          ],
          "data": "0x00000000000000000000000000000000000000000000000000000000000007d2",
          "blockHash": "0xab58a1cbd8d8250ccc30a1d3829e87bca0734a000abf3bc69bf6e15d10fabf05",
          "blockNumber": "0x166cd24a",
          "transactionHash": "0x8417c7b073e3316937468b8fc68a0f90fb67a5093e4bb91d4d46054ca388274b",
          "transactionIndex": "0x9",
          "logIndex": "0xd",
          "removed": false
        }
      ],
      "logsBloom": "0x00400000000000800000100000000000000000000000000000004000000000000000000000000000000000000000000000000100000000000000000000040000000000000000020000020108000000000000000000040000000000000000000000000000428000000000000000000800000000000000000000000010000000000000080800000000000800000000000000000000000080000000000000004080000000000000000000100000000000002000000021000000040000000000008000000002000000000000000000100000000000000004400000000000000060000000000000008000200000000000000000000000000000000000000000000000",
      "type": "0x2",
      "transactionHash": "0x8417c7b073e3316937468b8fc68a0f90fb67a5093e4bb91d4d46054ca388274b",
      "transactionIndex": "0x9",
      "blockHash": "0xab58a1cbd8d8250ccc30a1d3829e87bca0734a000abf3bc69bf6e15d10fabf05",
      "blockNumber": "0x166cd24a",
      "gasUsed": "0x2eb2d",
      "effectiveGasPrice": "0x989680",
      "from": "0x5992fe461f81c8e0affa95b831e50e9b3854ba0e",
      "to": "0xbded9c8c786727499f13261cc34b997dfa260538",
      "contractAddress": null,
      "gasUsedForL1": "0x3ba",
      "l1BlockNumber": "0x1639261",
      "timeboosted": false
    },
    {
      "status": "0x1",
      "cumulativeGasUsed": "0x27b02",
      "logs": [
        {
          "address": "0x120e49d7ab1edc0bfbf509fa8566ca5b5dcaad40",
          "topics": [
            "0xddf252ad1be2c89b69c2b068fc378daa952ba7f163c4a11628f55a4df523b3ef",
            "0x0000000000000000000000005992fe461f81c8e0affa95b831e50e9b3854ba0e",
            "0x0000000000000000000000004fa92b34e3f5033da55044ae96e1f97b3a06effd"
          ],
          "data": "0x0000000000000000000000000000000000000000000000000de0b6b3a7640000",
          "blockHash": "0xe8c7990f9ffd6a252e1e517b36e2ac23ffe002cac4ec9f06a4cca3a2c287f9db",
          "blockNumber": "0x166cd254",
          "transactionHash": "0xbef338fdf55ae78040c8747afeb11901d8e3151bf0b01d76764ee36221620757",
          "transactionIndex": "0x4",
          "logIndex": "0x2",
          "removed": false
        }
      ],
      "logsBloom": "0x00000000000000000000000000000000000000000000000000000000000000000000000000000000000000000000000000000000000000000000000000000000000000000000000000020008000000000000000000000000000000000000000000000000000000000000000000000000000000000000400000000010000000000000000800000000000000000000000000000000002000000000000000004000800000000000000000100000000000000000000020000000040000000000000000000002000000000000000000000000000000000000000000000000000000000000000000000000000000000000000000000000000000000000000000000000",
      "type": "0x2",
      "transactionHash": "0xbef338fdf55ae78040c8747afeb11901d8e3151bf0b01d76764ee36221620757",
      "transactionIndex": "0x4",
      "blockHash": "0xe8c7990f9ffd6a252e1e517b36e2ac23ffe002cac4ec9f06a4cca3a2c287f9db",
      "blockNumber": "0x166cd254",
      "gasUsed": "0xcbf7",
      "effectiveGasPrice": "0x989680",
      "from": "0x5992fe461f81c8e0affa95b831e50e9b3854ba0e",
      "to": "0x120e49d7ab1edc0bfbf509fa8566ca5b5dcaad40",
      "contractAddress": null,
      "gasUsedForL1": "0x276",
      "l1BlockNumber": "0x1639261",
      "timeboosted": false
    },
    {
      "status": "0x1",
      "cumulativeGasUsed": "0x33292",
      "logs": [
        {
          "address": "0xfd086bc7cd5c481dcc9c85ebe478a1c0b69fcbb9",
          "topics": [
            "0xddf252ad1be2c89b69c2b068fc378daa952ba7f163c4a11628f55a4df523b3ef",
            "0x0000000000000000000000005992fe461f81c8e0affa95b831e50e9b3854ba0e",
            "0x0000000000000000000000004fa92b34e3f5033da55044ae96e1f97b3a06effd"
          ],
          "data": "0x000000000000000000000000000000000000000000000000000000000000c350",
          "blockHash": "0x8b702b65febd857872ea3ae2477e0970b09c78bf7bf87e4f28378b9a3abe704d",
          "blockNumber": "0x166cd25a",
          "transactionHash": "0xb60578c01f13472b333b7d996d4e8637210ec44758658a524525a0d28bf945aa",
          "transactionIndex": "0x2",
          "logIndex": "0x4",
          "removed": false
        }
      ],
      "logsBloom": "0x00000000000000000000000000000000000000000000000000000000000000000000000000000000000000000000000000000000000000000000000000000000000010000000000000020008000000000000000000000000000000000000000000000000000000000000000000000000000000000000000000000010000000000000000800000000000000000000000000000000000000000000000000004000000000000000000000100000000000000000000020000000040000000000000000008002000000000000000000000000000000000000000000000000000000000000000000000000000000000000000010000000000000000000000000000000",
      "type": "0x2",
      "transactionHash": "0xb60578c01f13472b333b7d996d4e8637210ec44758658a524525a0d28bf945aa",
      "transactionIndex": "0x2",
      "blockHash": "0x8b702b65febd857872ea3ae2477e0970b09c78bf7bf87e4f28378b9a3abe704d",
      "blockNumber": "0x166cd25a",
      "gasUsed": "0xf127",
      "effectiveGasPrice": "0x989680",
      "from": "0x5992fe461f81c8e0affa95b831e50e9b3854ba0e",
      "to": "0xfd086bc7cd5c481dcc9c85ebe478a1c0b69fcbb9",
      "contractAddress": null,
      "gasUsedForL1": "0x276",
      "l1BlockNumber": "0x1639261",
      "timeboosted": false
    }
  ],
  "libraries": [],
  "pending": [],
  "returns": {},
  "timestamp": 1757145933,
  "chain": 42161,
  "commit": "f7e9686"
}