{
  "transactions": [
    {
      "hash": "0x55720366a0285c47c7bfb90dfbc6ccd79a9d9eb069f986307ee2895b6069cfa3",
      "transactionType": "CALL",
      "contractName": "WNFTV2Envelop721",
      "contractAddress": "0xc425a68df03764f648883b961eb982f087fe22ca",
      "function": "createWNFTonFactory((address,string,string,string,address[],bytes32[],uint256[],bytes))",
      "arguments": [
        "(0x13B9cBcB46aD79878af8c9faa835Bee19B977D3D, Envelop Tokenized Hashrate, vTH, , [], [], [1761039084], 0x)"
      ],
      "transaction": {
        "from": "0x13b9cbcb46ad79878af8c9faa835bee19b977d3d",
        "to": "0xc425a68df03764f648883b961eb982f087fe22ca",
        "gas": "0x54427",
        "value": "0x0",
        "input": "0x7c3cc707000000000000000000000000000000000000000000000000000000000000002000000000000000000000000013b9cbcb46ad79878af8c9faa835bee19b977d3d00000000000000000000000000000000000000000000000000000000000001000000000000000000000000000000000000000000000000000000000000000140000000000000000000000000000000000000000000000000000000000000018000000000000000000000000000000000000000000000000000000000000001a000000000000000000000000000000000000000000000000000000000000001c000000000000000000000000000000000000000000000000000000000000001e00000000000000000000000000000000000000000000000000000000000000220000000000000000000000000000000000000000000000000000000000000001a456e76656c6f7020546f6b656e697a65642048617368726174650000000000000000000000000000000000000000000000000000000000000000000000000003765448000000000000000000000000000000000000000000000000000000000000000000000000000000000000000000000000000000000000000000000000000000000000000000000000000000000000000000000000000000000000000000000000000000000000000000000000000000000000000000000000000000000000000000000000000000000000000000000000000000000000000000000000010000000000000000000000000000000000000000000000000000000068f752ec0000000000000000000000000000000000000000000000000000000000000000",
        "nonce": "0x1a",
        "chainId": "0xa4b1"
      },
      "additionalContracts": [
        {
          "transactionType": "CREATE",
          "address": "0x07eac38c240a065519baf8c112133014371acd54",
          "initCode": "0x3d602d80600a3d3981f3363d3d373d3d3d363d73c425a68df03764f648883b961eb982f087fe22ca5af43d82803e903d91602b57fd5bf3"
        }
      ],
      "isFixedGasLimit": false
    },
    {
      "hash": "0x9485a988e2da2a3ce07397a1bb12023c7abe3509c6b8aa94d4c28152f50727e4",
      "transactionType": "CALL",
      "contractName": "WNFTV2Envelop721",
      "contractAddress": "0xc425a68df03764f648883b961eb982f087fe22ca",
      "function": "createWNFTonFactory((address,string,string,string,address[],bytes32[],uint256[],bytes))",
      "arguments": [
        "(0x13B9cBcB46aD79878af8c9faa835Bee19B977D3D, Envelop Tokenized Hashrate, vTH, , [], [], [1761039084], 0x)"
      ],
      "transaction": {
        "from": "0x13b9cbcb46ad79878af8c9faa835bee19b977d3d",
        "to": "0xc425a68df03764f648883b961eb982f087fe22ca",
        "gas": "0x54417",
        "value": "0x0",
        "input": "0x7c3cc707000000000000000000000000000000000000000000000000000000000000002000000000000000000000000013b9cbcb46ad79878af8c9faa835bee19b977d3d00000000000000000000000000000000000000000000000000000000000001000000000000000000000000000000000000000000000000000000000000000140000000000000000000000000000000000000000000000000000000000000018000000000000000000000000000000000000000000000000000000000000001a000000000000000000000000000000000000000000000000000000000000001c000000000000000000000000000000000000000000000000000000000000001e00000000000000000000000000000000000000000000000000000000000000220000000000000000000000000000000000000000000000000000000000000001a456e76656c6f7020546f6b656e697a65642048617368726174650000000000000000000000000000000000000000000000000000000000000000000000000003765448000000000000000000000000000000000000000000000000000000000000000000000000000000000000000000000000000000000000000000000000000000000000000000000000000000000000000000000000000000000000000000000000000000000000000000000000000000000000000000000000000000000000000000000000000000000000000000000000000000000000000000000000010000000000000000000000000000000000000000000000000000000068f752ec0000000000000000000000000000000000000000000000000000000000000000",
        "nonce": "0x1b",
        "chainId": "0xa4b1"
      },
      "additionalContracts": [
        {
          "transactionType": "CREATE",
          "address": "0x92ce6703ed069da4d088f05dcd4658108e4a311f",
          "initCode": "0x3d602d80600a3d3981f3363d3d373d3d3d363d73c425a68df03764f648883b961eb982f087fe22ca5af43d82803e903d91602b57fd5bf3"
        }
      ],
      "isFixedGasLimit": false
    },
    {
      "hash": "0x855c9b461d7bdd6da0634da91060f655aa6e8117dfea2d71924794f9341950ad",
      "transactionType": "CALL",
      "contractName": "WNFTV2Envelop721",
      "contractAddress": "0xc425a68df03764f648883b961eb982f087fe22ca",
      "function": "createWNFTonFactory((address,string,string,string,address[],bytes32[],uint256[],bytes))",
      "arguments": [
        "(0x13B9cBcB46aD79878af8c9faa835Bee19B977D3D, Envelop Tokenized Hashrate, vTH, , [], [], [1761039084], 0x)"
      ],
      "transaction": {
        "from": "0x13b9cbcb46ad79878af8c9faa835bee19b977d3d",
        "to": "0xc425a68df03764f648883b961eb982f087fe22ca",
        "gas": "0x54427",
        "value": "0x0",
        "input": "0x7c3cc707000000000000000000000000000000000000000000000000000000000000002000000000000000000000000013b9cbcb46ad79878af8c9faa835bee19b977d3d00000000000000000000000000000000000000000000000000000000000001000000000000000000000000000000000000000000000000000000000000000140000000000000000000000000000000000000000000000000000000000000018000000000000000000000000000000000000000000000000000000000000001a000000000000000000000000000000000000000000000000000000000000001c000000000000000000000000000000000000000000000000000000000000001e00000000000000000000000000000000000000000000000000000000000000220000000000000000000000000000000000000000000000000000000000000001a456e76656c6f7020546f6b656e697a65642048617368726174650000000000000000000000000000000000000000000000000000000000000000000000000003765448000000000000000000000000000000000000000000000000000000000000000000000000000000000000000000000000000000000000000000000000000000000000000000000000000000000000000000000000000000000000000000000000000000000000000000000000000000000000000000000000000000000000000000000000000000000000000000000000000000000000000000000000010000000000000000000000000000000000000000000000000000000068f752ec0000000000000000000000000000000000000000000000000000000000000000",
        "nonce": "0x1c",
        "chainId": "0xa4b1"
      },
      "additionalContracts": [
        {
          "transactionType": "CREATE",
          "address": "0xfa931684d7ff1a18ef49a3a8f9c36021a4892d01",
          "initCode": "0x3d602d80600a3d3981f3363d3d373d3d3d363d73c425a68df03764f648883b961eb982f087fe22ca5af43d82803e903d91602b57fd5bf3"
        }
      ],
      "isFixedGasLimit": false
    },
    {
      "hash": "0x475b27837cc2b52aaf1952145a7a28c13c2a511921a5be5a0408e69c27e6ff6f",
      "transactionType": "CALL",
      "contractName": "WNFTV2Envelop721",
      "contractAddress": "0xc425a68df03764f648883b961eb982f087fe22ca",
      "function": "createWNFTonFactory((address,string,string,string,address[],bytes32[],uint256[],bytes))",
      "arguments": [
        "(0x13B9cBcB46aD79878af8c9faa835Bee19B977D3D, Envelop Tokenized Hashrate, vTH, , [], [], [1761039084], 0x)"
      ],
      "transaction": {
        "from": "0x13b9cbcb46ad79878af8c9faa835bee19b977d3d",
        "to": "0xc425a68df03764f648883b961eb982f087fe22ca",
        "gas": "0x54417",
        "value": "0x0",
        "input": "0x7c3cc707000000000000000000000000000000000000000000000000000000000000002000000000000000000000000013b9cbcb46ad79878af8c9faa835bee19b977d3d00000000000000000000000000000000000000000000000000000000000001000000000000000000000000000000000000000000000000000000000000000140000000000000000000000000000000000000000000000000000000000000018000000000000000000000000000000000000000000000000000000000000001a000000000000000000000000000000000000000000000000000000000000001c000000000000000000000000000000000000000000000000000000000000001e00000000000000000000000000000000000000000000000000000000000000220000000000000000000000000000000000000000000000000000000000000001a456e76656c6f7020546f6b656e697a65642048617368726174650000000000000000000000000000000000000000000000000000000000000000000000000003765448000000000000000000000000000000000000000000000000000000000000000000000000000000000000000000000000000000000000000000000000000000000000000000000000000000000000000000000000000000000000000000000000000000000000000000000000000000000000000000000000000000000000000000000000000000000000000000000000000000000000000000000000010000000000000000000000000000000000000000000000000000000068f752ec0000000000000000000000000000000000000000000000000000000000000000",
        "nonce": "0x1d",
        "chainId": "0xa4b1"
      },
      "additionalContracts": [
        {
          "transactionType": "CREATE",
          "address": "0x9b63a2b9cf7c455bb3c74bff31e93733c88bb1e5",
          "initCode": "0x3d602d80600a3d3981f3363d3d373d3d3d363d73c425a68df03764f648883b961eb982f087fe22ca5af43d82803e903d91602b57fd5bf3"
        }
      ],
      "isFixedGasLimit": false
    },
    {
      "hash": "0x295e0c4bc8de0418c5abca2cc2e841804024a4dd7e9ac3ac1396973ca0a0ee5c",
      "transactionType": "CALL",
      "contractName": "WNFTV2Envelop721",
      "contractAddress": "0xc425a68df03764f648883b961eb982f087fe22ca",
      "function": "createWNFTonFactory((address,string,string,string,address[],bytes32[],uint256[],bytes))",
      "arguments": [
        "(0x13B9cBcB46aD79878af8c9faa835Bee19B977D3D, Envelop Tokenized Hashrate, vTH, , [], [], [1761039084], 0x)"
      ],
      "transaction": {
        "from": "0x13b9cbcb46ad79878af8c9faa835bee19b977d3d",
        "to": "0xc425a68df03764f648883b961eb982f087fe22ca",
        "gas": "0x54427",
        "value": "0x0",
        "input": "0x7c3cc707000000000000000000000000000000000000000000000000000000000000002000000000000000000000000013b9cbcb46ad79878af8c9faa835bee19b977d3d00000000000000000000000000000000000000000000000000000000000001000000000000000000000000000000000000000000000000000000000000000140000000000000000000000000000000000000000000000000000000000000018000000000000000000000000000000000000000000000000000000000000001a000000000000000000000000000000000000000000000000000000000000001c000000000000000000000000000000000000000000000000000000000000001e00000000000000000000000000000000000000000000000000000000000000220000000000000000000000000000000000000000000000000000000000000001a456e76656c6f7020546f6b656e697a65642048617368726174650000000000000000000000000000000000000000000000000000000000000000000000000003765448000000000000000000000000000000000000000000000000000000000000000000000000000000000000000000000000000000000000000000000000000000000000000000000000000000000000000000000000000000000000000000000000000000000000000000000000000000000000000000000000000000000000000000000000000000000000000000000000000000000000000000000000010000000000000000000000000000000000000000000000000000000068f752ec0000000000000000000000000000000000000000000000000000000000000000",
        "nonce": "0x1e",
        "chainId": "0xa4b1"
      },
      "additionalContracts": [
        {
          "transactionType": "CREATE",
          "address": "0x0d6ff5b680b6544648d2fb8f0ba751e3f534f868",
          "initCode": "0x3d602d80600a3d3981f3363d3d373d3d3d363d73c425a68df03764f648883b961eb982f087fe22ca5af43d82803e903d91602b57fd5bf3"
        }
      ],
      "isFixedGasLimit": false
    },
    {
      "hash": "0x3f66a188bbddf85a79ac3d2ddd3f84a0bfe93ea02f89e3ba59ea921a197370f5",
      "transactionType": "CALL",
      "contractName": "WNFTV2Envelop721",
      "contractAddress": "0xc425a68df03764f648883b961eb982f087fe22ca",
      "function": "createWNFTonFactory((address,string,string,string,address[],bytes32[],uint256[],bytes))",
      "arguments": [
        "(0x13B9cBcB46aD79878af8c9faa835Bee19B977D3D, Envelop Tokenized Hashrate, vTH, , [], [], [1761039084], 0x)"
      ],
      "transaction": {
        "from": "0x13b9cbcb46ad79878af8c9faa835bee19b977d3d",
        "to": "0xc425a68df03764f648883b961eb982f087fe22ca",
        "gas": "0x54427",
        "value": "0x0",
        "input": "0x7c3cc707000000000000000000000000000000000000000000000000000000000000002000000000000000000000000013b9cbcb46ad79878af8c9faa835bee19b977d3d00000000000000000000000000000000000000000000000000000000000001000000000000000000000000000000000000000000000000000000000000000140000000000000000000000000000000000000000000000000000000000000018000000000000000000000000000000000000000000000000000000000000001a000000000000000000000000000000000000000000000000000000000000001c000000000000000000000000000000000000000000000000000000000000001e00000000000000000000000000000000000000000000000000000000000000220000000000000000000000000000000000000000000000000000000000000001a456e76656c6f7020546f6b656e697a65642048617368726174650000000000000000000000000000000000000000000000000000000000000000000000000003765448000000000000000000000000000000000000000000000000000000000000000000000000000000000000000000000000000000000000000000000000000000000000000000000000000000000000000000000000000000000000000000000000000000000000000000000000000000000000000000000000000000000000000000000000000000000000000000000000000000000000000000000000010000000000000000000000000000000000000000000000000000000068f752ec0000000000000000000000000000000000000000000000000000000000000000",
        "nonce": "0x1f",
        "chainId": "0xa4b1"
      },
      "additionalContracts": [
        {
          "transactionType": "CREATE",
          "address": "0xc97569346eaca456c6af8fe03c298ddb023f9136",
          "initCode": "0x3d602d80600a3d3981f3363d3d373d3d3d363d73c425a68df03764f648883b961eb982f087fe22ca5af43d82803e903d91602b57fd5bf3"
        }
      ],
      "isFixedGasLimit": false
    },
    {
      "hash": "0x6b6512a7be562f6979121e6eb59617837448f3839b36e5efa522f02aebe3781b",
      "transactionType": "CALL",
      "contractName": "WNFTV2Envelop721",
      "contractAddress": "0xc425a68df03764f648883b961eb982f087fe22ca",
      "function": "createWNFTonFactory((address,string,string,string,address[],bytes32[],uint256[],bytes))",
      "arguments": [
        "(0x13B9cBcB46aD79878af8c9faa835Bee19B977D3D, Envelop Tokenized Hashrate, vTH, , [], [], [1761039084], 0x)"
      ],
      "transaction": {
        "from": "0x13b9cbcb46ad79878af8c9faa835bee19b977d3d",
        "to": "0xc425a68df03764f648883b961eb982f087fe22ca",
        "gas": "0x54427",
        "value": "0x0",
        "input": "0x7c3cc707000000000000000000000000000000000000000000000000000000000000002000000000000000000000000013b9cbcb46ad79878af8c9faa835bee19b977d3d00000000000000000000000000000000000000000000000000000000000001000000000000000000000000000000000000000000000000000000000000000140000000000000000000000000000000000000000000000000000000000000018000000000000000000000000000000000000000000000000000000000000001a000000000000000000000000000000000000000000000000000000000000001c000000000000000000000000000000000000000000000000000000000000001e00000000000000000000000000000000000000000000000000000000000000220000000000000000000000000000000000000000000000000000000000000001a456e76656c6f7020546f6b656e697a65642048617368726174650000000000000000000000000000000000000000000000000000000000000000000000000003765448000000000000000000000000000000000000000000000000000000000000000000000000000000000000000000000000000000000000000000000000000000000000000000000000000000000000000000000000000000000000000000000000000000000000000000000000000000000000000000000000000000000000000000000000000000000000000000000000000000000000000000000000010000000000000000000000000000000000000000000000000000000068f752ec0000000000000000000000000000000000000000000000000000000000000000",
        "nonce": "0x20",
        "chainId": "0xa4b1"
      },
      "additionalContracts": [
        {
          "transactionType": "CREATE",
          "address": "0x7963f799bcd782c61aee63eacad6c7eb375ea003",
          "initCode": "0x3d602d80600a3d3981f3363d3d373d3d3d363d73c425a68df03764f648883b961eb982f087fe22ca5af43d82803e903d91602b57fd5bf3"
        }
      ],
      "isFixedGasLimit": false
    },
    {
      "hash": "0x07697a5746dc0d75e53d43e50062f405e03064a62eb51e2f4780da29f545f585",
      "transactionType": "CALL",
      "contractName": "WNFTV2Envelop721",
      "contractAddress": "0xc425a68df03764f648883b961eb982f087fe22ca",
      "function": "createWNFTonFactory((address,string,string,string,address[],bytes32[],uint256[],bytes))",
      "arguments": [
        "(0x13B9cBcB46aD79878af8c9faa835Bee19B977D3D, Envelop Tokenized Hashrate, vTH, , [], [], [1761039084], 0x)"
      ],
      "transaction": {
        "from": "0x13b9cbcb46ad79878af8c9faa835bee19b977d3d",
        "to": "0xc425a68df03764f648883b961eb982f087fe22ca",
        "gas": "0x54427",
        "value": "0x0",
        "input": "0x7c3cc707000000000000000000000000000000000000000000000000000000000000002000000000000000000000000013b9cbcb46ad79878af8c9faa835bee19b977d3d00000000000000000000000000000000000000000000000000000000000001000000000000000000000000000000000000000000000000000000000000000140000000000000000000000000000000000000000000000000000000000000018000000000000000000000000000000000000000000000000000000000000001a000000000000000000000000000000000000000000000000000000000000001c000000000000000000000000000000000000000000000000000000000000001e00000000000000000000000000000000000000000000000000000000000000220000000000000000000000000000000000000000000000000000000000000001a456e76656c6f7020546f6b656e697a65642048617368726174650000000000000000000000000000000000000000000000000000000000000000000000000003765448000000000000000000000000000000000000000000000000000000000000000000000000000000000000000000000000000000000000000000000000000000000000000000000000000000000000000000000000000000000000000000000000000000000000000000000000000000000000000000000000000000000000000000000000000000000000000000000000000000000000000000000000010000000000000000000000000000000000000000000000000000000068f752ec0000000000000000000000000000000000000000000000000000000000000000",
        "nonce": "0x21",
        "chainId": "0xa4b1"
      },
      "additionalContracts": [
        {
          "transactionType": "CREATE",
          "address": "0xd362871356647b718265ded4fc04eb3128abaac7",
          "initCode": "0x3d602d80600a3d3981f3363d3d373d3d3d363d73c425a68df03764f648883b961eb982f087fe22ca5af43d82803e903d91602b57fd5bf3"
        }
      ],
      "isFixedGasLimit": false
    },
    {
      "hash": "0x114908e8faa0e215431a31e25e0f1a449a40c6881c0a65297903c01531b9d375",
      "transactionType": "CALL",
      "contractName": "WNFTV2Envelop721",
      "contractAddress": "0xc425a68df03764f648883b961eb982f087fe22ca",
      "function": "createWNFTonFactory((address,string,string,string,address[],bytes32[],uint256[],bytes))",
      "arguments": [
        "(0x13B9cBcB46aD79878af8c9faa835Bee19B977D3D, Envelop Tokenized Hashrate, vTH, , [], [], [1761039084], 0x)"
      ],
      "transaction": {
        "from": "0x13b9cbcb46ad79878af8c9faa835bee19b977d3d",
        "to": "0xc425a68df03764f648883b961eb982f087fe22ca",
        "gas": "0x54427",
        "value": "0x0",
        "input": "0x7c3cc707000000000000000000000000000000000000000000000000000000000000002000000000000000000000000013b9cbcb46ad79878af8c9faa835bee19b977d3d00000000000000000000000000000000000000000000000000000000000001000000000000000000000000000000000000000000000000000000000000000140000000000000000000000000000000000000000000000000000000000000018000000000000000000000000000000000000000000000000000000000000001a000000000000000000000000000000000000000000000000000000000000001c000000000000000000000000000000000000000000000000000000000000001e00000000000000000000000000000000000000000000000000000000000000220000000000000000000000000000000000000000000000000000000000000001a456e76656c6f7020546f6b656e697a65642048617368726174650000000000000000000000000000000000000000000000000000000000000000000000000003765448000000000000000000000000000000000000000000000000000000000000000000000000000000000000000000000000000000000000000000000000000000000000000000000000000000000000000000000000000000000000000000000000000000000000000000000000000000000000000000000000000000000000000000000000000000000000000000000000000000000000000000000000010000000000000000000000000000000000000000000000000000000068f752ec0000000000000000000000000000000000000000000000000000000000000000",
        "nonce": "0x22",
        "chainId": "0xa4b1"
      },
      "additionalContracts": [
        {
          "transactionType": "CREATE",
          "address": "0x0ca039bb61010b731c2d2e5735c349a912861964",
          "initCode": "0x3d602d80600a3d3981f3363d3d373d3d3d363d73c425a68df03764f648883b961eb982f087fe22ca5af43d82803e903d91602b57fd5bf3"
        }
      ],
      "isFixedGasLimit": false
    },
    {
      "hash": "0xcf9c726b535ad9b61529a5c2e72b4b53d8b6bc555460f1f290e979347f036f0f",
      "transactionType": "CALL",
      "contractName": "WNFTV2Envelop721",
      "contractAddress": "0xc425a68df03764f648883b961eb982f087fe22ca",
      "function": "createWNFTonFactory((address,string,string,string,address[],bytes32[],uint256[],bytes))",
      "arguments": [
        "(0x13B9cBcB46aD79878af8c9faa835Bee19B977D3D, Envelop Tokenized Hashrate, vTH, , [], [], [1761039084], 0x)"
      ],
      "transaction": {
        "from": "0x13b9cbcb46ad79878af8c9faa835bee19b977d3d",
        "to": "0xc425a68df03764f648883b961eb982f087fe22ca",
        "gas": "0x54427",
        "value": "0x0",
        "input": "0x7c3cc707000000000000000000000000000000000000000000000000000000000000002000000000000000000000000013b9cbcb46ad79878af8c9faa835bee19b977d3d00000000000000000000000000000000000000000000000000000000000001000000000000000000000000000000000000000000000000000000000000000140000000000000000000000000000000000000000000000000000000000000018000000000000000000000000000000000000000000000000000000000000001a000000000000000000000000000000000000000000000000000000000000001c000000000000000000000000000000000000000000000000000000000000001e00000000000000000000000000000000000000000000000000000000000000220000000000000000000000000000000000000000000000000000000000000001a456e76656c6f7020546f6b656e697a65642048617368726174650000000000000000000000000000000000000000000000000000000000000000000000000003765448000000000000000000000000000000000000000000000000000000000000000000000000000000000000000000000000000000000000000000000000000000000000000000000000000000000000000000000000000000000000000000000000000000000000000000000000000000000000000000000000000000000000000000000000000000000000000000000000000000000000000000000000010000000000000000000000000000000000000000000000000000000068f752ec0000000000000000000000000000000000000000000000000000000000000000",
        "nonce": "0x23",
        "chainId": "0xa4b1"
      },
      "additionalContracts": [
        {
          "transactionType": "CREATE",
          "address": "0xaaa7da2a98629d65f0caced11d06f0d94a0211fd",
          "initCode": "0x3d602d80600a3d3981f3363d3d373d3d3d363d73c425a68df03764f648883b961eb982f087fe22ca5af43d82803e903d91602b57fd5bf3"
        }
      ],
      "isFixedGasLimit": false
    },
    {
      "hash": "0xaccda2348dbb918617d06e80b7445b13d42776141dc759b09192cedbb7689b03",
      "transactionType": "CALL",
      "contractName": "WNFTV2Envelop721",
      "contractAddress": "0xc425a68df03764f648883b961eb982f087fe22ca",
      "function": "createWNFTonFactory((address,string,string,string,address[],bytes32[],uint256[],bytes))",
      "arguments": [
        "(0x13B9cBcB46aD79878af8c9faa835Bee19B977D3D, Envelop Tokenized Hashrate, vTH, , [], [], [1761039084], 0x)"
      ],
      "transaction": {
        "from": "0x13b9cbcb46ad79878af8c9faa835bee19b977d3d",
        "to": "0xc425a68df03764f648883b961eb982f087fe22ca",
        "gas": "0x54417",
        "value": "0x0",
        "input": "0x7c3cc707000000000000000000000000000000000000000000000000000000000000002000000000000000000000000013b9cbcb46ad79878af8c9faa835bee19b977d3d00000000000000000000000000000000000000000000000000000000000001000000000000000000000000000000000000000000000000000000000000000140000000000000000000000000000000000000000000000000000000000000018000000000000000000000000000000000000000000000000000000000000001a000000000000000000000000000000000000000000000000000000000000001c000000000000000000000000000000000000000000000000000000000000001e00000000000000000000000000000000000000000000000000000000000000220000000000000000000000000000000000000000000000000000000000000001a456e76656c6f7020546f6b656e697a65642048617368726174650000000000000000000000000000000000000000000000000000000000000000000000000003765448000000000000000000000000000000000000000000000000000000000000000000000000000000000000000000000000000000000000000000000000000000000000000000000000000000000000000000000000000000000000000000000000000000000000000000000000000000000000000000000000000000000000000000000000000000000000000000000000000000000000000000000000010000000000000000000000000000000000000000000000000000000068f752ec0000000000000000000000000000000000000000000000000000000000000000",
        "nonce": "0x24",
        "chainId": "0xa4b1"
      },
      "additionalContracts": [
        {
          "transactionType": "CREATE",
          "address": "0x1ce529c06016a0bc90838c83d6c0e77fe7dfab28",
          "initCode": "0x3d602d80600a3d3981f3363d3d373d3d3d363d73c425a68df03764f648883b961eb982f087fe22ca5af43d82803e903d91602b57fd5bf3"
        }
      ],
      "isFixedGasLimit": false
    }
  ],
  "receipts": [
    {
      "status": "0x1",
      "cumulativeGasUsed": "0x13b7ff",
      "logs": [
        {
          "address": "0x07eac38c240a065519baf8c112133014371acd54",
          "topics": [
            "0xddf252ad1be2c89b69c2b068fc378daa952ba7f163c4a11628f55a4df523b3ef",
            "0x0000000000000000000000000000000000000000000000000000000000000000",
            "0x00000000000000000000000013b9cbcb46ad79878af8c9faa835bee19b977d3d",
            "0x0000000000000000000000000000000000000000000000000000000000000001"
          ],
          "data": "0x",
          "blockHash": "0xcff9d276e282e2b096935d24596ecd94ca200ffa68ca0ebce31b360293a5019f",
          "blockNumber": "0x154ac134",
          "transactionHash": "0x55720366a0285c47c7bfb90dfbc6ccd79a9d9eb069f986307ee2895b6069cfa3",
          "transactionIndex": "0x6",
          "logIndex": "0x3c",
          "removed": false
        },
        {
          "address": "0x07eac38c240a065519baf8c112133014371acd54",
          "topics": [
            "0xf8e1a15aba9398e019f0b49df1a4fde98ee17ae345cb5f6b5e2c27f5033e8ce7"
          ],
          "data": "0x0000000000000000000000000000000000000000000000000000000000000001",
          "blockHash": "0xcff9d276e282e2b096935d24596ecd94ca200ffa68ca0ebce31b360293a5019f",
          "blockNumber": "0x154ac134",
          "transactionHash": "0x55720366a0285c47c7bfb90dfbc6ccd79a9d9eb069f986307ee2895b6069cfa3",
          "transactionIndex": "0x6",
          "logIndex": "0x3d",
          "removed": false
        },
        {
          "address": "0x07eac38c240a065519baf8c112133014371acd54",
          "topics": [
            "0xfa6883374d3785c826e28c69c68c1b6dd2178accc8623f49c6829a75487419b3",
            "0x00000000000000000000000013b9cbcb46ad79878af8c9faa835bee19b977d3d",
            "0x0000000000000000000000000000000000000000000000000000000000000001",
            "0x0000000000000000000000000000000000000000000000000000000000000000"
          ],
          "data": "0x00000000000000000000000000000000000000000000000000000000000000200000000000000000000000000000000000000000000000000000000000000000",
          "blockHash": "0xcff9d276e282e2b096935d24596ecd94ca200ffa68ca0ebce31b360293a5019f",
          "blockNumber": "0x154ac134",
          "transactionHash": "0x55720366a0285c47c7bfb90dfbc6ccd79a9d9eb069f986307ee2895b6069cfa3",
          "transactionIndex": "0x6",
          "logIndex": "0x3e",
          "removed": false
        },
        {
          "address": "0x07eac38c240a065519baf8c112133014371acd54",
          "topics": [
            "0xc7f505b2f371ae2175ee4913f4499e1f2633a7b5936321eed1cdaeb6115181d2"
          ],
          "data": "0x0000000000000000000000000000000000000000000000000000000000000001",
          "blockHash": "0xcff9d276e282e2b096935d24596ecd94ca200ffa68ca0ebce31b360293a5019f",
          "blockNumber": "0x154ac134",
          "transactionHash": "0x55720366a0285c47c7bfb90dfbc6ccd79a9d9eb069f986307ee2895b6069cfa3",
          "transactionIndex": "0x6",
          "logIndex": "0x3f",
          "removed": false
        },
        {
          "address": "0xbdb5201565925ae934a5622f0e7091affceed5eb",
          "topics": [
            "0x8dc66cafb77b325538c856bfa5892b31ca7305adfa48f6a09e030e261cda0795",
            "0x00000000000000000000000007eac38c240a065519baf8c112133014371acd54",
            "0x000000000000000000000000c425a68df03764f648883b961eb982f087fe22ca"
          ],
          "data": "0x00000000000000000000000000000000000000000000000000000000000007d2",
          "blockHash": "0xcff9d276e282e2b096935d24596ecd94ca200ffa68ca0ebce31b360293a5019f",
          "blockNumber": "0x154ac134",
          "transactionHash": "0x55720366a0285c47c7bfb90dfbc6ccd79a9d9eb069f986307ee2895b6069cfa3",
          "transactionIndex": "0x6",
          "logIndex": "0x40",
          "removed": false
        }
      ],
      "logsBloom": "0x00000000000000800000000000000000000000000000000000000000000000000000000000000000000000000000000000000100000000000010000000040000000000000000020000000108000000000000000000040000000000800000000000000000020000000000000000000800080000000000000000000010000000000000000000000000000800000000000000000000000080000000001800400080000000000004000000000000000000002000000001040400000000000000008000000002000000080000000000100000000000000004400000000000000060000000000000008000200000000000000200000000000000000000000000000080",
      "type": "0x2",
      "transactionHash": "0x55720366a0285c47c7bfb90dfbc6ccd79a9d9eb069f986307ee2895b6069cfa3",
      "transactionIndex": "0x6",
      "blockHash": "0xcff9d276e282e2b096935d24596ecd94ca200ffa68ca0ebce31b360293a5019f",
      "blockNumber": "0x154ac134",
      "gasUsed": "0x3e9e3",
      "effectiveGasPrice": "0x989680",
      "from": "0x13b9cbcb46ad79878af8c9faa835bee19b977d3d",
      "to": "0xc425a68df03764f648883b961eb982f087fe22ca",
      "contractAddress": null,
      "gasUsedForL1": "0xc95",
      "l1BlockNumber": "0x15d91c8",
      "timeboosted": false
    },
    {
      "status": "0x1",
      "cumulativeGasUsed": "0x4402d",
      "logs": [
        {
          "address": "0x92ce6703ed069da4d088f05dcd4658108e4a311f",
          "topics": [
            "0xddf252ad1be2c89b69c2b068fc378daa952ba7f163c4a11628f55a4df523b3ef",
            "0x0000000000000000000000000000000000000000000000000000000000000000",
            "0x00000000000000000000000013b9cbcb46ad79878af8c9faa835bee19b977d3d",
            "0x0000000000000000000000000000000000000000000000000000000000000001"
          ],
          "data": "0x",
          "blockHash": "0x1afb21fd9a89c9dd233ff3439f57cc38b0a404ae8ba8e2ae773da3bdebcd0ee9",
          "blockNumber": "0x154ac13c",
          "transactionHash": "0x9485a988e2da2a3ce07397a1bb12023c7abe3509c6b8aa94d4c28152f50727e4",
          "transactionIndex": "0x2",
          "logIndex": "0x0",
          "removed": false
        },
        {
          "address": "0x92ce6703ed069da4d088f05dcd4658108e4a311f",
          "topics": [
            "0xf8e1a15aba9398e019f0b49df1a4fde98ee17ae345cb5f6b5e2c27f5033e8ce7"
          ],
          "data": "0x0000000000000000000000000000000000000000000000000000000000000001",
          "blockHash": "0x1afb21fd9a89c9dd233ff3439f57cc38b0a404ae8ba8e2ae773da3bdebcd0ee9",
          "blockNumber": "0x154ac13c",
          "transactionHash": "0x9485a988e2da2a3ce07397a1bb12023c7abe3509c6b8aa94d4c28152f50727e4",
          "transactionIndex": "0x2",
          "logIndex": "0x1",
          "removed": false
        },
        {
          "address": "0x92ce6703ed069da4d088f05dcd4658108e4a311f",
          "topics": [
            "0xfa6883374d3785c826e28c69c68c1b6dd2178accc8623f49c6829a75487419b3",
            "0x00000000000000000000000013b9cbcb46ad79878af8c9faa835bee19b977d3d",
            "0x0000000000000000000000000000000000000000000000000000000000000001",
            "0x0000000000000000000000000000000000000000000000000000000000000000"
          ],
          "data": "0x00000000000000000000000000000000000000000000000000000000000000200000000000000000000000000000000000000000000000000000000000000000",
          "blockHash": "0x1afb21fd9a89c9dd233ff3439f57cc38b0a404ae8ba8e2ae773da3bdebcd0ee9",
          "blockNumber": "0x154ac13c",
          "transactionHash": "0x9485a988e2da2a3ce07397a1bb12023c7abe3509c6b8aa94d4c28152f50727e4",
          "transactionIndex": "0x2",
          "logIndex": "0x2",
          "removed": false
        },
        {
          "address": "0x92ce6703ed069da4d088f05dcd4658108e4a311f",
          "topics": [
            "0xc7f505b2f371ae2175ee4913f4499e1f2633a7b5936321eed1cdaeb6115181d2"
          ],
          "data": "0x0000000000000000000000000000000000000000000000000000000000000001",
          "blockHash": "0x1afb21fd9a89c9dd233ff3439f57cc38b0a404ae8ba8e2ae773da3bdebcd0ee9",
          "blockNumber": "0x154ac13c",
          "transactionHash": "0x9485a988e2da2a3ce07397a1bb12023c7abe3509c6b8aa94d4c28152f50727e4",
          "transactionIndex": "0x2",
          "logIndex": "0x3",
          "removed": false
        },
        {
          "address": "0xbdb5201565925ae934a5622f0e7091affceed5eb",
          "topics": [
            "0x8dc66cafb77b325538c856bfa5892b31ca7305adfa48f6a09e030e261cda0795",
            "0x00000000000000000000000092ce6703ed069da4d088f05dcd4658108e4a311f",
            "0x000000000000000000000000c425a68df03764f648883b961eb982f087fe22ca"
          ],
          "data": "0x00000000000000000000000000000000000000000000000000000000000007d2",
          "blockHash": "0x1afb21fd9a89c9dd233ff3439f57cc38b0a404ae8ba8e2ae773da3bdebcd0ee9",
          "blockNumber": "0x154ac13c",
          "transactionHash": "0x9485a988e2da2a3ce07397a1bb12023c7abe3509c6b8aa94d4c28152f50727e4",
          "transactionIndex": "0x2",
          "logIndex": "0x4",
          "removed": false
        }
      ],
      "logsBloom": "0x00000020000000800000000000000000000000000000000000000000000000000000000000000000000000000000000000000100000000000010000000040000000000000000020000000108000000000000000000040000000000800000000000000000020000000000000000000800000000000000000000000010000000000000000000000000000800000000000000000000000080000000001800c00080000000000000008000000000000000002000000001000000000000000000008000000802000000000000000000100000000000000004400000000000000060000400000800008000200000000000000000000000000000000000000000000080",
      "type": "0x2",
      "transactionHash": "0x9485a988e2da2a3ce07397a1bb12023c7abe3509c6b8aa94d4c28152f50727e4",
      "transactionIndex": "0x2",
      "blockHash": "0x1afb21fd9a89c9dd233ff3439f57cc38b0a404ae8ba8e2ae773da3bdebcd0ee9",
      "blockNumber": "0x154ac13c",
      "gasUsed": "0x3e9b4",
      "effectiveGasPrice": "0x989680",
      "from": "0x13b9cbcb46ad79878af8c9faa835bee19b977d3d",
      "to": "0xc425a68df03764f648883b961eb982f087fe22ca",
      "contractAddress": null,
      "gasUsedForL1": "0xc66",
      "l1BlockNumber": "0x15d91c8",
      "timeboosted": false
    },
    {
      "status": "0x1",
      "cumulativeGasUsed": "0xdbb46",
      "logs": [
        {
          "address": "0xfa931684d7ff1a18ef49a3a8f9c36021a4892d01",
          "topics": [
            "0xddf252ad1be2c89b69c2b068fc378daa952ba7f163c4a11628f55a4df523b3ef",
            "0x0000000000000000000000000000000000000000000000000000000000000000",
            "0x00000000000000000000000013b9cbcb46ad79878af8c9faa835bee19b977d3d",
            "0x0000000000000000000000000000000000000000000000000000000000000001"
          ],
          "data": "0x",
          "blockHash": "0xbf812efeef3e6a7e1b32f3551f2dfe6141321dee3ccf71f669fdafb57b336515",
          "blockNumber": "0x154ac144",
          "transactionHash": "0x855c9b461d7bdd6da0634da91060f655aa6e8117dfea2d71924794f9341950ad",
          "transactionIndex": "0x4",
          "logIndex": "0x6",
          "removed": false
        },
        {
          "address": "0xfa931684d7ff1a18ef49a3a8f9c36021a4892d01",
          "topics": [
            "0xf8e1a15aba9398e019f0b49df1a4fde98ee17ae345cb5f6b5e2c27f5033e8ce7"
          ],
          "data": "0x0000000000000000000000000000000000000000000000000000000000000001",
          "blockHash": "0xbf812efeef3e6a7e1b32f3551f2dfe6141321dee3ccf71f669fdafb57b336515",
          "blockNumber": "0x154ac144",
          "transactionHash": "0x855c9b461d7bdd6da0634da91060f655aa6e8117dfea2d71924794f9341950ad",
          "transactionIndex": "0x4",
          "logIndex": "0x7",
          "removed": false
        },
        {
          "address": "0xfa931684d7ff1a18ef49a3a8f9c36021a4892d01",
          "topics": [
            "0xfa6883374d3785c826e28c69c68c1b6dd2178accc8623f49c6829a75487419b3",
            "0x00000000000000000000000013b9cbcb46ad79878af8c9faa835bee19b977d3d",
            "0x0000000000000000000000000000000000000000000000000000000000000001",
            "0x0000000000000000000000000000000000000000000000000000000000000000"
          ],
          "data": "0x00000000000000000000000000000000000000000000000000000000000000200000000000000000000000000000000000000000000000000000000000000000",
          "blockHash": "0xbf812efeef3e6a7e1b32f3551f2dfe6141321dee3ccf71f669fdafb57b336515",
          "blockNumber": "0x154ac144",
          "transactionHash": "0x855c9b461d7bdd6da0634da91060f655aa6e8117dfea2d71924794f9341950ad",
          "transactionIndex": "0x4",
          "logIndex": "0x8",
          "removed": false
        },
        {
          "address": "0xfa931684d7ff1a18ef49a3a8f9c36021a4892d01",
          "topics": [
            "0xc7f505b2f371ae2175ee4913f4499e1f2633a7b5936321eed1cdaeb6115181d2"
          ],
          "data": "0x0000000000000000000000000000000000000000000000000000000000000001",
          "blockHash": "0xbf812efeef3e6a7e1b32f3551f2dfe6141321dee3ccf71f669fdafb57b336515",
          "blockNumber": "0x154ac144",
          "transactionHash": "0x855c9b461d7bdd6da0634da91060f655aa6e8117dfea2d71924794f9341950ad",
          "transactionIndex": "0x4",
          "logIndex": "0x9",
          "removed": false
        },
        {
          "address": "0xbdb5201565925ae934a5622f0e7091affceed5eb",
          "topics": [
            "0x8dc66cafb77b325538c856bfa5892b31ca7305adfa48f6a09e030e261cda0795",
            "0x000000000000000000000000fa931684d7ff1a18ef49a3a8f9c36021a4892d01",
            "0x000000000000000000000000c425a68df03764f648883b961eb982f087fe22ca"
          ],
          "data": "0x00000000000000000000000000000000000000000000000000000000000007d2",
          "blockHash": "0xbf812efeef3e6a7e1b32f3551f2dfe6141321dee3ccf71f669fdafb57b336515",
          "blockNumber": "0x154ac144",
          "transactionHash": "0x855c9b461d7bdd6da0634da91060f655aa6e8117dfea2d71924794f9341950ad",
          "transactionIndex": "0x4",
          "logIndex": "0xa",
          "removed": false
        }
      ],
      "logsBloom": "0x00000000000000800000000000000000000000000000000000000000000000000000000000000000000000000000000000000100000000000010000000040000000000000000020000000108000000000080000000040000000000800004000000000000020000000000000000000800000000000000000000000010000000000000002000000000000900000000000000000000000080000000001800400080000000000000000000000000000000002000000001000000000000000000008000000002000000000000000000100000000800000004400000000000000060000000000000008000200000000000000000000000000000000000000000000080",
      "type": "0x2",
      "transactionHash": "0x855c9b461d7bdd6da0634da91060f655aa6e8117dfea2d71924794f9341950ad",
      "transactionIndex": "0x4",
      "blockHash": "0xbf812efeef3e6a7e1b32f3551f2dfe6141321dee3ccf71f669fdafb57b336515",
      "blockNumber": "0x154ac144",
      "gasUsed": "0x3e9da",
      "effectiveGasPrice": "0x989680",
      "from": "0x13b9cbcb46ad79878af8c9faa835bee19b977d3d",
      "to": "0xc425a68df03764f648883b961eb982f087fe22ca",
      "contractAddress": null,
      "gasUsedForL1": "0xc8c",
      "l1BlockNumber": "0x15d91c8",
      "timeboosted": false
    },
    {
      "status": "0x1",
      "cumulativeGasUsed": "0x3e97b",
      "logs": [
        {
          "address": "0x9b63a2b9cf7c455bb3c74bff31e93733c88bb1e5",
          "topics": [
            "0xddf252ad1be2c89b69c2b068fc378daa952ba7f163c4a11628f55a4df523b3ef",
            "0x0000000000000000000000000000000000000000000000000000000000000000",
            "0x00000000000000000000000013b9cbcb46ad79878af8c9faa835bee19b977d3d",
            "0x0000000000000000000000000000000000000000000000000000000000000001"
          ],
          "data": "0x",
          "blockHash": "0x9f19f8b014d852f8d27a073c02857feae59cefcb16c7943b8b408d29af61554e",
          "blockNumber": "0x154ac14c",
          "transactionHash": "0x475b27837cc2b52aaf1952145a7a28c13c2a511921a5be5a0408e69c27e6ff6f",
          "transactionIndex": "0x1",
          "logIndex": "0x0",
          "removed": false
        },
        {
          "address": "0x9b63a2b9cf7c455bb3c74bff31e93733c88bb1e5",
          "topics": [
            "0xf8e1a15aba9398e019f0b49df1a4fde98ee17ae345cb5f6b5e2c27f5033e8ce7"
          ],
          "data": "0x0000000000000000000000000000000000000000000000000000000000000001",
          "blockHash": "0x9f19f8b014d852f8d27a073c02857feae59cefcb16c7943b8b408d29af61554e",
          "blockNumber": "0x154ac14c",
          "transactionHash": "0x475b27837cc2b52aaf1952145a7a28c13c2a511921a5be5a0408e69c27e6ff6f",
          "transactionIndex": "0x1",
          "logIndex": "0x1",
          "removed": false
        },
        {
          "address": "0x9b63a2b9cf7c455bb3c74bff31e93733c88bb1e5",
          "topics": [
            "0xfa6883374d3785c826e28c69c68c1b6dd2178accc8623f49c6829a75487419b3",
            "0x00000000000000000000000013b9cbcb46ad79878af8c9faa835bee19b977d3d",
            "0x0000000000000000000000000000000000000000000000000000000000000001",
            "0x0000000000000000000000000000000000000000000000000000000000000000"
          ],
          "data": "0x00000000000000000000000000000000000000000000000000000000000000200000000000000000000000000000000000000000000000000000000000000000",
          "blockHash": "0x9f19f8b014d852f8d27a073c02857feae59cefcb16c7943b8b408d29af61554e",
          "blockNumber": "0x154ac14c",
          "transactionHash": "0x475b27837cc2b52aaf1952145a7a28c13c2a511921a5be5a0408e69c27e6ff6f",
          "transactionIndex": "0x1",
          "logIndex": "0x2",
          "removed": false
        },
        {
          "address": "0x9b63a2b9cf7c455bb3c74bff31e93733c88bb1e5",
          "topics": [
            "0xc7f505b2f371ae2175ee4913f4499e1f2633a7b5936321eed1cdaeb6115181d2"
          ],
          "data": "0x0000000000000000000000000000000000000000000000000000000000000001",
          "blockHash": "0x9f19f8b014d852f8d27a073c02857feae59cefcb16c7943b8b408d29af61554e",
          "blockNumber": "0x154ac14c",
          "transactionHash": "0x475b27837cc2b52aaf1952145a7a28c13c2a511921a5be5a0408e69c27e6ff6f",
          "transactionIndex": "0x1",
          "logIndex": "0x3",
          "removed": false
        },
        {
          "address": "0xbdb5201565925ae934a5622f0e7091affceed5eb",
          "topics": [
            "0x8dc66cafb77b325538c856bfa5892b31ca7305adfa48f6a09e030e261cda0795",
            "0x0000000000000000000000009b63a2b9cf7c455bb3c74bff31e93733c88bb1e5",
            "0x000000000000000000000000c425a68df03764f648883b961eb982f087fe22ca"
          ],
          "data": "0x00000000000000000000000000000000000000000000000000000000000007d2",
          "blockHash": "0x9f19f8b014d852f8d27a073c02857feae59cefcb16c7943b8b408d29af61554e",
          "blockNumber": "0x154ac14c",
          "transactionHash": "0x475b27837cc2b52aaf1952145a7a28c13c2a511921a5be5a0408e69c27e6ff6f",
          "transactionIndex": "0x1",
          "logIndex": "0x4",
          "removed": false
        }
      ],
      "logsBloom": "0x00040000000000800000000000000000000000000000000000000000000000000000000000000000000000002000000000000100000000000030000000040000000000000000020000000108000000000000000000040000000000800000000000000000020000000000000000000800000000000000000000000010000000000000000000000000000800000000000000000000000080000000001800400080000000000004040000000000000000002000000001000000000000000000008000000002080000000000000000100000000000000004400000000000000060000000000000008000200000000000000000000000000000000000000000000080",
      "type": "0x2",
      "transactionHash": "0x475b27837cc2b52aaf1952145a7a28c13c2a511921a5be5a0408e69c27e6ff6f",
      "transactionIndex": "0x1",
      "blockHash": "0x9f19f8b014d852f8d27a073c02857feae59cefcb16c7943b8b408d29af61554e",
      "blockNumber": "0x154ac14c",
      "gasUsed": "0x3e97b",
      "effectiveGasPrice": "0x989680",
      "from": "0x13b9cbcb46ad79878af8c9faa835bee19b977d3d",
      "to": "0xc425a68df03764f648883b961eb982f087fe22ca",
      "contractAddress": null,
      "gasUsedForL1": "0xc2d",
      "l1BlockNumber": "0x15d91c8",
      "timeboosted": false
    },
    {
      "status": "0x1",
      "cumulativeGasUsed": "0xb12cc",
      "logs": [
        {
          "address": "0x0d6ff5b680b6544648d2fb8f0ba751e3f534f868",
          "topics": [
            "0xddf252ad1be2c89b69c2b068fc378daa952ba7f163c4a11628f55a4df523b3ef",
            "0x0000000000000000000000000000000000000000000000000000000000000000",
            "0x00000000000000000000000013b9cbcb46ad79878af8c9faa835bee19b977d3d",
            "0x0000000000000000000000000000000000000000000000000000000000000001"
          ],
          "data": "0x",
          "blockHash": "0x7984ac343ec83647b046d2bdd3b45ccd33dfc99f0d9a4b048eaa90152dc32f5b",
          "blockNumber": "0x154ac154",
          "transactionHash": "0x295e0c4bc8de0418c5abca2cc2e841804024a4dd7e9ac3ac1396973ca0a0ee5c",
          "transactionIndex": "0x4",
          "logIndex": "0x7",
          "removed": false
        },
        {
          "address": "0x0d6ff5b680b6544648d2fb8f0ba751e3f534f868",
          "topics": [
            "0xf8e1a15aba9398e019f0b49df1a4fde98ee17ae345cb5f6b5e2c27f5033e8ce7"
          ],
          "data": "0x0000000000000000000000000000000000000000000000000000000000000001",
          "blockHash": "0x7984ac343ec83647b046d2bdd3b45ccd33dfc99f0d9a4b048eaa90152dc32f5b",
          "blockNumber": "0x154ac154",
          "transactionHash": "0x295e0c4bc8de0418c5abca2cc2e841804024a4dd7e9ac3ac1396973ca0a0ee5c",
          "transactionIndex": "0x4",
          "logIndex": "0x8",
          "removed": false
        },
        {
          "address": "0x0d6ff5b680b6544648d2fb8f0ba751e3f534f868",
          "topics": [
            "0xfa6883374d3785c826e28c69c68c1b6dd2178accc8623f49c6829a75487419b3",
            "0x00000000000000000000000013b9cbcb46ad79878af8c9faa835bee19b977d3d",
            "0x0000000000000000000000000000000000000000000000000000000000000001",
            "0x0000000000000000000000000000000000000000000000000000000000000000"
          ],
          "data": "0x00000000000000000000000000000000000000000000000000000000000000200000000000000000000000000000000000000000000000000000000000000000",
          "blockHash": "0x7984ac343ec83647b046d2bdd3b45ccd33dfc99f0d9a4b048eaa90152dc32f5b",
          "blockNumber": "0x154ac154",
          "transactionHash": "0x295e0c4bc8de0418c5abca2cc2e841804024a4dd7e9ac3ac1396973ca0a0ee5c",
          "transactionIndex": "0x4",
          "logIndex": "0x9",
          "removed": false
        },
        {
          "address": "0x0d6ff5b680b6544648d2fb8f0ba751e3f534f868",
          "topics": [
            "0xc7f505b2f371ae2175ee4913f4499e1f2633a7b5936321eed1cdaeb6115181d2"
          ],
          "data": "0x0000000000000000000000000000000000000000000000000000000000000001",
          "blockHash": "0x7984ac343ec83647b046d2bdd3b45ccd33dfc99f0d9a4b048eaa90152dc32f5b",
          "blockNumber": "0x154ac154",
          "transactionHash": "0x295e0c4bc8de0418c5abca2cc2e841804024a4dd7e9ac3ac1396973ca0a0ee5c",
          "transactionIndex": "0x4",
          "logIndex": "0xa",
          "removed": false
        },
        {
          "address": "0xbdb5201565925ae934a5622f0e7091affceed5eb",
          "topics": [
            "0x8dc66cafb77b325538c856bfa5892b31ca7305adfa48f6a09e030e261cda0795",
            "0x0000000000000000000000000d6ff5b680b6544648d2fb8f0ba751e3f534f868",
            "0x000000000000000000000000c425a68df03764f648883b961eb982f087fe22ca"
          ],
          "data": "0x00000000000000000000000000000000000000000000000000000000000007d2",
          "blockHash": "0x7984ac343ec83647b046d2bdd3b45ccd33dfc99f0d9a4b048eaa90152dc32f5b",
          "blockNumber": "0x154ac154",
          "transactionHash": "0x295e0c4bc8de0418c5abca2cc2e841804024a4dd7e9ac3ac1396973ca0a0ee5c",
          "transactionIndex": "0x4",
          "logIndex": "0xb",
          "removed": false
        }
      ],
      "logsBloom": "0x00000000000000800000000000000000000000000000000000000000000000000000000000000000000000000000000000000100000000000010000004040000000000000000020000000108000400000000000000040000000000800000000001000000020000000000000000000800000000000000000000000010040000000000000000000000800800000000000000000000000080000000001800400084000000000000000000000000000000002000000001000000000000000000008000000002000000000000000000100000000000000004400000000000000060000000000000008000200000000000000000000000000000000000000000000080",
      "type": "0x2",
      "transactionHash": "0x295e0c4bc8de0418c5abca2cc2e841804024a4dd7e9ac3ac1396973ca0a0ee5c",
      "transactionIndex": "0x4",
      "blockHash": "0x7984ac343ec83647b046d2bdd3b45ccd33dfc99f0d9a4b048eaa90152dc32f5b",
      "blockNumber": "0x154ac154",
      "gasUsed": "0x3e9aa",
      "effectiveGasPrice": "0x989680",
      "from": "0x13b9cbcb46ad79878af8c9faa835bee19b977d3d",
      "to": "0xc425a68df03764f648883b961eb982f087fe22ca",
      "contractAddress": null,
      "gasUsedForL1": "0xc5c",
      "l1BlockNumber": "0x15d91c9",
      "timeboosted": false
    },
    {
      "status": "0x1",
      "cumulativeGasUsed": "0x5f5b6d",
      "logs": [
        {
          "address": "0xc97569346eaca456c6af8fe03c298ddb023f9136",
          "topics": [
            "0xddf252ad1be2c89b69c2b068fc378daa952ba7f163c4a11628f55a4df523b3ef",
            "0x0000000000000000000000000000000000000000000000000000000000000000",
            "0x00000000000000000000000013b9cbcb46ad79878af8c9faa835bee19b977d3d",
            "0x0000000000000000000000000000000000000000000000000000000000000001"
          ],
          "data": "0x",
          "blockHash": "0xdafb9303620c79a915ff9b49e03b8177ba9fef06c85868eb540c7690857e3699",
          "blockNumber": "0x154ac15c",
          "transactionHash": "0x3f66a188bbddf85a79ac3d2ddd3f84a0bfe93ea02f89e3ba59ea921a197370f5",
          "transactionIndex": "0x30",
          "logIndex": "0x70",
          "removed": false
        },
        {
          "address": "0xc97569346eaca456c6af8fe03c298ddb023f9136",
          "topics": [
            "0xf8e1a15aba9398e019f0b49df1a4fde98ee17ae345cb5f6b5e2c27f5033e8ce7"
          ],
          "data": "0x0000000000000000000000000000000000000000000000000000000000000001",
          "blockHash": "0xdafb9303620c79a915ff9b49e03b8177ba9fef06c85868eb540c7690857e3699",
          "blockNumber": "0x154ac15c",
          "transactionHash": "0x3f66a188bbddf85a79ac3d2ddd3f84a0bfe93ea02f89e3ba59ea921a197370f5",
          "transactionIndex": "0x30",
          "logIndex": "0x71",
          "removed": false
        },
        {
          "address": "0xc97569346eaca456c6af8fe03c298ddb023f9136",
          "topics": [
            "0xfa6883374d3785c826e28c69c68c1b6dd2178accc8623f49c6829a75487419b3",
            "0x00000000000000000000000013b9cbcb46ad79878af8c9faa835bee19b977d3d",
            "0x0000000000000000000000000000000000000000000000000000000000000001",
            "0x0000000000000000000000000000000000000000000000000000000000000000"
          ],
          "data": "0x00000000000000000000000000000000000000000000000000000000000000200000000000000000000000000000000000000000000000000000000000000000",
          "blockHash": "0xdafb9303620c79a915ff9b49e03b8177ba9fef06c85868eb540c7690857e3699",
          "blockNumber": "0x154ac15c",
          "transactionHash": "0x3f66a188bbddf85a79ac3d2ddd3f84a0bfe93ea02f89e3ba59ea921a197370f5",
          "transactionIndex": "0x30",
          "logIndex": "0x72",
          "removed": false
        },
        {
          "address": "0xc97569346eaca456c6af8fe03c298ddb023f9136",
          "topics": [
            "0xc7f505b2f371ae2175ee4913f4499e1f2633a7b5936321eed1cdaeb6115181d2"
          ],
          "data": "0x0000000000000000000000000000000000000000000000000000000000000001",
          "blockHash": "0xdafb9303620c79a915ff9b49e03b8177ba9fef06c85868eb540c7690857e3699",
          "blockNumber": "0x154ac15c",
          "transactionHash": "0x3f66a188bbddf85a79ac3d2ddd3f84a0bfe93ea02f89e3ba59ea921a197370f5",
          "transactionIndex": "0x30",
          "logIndex": "0x73",
          "removed": false
        },
        {
          "address": "0xbdb5201565925ae934a5622f0e7091affceed5eb",
          "topics": [
            "0x8dc66cafb77b325538c856bfa5892b31ca7305adfa48f6a09e030e261cda0795",
            "0x000000000000000000000000c97569346eaca456c6af8fe03c298ddb023f9136",
            "0x000000000000000000000000c425a68df03764f648883b961eb982f087fe22ca"
          ],
          "data": "0x00000000000000000000000000000000000000000000000000000000000007d2",
          "blockHash": "0xdafb9303620c79a915ff9b49e03b8177ba9fef06c85868eb540c7690857e3699",
          "blockNumber": "0x154ac15c",
          "transactionHash": "0x3f66a188bbddf85a79ac3d2ddd3f84a0bfe93ea02f89e3ba59ea921a197370f5",
          "transactionIndex": "0x30",
          "logIndex": "0x74",
          "removed": false
        }
      ],
      "logsBloom": "0x00000000000000800000000000000000000000000000000000008000000000000000000000000000000000000000000000000100000000000010000000040000000000000000020000000108000000000000000000040000000000800000000800000000020000000000000000000800000000000000000000000010000000000000000000000000000800000000000002000000000080000000001820400080000000000000000000000000000008002000000001000000000000000000008000000002000000000000000000100000000000000004400004000000000060000000000000008000200000000000000000000000000000000000000000000080",
      "type": "0x2",
      "transactionHash": "0x3f66a188bbddf85a79ac3d2ddd3f84a0bfe93ea02f89e3ba59ea921a197370f5",
      "transactionIndex": "0x30",
      "blockHash": "0xdafb9303620c79a915ff9b49e03b8177ba9fef06c85868eb540c7690857e3699",
      "blockNumber": "0x154ac15c",
      "gasUsed": "0x3e972",
      "effectiveGasPrice": "0x989680",
      "from": "0x13b9cbcb46ad79878af8c9faa835bee19b977d3d",
      "to": "0xc425a68df03764f648883b961eb982f087fe22ca",
      "contractAddress": null,
      "gasUsedForL1": "0xc24",
      "l1BlockNumber": "0x15d91c9",
      "timeboosted": false
    },
    {
      "status": "0x1",
      "cumulativeGasUsed": "0x43ffd",
      "logs": [
        {
          "address": "0x7963f799bcd782c61aee63eacad6c7eb375ea003",
          "topics": [
            "0xddf252ad1be2c89b69c2b068fc378daa952ba7f163c4a11628f55a4df523b3ef",
            "0x0000000000000000000000000000000000000000000000000000000000000000",
            "0x00000000000000000000000013b9cbcb46ad79878af8c9faa835bee19b977d3d",
            "0x0000000000000000000000000000000000000000000000000000000000000001"
          ],
          "data": "0x",
          "blockHash": "0x14b46d5444baf02c292e8c326053a07aa54d537cd323801c36cf2f426d4ce0b5",
          "blockNumber": "0x154ac164",
          "transactionHash": "0x6b6512a7be562f6979121e6eb59617837448f3839b36e5efa522f02aebe3781b",
          "transactionIndex": "0x2",
          "logIndex": "0x0",
          "removed": false
        },
        {
          "address": "0x7963f799bcd782c61aee63eacad6c7eb375ea003",
          "topics": [
            "0xf8e1a15aba9398e019f0b49df1a4fde98ee17ae345cb5f6b5e2c27f5033e8ce7"
          ],
          "data": "0x0000000000000000000000000000000000000000000000000000000000000001",
          "blockHash": "0x14b46d5444baf02c292e8c326053a07aa54d537cd323801c36cf2f426d4ce0b5",
          "blockNumber": "0x154ac164",
          "transactionHash": "0x6b6512a7be562f6979121e6eb59617837448f3839b36e5efa522f02aebe3781b",
          "transactionIndex": "0x2",
          "logIndex": "0x1",
          "removed": false
        },
        {
          "address": "0x7963f799bcd782c61aee63eacad6c7eb375ea003",
          "topics": [
            "0xfa6883374d3785c826e28c69c68c1b6dd2178accc8623f49c6829a75487419b3",
            "0x00000000000000000000000013b9cbcb46ad79878af8c9faa835bee19b977d3d",
            "0x0000000000000000000000000000000000000000000000000000000000000001",
            "0x0000000000000000000000000000000000000000000000000000000000000000"
          ],
          "data": "0x00000000000000000000000000000000000000000000000000000000000000200000000000000000000000000000000000000000000000000000000000000000",
          "blockHash": "0x14b46d5444baf02c292e8c326053a07aa54d537cd323801c36cf2f426d4ce0b5",
          "blockNumber": "0x154ac164",
          "transactionHash": "0x6b6512a7be562f6979121e6eb59617837448f3839b36e5efa522f02aebe3781b",
          "transactionIndex": "0x2",
          "logIndex": "0x2",
          "removed": false
        },
        {
          "address": "0x7963f799bcd782c61aee63eacad6c7eb375ea003",
          "topics": [
            "0xc7f505b2f371ae2175ee4913f4499e1f2633a7b5936321eed1cdaeb6115181d2"
          ],
          "data": "0x0000000000000000000000000000000000000000000000000000000000000001",
          "blockHash": "0x14b46d5444baf02c292e8c326053a07aa54d537cd323801c36cf2f426d4ce0b5",
          "blockNumber": "0x154ac164",
          "transactionHash": "0x6b6512a7be562f6979121e6eb59617837448f3839b36e5efa522f02aebe3781b",
          "transactionIndex": "0x2",
          "logIndex": "0x3",
          "removed": false
        },
        {
          "address": "0xbdb5201565925ae934a5622f0e7091affceed5eb",
          "topics": [
            "0x8dc66cafb77b325538c856bfa5892b31ca7305adfa48f6a09e030e261cda0795",
            "0x0000000000000000000000007963f799bcd782c61aee63eacad6c7eb375ea003",
            "0x000000000000000000000000c425a68df03764f648883b961eb982f087fe22ca"
          ],
          "data": "0x00000000000000000000000000000000000000000000000000000000000007d2",
          "blockHash": "0x14b46d5444baf02c292e8c326053a07aa54d537cd323801c36cf2f426d4ce0b5",
          "blockNumber": "0x154ac164",
          "transactionHash": "0x6b6512a7be562f6979121e6eb59617837448f3839b36e5efa522f02aebe3781b",
          "transactionIndex": "0x2",
          "logIndex": "0x4",
          "removed": false
        }
      ],
      "logsBloom": "0x00000000000000800000000000000000000000000000000000000000000000000000000000000000000000000000000000000100000000000010000000040000000008000000020000000108000000000000000000040000001000800000020000000000020000000000000000000800000000000000200000000010000000000000000000000000000800000000000000000000000080000000001800400080000000000000000000000000000000002000000001000010000000000000008000000002000000000000000000100000000000010004400000000000000060000000000000008000200000000000000000000000000000000000000000000080",
      "type": "0x2",
      "transactionHash": "0x6b6512a7be562f6979121e6eb59617837448f3839b36e5efa522f02aebe3781b",
      "transactionIndex": "0x2",
      "blockHash": "0x14b46d5444baf02c292e8c326053a07aa54d537cd323801c36cf2f426d4ce0b5",
      "blockNumber": "0x154ac164",
      "gasUsed": "0x3e9aa",
      "effectiveGasPrice": "0x989680",
      "from": "0x13b9cbcb46ad79878af8c9faa835bee19b977d3d",
      "to": "0xc425a68df03764f648883b961eb982f087fe22ca",
      "contractAddress": null,
      "gasUsedForL1": "0xc5c",
      "l1BlockNumber": "0x15d91c9",
      "timeboosted": false
    },
    {
      "status": "0x1",
      "cumulativeGasUsed": "0x48b3e",
      "logs": [
        {
          "address": "0xd362871356647b718265ded4fc04eb3128abaac7",
          "topics": [
            "0xddf252ad1be2c89b69c2b068fc378daa952ba7f163c4a11628f55a4df523b3ef",
            "0x0000000000000000000000000000000000000000000000000000000000000000",
            "0x00000000000000000000000013b9cbcb46ad79878af8c9faa835bee19b977d3d",
            "0x0000000000000000000000000000000000000000000000000000000000000001"
          ],
          "data": "0x",
          "blockHash": "0xd62449b75376540fca84f5faa5a7905ef6509ebe1ebb0f0d2baef7e42db42cfa",
          "blockNumber": "0x154ac16c",
          "transactionHash": "0x07697a5746dc0d75e53d43e50062f405e03064a62eb51e2f4780da29f545f585",
          "transactionIndex": "0x2",
          "logIndex": "0x0",
          "removed": false
        },
        {
          "address": "0xd362871356647b718265ded4fc04eb3128abaac7",
          "topics": [
            "0xf8e1a15aba9398e019f0b49df1a4fde98ee17ae345cb5f6b5e2c27f5033e8ce7"
          ],
          "data": "0x0000000000000000000000000000000000000000000000000000000000000001",
          "blockHash": "0xd62449b75376540fca84f5faa5a7905ef6509ebe1ebb0f0d2baef7e42db42cfa",
          "blockNumber": "0x154ac16c",
          "transactionHash": "0x07697a5746dc0d75e53d43e50062f405e03064a62eb51e2f4780da29f545f585",
          "transactionIndex": "0x2",
          "logIndex": "0x1",
          "removed": false
        },
        {
          "address": "0xd362871356647b718265ded4fc04eb3128abaac7",
          "topics": [
            "0xfa6883374d3785c826e28c69c68c1b6dd2178accc8623f49c6829a75487419b3",
            "0x00000000000000000000000013b9cbcb46ad79878af8c9faa835bee19b977d3d",
            "0x0000000000000000000000000000000000000000000000000000000000000001",
            "0x0000000000000000000000000000000000000000000000000000000000000000"
          ],
          "data": "0x00000000000000000000000000000000000000000000000000000000000000200000000000000000000000000000000000000000000000000000000000000000",
          "blockHash": "0xd62449b75376540fca84f5faa5a7905ef6509ebe1ebb0f0d2baef7e42db42cfa",
          "blockNumber": "0x154ac16c",
          "transactionHash": "0x07697a5746dc0d75e53d43e50062f405e03064a62eb51e2f4780da29f545f585",
          "transactionIndex": "0x2",
          "logIndex": "0x2",
          "removed": false
        },
        {
          "address": "0xd362871356647b718265ded4fc04eb3128abaac7",
          "topics": [
            "0xc7f505b2f371ae2175ee4913f4499e1f2633a7b5936321eed1cdaeb6115181d2"
          ],
          "data": "0x0000000000000000000000000000000000000000000000000000000000000001",
          "blockHash": "0xd62449b75376540fca84f5faa5a7905ef6509ebe1ebb0f0d2baef7e42db42cfa",
          "blockNumber": "0x154ac16c",
          "transactionHash": "0x07697a5746dc0d75e53d43e50062f405e03064a62eb51e2f4780da29f545f585",
          "transactionIndex": "0x2",
          "logIndex": "0x3",
          "removed": false
        },
        {
          "address": "0xbdb5201565925ae934a5622f0e7091affceed5eb",
          "topics": [
            "0x8dc66cafb77b325538c856bfa5892b31ca7305adfa48f6a09e030e261cda0795",
            "0x000000000000000000000000d362871356647b718265ded4fc04eb3128abaac7",
            "0x000000000000000000000000c425a68df03764f648883b961eb982f087fe22ca"
          ],
          "data": "0x00000000000000000000000000000000000000000000000000000000000007d2",
          "blockHash": "0xd62449b75376540fca84f5faa5a7905ef6509ebe1ebb0f0d2baef7e42db42cfa",
          "blockNumber": "0x154ac16c",
          "transactionHash": "0x07697a5746dc0d75e53d43e50062f405e03064a62eb51e2f4780da29f545f585",
          "transactionIndex": "0x2",
          "logIndex": "0x4",
          "removed": false
        }
      ],
      "logsBloom": "0x00000000004000800000000000000000000000000000000000000000000000000000000000000000000000000000000000000100000080000010000000040000000000000004020000000108000000000000000000040040000000800000000000000000020000000000000000000800000000000000000000000010000000000000000000000000000800000000000000000000000080000000001800400080000000000000000000000000000000002000000001000000000000000000008008000002000000000000000000100000000000000004400000000000000060000000000000008000a00000000000000000000000000000000000000000000080",
      "type": "0x2",
      "transactionHash": "0x07697a5746dc0d75e53d43e50062f405e03064a62eb51e2f4780da29f545f585",
      "transactionIndex": "0x2",
      "blockHash": "0xd62449b75376540fca84f5faa5a7905ef6509ebe1ebb0f0d2baef7e42db42cfa",
      "blockNumber": "0x154ac16c",
      "gasUsed": "0x3e9bd",
      "effectiveGasPrice": "0x989680",
      "from": "0x13b9cbcb46ad79878af8c9faa835bee19b977d3d",
      "to": "0xc425a68df03764f648883b961eb982f087fe22ca",
      "contractAddress": null,
      "gasUsedForL1": "0xc6f",
      "l1BlockNumber": "0x15d91c9",
      "timeboosted": false
    },
    {
      "status": "0x1",
      "cumulativeGasUsed": "0x5bec6",
      "logs": [
        {
          "address": "0x0ca039bb61010b731c2d2e5735c349a912861964",
          "topics": [
            "0xddf252ad1be2c89b69c2b068fc378daa952ba7f163c4a11628f55a4df523b3ef",
            "0x0000000000000000000000000000000000000000000000000000000000000000",
            "0x00000000000000000000000013b9cbcb46ad79878af8c9faa835bee19b977d3d",
            "0x0000000000000000000000000000000000000000000000000000000000000001"
          ],
          "data": "0x",
          "blockHash": "0x66f8717b8329083a27a495e5893c63c3f458b9c13bd4049ee85ae09cf4685946",
          "blockNumber": "0x154ac174",
          "transactionHash": "0x114908e8faa0e215431a31e25e0f1a449a40c6881c0a65297903c01531b9d375",
          "transactionIndex": "0x2",
          "logIndex": "0x5",
          "removed": false
        },
        {
          "address": "0x0ca039bb61010b731c2d2e5735c349a912861964",
          "topics": [
            "0xf8e1a15aba9398e019f0b49df1a4fde98ee17ae345cb5f6b5e2c27f5033e8ce7"
          ],
          "data": "0x0000000000000000000000000000000000000000000000000000000000000001",
          "blockHash": "0x66f8717b8329083a27a495e5893c63c3f458b9c13bd4049ee85ae09cf4685946",
          "blockNumber": "0x154ac174",
          "transactionHash": "0x114908e8faa0e215431a31e25e0f1a449a40c6881c0a65297903c01531b9d375",
          "transactionIndex": "0x2",
          "logIndex": "0x6",
          "removed": false
        },
        {
          "address": "0x0ca039bb61010b731c2d2e5735c349a912861964",
          "topics": [
            "0xfa6883374d3785c826e28c69c68c1b6dd2178accc8623f49c6829a75487419b3",
            "0x00000000000000000000000013b9cbcb46ad79878af8c9faa835bee19b977d3d",
            "0x0000000000000000000000000000000000000000000000000000000000000001",
            "0x0000000000000000000000000000000000000000000000000000000000000000"
          ],
          "data": "0x00000000000000000000000000000000000000000000000000000000000000200000000000000000000000000000000000000000000000000000000000000000",
          "blockHash": "0x66f8717b8329083a27a495e5893c63c3f458b9c13bd4049ee85ae09cf4685946",
          "blockNumber": "0x154ac174",
          "transactionHash": "0x114908e8faa0e215431a31e25e0f1a449a40c6881c0a65297903c01531b9d375",
          "transactionIndex": "0x2",
          "logIndex": "0x7",
          "removed": false
        },
        {
          "address": "0x0ca039bb61010b731c2d2e5735c349a912861964",
          "topics": [
            "0xc7f505b2f371ae2175ee4913f4499e1f2633a7b5936321eed1cdaeb6115181d2"
          ],
          "data": "0x0000000000000000000000000000000000000000000000000000000000000001",
          "blockHash": "0x66f8717b8329083a27a495e5893c63c3f458b9c13bd4049ee85ae09cf4685946",
          "blockNumber": "0x154ac174",
          "transactionHash": "0x114908e8faa0e215431a31e25e0f1a449a40c6881c0a65297903c01531b9d375",
          "transactionIndex": "0x2",
          "logIndex": "0x8",
          "removed": false
        },
        {
          "address": "0xbdb5201565925ae934a5622f0e7091affceed5eb",
          "topics": [
            "0x8dc66cafb77b325538c856bfa5892b31ca7305adfa48f6a09e030e261cda0795",
            "0x0000000000000000000000000ca039bb61010b731c2d2e5735c349a912861964",
            "0x000000000000000000000000c425a68df03764f648883b961eb982f087fe22ca"
          ],
          "data": "0x00000000000000000000000000000000000000000000000000000000000007d2",
          "blockHash": "0x66f8717b8329083a27a495e5893c63c3f458b9c13bd4049ee85ae09cf4685946",
          "blockNumber": "0x154ac174",
          "transactionHash": "0x114908e8faa0e215431a31e25e0f1a449a40c6881c0a65297903c01531b9d375",
          "transactionIndex": "0x2",
          "logIndex": "0x9",
          "removed": false
        }
      ],
      "logsBloom": "0x00000000000000800000000000000000000000000000000000000000000000000000000000000000000000200000100000000100000000000010000000040000000000010000020000000108000000000000000000040000000000c00000000000000000020000000000000000000800000000000000000000000010000000000000000000000000000800000000000000000000000080000000001800400080000000000000000000000000000010002000000001000000000000000000008000000002000000000000000000100000000000000004400000000000000060000000000000008000200000400000000000000000000000000000000000000080",
      "type": "0x2",
      "transactionHash": "0x114908e8faa0e215431a31e25e0f1a449a40c6881c0a65297903c01531b9d375",
      "transactionIndex": "0x2",
      "blockHash": "0x66f8717b8329083a27a495e5893c63c3f458b9c13bd4049ee85ae09cf4685946",
      "blockNumber": "0x154ac174",
      "gasUsed": "0x3e9d0",
      "effectiveGasPrice": "0x989680",
      "from": "0x13b9cbcb46ad79878af8c9faa835bee19b977d3d",
      "to": "0xc425a68df03764f648883b961eb982f087fe22ca",
      "contractAddress": null,
      "gasUsedForL1": "0xc82",
      "l1BlockNumber": "0x15d91c9",
      "timeboosted": false
    },
    {
      "status": "0x1",
      "cumulativeGasUsed": "0x94d6b",
      "logs": [
        {
          "address": "0xaaa7da2a98629d65f0caced11d06f0d94a0211fd",
          "topics": [
            "0xddf252ad1be2c89b69c2b068fc378daa952ba7f163c4a11628f55a4df523b3ef",
            "0x0000000000000000000000000000000000000000000000000000000000000000",
            "0x00000000000000000000000013b9cbcb46ad79878af8c9faa835bee19b977d3d",
            "0x0000000000000000000000000000000000000000000000000000000000000001"
          ],
          "data": "0x",
          "blockHash": "0xc4ed02466f8cbc7672624a845e4ae94f7f0a4905f34f379d279fe0d05e8e8776",
          "blockNumber": "0x154ac17c",
          "transactionHash": "0xcf9c726b535ad9b61529a5c2e72b4b53d8b6bc555460f1f290e979347f036f0f",
          "transactionIndex": "0x3",
          "logIndex": "0x8",
          "removed": false
        },
        {
          "address": "0xaaa7da2a98629d65f0caced11d06f0d94a0211fd",
          "topics": [
            "0xf8e1a15aba9398e019f0b49df1a4fde98ee17ae345cb5f6b5e2c27f5033e8ce7"
          ],
          "data": "0x0000000000000000000000000000000000000000000000000000000000000001",
          "blockHash": "0xc4ed02466f8cbc7672624a845e4ae94f7f0a4905f34f379d279fe0d05e8e8776",
          "blockNumber": "0x154ac17c",
          "transactionHash": "0xcf9c726b535ad9b61529a5c2e72b4b53d8b6bc555460f1f290e979347f036f0f",
          "transactionIndex": "0x3",
          "logIndex": "0x9",
          "removed": false
        },
        {
          "address": "0xaaa7da2a98629d65f0caced11d06f0d94a0211fd",
          "topics": [
            "0xfa6883374d3785c826e28c69c68c1b6dd2178accc8623f49c6829a75487419b3",
            "0x00000000000000000000000013b9cbcb46ad79878af8c9faa835bee19b977d3d",
            "0x0000000000000000000000000000000000000000000000000000000000000001",
            "0x0000000000000000000000000000000000000000000000000000000000000000"
          ],
          "data": "0x00000000000000000000000000000000000000000000000000000000000000200000000000000000000000000000000000000000000000000000000000000000",
          "blockHash": "0xc4ed02466f8cbc7672624a845e4ae94f7f0a4905f34f379d279fe0d05e8e8776",
          "blockNumber": "0x154ac17c",
          "transactionHash": "0xcf9c726b535ad9b61529a5c2e72b4b53d8b6bc555460f1f290e979347f036f0f",
          "transactionIndex": "0x3",
          "logIndex": "0xa",
          "removed": false
        },
        {
          "address": "0xaaa7da2a98629d65f0caced11d06f0d94a0211fd",
          "topics": [
            "0xc7f505b2f371ae2175ee4913f4499e1f2633a7b5936321eed1cdaeb6115181d2"
          ],
          "data": "0x0000000000000000000000000000000000000000000000000000000000000001",
          "blockHash": "0xc4ed02466f8cbc7672624a845e4ae94f7f0a4905f34f379d279fe0d05e8e8776",
          "blockNumber": "0x154ac17c",
          "transactionHash": "0xcf9c726b535ad9b61529a5c2e72b4b53d8b6bc555460f1f290e979347f036f0f",
          "transactionIndex": "0x3",
          "logIndex": "0xb",
          "removed": false
        },
        {
          "address": "0xbdb5201565925ae934a5622f0e7091affceed5eb",
          "topics": [
            "0x8dc66cafb77b325538c856bfa5892b31ca7305adfa48f6a09e030e261cda0795",
            "0x000000000000000000000000aaa7da2a98629d65f0caced11d06f0d94a0211fd",
            "0x000000000000000000000000c425a68df03764f648883b961eb982f087fe22ca"
          ],
          "data": "0x00000000000000000000000000000000000000000000000000000000000007d2",
          "blockHash": "0xc4ed02466f8cbc7672624a845e4ae94f7f0a4905f34f379d279fe0d05e8e8776",
          "blockNumber": "0x154ac17c",
          "transactionHash": "0xcf9c726b535ad9b61529a5c2e72b4b53d8b6bc555460f1f290e979347f036f0f",
          "transactionIndex": "0x3",
          "logIndex": "0xc",
          "removed": false
        }
      ],
      "logsBloom": "0x10000000000000800000000000000000000000000000000000000000000000000000000000000000000000000000000000000100000000000010000000040000000000000000020000000108000000000000000000040000000000800000000000000000020000000000000000000800000000000000000000000010100000000000000000000000000800000000000000000000000080000000001800400080400008000000000000000000000000002000000001000000000000000000008000100002000000000000000000100000000000000004400000000000000060000000000000008000200000400000000000000000000000000000000000000080",
      "type": "0x2",
      "transactionHash": "0xcf9c726b535ad9b61529a5c2e72b4b53d8b6bc555460f1f290e979347f036f0f",
      "transactionIndex": "0x3",
      "blockHash": "0xc4ed02466f8cbc7672624a845e4ae94f7f0a4905f34f379d279fe0d05e8e8776",
      "blockNumber": "0x154ac17c",
      "gasUsed": "0x3e985",
      "effectiveGasPrice": "0x989680",
      "from": "0x13b9cbcb46ad79878af8c9faa835bee19b977d3d",
      "to": "0xc425a68df03764f648883b961eb982f087fe22ca",
      "contractAddress": null,
      "gasUsedForL1": "0xc37",
      "l1BlockNumber": "0x15d91c9",
      "timeboosted": false
    },
    {
      "status": "0x1",
      "cumulativeGasUsed": "0x8b3ff6",
      "logs": [
        {
          "address": "0x1ce529c06016a0bc90838c83d6c0e77fe7dfab28",
          "topics": [
            "0xddf252ad1be2c89b69c2b068fc378daa952ba7f163c4a11628f55a4df523b3ef",
            "0x0000000000000000000000000000000000000000000000000000000000000000",
            "0x00000000000000000000000013b9cbcb46ad79878af8c9faa835bee19b977d3d",
            "0x0000000000000000000000000000000000000000000000000000000000000001"
          ],
          "data": "0x",
          "blockHash": "0x6c70d79e2b6d1067b9ebb2ea7e31756fdfaf98d89703933a09b10a7886f351c3",
          "blockNumber": "0x154ac183",
          "transactionHash": "0xaccda2348dbb918617d06e80b7445b13d42776141dc759b09192cedbb7689b03",
          "transactionIndex": "0x4b",
          "logIndex": "0xa6",
          "removed": false
        },
        {
          "address": "0x1ce529c06016a0bc90838c83d6c0e77fe7dfab28",
          "topics": [
            "0xf8e1a15aba9398e019f0b49df1a4fde98ee17ae345cb5f6b5e2c27f5033e8ce7"
          ],
          "data": "0x0000000000000000000000000000000000000000000000000000000000000001",
          "blockHash": "0x6c70d79e2b6d1067b9ebb2ea7e31756fdfaf98d89703933a09b10a7886f351c3",
          "blockNumber": "0x154ac183",
          "transactionHash": "0xaccda2348dbb918617d06e80b7445b13d42776141dc759b09192cedbb7689b03",
          "transactionIndex": "0x4b",
          "logIndex": "0xa7",
          "removed": false
        },
        {
          "address": "0x1ce529c06016a0bc90838c83d6c0e77fe7dfab28",
          "topics": [
            "0xfa6883374d3785c826e28c69c68c1b6dd2178accc8623f49c6829a75487419b3",
            "0x00000000000000000000000013b9cbcb46ad79878af8c9faa835bee19b977d3d",
            "0x0000000000000000000000000000000000000000000000000000000000000001",
            "0x0000000000000000000000000000000000000000000000000000000000000000"
          ],
          "data": "0x00000000000000000000000000000000000000000000000000000000000000200000000000000000000000000000000000000000000000000000000000000000",
          "blockHash": "0x6c70d79e2b6d1067b9ebb2ea7e31756fdfaf98d89703933a09b10a7886f351c3",
          "blockNumber": "0x154ac183",
          "transactionHash": "0xaccda2348dbb918617d06e80b7445b13d42776141dc759b09192cedbb7689b03",
          "transactionIndex": "0x4b",
          "logIndex": "0xa8",
          "removed": false
        },
        {
          "address": "0x1ce529c06016a0bc90838c83d6c0e77fe7dfab28",
          "topics": [
            "0xc7f505b2f371ae2175ee4913f4499e1f2633a7b5936321eed1cdaeb6115181d2"
          ],
          "data": "0x0000000000000000000000000000000000000000000000000000000000000001",
          "blockHash": "0x6c70d79e2b6d1067b9ebb2ea7e31756fdfaf98d89703933a09b10a7886f351c3",
          "blockNumber": "0x154ac183",
          "transactionHash": "0xaccda2348dbb918617d06e80b7445b13d42776141dc759b09192cedbb7689b03",
          "transactionIndex": "0x4b",
          "logIndex": "0xa9",
          "removed": false
        },
        {
          "address": "0xbdb5201565925ae934a5622f0e7091affceed5eb",
          "topics": [
            "0x8dc66cafb77b325538c856bfa5892b31ca7305adfa48f6a09e030e261cda0795",
            "0x0000000000000000000000001ce529c06016a0bc90838c83d6c0e77fe7dfab28",
            "0x000000000000000000000000c425a68df03764f648883b961eb982f087fe22ca"
          ],
          "data": "0x00000000000000000000000000000000000000000000000000000000000007d2",
          "blockHash": "0x6c70d79e2b6d1067b9ebb2ea7e31756fdfaf98d89703933a09b10a7886f351c3",
          "blockNumber": "0x154ac183",
          "transactionHash": "0xaccda2348dbb918617d06e80b7445b13d42776141dc759b09192cedbb7689b03",
          "transactionIndex": "0x4b",
          "logIndex": "0xaa",
          "removed": false
        }
      ],
      "logsBloom": "0x0000000000000080000000000000000000000000000000000000000000000000000000000000000000000000000000000000010000040000001000000004000000000000200002000000010a000000000000000000040000000000800000000000000000020000000000000000000800000000000000000000000010000000000000000000000000000800100400000000000000000080000000001800400082000000000000000000000000000000002000000001000000000000000000008000000002000000000000000000100000000000000004400000000000000060000000000000008000200000000000000000000000000000000000000000000080",
      "type": "0x2",
      "transactionHash": "0xaccda2348dbb918617d06e80b7445b13d42776141dc759b09192cedbb7689b03",
      "transactionIndex": "0x4b",
      "blockHash": "0x6c70d79e2b6d1067b9ebb2ea7e31756fdfaf98d89703933a09b10a7886f351c3",
      "blockNumber": "0x154ac183",
      "gasUsed": "0x3e9aa",
      "effectiveGasPrice": "0x989680",
      "from": "0x13b9cbcb46ad79878af8c9faa835bee19b977d3d",
      "to": "0xc425a68df03764f648883b961eb982f087fe22ca",
      "contractAddress": null,
      "gasUsedForL1": "0xc5c",
      "l1BlockNumber": "0x15d91c9",
      "timeboosted": false
    }
  ],
  "libraries": [],
  "pending": [],
  "returns": {},
  "timestamp": 1752399201,
  "chain": 42161,
  "commit": "f3ae8c1"
}