{
  "transactions": [
    {
      "hash": "0xe1c93dd8d1da22b0212cc4e80e4e0c58d9e77a4d0809294af7582a5e53f966f8",
      "transactionType": "CALL",
      "contractName": null,
      "contractAddress": "0x24f15fc420ff0773f9e949c9ce3474a696e26608",
      "function": "setSignerStatus(address,bool)",
      "arguments": [
        "0x7EC0BF0a4D535Ea220c6bD961e352B752906D568",
        "true"
      ],
      "transaction": {
        "from": "0x97ba7778dd9ce27bd4953c136f3b3b7b087e14c1",
        "to": "0x24f15fc420ff0773f9e949c9ce3474a696e26608",
        "gas": "0xfad9",
        "value": "0x0",
        "input": "0x8d0abcda0000000000000000000000007ec0bf0a4d535ea220c6bd961e352b752906d5680000000000000000000000000000000000000000000000000000000000000001",
        "nonce": "0x46",
        "chainId": "0xaa36a7"
      },
      "additionalContracts": [],
      "isFixedGasLimit": false
    },
    {
      "hash": "0x36a08e65d318d6d046cceccf26c9a2a0f94418513fb8a9b62dfcbb2e8cf876f0",
      "transactionType": "CALL",
      "contractName": null,
      "contractAddress": "0x24f15fc420ff0773f9e949c9ce3474a696e26608",
      "function": "setSignerStatus(address,bool)",
      "arguments": [
        "0x4b664eD07D19d0b192A037Cfb331644cA536029d",
        "true"
      ],
      "transaction": {
        "from": "0x97ba7778dd9ce27bd4953c136f3b3b7b087e14c1",
        "to": "0x24f15fc420ff0773f9e949c9ce3474a696e26608",
        "gas": "0xfad9",
        "value": "0x0",
        "input": "0x8d0abcda0000000000000000000000004b664ed07d19d0b192a037cfb331644ca536029d0000000000000000000000000000000000000000000000000000000000000001",
        "nonce": "0x47",
        "chainId": "0xaa36a7"
      },
      "additionalContracts": [],
      "isFixedGasLimit": false
    }
  ],
  "receipts": [
    {
      "status": "0x1",
      "cumulativeGasUsed": "0x7e9986",
      "logs": [],
      "logsBloom": "0x00000000000000000000000000000000000000000000000000000000000000000000000000000000000000000000000000000000000000000000000000000000000000000000000000000000000000000000000000000000000000000000000000000000000000000000000000000000000000000000000000000000000000000000000000000000000000000000000000000000000000000000000000000000000000000000000000000000000000000000000000000000000000000000000000000000000000000000000000000000000000000000000000000000000000000000000000000000000000000000000000000000000000000000000000000000",
      "type": "0x2",
      "transactionHash": "0xe1c93dd8d1da22b0212cc4e80e4e0c58d9e77a4d0809294af7582a5e53f966f8",
      "transactionIndex": "0x77",
      "blockHash": "0x17dd691582a3b20d79f072d489b7b94fcf68179ea03d47ad8cecdee5e0d75380",
      "blockNumber": "0x76043a",
      "gasUsed": "0xb59d",
      "effectiveGasPrice": "0xa026e4458",
      "from": "0x97ba7778dd9ce27bd4953c136f3b3b7b087e14c1",
      "to": "0x24f15fc420ff0773f9e949c9ce3474a696e26608",
      "contractAddress": null
    },
    {
      "status": "0x1",
      "cumulativeGasUsed": "0x7f4f23",
      "logs": [],
      "logsBloom": "0x00000000000000000000000000000000000000000000000000000000000000000000000000000000000000000000000000000000000000000000000000000000000000000000000000000000000000000000000000000000000000000000000000000000000000000000000000000000000000000000000000000000000000000000000000000000000000000000000000000000000000000000000000000000000000000000000000000000000000000000000000000000000000000000000000000000000000000000000000000000000000000000000000000000000000000000000000000000000000000000000000000000000000000000000000000000",
      "type": "0x2",
      "transactionHash": "0x36a08e65d318d6d046cceccf26c9a2a0f94418513fb8a9b62dfcbb2e8cf876f0",
      "transactionIndex": "0x78",
      "blockHash": "0x17dd691582a3b20d79f072d489b7b94fcf68179ea03d47ad8cecdee5e0d75380",
      "blockNumber": "0x76043a",
      "gasUsed": "0xb59d",
      "effectiveGasPrice": "0xa026e4458",
      "from": "0x97ba7778dd9ce27bd4953c136f3b3b7b087e14c1",
      "to": "0x24f15fc420ff0773f9e949c9ce3474a696e26608",
      "contractAddress": null
    }
  ],
  "libraries": [],
  "pending": [],
  "returns": {},
  "timestamp": 1739888281,
  "chain": 11155111,
  "commit": "7f28d97"
}