{
  "transactions": [
    {
      "hash": "0x577c1017f3c9fab9c5ce10e7fc5e3eba6fafe04e85d241f284bc34ea90e88af6",
      "transactionType": "CALL",
      "contractName": null,
      "contractAddress": "0x6f9aaaad96180b3d6c71fbbae2c1c5d5193a64ec",
      "function": null,
      "arguments": null,
      "transaction": {
        "from": "0x97ba7778dd9ce27bd4953c136f3b3b7b087e14c1",
        "to": "0x6f9aaaad96180b3d6c71fbbae2c1c5d5193a64ec",
        "gas": "0x714d",
        "value": "0x470de4df820000",
        "input": "0x",
        "nonce": "0x67",
        "chainId": "0xaa36a7"
      },
      "additionalContracts": [],
      "isFixedGasLimit": false
    },
    {
      "hash": "0x254d3ee80b59c43e21d0d8233c0b2edf1ed10be6d6af061d0bad58940406a066",
      "transactionType": "CALL",
      "contractName": "MyShchFactory",
      "contractAddress": "0xd804c5ccaa9bf0acfa635151049e8f785cc0767e",
      "function": "setSignerStatus(address,bool)",
      "arguments": [
        "0x97ba7778dD9CE27bD4953c136F3B3b7b087E14c1",
        "true"
      ],
      "transaction": {
        "from": "0x97ba7778dd9ce27bd4953c136f3b3b7b087e14c1",
        "to": "0xd804c5ccaa9bf0acfa635151049e8f785cc0767e",
        "gas": "0x97ec",
        "value": "0x0",
        "input": "0x8d0abcda00000000000000000000000097ba7778dd9ce27bd4953c136f3b3b7b087e14c10000000000000000000000000000000000000000000000000000000000000001",
        "nonce": "0x68",
        "chainId": "0xaa36a7"
      },
      "additionalContracts": [],
      "isFixedGasLimit": false
    },
    {
      "hash": "0x619e8320f59de9e133ad01429697b7a5c99906de72fd0e0508973da4e8aba2d8",
      "transactionType": "CALL",
      "contractName": "MyShchFactory",
      "contractAddress": "0xd804c5ccaa9bf0acfa635151049e8f785cc0767e",
      "function": "setSignerStatus(address,bool)",
      "arguments": [
        "0x4b664eD07D19d0b192A037Cfb331644cA536029d",
        "true"
      ],
      "transaction": {
        "from": "0x97ba7778dd9ce27bd4953c136f3b3b7b087e14c1",
        "to": "0xd804c5ccaa9bf0acfa635151049e8f785cc0767e",
        "gas": "0x97ec",
        "value": "0x0",
        "input": "0x8d0abcda0000000000000000000000004b664ed07d19d0b192a037cfb331644ca536029d0000000000000000000000000000000000000000000000000000000000000001",
        "nonce": "0x69",
        "chainId": "0xaa36a7"
      },
      "additionalContracts": [],
      "isFixedGasLimit": false
    },
    {
      "hash": "0xd0ad2b9af1bc6ea31097cd0992549f0190ce878d09e84d0148f801fa4f6e84f9",
      "transactionType": "CALL",
      "contractName": "MyShchFactory",
      "contractAddress": "0xd804c5ccaa9bf0acfa635151049e8f785cc0767e",
      "function": "mintPersonalMSW(uint64,bytes)",
      "arguments": [
        "0",
        "0x"
      ],
      "transaction": {
        "from": "0x97ba7778dd9ce27bd4953c136f3b3b7b087e14c1",
        "to": "0xd804c5ccaa9bf0acfa635151049e8f785cc0767e",
        "gas": "0x6351b",
        "value": "0x0",
        "input": "0xce63f12a000000000000000000000000000000000000000000000000000000000000000000000000000000000000000000000000000000000000000000000000000000400000000000000000000000000000000000000000000000000000000000000000",
        "nonce": "0x6a",
        "chainId": "0xaa36a7"
      },
      "additionalContracts": [
        {
          "transactionType": "CREATE2",
          "address": "0xbc3249c2c51211653ad14fab2e99626d1632c0bf",
          "initCode": "0x3d602d80600a3d3981f3363d3d373d3d3d363d736a25ec152f90a9ed327f7e7b32ed46223fc5e8345af43d82803e903d91602b57fd5bf3"
        }
      ],
      "isFixedGasLimit": false
    },
    {
      "hash": "0xa043e24aec9e34cdbd39c5b0b641c3d59aaf56df86a2e199a3fcb395aba4904c",
      "transactionType": "CALL",
      "contractName": "MyShchFactory",
      "contractAddress": "0xd804c5ccaa9bf0acfa635151049e8f785cc0767e",
      "function": "mintPersonalMSW(uint64,bytes)",
      "arguments": [
        "22222",
        "0x1d25e8f044f64cb1f2bde02b8694497d0194c217bca1de9bcbe7431b5734fb9c2fccb9dd78e63799d36136ed5a62577e278b5936c0b5694518767254d64eb7d81c"
      ],
      "transaction": {
        "from": "0x6f9aaaad96180b3d6c71fbbae2c1c5d5193a64ec",
        "to": "0xd804c5ccaa9bf0acfa635151049e8f785cc0767e",
        "gas": "0x64640",
        "value": "0x2386f26fc10000",
        "input": "0xce63f12a00000000000000000000000000000000000000000000000000000000000056ce000000000000000000000000000000000000000000000000000000000000004000000000000000000000000000000000000000000000000000000000000000411d25e8f044f64cb1f2bde02b8694497d0194c217bca1de9bcbe7431b5734fb9c2fccb9dd78e63799d36136ed5a62577e278b5936c0b5694518767254d64eb7d81c00000000000000000000000000000000000000000000000000000000000000",
        "nonce": "0x2",
        "chainId": "0xaa36a7"
      },
      "additionalContracts": [
        {
          "transactionType": "CREATE2",
          "address": "0x77e6a86e1cdf651ef05b890f9869725819ae3b15",
          "initCode": "0x3d602d80600a3d3981f3363d3d373d3d3d363d736a25ec152f90a9ed327f7e7b32ed46223fc5e8345af43d82803e903d91602b57fd5bf3"
        }
      ],
      "isFixedGasLimit": false
    },
    {
      "hash": "0xdac710499d123cd317a32c7c667e493a298cc2105e3973d61343dd0394ca1ca1",
      "transactionType": "CALL",
      "contractName": null,
      "contractAddress": "0x77e6a86e1cdf651ef05b890f9869725819ae3b15",
      "function": "setRelayerStatus(address,bool)",
      "arguments": [
        "0xbc3249c2C51211653ad14fab2E99626d1632c0BF",
        "true"
      ],
      "transaction": {
        "from": "0x6f9aaaad96180b3d6c71fbbae2c1c5d5193a64ec",
        "to": "0x77e6a86e1cdf651ef05b890f9869725819ae3b15",
        "gas": "0x9f40",
        "value": "0x0",
        "input": "0x86015834000000000000000000000000bc3249c2c51211653ad14fab2e99626d1632c0bf0000000000000000000000000000000000000000000000000000000000000001",
        "nonce": "0x3",
        "chainId": "0xaa36a7"
      },
      "additionalContracts": [],
      "isFixedGasLimit": false
    },
    {
      "hash": "0xce6445bbb416f18ae5ddb2808ee971cf97861ddebc081da4fc95493b0bfce391",
      "transactionType": "CALL",
      "contractName": "MyShchFactory",
      "contractAddress": "0xd804c5ccaa9bf0acfa635151049e8f785cc0767e",
      "function": "createCustomERC20(address,string,string,uint256,(address,uint256)[])",
      "arguments": [
        "0x97ba7778dD9CE27bD4953c136F3B3b7b087E14c1",
        "Custom ERC20 Name",
        "CUSTSYM",
        "1000000000000000000000000",
        "[(0xbc3249c2C51211653ad14fab2E99626d1632c0BF, 10000000000000000000), (0x0000000000000000000000000000000000000002, 200)]"
      ],
      "transaction": {
        "from": "0x97ba7778dd9ce27bd4953c136f3b3b7b087e14c1",
        "to": "0xd804c5ccaa9bf0acfa635151049e8f785cc0767e",
        "gas": "0x5314f",
        "value": "0x0",
        "input": "0x6b5eab6a00000000000000000000000097ba7778dd9ce27bd4953c136f3b3b7b087e14c100000000000000000000000000000000000000000000000000000000000000a000000000000000000000000000000000000000000000000000000000000000e000000000000000000000000000000000000000000000d3c21bcecceda100000000000000000000000000000000000000000000000000000000000000000001200000000000000000000000000000000000000000000000000000000000000011437573746f6d204552433230204e616d6500000000000000000000000000000000000000000000000000000000000000000000000000000000000000000000074355535453594d000000000000000000000000000000000000000000000000000000000000000000000000000000000000000000000000000000000000000002000000000000000000000000bc3249c2c51211653ad14fab2e99626d1632c0bf0000000000000000000000000000000000000000000000008ac7230489e80000000000000000000000000000000000000000000000000000000000000000000200000000000000000000000000000000000000000000000000000000000000c8",
        "nonce": "0x6b",
        "chainId": "0xaa36a7"
      },
      "additionalContracts": [
        {
          "transactionType": "CREATE",
          "address": "0xb88bdf043850aace269fb05f82533029a748f2c6",
          "initCode": "0x3d602d80600a3d3981f3363d3d373d3d3d363d736178438a0bb1c6002b585a670aaa0f8c4d8b0aed5af43d82803e903d91602b57fd5bf3"
        }
      ],
      "isFixedGasLimit": false
    }
  ],
  "receipts": [
    {
      "status": "0x1",
      "cumulativeGasUsed": "0xa2a6f1",
      "logs": [],
      "logsBloom": "0x00000000000000000000000000000000000000000000000000000000000000000000000000000000000000000000000000000000000000000000000000000000000000000000000000000000000000000000000000000000000000000000000000000000000000000000000000000000000000000000000000000000000000000000000000000000000000000000000000000000000000000000000000000000000000000000000000000000000000000000000000000000000000000000000000000000000000000000000000000000000000000000000000000000000000000000000000000000000000000000000000000000000000000000000000000000",
      "type": "0x2",
      "transactionHash": "0x577c1017f3c9fab9c5ce10e7fc5e3eba6fafe04e85d241f284bc34ea90e88af6",
      "transactionIndex": "0x76",
      "blockHash": "0xd0cb6eede21419549dd6814b378065ffec93f8c05b9deb73b9d91f6ace431e1f",
      "blockNumber": "0x81f6be",
      "gasUsed": "0x5208",
      "effectiveGasPrice": "0xb328af",
      "from": "0x97ba7778dd9ce27bd4953c136f3b3b7b087e14c1",
      "to": "0x6f9aaaad96180b3d6c71fbbae2c1c5d5193a64ec",
      "contractAddress": null
    },
    {
      "status": "0x1",
      "cumulativeGasUsed": "0x13ef170",
      "logs": [],
      "logsBloom": "0x00000000000000000000000000000000000000000000000000000000000000000000000000000000000000000000000000000000000000000000000000000000000000000000000000000000000000000000000000000000000000000000000000000000000000000000000000000000000000000000000000000000000000000000000000000000000000000000000000000000000000000000000000000000000000000000000000000000000000000000000000000000000000000000000000000000000000000000000000000000000000000000000000000000000000000000000000000000000000000000000000000000000000000000000000000000",
      "type": "0x2",
      "transactionHash": "0x254d3ee80b59c43e21d0d8233c0b2edf1ed10be6d6af061d0bad58940406a066",
      "transactionIndex": "0x79",
      "blockHash": "0x95c342805fb833f798cb711006e2d962a8f704f7b52686d3827dddda0264bb04",
      "blockNumber": "0x81f6bf",
      "gasUsed": "0x67e1",
      "effectiveGasPrice": "0xaaacd9",
      "from": "0x97ba7778dd9ce27bd4953c136f3b3b7b087e14c1",
      "to": "0xd804c5ccaa9bf0acfa635151049e8f785cc0767e",
      "contractAddress": null
    },
    {
      "status": "0x1",
      "cumulativeGasUsed": "0x10ba4f7",
      "logs": [],
      "logsBloom": "0x00000000000000000000000000000000000000000000000000000000000000000000000000000000000000000000000000000000000000000000000000000000000000000000000000000000000000000000000000000000000000000000000000000000000000000000000000000000000000000000000000000000000000000000000000000000000000000000000000000000000000000000000000000000000000000000000000000000000000000000000000000000000000000000000000000000000000000000000000000000000000000000000000000000000000000000000000000000000000000000000000000000000000000000000000000000",
      "type": "0x2",
      "transactionHash": "0x619e8320f59de9e133ad01429697b7a5c99906de72fd0e0508973da4e8aba2d8",
      "transactionIndex": "0x70",
      "blockHash": "0x5661476a68ccf82dac67347d99d5bb57ac177db895647cc300ae6d6226572d95",
      "blockNumber": "0x81f6c0",
      "gasUsed": "0x67e1",
      "effectiveGasPrice": "0xa8da96",
      "from": "0x97ba7778dd9ce27bd4953c136f3b3b7b087e14c1",
      "to": "0xd804c5ccaa9bf0acfa635151049e8f785cc0767e",
      "contractAddress": null
    },
    {
      "status": "0x1",
      "cumulativeGasUsed": "0xb627d0",
      "logs": [
        {
          "address": "0xbc3249c2c51211653ad14fab2e99626d1632c0bf",
          "topics": [
            "0xddf252ad1be2c89b69c2b068fc378daa952ba7f163c4a11628f55a4df523b3ef",
            "0x0000000000000000000000000000000000000000000000000000000000000000",
            "0x00000000000000000000000097ba7778dd9ce27bd4953c136f3b3b7b087e14c1",
            "0x0000000000000000000000000000000000000000000000000000000000000001"
          ],
          "data": "0x",
          "blockHash": "0x02f434c88b8bd5bef1bf2bab99f060b2966e74bc8eb0b2f2d0e6d0a09d128f08",
          "blockNumber": "0x81f6c1",
          "transactionHash": "0xd0ad2b9af1bc6ea31097cd0992549f0190ce878d09e84d0148f801fa4f6e84f9",
          "transactionIndex": "0x76",
          "logIndex": "0xb8",
          "removed": false
        },
        {
          "address": "0xbc3249c2c51211653ad14fab2e99626d1632c0bf",
          "topics": [
            "0xf8e1a15aba9398e019f0b49df1a4fde98ee17ae345cb5f6b5e2c27f5033e8ce7"
          ],
          "data": "0x0000000000000000000000000000000000000000000000000000000000000001",
          "blockHash": "0x02f434c88b8bd5bef1bf2bab99f060b2966e74bc8eb0b2f2d0e6d0a09d128f08",
          "blockNumber": "0x81f6c1",
          "transactionHash": "0xd0ad2b9af1bc6ea31097cd0992549f0190ce878d09e84d0148f801fa4f6e84f9",
          "transactionIndex": "0x76",
          "logIndex": "0xb9",
          "removed": false
        },
        {
          "address": "0xbc3249c2c51211653ad14fab2e99626d1632c0bf",
          "topics": [
            "0xfa6883374d3785c826e28c69c68c1b6dd2178accc8623f49c6829a75487419b3",
            "0x00000000000000000000000097ba7778dd9ce27bd4953c136f3b3b7b087e14c1",
            "0x0000000000000000000000000000000000000000000000000000000000000001",
            "0x0004000000000000000000000000000000000000000000000000000000000000"
          ],
          "data": "0x00000000000000000000000000000000000000000000000000000000000000200000000000000000000000000000000000000000000000000000000000000000",
          "blockHash": "0x02f434c88b8bd5bef1bf2bab99f060b2966e74bc8eb0b2f2d0e6d0a09d128f08",
          "blockNumber": "0x81f6c1",
          "transactionHash": "0xd0ad2b9af1bc6ea31097cd0992549f0190ce878d09e84d0148f801fa4f6e84f9",
          "transactionIndex": "0x76",
          "logIndex": "0xba",
          "removed": false
        },
        {
          "address": "0xbc3249c2c51211653ad14fab2e99626d1632c0bf",
          "topics": [
            "0xc7f505b2f371ae2175ee4913f4499e1f2633a7b5936321eed1cdaeb6115181d2"
          ],
          "data": "0x0000000000000000000000000000000000000000000000000000000000000001",
          "blockHash": "0x02f434c88b8bd5bef1bf2bab99f060b2966e74bc8eb0b2f2d0e6d0a09d128f08",
          "blockNumber": "0x81f6c1",
          "transactionHash": "0xd0ad2b9af1bc6ea31097cd0992549f0190ce878d09e84d0148f801fa4f6e84f9",
          "transactionIndex": "0x76",
          "logIndex": "0xbb",
          "removed": false
        },
        {
          "address": "0xd804c5ccaa9bf0acfa635151049e8f785cc0767e",
          "topics": [
            "0x8dc66cafb77b325538c856bfa5892b31ca7305adfa48f6a09e030e261cda0795",
            "0x000000000000000000000000bc3249c2c51211653ad14fab2e99626d1632c0bf",
            "0x0000000000000000000000006a25ec152f90a9ed327f7e7b32ed46223fc5e834"
          ],
          "data": "0x00000000000000000000000000000000000000000000000000000000000007d2",
          "blockHash": "0x02f434c88b8bd5bef1bf2bab99f060b2966e74bc8eb0b2f2d0e6d0a09d128f08",
          "blockNumber": "0x81f6c1",
          "transactionHash": "0xd0ad2b9af1bc6ea31097cd0992549f0190ce878d09e84d0148f801fa4f6e84f9",
          "transactionIndex": "0x76",
          "logIndex": "0xbc",
          "removed": false
        }
      ],
      "logsBloom": "0x00000000000000800000000000000100000000000000000100000000000000000000000004000000000040400000000000000100000000000000000100040000000000000000020000000108000000000000000000040000000000000000000000800000020000000000000000000808000000000000000000004010000000000000000000400000020800000000000000000000000080000020000000000180000000000000000000000000000040002000000000000000000000000000008000000002000000000000800000100000000000000004400000010000000060000000000000000000200000004000000000000000000000000000000000000000",
      "type": "0x2",
      "transactionHash": "0xd0ad2b9af1bc6ea31097cd0992549f0190ce878d09e84d0148f801fa4f6e84f9",
      "transactionIndex": "0x76",
      "blockHash": "0x02f434c88b8bd5bef1bf2bab99f060b2966e74bc8eb0b2f2d0e6d0a09d128f08",
      "blockNumber": "0x81f6c1",
      "gasUsed": "0x43e92",
      "effectiveGasPrice": "0xa411b5",
      "from": "0x97ba7778dd9ce27bd4953c136f3b3b7b087e14c1",
      "to": "0xd804c5ccaa9bf0acfa635151049e8f785cc0767e",
      "contractAddress": null
    },
    {
      "status": "0x1",
      "cumulativeGasUsed": "0x1042055",
      "logs": [
        {
          "address": "0x77e6a86e1cdf651ef05b890f9869725819ae3b15",
          "topics": [
            "0xddf252ad1be2c89b69c2b068fc378daa952ba7f163c4a11628f55a4df523b3ef",
            "0x0000000000000000000000000000000000000000000000000000000000000000",
            "0x0000000000000000000000006f9aaaad96180b3d6c71fbbae2c1c5d5193a64ec",
            "0x0000000000000000000000000000000000000000000000000000000000000001"
          ],
          "data": "0x",
          "blockHash": "0x5bcd3872fb733de70cd9d41b8a076b7d19b54b84c632ef98f105051b9d85b748",
          "blockNumber": "0x81f6c2",
          "transactionHash": "0xa043e24aec9e34cdbd39c5b0b641c3d59aaf56df86a2e199a3fcb395aba4904c",
          "transactionIndex": "0x7d",
          "logIndex": "0xb9",
          "removed": false
        },
        {
          "address": "0x77e6a86e1cdf651ef05b890f9869725819ae3b15",
          "topics": [
            "0xf8e1a15aba9398e019f0b49df1a4fde98ee17ae345cb5f6b5e2c27f5033e8ce7"
          ],
          "data": "0x0000000000000000000000000000000000000000000000000000000000000001",
          "blockHash": "0x5bcd3872fb733de70cd9d41b8a076b7d19b54b84c632ef98f105051b9d85b748",
          "blockNumber": "0x81f6c2",
          "transactionHash": "0xa043e24aec9e34cdbd39c5b0b641c3d59aaf56df86a2e199a3fcb395aba4904c",
          "transactionIndex": "0x7d",
          "logIndex": "0xba",
          "removed": false
        },
        {
          "address": "0x77e6a86e1cdf651ef05b890f9869725819ae3b15",
          "topics": [
            "0xfa6883374d3785c826e28c69c68c1b6dd2178accc8623f49c6829a75487419b3",
            "0x0000000000000000000000006f9aaaad96180b3d6c71fbbae2c1c5d5193a64ec",
            "0x0000000000000000000000000000000000000000000000000000000000000001",
            "0x0000000000000000000000000000000000000000000000000000000000000000"
          ],
          "data": "0x00000000000000000000000000000000000000000000000000000000000000200000000000000000000000000000000000000000000000000000000000000000",
          "blockHash": "0x5bcd3872fb733de70cd9d41b8a076b7d19b54b84c632ef98f105051b9d85b748",
          "blockNumber": "0x81f6c2",
          "transactionHash": "0xa043e24aec9e34cdbd39c5b0b641c3d59aaf56df86a2e199a3fcb395aba4904c",
          "transactionIndex": "0x7d",
          "logIndex": "0xbb",
          "removed": false
        },
        {
          "address": "0x77e6a86e1cdf651ef05b890f9869725819ae3b15",
          "topics": [
            "0xc7f505b2f371ae2175ee4913f4499e1f2633a7b5936321eed1cdaeb6115181d2"
          ],
          "data": "0x0000000000000000000000000000000000000000000000000000000000000001",
          "blockHash": "0x5bcd3872fb733de70cd9d41b8a076b7d19b54b84c632ef98f105051b9d85b748",
          "blockNumber": "0x81f6c2",
          "transactionHash": "0xa043e24aec9e34cdbd39c5b0b641c3d59aaf56df86a2e199a3fcb395aba4904c",
          "transactionIndex": "0x7d",
          "logIndex": "0xbc",
          "removed": false
        },
        {
          "address": "0xd804c5ccaa9bf0acfa635151049e8f785cc0767e",
          "topics": [
            "0x8dc66cafb77b325538c856bfa5892b31ca7305adfa48f6a09e030e261cda0795",
            "0x00000000000000000000000077e6a86e1cdf651ef05b890f9869725819ae3b15",
            "0x0000000000000000000000006a25ec152f90a9ed327f7e7b32ed46223fc5e834"
          ],
          "data": "0x00000000000000000000000000000000000000000000000000000000000007d2",
          "blockHash": "0x5bcd3872fb733de70cd9d41b8a076b7d19b54b84c632ef98f105051b9d85b748",
          "blockNumber": "0x81f6c2",
          "transactionHash": "0xa043e24aec9e34cdbd39c5b0b641c3d59aaf56df86a2e199a3fcb395aba4904c",
          "transactionIndex": "0x7d",
          "logIndex": "0xbd",
          "removed": false
        }
      ],
      "logsBloom": "0x00008000000000800000000000000008000000000000000000000000000000000000000000000000000000000000000000000100000000000000000000040000000000000000020000000108000000000000000000040000000000000000000000800000020000000000000000000800000001000000000000000010000000000000000000000000020800000000000000000000008080000020000000400180000000000000010000000000000040002000000001000000000000000000008000000002000000000000000000100000040000000004400000000000000060000000004000000000200000000000000000000000000000000000000000000000",
      "type": "0x2",
      "transactionHash": "0xa043e24aec9e34cdbd39c5b0b641c3d59aaf56df86a2e199a3fcb395aba4904c",
      "transactionIndex": "0x7d",
      "blockHash": "0x5bcd3872fb733de70cd9d41b8a076b7d19b54b84c632ef98f105051b9d85b748",
      "blockNumber": "0x81f6c2",
      "gasUsed": "0x48ae6",
      "effectiveGasPrice": "0xb647e3",
      "from": "0x6f9aaaad96180b3d6c71fbbae2c1c5d5193a64ec",
      "to": "0xd804c5ccaa9bf0acfa635151049e8f785cc0767e",
      "contractAddress": null
    },
    {
      "status": "0x1",
      "cumulativeGasUsed": "0x71c871",
      "logs": [],
      "logsBloom": "0x00000000000000000000000000000000000000000000000000000000000000000000000000000000000000000000000000000000000000000000000000000000000000000000000000000000000000000000000000000000000000000000000000000000000000000000000000000000000000000000000000000000000000000000000000000000000000000000000000000000000000000000000000000000000000000000000000000000000000000000000000000000000000000000000000000000000000000000000000000000000000000000000000000000000000000000000000000000000000000000000000000000000000000000000000000000",
      "type": "0x2",
      "transactionHash": "0xdac710499d123cd317a32c7c667e493a298cc2105e3973d61343dd0394ca1ca1",
      "transactionIndex": "0x5d",
      "blockHash": "0x74b4997be9b0255329654eada13279639a4602d8715fd2a380d5ed9ce004f96c",
      "blockNumber": "0x81f6c3",
      "gasUsed": "0x734c",
      "effectiveGasPrice": "0xb0f666",
      "from": "0x6f9aaaad96180b3d6c71fbbae2c1c5d5193a64ec",
      "to": "0x77e6a86e1cdf651ef05b890f9869725819ae3b15",
      "contractAddress": null
    },
    {
      "status": "0x1",
      "cumulativeGasUsed": "0xc95dbe",
      "logs": [
        {
          "address": "0xb88bdf043850aace269fb05f82533029a748f2c6",
          "topics": [
            "0xddf252ad1be2c89b69c2b068fc378daa952ba7f163c4a11628f55a4df523b3ef",
            "0x0000000000000000000000000000000000000000000000000000000000000000",
            "0x00000000000000000000000097ba7778dd9ce27bd4953c136f3b3b7b087e14c1"
          ],
          "data": "0x00000000000000000000000000000000000000000000d3c21bcecceda1000000",
          "blockHash": "0x266e0153ff83b4c90cfac756184ba94d6b9cc44449415cab69d27f4429918976",
          "blockNumber": "0x81f6c4",
          "transactionHash": "0xce6445bbb416f18ae5ddb2808ee971cf97861ddebc081da4fc95493b0bfce391",
          "transactionIndex": "0x69",
          "logIndex": "0xa0",
          "removed": false
        },
        {
          "address": "0xb88bdf043850aace269fb05f82533029a748f2c6",
          "topics": [
            "0xddf252ad1be2c89b69c2b068fc378daa952ba7f163c4a11628f55a4df523b3ef",
            "0x00000000000000000000000097ba7778dd9ce27bd4953c136f3b3b7b087e14c1",
            "0x000000000000000000000000bc3249c2c51211653ad14fab2e99626d1632c0bf"
          ],
          "data": "0x0000000000000000000000000000000000000000000000008ac7230489e80000",
          "blockHash": "0x266e0153ff83b4c90cfac756184ba94d6b9cc44449415cab69d27f4429918976",
          "blockNumber": "0x81f6c4",
          "transactionHash": "0xce6445bbb416f18ae5ddb2808ee971cf97861ddebc081da4fc95493b0bfce391",
          "transactionIndex": "0x69",
          "logIndex": "0xa1",
          "removed": false
        },
        {
          "address": "0xb88bdf043850aace269fb05f82533029a748f2c6",
          "topics": [
            "0xddf252ad1be2c89b69c2b068fc378daa952ba7f163c4a11628f55a4df523b3ef",
            "0x00000000000000000000000097ba7778dd9ce27bd4953c136f3b3b7b087e14c1",
            "0x0000000000000000000000000000000000000000000000000000000000000002"
          ],
          "data": "0x00000000000000000000000000000000000000000000000000000000000000c8",
          "blockHash": "0x266e0153ff83b4c90cfac756184ba94d6b9cc44449415cab69d27f4429918976",
          "blockNumber": "0x81f6c4",
          "transactionHash": "0xce6445bbb416f18ae5ddb2808ee971cf97861ddebc081da4fc95493b0bfce391",
          "transactionIndex": "0x69",
          "logIndex": "0xa2",
          "removed": false
        },
        {
          "address": "0xb88bdf043850aace269fb05f82533029a748f2c6",
          "topics": [
            "0xc7f505b2f371ae2175ee4913f4499e1f2633a7b5936321eed1cdaeb6115181d2"
          ],
          "data": "0x0000000000000000000000000000000000000000000000000000000000000001",
          "blockHash": "0x266e0153ff83b4c90cfac756184ba94d6b9cc44449415cab69d27f4429918976",
          "blockNumber": "0x81f6c4",
          "transactionHash": "0xce6445bbb416f18ae5ddb2808ee971cf97861ddebc081da4fc95493b0bfce391",
          "transactionIndex": "0x69",
          "logIndex": "0xa3",
          "removed": false
        }
      ],
      "logsBloom": "0x04000000000000000000000000000000000000000000000000000000000000000000000004000000000040400000000000000000000000000000000000000000000000000000000000000008000000000000000000000000000000000000000000000000020000000000000000000800000000000000000000000010000000000000000000400000000800000000000000000000000080000000000000000000000000000000000200000100000000000000000000000000000000000000000000000002000000000000800000000000000000000004000000001000000020000000000000000000000000004000000000000010008000000000000000000000",
      "type": "0x2",
      "transactionHash": "0xce6445bbb416f18ae5ddb2808ee971cf97861ddebc081da4fc95493b0bfce391",
      "transactionIndex": "0x69",
      "blockHash": "0x266e0153ff83b4c90cfac756184ba94d6b9cc44449415cab69d27f4429918976",
      "blockNumber": "0x81f6c4",
      "gasUsed": "0x3c266",
      "effectiveGasPrice": "0xa51ba7",
      "from": "0x97ba7778dd9ce27bd4953c136f3b3b7b087e14c1",
      "to": "0xd804c5ccaa9bf0acfa635151049e8f785cc0767e",
      "contractAddress": null
    }
  ],
  "libraries": [],
  "pending": [],
  "returns": {},
  "timestamp": 1749547837,
  "chain": 11155111,
  "commit": "f798767"
}