{
  "transactions": [
    {
      "hash": "0xb6640b2831a78f80072e0e0e061e80edc9d141a90e7942713126340609c89a78",
      "transactionType": "CALL",
      "contractName": "MyShchFactory",
      "contractAddress": "0x7ecc5c8b285555db8fa37e3ed86d05e1be01fe73",
      "function": "mintPersonalMSW(uint64,bytes)",
      "arguments": [
        "22222",
        "0x7cbd0014d7bb57fabe8cc44f612dee4a1dc3babce0997b765b51af0eb1d2f48a22a7b8d764649fb2b7bef3061bd7acde90c5fee069810bedd87754498f3d93b71c"
      ],
      "transaction": {
        "from": "0x97ba7778dd9ce27bd4953c136f3b3b7b087e14c1",
        "to": "0x7ecc5c8b285555db8fa37e3ed86d05e1be01fe73",
        "gas": "0x62926",
        "value": "0x1b58",
        "input": "0xce63f12a00000000000000000000000000000000000000000000000000000000000056ce000000000000000000000000000000000000000000000000000000000000004000000000000000000000000000000000000000000000000000000000000000417cbd0014d7bb57fabe8cc44f612dee4a1dc3babce0997b765b51af0eb1d2f48a22a7b8d764649fb2b7bef3061bd7acde90c5fee069810bedd87754498f3d93b71c00000000000000000000000000000000000000000000000000000000000000",
        "nonce": "0x39",
        "chainId": "0xaa36a7"
      },
      "additionalContracts": [
        {
          "transactionType": "CREATE2",
          "address": "0xba6d8e9fe762966049b69c14919bfec87683b664",
          "initCode": "0x3d602d80600a3d3981f3363d3d373d3d3d363d73e4d5b0232293e7663ffb63b34234c11aad88a2015af43d82803e903d91602b57fd5bf3"
        }
      ],
      "isFixedGasLimit": false
    },
    {
      "hash": "0x8b5217eafae352b11890b920f7824dd45cec1ab35efeef74e698be0a8eeb6b41",
      "transactionType": "CALL",
      "contractName": "MyShchFactory",
      "contractAddress": "0x7ecc5c8b285555db8fa37e3ed86d05e1be01fe73",
      "function": "newImplementation(uint8,address)",
      "arguments": [
        "2",
        "0x6178438A0BB1c6002B585a670AAa0f8c4D8b0aed"
      ],
      "transaction": {
        "from": "0x97ba7778dd9ce27bd4953c136f3b3b7b087e14c1",
        "to": "0x7ecc5c8b285555db8fa37e3ed86d05e1be01fe73",
        "gas": "0x126fb",
        "value": "0x0",
        "input": "0xb5537eac00000000000000000000000000000000000000000000000000000000000000020000000000000000000000006178438a0bb1c6002b585a670aaa0f8c4d8b0aed",
        "nonce": "0x3a",
        "chainId": "0xaa36a7"
      },
      "additionalContracts": [],
      "isFixedGasLimit": false
    },
    {
      "hash": "0xcbbbbb10163deb652d9993c54ae16759ba911f3c9548fc6f63a312415be1498f",
      "transactionType": "CALL",
      "contractName": "MyShchFactory",
      "contractAddress": "0x7ecc5c8b285555db8fa37e3ed86d05e1be01fe73",
      "function": "createCustomERC20(address,string,string,uint256,(address,uint256)[])",
      "arguments": [
        "0x5b73C5498c1E3b4dbA84de0F1833c4a029d90519",
        "Custom ERC20 Name",
        "CUSTSYM",
        "1000000000000000000000000",
        "[(0x0000000000000000000000000000000000000001, 100), (0x0000000000000000000000000000000000000002, 200)]"
      ],
      "transaction": {
        "from": "0x97ba7778dd9ce27bd4953c136f3b3b7b087e14c1",
        "to": "0x7ecc5c8b285555db8fa37e3ed86d05e1be01fe73",
        "gas": "0x52f5d",
        "value": "0x0",
        "input": "0x6b5eab6a0000000000000000000000005b73c5498c1e3b4dba84de0f1833c4a029d9051900000000000000000000000000000000000000000000000000000000000000a000000000000000000000000000000000000000000000000000000000000000e000000000000000000000000000000000000000000000d3c21bcecceda100000000000000000000000000000000000000000000000000000000000000000001200000000000000000000000000000000000000000000000000000000000000011437573746f6d204552433230204e616d6500000000000000000000000000000000000000000000000000000000000000000000000000000000000000000000074355535453594d00000000000000000000000000000000000000000000000000000000000000000000000000000000000000000000000000000000000000000200000000000000000000000000000000000000000000000000000000000000010000000000000000000000000000000000000000000000000000000000000064000000000000000000000000000000000000000000000000000000000000000200000000000000000000000000000000000000000000000000000000000000c8",
        "nonce": "0x3b",
        "chainId": "0xaa36a7"
      },
      "additionalContracts": [
        {
          "transactionType": "CREATE",
          "address": "0xb26924fdf66c6975839c1880f87fdbc58623da50",
          "initCode": "0x3d602d80600a3d3981f3363d3d373d3d3d363d736178438a0bb1c6002b585a670aaa0f8c4d8b0aed5af43d82803e903d91602b57fd5bf3"
        }
      ],
      "isFixedGasLimit": false
    }
  ],
  "receipts": [
    {
      "status": "0x1",
      "cumulativeGasUsed": "0x1700532",
      "logs": [
        {
          "address": "0xba6d8e9fe762966049b69c14919bfec87683b664",
          "topics": [
            "0xddf252ad1be2c89b69c2b068fc378daa952ba7f163c4a11628f55a4df523b3ef",
            "0x0000000000000000000000000000000000000000000000000000000000000000",
            "0x00000000000000000000000097ba7778dd9ce27bd4953c136f3b3b7b087e14c1",
            "0x0000000000000000000000000000000000000000000000000000000000000001"
          ],
          "data": "0x",
          "blockHash": "0x5cd322c13990d2930db81ebd38dd98f7bd87581c357b5aff4b3775e9ae6eccf2",
          "blockNumber": "0x73b351",
          "transactionHash": "0xb6640b2831a78f80072e0e0e061e80edc9d141a90e7942713126340609c89a78",
          "transactionIndex": "0x79",
          "logIndex": "0x18e",
          "removed": false
        },
        {
          "address": "0xba6d8e9fe762966049b69c14919bfec87683b664",
          "topics": [
            "0xf8e1a15aba9398e019f0b49df1a4fde98ee17ae345cb5f6b5e2c27f5033e8ce7"
          ],
          "data": "0x0000000000000000000000000000000000000000000000000000000000000001",
          "blockHash": "0x5cd322c13990d2930db81ebd38dd98f7bd87581c357b5aff4b3775e9ae6eccf2",
          "blockNumber": "0x73b351",
          "transactionHash": "0xb6640b2831a78f80072e0e0e061e80edc9d141a90e7942713126340609c89a78",
          "transactionIndex": "0x79",
          "logIndex": "0x18f",
          "removed": false
        },
        {
          "address": "0xba6d8e9fe762966049b69c14919bfec87683b664",
          "topics": [
            "0xfa6883374d3785c826e28c69c68c1b6dd2178accc8623f49c6829a75487419b3",
            "0x00000000000000000000000097ba7778dd9ce27bd4953c136f3b3b7b087e14c1",
            "0x0000000000000000000000000000000000000000000000000000000000000001",
            "0x0000000000000000000000000000000000000000000000000000000000000000"
          ],
          "data": "0x00000000000000000000000000000000000000000000000000000000000000200000000000000000000000000000000000000000000000000000000000000000",
          "blockHash": "0x5cd322c13990d2930db81ebd38dd98f7bd87581c357b5aff4b3775e9ae6eccf2",
          "blockNumber": "0x73b351",
          "transactionHash": "0xb6640b2831a78f80072e0e0e061e80edc9d141a90e7942713126340609c89a78",
          "transactionIndex": "0x79",
          "logIndex": "0x190",
          "removed": false
        },
        {
          "address": "0xba6d8e9fe762966049b69c14919bfec87683b664",
          "topics": [
            "0xc7f505b2f371ae2175ee4913f4499e1f2633a7b5936321eed1cdaeb6115181d2"
          ],
          "data": "0x0000000000000000000000000000000000000000000000000000000000000001",
          "blockHash": "0x5cd322c13990d2930db81ebd38dd98f7bd87581c357b5aff4b3775e9ae6eccf2",
          "blockNumber": "0x73b351",
          "transactionHash": "0xb6640b2831a78f80072e0e0e061e80edc9d141a90e7942713126340609c89a78",
          "transactionIndex": "0x79",
          "logIndex": "0x191",
          "removed": false
        },
        {
          "address": "0x7ecc5c8b285555db8fa37e3ed86d05e1be01fe73",
          "topics": [
            "0x8dc66cafb77b325538c856bfa5892b31ca7305adfa48f6a09e030e261cda0795",
            "0x000000000000000000000000ba6d8e9fe762966049b69c14919bfec87683b664",
            "0x000000000000000000000000e4d5b0232293e7663ffb63b34234c11aad88a201"
          ],
          "data": "0x00000000000000000000000000000000000000000000000000000000000007d2",
          "blockHash": "0x5cd322c13990d2930db81ebd38dd98f7bd87581c357b5aff4b3775e9ae6eccf2",
          "blockNumber": "0x73b351",
          "transactionHash": "0xb6640b2831a78f80072e0e0e061e80edc9d141a90e7942713126340609c89a78",
          "transactionIndex": "0x79",
          "logIndex": "0x192",
          "removed": false
        }
      ],
      "logsBloom": "0x00200000000000800000000000004000000000000000000000000000000000000000000004000000000000400000000000000000000000000000000000040020040000000000020000000108000000000000000080040000000000010040000000000000020000000000000000000800000000000000000000000010000000001000000000000000000800000000000000000000000080000000000000000080000000000000000000000000000000002000001000000000000000000000008000000002000000000000000000100000000000000004400000000000000060000000400000000000200000004000000000000000100000000000000000008000",
      "type": "0x2",
      "transactionHash": "0xb6640b2831a78f80072e0e0e061e80edc9d141a90e7942713126340609c89a78",
      "transactionIndex": "0x79",
      "blockHash": "0x5cd322c13990d2930db81ebd38dd98f7bd87581c357b5aff4b3775e9ae6eccf2",
      "blockNumber": "0x73b351",
      "gasUsed": "0x475d4",
      "effectiveGasPrice": "0xa6303ed91",
      "from": "0x97ba7778dd9ce27bd4953c136f3b3b7b087e14c1",
      "to": "0x7ecc5c8b285555db8fa37e3ed86d05e1be01fe73",
      "contractAddress": null
    },
    {
      "status": "0x1",
      "cumulativeGasUsed": "0x170cee5",
      "logs": [],
      "logsBloom": "0x00000000000000000000000000000000000000000000000000000000000000000000000000000000000000000000000000000000000000000000000000000000000000000000000000000000000000000000000000000000000000000000000000000000000000000000000000000000000000000000000000000000000000000000000000000000000000000000000000000000000000000000000000000000000000000000000000000000000000000000000000000000000000000000000000000000000000000000000000000000000000000000000000000000000000000000000000000000000000000000000000000000000000000000000000000000",
      "type": "0x2",
      "transactionHash": "0x8b5217eafae352b11890b920f7824dd45cec1ab35efeef74e698be0a8eeb6b41",
      "transactionIndex": "0x7a",
      "blockHash": "0x5cd322c13990d2930db81ebd38dd98f7bd87581c357b5aff4b3775e9ae6eccf2",
      "blockNumber": "0x73b351",
      "gasUsed": "0xc9b3",
      "effectiveGasPrice": "0xa6303ed91",
      "from": "0x97ba7778dd9ce27bd4953c136f3b3b7b087e14c1",
      "to": "0x7ecc5c8b285555db8fa37e3ed86d05e1be01fe73",
      "contractAddress": null
    },
    {
      "status": "0x1",
      "cumulativeGasUsed": "0x1748fe3",
      "logs": [
        {
          "address": "0xb26924fdf66c6975839c1880f87fdbc58623da50",
          "topics": [
            "0xddf252ad1be2c89b69c2b068fc378daa952ba7f163c4a11628f55a4df523b3ef",
            "0x0000000000000000000000000000000000000000000000000000000000000000",
            "0x0000000000000000000000005b73c5498c1e3b4dba84de0f1833c4a029d90519"
          ],
          "data": "0x00000000000000000000000000000000000000000000d3c21bcecceda1000000",
          "blockHash": "0x5cd322c13990d2930db81ebd38dd98f7bd87581c357b5aff4b3775e9ae6eccf2",
          "blockNumber": "0x73b351",
          "transactionHash": "0xcbbbbb10163deb652d9993c54ae16759ba911f3c9548fc6f63a312415be1498f",
          "transactionIndex": "0x7b",
          "logIndex": "0x193",
          "removed": false
        },
        {
          "address": "0xb26924fdf66c6975839c1880f87fdbc58623da50",
          "topics": [
            "0xddf252ad1be2c89b69c2b068fc378daa952ba7f163c4a11628f55a4df523b3ef",
            "0x0000000000000000000000005b73c5498c1e3b4dba84de0f1833c4a029d90519",
            "0x0000000000000000000000000000000000000000000000000000000000000001"
          ],
          "data": "0x0000000000000000000000000000000000000000000000000000000000000064",
          "blockHash": "0x5cd322c13990d2930db81ebd38dd98f7bd87581c357b5aff4b3775e9ae6eccf2",
          "blockNumber": "0x73b351",
          "transactionHash": "0xcbbbbb10163deb652d9993c54ae16759ba911f3c9548fc6f63a312415be1498f",
          "transactionIndex": "0x7b",
          "logIndex": "0x194",
          "removed": false
        },
        {
          "address": "0xb26924fdf66c6975839c1880f87fdbc58623da50",
          "topics": [
            "0xddf252ad1be2c89b69c2b068fc378daa952ba7f163c4a11628f55a4df523b3ef",
            "0x0000000000000000000000005b73c5498c1e3b4dba84de0f1833c4a029d90519",
            "0x0000000000000000000000000000000000000000000000000000000000000002"
          ],
          "data": "0x00000000000000000000000000000000000000000000000000000000000000c8",
          "blockHash": "0x5cd322c13990d2930db81ebd38dd98f7bd87581c357b5aff4b3775e9ae6eccf2",
          "blockNumber": "0x73b351",
          "transactionHash": "0xcbbbbb10163deb652d9993c54ae16759ba911f3c9548fc6f63a312415be1498f",
          "transactionIndex": "0x7b",
          "logIndex": "0x195",
          "removed": false
        },
        {
          "address": "0xb26924fdf66c6975839c1880f87fdbc58623da50",
          "topics": [
            "0xc7f505b2f371ae2175ee4913f4499e1f2633a7b5936321eed1cdaeb6115181d2"
          ],
          "data": "0x0000000000000000000000000000000000000000000000000000000000000001",
          "blockHash": "0x5cd322c13990d2930db81ebd38dd98f7bd87581c357b5aff4b3775e9ae6eccf2",
          "blockNumber": "0x73b351",
          "transactionHash": "0xcbbbbb10163deb652d9993c54ae16759ba911f3c9548fc6f63a312415be1498f",
          "transactionIndex": "0x7b",
          "logIndex": "0x196",
          "removed": false
        }
      ],
      "logsBloom": "0x04000000000000000200000000000000000000000000000000000000000000000000000000000000000000000000000000000000000000000000000000040000000000000000000000000008000000000000000000040000000000001000000000000000020000000000000000000800008000000000000000000010000000000000000000000000000800000000000000000000000080000000000000000000000000000000000000000102000000000000000000000000000000000000000000000002000000000000000000000000000000000004000000000000000060000000000000000000000000000000010000000000008000000000000000000200",
      "type": "0x2",
      "transactionHash": "0xcbbbbb10163deb652d9993c54ae16759ba911f3c9548fc6f63a312415be1498f",
      "transactionIndex": "0x7b",
      "blockHash": "0x5cd322c13990d2930db81ebd38dd98f7bd87581c357b5aff4b3775e9ae6eccf2",
      "blockNumber": "0x73b351",
      "gasUsed": "0x3c0fe",
      "effectiveGasPrice": "0xa6303ed91",
      "from": "0x97ba7778dd9ce27bd4953c136f3b3b7b087e14c1",
      "to": "0x7ecc5c8b285555db8fa37e3ed86d05e1be01fe73",
      "contractAddress": null
    }
  ],
  "libraries": [],
  "pending": [],
  "returns": {},
  "timestamp": 1737992881,
  "chain": 11155111,
  "commit": "f4f4d34"
}