{
  "transactions": [
    {
      "hash": "0x9c47640b3a7cb46440386a205ce6b37defafe7b9a95de7f4b3cf876b12d2043f",
      "transactionType": "CALL",
      "contractName": null,
      "contractAddress": "0x6f9aaaad96180b3d6c71fbbae2c1c5d5193a64ec",
      "function": null,
      "arguments": null,
      "transaction": {
        "from": "0x97ba7778dd9ce27bd4953c136f3b3b7b087e14c1",
        "to": "0x6f9aaaad96180b3d6c71fbbae2c1c5d5193a64ec",
        "gas": "0x714d",
        "value": "0x470de4df820000",
        "input": "0x",
        "nonce": "0x4d",
        "chainId": "0xaa36a7"
      },
      "additionalContracts": [],
      "isFixedGasLimit": false
    },
    {
      "hash": "0x85626ed3842834cafec9188f755f9261768bcc613cae79d226a0d80a2cee35c6",
      "transactionType": "CALL",
      "contractName": null,
      "contractAddress": "0xd804c5ccaa9bf0acfa635151049e8f785cc0767e",
      "function": "setSignerStatus(address,bool)",
      "arguments": [
        "0x97ba7778dD9CE27bD4953c136F3B3b7b087E14c1",
        "true"
      ],
      "transaction": {
        "from": "0x97ba7778dd9ce27bd4953c136f3b3b7b087e14c1",
        "to": "0xd804c5ccaa9bf0acfa635151049e8f785cc0767e",
        "gas": "0xfad9",
        "value": "0x0",
        "input": "0x8d0abcda00000000000000000000000097ba7778dd9ce27bd4953c136f3b3b7b087e14c10000000000000000000000000000000000000000000000000000000000000001",
        "nonce": "0x4e",
        "chainId": "0xaa36a7"
      },
      "additionalContracts": [],
      "isFixedGasLimit": false
    },
    {
      "hash": "0x6301a444f1d896e0a655603f42e63c3ff0c4fc215e3ffd00b7b0bf5d52b1dd6d",
      "transactionType": "CALL",
      "contractName": null,
      "contractAddress": "0xd804c5ccaa9bf0acfa635151049e8f785cc0767e",
      "function": "setSignerStatus(address,bool)",
      "arguments": [
        "0x4b664eD07D19d0b192A037Cfb331644cA536029d",
        "true"
      ],
      "transaction": {
        "from": "0x97ba7778dd9ce27bd4953c136f3b3b7b087e14c1",
        "to": "0xd804c5ccaa9bf0acfa635151049e8f785cc0767e",
        "gas": "0x97ec",
        "value": "0x0",
        "input": "0x8d0abcda0000000000000000000000004b664ed07d19d0b192a037cfb331644ca536029d0000000000000000000000000000000000000000000000000000000000000001",
        "nonce": "0x4f",
        "chainId": "0xaa36a7"
      },
      "additionalContracts": [],
      "isFixedGasLimit": false
    },
    {
      "hash": "0xe7ef629371d6fa7306b66b3b560378bc0fcb72c44fd79ff1141b0bff883cf02c",
      "transactionType": "CALL",
      "contractName": null,
      "contractAddress": "0xd804c5ccaa9bf0acfa635151049e8f785cc0767e",
      "function": "mintPersonalMSW(uint64,bytes)",
      "arguments": [
        "0",
        "0x"
      ],
      "transaction": {
        "from": "0x97ba7778dd9ce27bd4953c136f3b3b7b087e14c1",
        "to": "0xd804c5ccaa9bf0acfa635151049e8f785cc0767e",
        "gas": "0x638f7",
        "value": "0x0",
        "input": "0xce63f12a000000000000000000000000000000000000000000000000000000000000000000000000000000000000000000000000000000000000000000000000000000400000000000000000000000000000000000000000000000000000000000000000",
        "nonce": "0x50",
        "chainId": "0xaa36a7"
      },
      "additionalContracts": [
        {
          "transactionType": "CREATE2",
          "address": "0x18fd55b0c16054abbd2ed0c02ba67a2a64b332c0",
          "initCode": "0x3d602d80600a3d3981f3363d3d373d3d3d363d7370c651fb62e88faacedf6829a1a1a2efb37ab79d5af43d82803e903d91602b57fd5bf3"
        }
      ],
      "isFixedGasLimit": false
    },
    {
      "hash": "0x170c2c01d822194d05d699e83bc1c52ba9a2acaa3575cd2d29d002846e7ccd28",
      "transactionType": "CALL",
      "contractName": null,
      "contractAddress": "0xd804c5ccaa9bf0acfa635151049e8f785cc0767e",
      "function": "mintPersonalMSW(uint64,bytes)",
      "arguments": [
        "22222",
        "0x7cbd0014d7bb57fabe8cc44f612dee4a1dc3babce0997b765b51af0eb1d2f48a22a7b8d764649fb2b7bef3061bd7acde90c5fee069810bedd87754498f3d93b71c"
      ],
      "transaction": {
        "from": "0x6f9aaaad96180b3d6c71fbbae2c1c5d5193a64ec",
        "to": "0xd804c5ccaa9bf0acfa635151049e8f785cc0767e",
        "gas": "0x6a255",
        "value": "0x2386f26fc10000",
        "input": "0xce63f12a00000000000000000000000000000000000000000000000000000000000056ce000000000000000000000000000000000000000000000000000000000000004000000000000000000000000000000000000000000000000000000000000000417cbd0014d7bb57fabe8cc44f612dee4a1dc3babce0997b765b51af0eb1d2f48a22a7b8d764649fb2b7bef3061bd7acde90c5fee069810bedd87754498f3d93b71c00000000000000000000000000000000000000000000000000000000000000",
        "nonce": "0x0",
        "chainId": "0xaa36a7"
      },
      "additionalContracts": [
        {
          "transactionType": "CREATE2",
          "address": "0x491b0f234e3f62c2412deeb23258be552f879527",
          "initCode": "0x3d602d80600a3d3981f3363d3d373d3d3d363d7370c651fb62e88faacedf6829a1a1a2efb37ab79d5af43d82803e903d91602b57fd5bf3"
        }
      ],
      "isFixedGasLimit": false
    },
    {
      "hash": "0xe51319dab3f6e2560f314f17bca6fb8148ca2b530765c1ce3ad7a6109685f783",
      "transactionType": "CALL",
      "contractName": null,
      "contractAddress": "0x491b0f234e3f62c2412deeb23258be552f879527",
      "function": "setRelayerStatus(address,bool)",
      "arguments": [
        "0x18Fd55B0c16054AbbD2Ed0C02bA67a2a64b332C0",
        "true"
      ],
      "transaction": {
        "from": "0x6f9aaaad96180b3d6c71fbbae2c1c5d5193a64ec",
        "to": "0x491b0f234e3f62c2412deeb23258be552f879527",
        "gas": "0x9f22",
        "value": "0x0",
        "input": "0x8601583400000000000000000000000018fd55b0c16054abbd2ed0c02ba67a2a64b332c00000000000000000000000000000000000000000000000000000000000000001",
        "nonce": "0x1",
        "chainId": "0xaa36a7"
      },
      "additionalContracts": [],
      "isFixedGasLimit": false
    },
    {
      "hash": "0xe4d2e35e920d9ab54dee244494aab23e74da91cc1e782668378143a903851467",
      "transactionType": "CALL",
      "contractName": null,
      "contractAddress": "0xd804c5ccaa9bf0acfa635151049e8f785cc0767e",
      "function": "createCustomERC20(address,string,string,uint256,(address,uint256)[])",
      "arguments": [
        "0x97ba7778dD9CE27bD4953c136F3B3b7b087E14c1",
        "Custom ERC20 Name",
        "CUSTSYM",
        "1000000000000000000000000",
        "[(0x18Fd55B0c16054AbbD2Ed0C02bA67a2a64b332C0, 10000000000000000000), (0x0000000000000000000000000000000000000002, 200)]"
      ],
      "transaction": {
        "from": "0x97ba7778dd9ce27bd4953c136f3b3b7b087e14c1",
        "to": "0xd804c5ccaa9bf0acfa635151049e8f785cc0767e",
        "gas": "0x5314f",
        "value": "0x0",
        "input": "0x6b5eab6a00000000000000000000000097ba7778dd9ce27bd4953c136f3b3b7b087e14c100000000000000000000000000000000000000000000000000000000000000a000000000000000000000000000000000000000000000000000000000000000e000000000000000000000000000000000000000000000d3c21bcecceda100000000000000000000000000000000000000000000000000000000000000000001200000000000000000000000000000000000000000000000000000000000000011437573746f6d204552433230204e616d6500000000000000000000000000000000000000000000000000000000000000000000000000000000000000000000074355535453594d00000000000000000000000000000000000000000000000000000000000000000000000000000000000000000000000000000000000000000200000000000000000000000018fd55b0c16054abbd2ed0c02ba67a2a64b332c00000000000000000000000000000000000000000000000008ac7230489e80000000000000000000000000000000000000000000000000000000000000000000200000000000000000000000000000000000000000000000000000000000000c8",
        "nonce": "0x51",
        "chainId": "0xaa36a7"
      },
      "additionalContracts": [
        {
          "transactionType": "CREATE",
          "address": "0x441cbcec3ce4784ff9d16b904503f48131ac6c2e",
          "initCode": "0x3d602d80600a3d3981f3363d3d373d3d3d363d736178438a0bb1c6002b585a670aaa0f8c4d8b0aed5af43d82803e903d91602b57fd5bf3"
        }
      ],
      "isFixedGasLimit": false
    }
  ],
  "receipts": [
    {
      "status": "0x1",
      "cumulativeGasUsed": "0xb02530",
      "logs": [],
      "logsBloom": "0x00000000000000000000000000000000000000000000000000000000000000000000000000000000000000000000000000000000000000000000000000000000000000000000000000000000000000000000000000000000000000000000000000000000000000000000000000000000000000000000000000000000000000000000000000000000000000000000000000000000000000000000000000000000000000000000000000000000000000000000000000000000000000000000000000000000000000000000000000000000000000000000000000000000000000000000000000000000000000000000000000000000000000000000000000000000",
      "type": "0x2",
      "transactionHash": "0x9c47640b3a7cb46440386a205ce6b37defafe7b9a95de7f4b3cf876b12d2043f",
      "transactionIndex": "0x72",
      "blockHash": "0x2669d92bbe25d16bbbd6c811cd2f7a586909346775cddeac461c8e79fe74b404",
      "blockNumber": "0x761644",
      "gasUsed": "0x5208",
      "effectiveGasPrice": "0x200a336d",
      "from": "0x97ba7778dd9ce27bd4953c136f3b3b7b087e14c1",
      "to": "0x6f9aaaad96180b3d6c71fbbae2c1c5d5193a64ec",
      "contractAddress": null
    },
    {
      "status": "0x1",
      "cumulativeGasUsed": "0xa48abc",
      "logs": [],
      "logsBloom": "0x00000000000000000000000000000000000000000000000000000000000000000000000000000000000000000000000000000000000000000000000000000000000000000000000000000000000000000000000000000000000000000000000000000000000000000000000000000000000000000000000000000000000000000000000000000000000000000000000000000000000000000000000000000000000000000000000000000000000000000000000000000000000000000000000000000000000000000000000000000000000000000000000000000000000000000000000000000000000000000000000000000000000000000000000000000000",
      "type": "0x2",
      "transactionHash": "0x85626ed3842834cafec9188f755f9261768bcc613cae79d226a0d80a2cee35c6",
      "transactionIndex": "0x75",
      "blockHash": "0x6669e01b7ae573d61ce2fb1466905be82e41be4040ace0da553344403592f5e7",
      "blockNumber": "0x761645",
      "gasUsed": "0xb59d",
      "effectiveGasPrice": "0x1f65b791",
      "from": "0x97ba7778dd9ce27bd4953c136f3b3b7b087e14c1",
      "to": "0xd804c5ccaa9bf0acfa635151049e8f785cc0767e",
      "contractAddress": null
    },
    {
      "status": "0x1",
      "cumulativeGasUsed": "0x13719ce",
      "logs": [],
      "logsBloom": "0x00000000000000000000000000000000000000000000000000000000000000000000000000000000000000000000000000000000000000000000000000000000000000000000000000000000000000000000000000000000000000000000000000000000000000000000000000000000000000000000000000000000000000000000000000000000000000000000000000000000000000000000000000000000000000000000000000000000000000000000000000000000000000000000000000000000000000000000000000000000000000000000000000000000000000000000000000000000000000000000000000000000000000000000000000000000",
      "type": "0x2",
      "transactionHash": "0x6301a444f1d896e0a655603f42e63c3ff0c4fc215e3ffd00b7b0bf5d52b1dd6d",
      "transactionIndex": "0x7a",
      "blockHash": "0x29049de6596fdb781c5760b207573f4b20bd7117c520e89e7a3e204023a968c5",
      "blockNumber": "0x761646",
      "gasUsed": "0x67e1",
      "effectiveGasPrice": "0x1ee2a073",
      "from": "0x97ba7778dd9ce27bd4953c136f3b3b7b087e14c1",
      "to": "0xd804c5ccaa9bf0acfa635151049e8f785cc0767e",
      "contractAddress": null
    },
    {
      "status": "0x1",
      "cumulativeGasUsed": "0x11e6315",
      "logs": [
        {
          "address": "0x18fd55b0c16054abbd2ed0c02ba67a2a64b332c0",
          "topics": [
            "0xddf252ad1be2c89b69c2b068fc378daa952ba7f163c4a11628f55a4df523b3ef",
            "0x0000000000000000000000000000000000000000000000000000000000000000",
            "0x00000000000000000000000097ba7778dd9ce27bd4953c136f3b3b7b087e14c1",
            "0x0000000000000000000000000000000000000000000000000000000000000001"
          ],
          "data": "0x",
          "blockHash": "0x7c045ac4e7a95a5e01fee17777c7bfd879100ec8cc77d3fc1ce420a8227de716",
          "blockNumber": "0x761648",
          "transactionHash": "0xe7ef629371d6fa7306b66b3b560378bc0fcb72c44fd79ff1141b0bff883cf02c",
          "transactionIndex": "0x82",
          "logIndex": "0xe1",
          "removed": false
        },
        {
          "address": "0x18fd55b0c16054abbd2ed0c02ba67a2a64b332c0",
          "topics": [
            "0xf8e1a15aba9398e019f0b49df1a4fde98ee17ae345cb5f6b5e2c27f5033e8ce7"
          ],
          "data": "0x0000000000000000000000000000000000000000000000000000000000000001",
          "blockHash": "0x7c045ac4e7a95a5e01fee17777c7bfd879100ec8cc77d3fc1ce420a8227de716",
          "blockNumber": "0x761648",
          "transactionHash": "0xe7ef629371d6fa7306b66b3b560378bc0fcb72c44fd79ff1141b0bff883cf02c",
          "transactionIndex": "0x82",
          "logIndex": "0xe2",
          "removed": false
        },
        {
          "address": "0x18fd55b0c16054abbd2ed0c02ba67a2a64b332c0",
          "topics": [
            "0xfa6883374d3785c826e28c69c68c1b6dd2178accc8623f49c6829a75487419b3",
            "0x00000000000000000000000097ba7778dd9ce27bd4953c136f3b3b7b087e14c1",
            "0x0000000000000000000000000000000000000000000000000000000000000001",
            "0x0004000000000000000000000000000000000000000000000000000000000000"
          ],
          "data": "0x00000000000000000000000000000000000000000000000000000000000000200000000000000000000000000000000000000000000000000000000000000000",
          "blockHash": "0x7c045ac4e7a95a5e01fee17777c7bfd879100ec8cc77d3fc1ce420a8227de716",
          "blockNumber": "0x761648",
          "transactionHash": "0xe7ef629371d6fa7306b66b3b560378bc0fcb72c44fd79ff1141b0bff883cf02c",
          "transactionIndex": "0x82",
          "logIndex": "0xe3",
          "removed": false
        },
        {
          "address": "0x18fd55b0c16054abbd2ed0c02ba67a2a64b332c0",
          "topics": [
            "0xc7f505b2f371ae2175ee4913f4499e1f2633a7b5936321eed1cdaeb6115181d2"
          ],
          "data": "0x0000000000000000000000000000000000000000000000000000000000000001",
          "blockHash": "0x7c045ac4e7a95a5e01fee17777c7bfd879100ec8cc77d3fc1ce420a8227de716",
          "blockNumber": "0x761648",
          "transactionHash": "0xe7ef629371d6fa7306b66b3b560378bc0fcb72c44fd79ff1141b0bff883cf02c",
          "transactionIndex": "0x82",
          "logIndex": "0xe4",
          "removed": false
        },
        {
          "address": "0xd804c5ccaa9bf0acfa635151049e8f785cc0767e",
          "topics": [
            "0x8dc66cafb77b325538c856bfa5892b31ca7305adfa48f6a09e030e261cda0795",
            "0x00000000000000000000000018fd55b0c16054abbd2ed0c02ba67a2a64b332c0",
            "0x00000000000000000000000070c651fb62e88faacedf6829a1a1a2efb37ab79d"
          ],
          "data": "0x00000000000000000000000000000000000000000000000000000000000007d2",
          "blockHash": "0x7c045ac4e7a95a5e01fee17777c7bfd879100ec8cc77d3fc1ce420a8227de716",
          "blockNumber": "0x761648",
          "transactionHash": "0xe7ef629371d6fa7306b66b3b560378bc0fcb72c44fd79ff1141b0bff883cf02c",
          "transactionIndex": "0x82",
          "logIndex": "0xe5",
          "removed": false
        }
      ],
      "logsBloom": "0x00000000000000800000000000000000000000000000000000200000200000000000000004000000000000400000000000000000000000000000000100040000000000000000020000000508000000000000000100040000000000800000000000800000020000000000000000000800000000000000000000004010000000000000000000000000000800000000000000000000000080000020000000000180000000000000000000000000000000002000000000000000000000000000008000000002000000000000000000100000000000000004400000010000000060000000000000000200201000004000000000000000000000800000200000000000",
      "type": "0x2",
      "transactionHash": "0xe7ef629371d6fa7306b66b3b560378bc0fcb72c44fd79ff1141b0bff883cf02c",
      "transactionIndex": "0x82",
      "blockHash": "0x7c045ac4e7a95a5e01fee17777c7bfd879100ec8cc77d3fc1ce420a8227de716",
      "blockNumber": "0x761648",
      "gasUsed": "0x48148",
      "effectiveGasPrice": "0x1d74017d",
      "from": "0x97ba7778dd9ce27bd4953c136f3b3b7b087e14c1",
      "to": "0xd804c5ccaa9bf0acfa635151049e8f785cc0767e",
      "contractAddress": null
    },
    {
      "status": "0x1",
      "cumulativeGasUsed": "0xe53e15",
      "logs": [
        {
          "address": "0x491b0f234e3f62c2412deeb23258be552f879527",
          "topics": [
            "0xddf252ad1be2c89b69c2b068fc378daa952ba7f163c4a11628f55a4df523b3ef",
            "0x0000000000000000000000000000000000000000000000000000000000000000",
            "0x0000000000000000000000006f9aaaad96180b3d6c71fbbae2c1c5d5193a64ec",
            "0x0000000000000000000000000000000000000000000000000000000000000001"
          ],
          "data": "0x",
          "blockHash": "0x434424d3b4b8ad0c83e7187552a0c183e37cd43a645aef0dae4e8b24355ad68f",
          "blockNumber": "0x761649",
          "transactionHash": "0x170c2c01d822194d05d699e83bc1c52ba9a2acaa3575cd2d29d002846e7ccd28",
          "transactionIndex": "0x95",
          "logIndex": "0x98",
          "removed": false
        },
        {
          "address": "0x491b0f234e3f62c2412deeb23258be552f879527",
          "topics": [
            "0xf8e1a15aba9398e019f0b49df1a4fde98ee17ae345cb5f6b5e2c27f5033e8ce7"
          ],
          "data": "0x0000000000000000000000000000000000000000000000000000000000000001",
          "blockHash": "0x434424d3b4b8ad0c83e7187552a0c183e37cd43a645aef0dae4e8b24355ad68f",
          "blockNumber": "0x761649",
          "transactionHash": "0x170c2c01d822194d05d699e83bc1c52ba9a2acaa3575cd2d29d002846e7ccd28",
          "transactionIndex": "0x95",
          "logIndex": "0x99",
          "removed": false
        },
        {
          "address": "0x491b0f234e3f62c2412deeb23258be552f879527",
          "topics": [
            "0xfa6883374d3785c826e28c69c68c1b6dd2178accc8623f49c6829a75487419b3",
            "0x0000000000000000000000006f9aaaad96180b3d6c71fbbae2c1c5d5193a64ec",
            "0x0000000000000000000000000000000000000000000000000000000000000001",
            "0x0000000000000000000000000000000000000000000000000000000000000000"
          ],
          "data": "0x00000000000000000000000000000000000000000000000000000000000000200000000000000000000000000000000000000000000000000000000000000000",
          "blockHash": "0x434424d3b4b8ad0c83e7187552a0c183e37cd43a645aef0dae4e8b24355ad68f",
          "blockNumber": "0x761649",
          "transactionHash": "0x170c2c01d822194d05d699e83bc1c52ba9a2acaa3575cd2d29d002846e7ccd28",
          "transactionIndex": "0x95",
          "logIndex": "0x9a",
          "removed": false
        },
        {
          "address": "0x491b0f234e3f62c2412deeb23258be552f879527",
          "topics": [
            "0xc7f505b2f371ae2175ee4913f4499e1f2633a7b5936321eed1cdaeb6115181d2"
          ],
          "data": "0x0000000000000000000000000000000000000000000000000000000000000001",
          "blockHash": "0x434424d3b4b8ad0c83e7187552a0c183e37cd43a645aef0dae4e8b24355ad68f",
          "blockNumber": "0x761649",
          "transactionHash": "0x170c2c01d822194d05d699e83bc1c52ba9a2acaa3575cd2d29d002846e7ccd28",
          "transactionIndex": "0x95",
          "logIndex": "0x9b",
          "removed": false
        },
        {
          "address": "0xd804c5ccaa9bf0acfa635151049e8f785cc0767e",
          "topics": [
            "0x8dc66cafb77b325538c856bfa5892b31ca7305adfa48f6a09e030e261cda0795",
            "0x000000000000000000000000491b0f234e3f62c2412deeb23258be552f879527",
            "0x00000000000000000000000070c651fb62e88faacedf6829a1a1a2efb37ab79d"
          ],
          "data": "0x00000000000000000000000000000000000000000000000000000000000007d2",
          "blockHash": "0x434424d3b4b8ad0c83e7187552a0c183e37cd43a645aef0dae4e8b24355ad68f",
          "blockNumber": "0x761649",
          "transactionHash": "0x170c2c01d822194d05d699e83bc1c52ba9a2acaa3575cd2d29d002846e7ccd28",
          "transactionIndex": "0x95",
          "logIndex": "0x9c",
          "removed": false
        }
      ],
      "logsBloom": "0x00008000000000800000000000000008000000000000000000000000000000000000000000000000000000000400000000000000000000000000000000040000000000000000020000000108020000000000000100040000000000000000000000800000020000000000000000000800000001000000000000000010000000000000000000000000000800000000000000000000000080000020000000000180000800000000000000000000000000002000000000000000000000000000008000000002000000000000000000100000000000000004400000000000000060000000000000000200201000000000000000000000000000008000000000000020",
      "type": "0x2",
      "transactionHash": "0x170c2c01d822194d05d699e83bc1c52ba9a2acaa3575cd2d29d002846e7ccd28",
      "transactionIndex": "0x95",
      "blockHash": "0x434424d3b4b8ad0c83e7187552a0c183e37cd43a645aef0dae4e8b24355ad68f",
      "blockNumber": "0x761649",
      "gasUsed": "0x4cd90",
      "effectiveGasPrice": "0x1e2303a1",
      "from": "0x6f9aaaad96180b3d6c71fbbae2c1c5d5193a64ec",
      "to": "0xd804c5ccaa9bf0acfa635151049e8f785cc0767e",
      "contractAddress": null
    },
    {
      "status": "0x1",
      "cumulativeGasUsed": "0x904987",
      "logs": [],
      "logsBloom": "0x00000000000000000000000000000000000000000000000000000000000000000000000000000000000000000000000000000000000000000000000000000000000000000000000000000000000000000000000000000000000000000000000000000000000000000000000000000000000000000000000000000000000000000000000000000000000000000000000000000000000000000000000000000000000000000000000000000000000000000000000000000000000000000000000000000000000000000000000000000000000000000000000000000000000000000000000000000000000000000000000000000000000000000000000000000000",
      "type": "0x2",
      "transactionHash": "0xe51319dab3f6e2560f314f17bca6fb8148ca2b530765c1ce3ad7a6109685f783",
      "transactionIndex": "0x75",
      "blockHash": "0x6842db2bacf59b73f7c4005b30c6fe9013b381ff8477af53deaca0f3fef7f252",
      "blockNumber": "0x76164a",
      "gasUsed": "0x7336",
      "effectiveGasPrice": "0x1debbc7d",
      "from": "0x6f9aaaad96180b3d6c71fbbae2c1c5d5193a64ec",
      "to": "0x491b0f234e3f62c2412deeb23258be552f879527",
      "contractAddress": null
    },
    {
      "status": "0x1",
      "cumulativeGasUsed": "0xbb517f",
      "logs": [
        {
          "address": "0x441cbcec3ce4784ff9d16b904503f48131ac6c2e",
          "topics": [
            "0xddf252ad1be2c89b69c2b068fc378daa952ba7f163c4a11628f55a4df523b3ef",
            "0x0000000000000000000000000000000000000000000000000000000000000000",
            "0x00000000000000000000000097ba7778dd9ce27bd4953c136f3b3b7b087e14c1"
          ],
          "data": "0x00000000000000000000000000000000000000000000d3c21bcecceda1000000",
          "blockHash": "0x4b311d6d639c1131d9b6c2c029ed9ffcf27cb9dcf8d1b89b572cad0538f1d6a5",
          "blockNumber": "0x76164b",
          "transactionHash": "0xe4d2e35e920d9ab54dee244494aab23e74da91cc1e782668378143a903851467",
          "transactionIndex": "0x85",
          "logIndex": "0xfd",
          "removed": false
        },
        {
          "address": "0x441cbcec3ce4784ff9d16b904503f48131ac6c2e",
          "topics": [
            "0xddf252ad1be2c89b69c2b068fc378daa952ba7f163c4a11628f55a4df523b3ef",
            "0x00000000000000000000000097ba7778dd9ce27bd4953c136f3b3b7b087e14c1",
            "0x00000000000000000000000018fd55b0c16054abbd2ed0c02ba67a2a64b332c0"
          ],
          "data": "0x0000000000000000000000000000000000000000000000008ac7230489e80000",
          "blockHash": "0x4b311d6d639c1131d9b6c2c029ed9ffcf27cb9dcf8d1b89b572cad0538f1d6a5",
          "blockNumber": "0x76164b",
          "transactionHash": "0xe4d2e35e920d9ab54dee244494aab23e74da91cc1e782668378143a903851467",
          "transactionIndex": "0x85",
          "logIndex": "0xfe",
          "removed": false
        },
        {
          "address": "0x441cbcec3ce4784ff9d16b904503f48131ac6c2e",
          "topics": [
            "0xddf252ad1be2c89b69c2b068fc378daa952ba7f163c4a11628f55a4df523b3ef",
            "0x00000000000000000000000097ba7778dd9ce27bd4953c136f3b3b7b087e14c1",
            "0x0000000000000000000000000000000000000000000000000000000000000002"
          ],
          "data": "0x00000000000000000000000000000000000000000000000000000000000000c8",
          "blockHash": "0x4b311d6d639c1131d9b6c2c029ed9ffcf27cb9dcf8d1b89b572cad0538f1d6a5",
          "blockNumber": "0x76164b",
          "transactionHash": "0xe4d2e35e920d9ab54dee244494aab23e74da91cc1e782668378143a903851467",
          "transactionIndex": "0x85",
          "logIndex": "0xff",
          "removed": false
        },
        {
          "address": "0x441cbcec3ce4784ff9d16b904503f48131ac6c2e",
          "topics": [
            "0xc7f505b2f371ae2175ee4913f4499e1f2633a7b5936321eed1cdaeb6115181d2"
          ],
          "data": "0x0000000000000000000000000000000000000000000000000000000000000001",
          "blockHash": "0x4b311d6d639c1131d9b6c2c029ed9ffcf27cb9dcf8d1b89b572cad0538f1d6a5",
          "blockNumber": "0x76164b",
          "transactionHash": "0xe4d2e35e920d9ab54dee244494aab23e74da91cc1e782668378143a903851467",
          "transactionIndex": "0x85",
          "logIndex": "0x100",
          "removed": false
        }
      ],
      "logsBloom": "0x04000000000000000000000000000000000000000000000000200000200000000000000004000000000100400000000000000000000000000000000000000000000000000000000000000408000000000000000000000000000000000000000000000000020000000000000000000800000000000000000000000010000000000000000000000000000800000000000000000000000080000000000000000000000000000000000000000100000000000000000000000000000000000000000000000002000000000000000000000000040000000004000000000800000020000000000000000000000000004000000000000000008000000000000000000000",
      "type": "0x2",
      "transactionHash": "0xe4d2e35e920d9ab54dee244494aab23e74da91cc1e782668378143a903851467",
      "transactionIndex": "0x85",
      "blockHash": "0x4b311d6d639c1131d9b6c2c029ed9ffcf27cb9dcf8d1b89b572cad0538f1d6a5",
      "blockNumber": "0x76164b",
      "gasUsed": "0x3c266",
      "effectiveGasPrice": "0x1cb34145",
      "from": "0x97ba7778dd9ce27bd4953c136f3b3b7b087e14c1",
      "to": "0xd804c5ccaa9bf0acfa635151049e8f785cc0767e",
      "contractAddress": null
    }
  ],
  "libraries": [],
  "pending": [],
  "returns": {},
  "timestamp": 1739945629,
  "chain": 11155111,
  "commit": "2ad27ed"
}