{
  "transactions": [
    {
      "hash": "0x1ebc33e662c3ffedd2bc437bb610be881c15ac25a50e1b402ce9980e26019414",
      "transactionType": "CALL",
      "contractName": null,
      "contractAddress": "0xd804c5ccaa9bf0acfa635151049e8f785cc0767e",
      "function": "setSignerStatus(address,bool)",
      "arguments": [
        "0x7EC0BF0a4D535Ea220c6bD961e352B752906D568",
        "true"
      ],
      "transaction": {
        "from": "0x97ba7778dd9ce27bd4953c136f3b3b7b087e14c1",
        "to": "0xd804c5ccaa9bf0acfa635151049e8f785cc0767e",
        "gas": "0xfad9",
        "value": "0x0",
        "input": "0x8d0abcda0000000000000000000000007ec0bf0a4d535ea220c6bd961e352b752906d5680000000000000000000000000000000000000000000000000000000000000001",
        "nonce": "0x4b",
        "chainId": "0xaa36a7"
      },
      "additionalContracts": [],
      "isFixedGasLimit": false
    },
    {
      "hash": "0x0fff37803091d4fa07f1d2b4330719a663afab885b94e5a71eb585830b9d2e56",
      "transactionType": "CALL",
      "contractName": null,
      "contractAddress": "0xd804c5ccaa9bf0acfa635151049e8f785cc0767e",
      "function": "setSignerStatus(address,bool)",
      "arguments": [
        "0x4b664eD07D19d0b192A037Cfb331644cA536029d",
        "true"
      ],
      "transaction": {
        "from": "0x97ba7778dd9ce27bd4953c136f3b3b7b087e14c1",
        "to": "0xd804c5ccaa9bf0acfa635151049e8f785cc0767e",
        "gas": "0xfad9",
        "value": "0x0",
        "input": "0x8d0abcda0000000000000000000000004b664ed07d19d0b192a037cfb331644ca536029d0000000000000000000000000000000000000000000000000000000000000001",
        "nonce": "0x4c",
        "chainId": "0xaa36a7"
      },
      "additionalContracts": [],
      "isFixedGasLimit": false
    }
  ],
  "receipts": [
    {
      "status": "0x1",
      "cumulativeGasUsed": "0xf83be3",
      "logs": [],
      "logsBloom": "0x00000000000000000000000000000000000000000000000000000000000000000000000000000000000000000000000000000000000000000000000000000000000000000000000000000000000000000000000000000000000000000000000000000000000000000000000000000000000000000000000000000000000000000000000000000000000000000000000000000000000000000000000000000000000000000000000000000000000000000000000000000000000000000000000000000000000000000000000000000000000000000000000000000000000000000000000000000000000000000000000000000000000000000000000000000000",
      "type": "0x2",
      "transactionHash": "0x1ebc33e662c3ffedd2bc437bb610be881c15ac25a50e1b402ce9980e26019414",
      "transactionIndex": "0xac",
      "blockHash": "0x3e3e1e483e1739d68c9584d40a1a2d9b2f9a612c281b57930d463c14d2733f3f",
      "blockNumber": "0x7615d7",
      "gasUsed": "0xb59d",
      "effectiveGasPrice": "0x212c52ca",
      "from": "0x97ba7778dd9ce27bd4953c136f3b3b7b087e14c1",
      "to": "0xd804c5ccaa9bf0acfa635151049e8f785cc0767e",
      "contractAddress": null
    },
    {
      "status": "0x1",
      "cumulativeGasUsed": "0xf8f180",
      "logs": [],
      "logsBloom": "0x00000000000000000000000000000000000000000000000000000000000000000000000000000000000000000000000000000000000000000000000000000000000000000000000000000000000000000000000000000000000000000000000000000000000000000000000000000000000000000000000000000000000000000000000000000000000000000000000000000000000000000000000000000000000000000000000000000000000000000000000000000000000000000000000000000000000000000000000000000000000000000000000000000000000000000000000000000000000000000000000000000000000000000000000000000000",
      "type": "0x2",
      "transactionHash": "0x0fff37803091d4fa07f1d2b4330719a663afab885b94e5a71eb585830b9d2e56",
      "transactionIndex": "0xad",
      "blockHash": "0x3e3e1e483e1739d68c9584d40a1a2d9b2f9a612c281b57930d463c14d2733f3f",
      "blockNumber": "0x7615d7",
      "gasUsed": "0xb59d",
      "effectiveGasPrice": "0x212c52ca",
      "from": "0x97ba7778dd9ce27bd4953c136f3b3b7b087e14c1",
      "to": "0xd804c5ccaa9bf0acfa635151049e8f785cc0767e",
      "contractAddress": null
    }
  ],
  "libraries": [],
  "pending": [],
  "returns": {},
  "timestamp": 1739944214,
  "chain": 11155111,
  "commit": "2ad27ed"
}