{
  "transactions": [
    {
      "hash": "0x03761e62c44098b86a6c484c826d81b4cda8b27efb3bb2aba13bb5708e611e85",
      "transactionType": "CALL",
      "contractName": null,
      "contractAddress": "0x8d1454f9ac6363e20664c1ae29bf47c38a354f25",
      "function": "executeEncodedTxBatch(address[],uint256[],bytes[])",
      "arguments": [
        "[0x28466e3e92CB6FB292618D0faEbB49624f4d6f0C, 0x28466e3e92CB6FB292618D0faEbB49624f4d6f0C, 0x89b8AA89FDd0507a99d334CBe3C808fAFC7d850E]",
        "[0, 0, 0]",
        "[0xc56a27a000000000000000000000000000000000000000000000000000000000000000200000000000000000000000005992fe461f81c8e0affa95b831e50e9b3854ba0e00000000000000000000000000000000000000000000000000000000000001000000000000000000000000000000000000000000000000000000000000000140000000000000000000000000000000000000000000000000000000000000018000000000000000000000000000000000000000000000000000000000000001c000000000000000000000000000000000000000000000000000000000000001e0000000000000000000000000000000000000000000000000000000000000020000000000000000000000000000000000000000000000000000000000000002600000000000000000000000000000000000000000000000000000000000000016456e76656c6f7020563220536d61727420496e646578000000000000000000000000000000000000000000000000000000000000000000000000000000000009454e56454c4f5056320000000000000000000000000000000000000000000000000000000000000000000000000000000000000000000000000000000000001d68747470733a2f2f6170692e656e76656c6f702e69732f77616c6c6574000000000000000000000000000000000000000000000000000000000000000000000000000000000000000000000000000000000000000000000000000000000000000000000000000000000000000000000000000000000000000000000000000002000000000000000000000000000000000000000000000000000000000000000000000000000000000000000000000000000000000000000000000000000000000000000000000000000000000000000000000000000000000000000000000000, 0xc56a27a000000000000000000000000000000000000000000000000000000000000000200000000000000000000000005992fe461f81c8e0affa95b831e50e9b3854ba0e00000000000000000000000000000000000000000000000000000000000001000000000000000000000000000000000000000000000000000000000000000140000000000000000000000000000000000000000000000000000000000000018000000000000000000000000000000000000000000000000000000000000001c000000000000000000000000000000000000000000000000000000000000001e0000000000000000000000000000000000000000000000000000000000000020000000000000000000000000000000000000000000000000000000000000002600000000000000000000000000000000000000000000000000000000000000016456e76656c6f7020563220536d61727420496e646578000000000000000000000000000000000000000000000000000000000000000000000000000000000009454e56454c4f5056320000000000000000000000000000000000000000000000000000000000000000000000000000000000000000000000000000000000001d68747470733a2f2f6170692e656e76656c6f702e69732f77616c6c6574000000000000000000000000000000000000000000000000000000000000000000000000000000000000000000000000000000000000000000000000000000000000000000000000000000000000000000000000000000000000000000000000000002000000000000000000000000000000000000000000000000000000000000000000000000000000000000000000000000000000000000000000000000000000000000000000000000000000000000000000000000000000000000000000000000, 0x83bd37f9000155d398326f99059ff775485246999027b319795500018ac76a51cc950d9822d68b83fe1ad97b32cd580d08016345785d8a000008016340d27492d77000c49b0001c46785891bc0dc3a1b88a6ba39a78ab7f5850846000126edaedaeb73365de1b6a9305e95dcc9b4635a5d00018d1454f9ac6363e20664c1ae29bf47c38a354f2500000000030102030022010100010200ff000000000000000000000000000000000000000026edaedaeb73365de1b6a9305e95dcc9b4635a5d55d398326f99059ff775485246999027b3197955000000000000000000000000000000000000000000000000]"
      ],
      "transaction": {
        "from": "0x97ba7778dd9ce27bd4953c136f3b3b7b087e14c1",
        "to": "0x8d1454f9ac6363e20664c1ae29bf47c38a354f25",
        "gas": "0xd59b0",
        "value": "0x0",
        "input": "0xd42053bc000000000000000000000000000000000000000000000000000000000000006000000000000000000000000000000000000000000000000000000000000000e00000000000000000000000000000000000000000000000000000000000000160000000000000000000000000000000000000000000000000000000000000000300000000000000000000000028466e3e92cb6fb292618d0faebb49624f4d6f0c00000000000000000000000028466e3e92cb6fb292618d0faebb49624f4d6f0c00000000000000000000000089b8aa89fdd0507a99d334cbe3c808fafc7d850e0000000000000000000000000000000000000000000000000000000000000003000000000000000000000000000000000000000000000000000000000000000000000000000000000000000000000000000000000000000000000000000000000000000000000000000000000000000000000000000000000000000000000000000000000000000000000000000000000000000000000000000000000000000300000000000000000000000000000000000000000000000000000000000000600000000000000000000000000000000000000000000000000000000000000340000000000000000000000000000000000000000000000000000000000000062000000000000000000000000000000000000000000000000000000000000002a4c56a27a000000000000000000000000000000000000000000000000000000000000000200000000000000000000000005992fe461f81c8e0affa95b831e50e9b3854ba0e00000000000000000000000000000000000000000000000000000000000001000000000000000000000000000000000000000000000000000000000000000140000000000000000000000000000000000000000000000000000000000000018000000000000000000000000000000000000000000000000000000000000001c000000000000000000000000000000000000000000000000000000000000001e0000000000000000000000000000000000000000000000000000000000000020000000000000000000000000000000000000000000000000000000000000002600000000000000000000000000000000000000000000000000000000000000016456e76656c6f7020563220536d61727420496e646578000000000000000000000000000000000000000000000000000000000000000000000000000000000009454e56454c4f5056320000000000000000000000000000000000000000000000000000000000000000000000000000000000000000000000000000000000001d68747470733a2f2f6170692e656e76656c6f702e69732f77616c6c65740000000000000000000000000000000000000000000000000000000000000000000000000000000000000000000000000000000000000000000000000000000000000000000000000000000000000000000000000000000000000000000000000000020000000000000000000000000000000000000000000000000000000000000000000000000000000000000000000000000000000000000000000000000000000000000000000000000000000000000000000000000000000000000000000000000000000000000000000000000000000000000000000000000000000000000000000000000000000000000000000000000000000000000000000002a4c56a27a000000000000000000000000000000000000000000000000000000000000000200000000000000000000000005992fe461f81c8e0affa95b831e50e9b3854ba0e00000000000000000000000000000000000000000000000000000000000001000000000000000000000000000000000000000000000000000000000000000140000000000000000000000000000000000000000000000000000000000000018000000000000000000000000000000000000000000000000000000000000001c000000000000000000000000000000000000000000000000000000000000001e0000000000000000000000000000000000000000000000000000000000000020000000000000000000000000000000000000000000000000000000000000002600000000000000000000000000000000000000000000000000000000000000016456e76656c6f7020563220536d61727420496e646578000000000000000000000000000000000000000000000000000000000000000000000000000000000009454e56454c4f5056320000000000000000000000000000000000000000000000000000000000000000000000000000000000000000000000000000000000001d68747470733a2f2f6170692e656e76656c6f702e69732f77616c6c65740000000000000000000000000000000000000000000000000000000000000000000000000000000000000000000000000000000000000000000000000000000000000000000000000000000000000000000000000000000000000000000000000000020000000000000000000000000000000000000000000000000000000000000000000000000000000000000000000000000000000000000000000000000000000000000000000000000000000000000000000000000000000000000000000000000000000000000000000000000000000000000000000000000000000000000000000000000000000000000000000000000000000000000000000000ec83bd37f9000155d398326f99059ff775485246999027b319795500018ac76a51cc950d9822d68b83fe1ad97b32cd580d08016345785d8a000008016340d27492d77000c49b0001c46785891bc0dc3a1b88a6ba39a78ab7f5850846000126edaedaeb73365de1b6a9305e95dcc9b4635a5d00018d1454f9ac6363e20664c1ae29bf47c38a354f2500000000030102030022010100010200ff000000000000000000000000000000000000000026edaedaeb73365de1b6a9305e95dcc9b4635a5d55d398326f99059ff775485246999027b31979550000000000000000000000000000000000000000000000000000000000000000000000000000000000000000",
        "nonce": "0x0",
        "chainId": "0x38"
      },
      "additionalContracts": [
        {
          "transactionType": "CREATE2",
          "address": "0x96207dc904589fc0c91d8d54ee5ab9d5895380b3",
          "initCode": "0x3d602d80600a3d3981f3363d3d373d3d3d363d7328466e3e92cb6fb292618d0faebb49624f4d6f0c5af43d82803e903d91602b57fd5bf3"
        },
        {
          "transactionType": "CREATE2",
          "address": "0x491042676aef2ea2d7752c60ece5e0dbc044bafb",
          "initCode": "0x3d602d80600a3d3981f3363d3d373d3d3d363d7328466e3e92cb6fb292618d0faebb49624f4d6f0c5af43d82803e903d91602b57fd5bf3"
        }
      ],
      "isFixedGasLimit": false
    }
  ],
  "receipts": [
    {
      "status": "0x1",
      "cumulativeGasUsed": "0x8efc78",
      "logs": [
        {
          "address": "0x96207dc904589fc0c91d8d54ee5ab9d5895380b3",
          "topics": [
            "0xddf252ad1be2c89b69c2b068fc378daa952ba7f163c4a11628f55a4df523b3ef",
            "0x0000000000000000000000000000000000000000000000000000000000000000",
            "0x0000000000000000000000005992fe461f81c8e0affa95b831e50e9b3854ba0e",
            "0x0000000000000000000000000000000000000000000000000000000000000001"
          ],
          "data": "0x",
          "blockHash": "0x5e350576d4368d3efb34248694094c21206b89ee3c368674130973f1757a18c7",
          "blockNumber": "0x2c0561b",
          "transactionHash": "0x03761e62c44098b86a6c484c826d81b4cda8b27efb3bb2aba13bb5708e611e85",
          "transactionIndex": "0x56",
          "logIndex": "0x17e",
          "removed": false
        },
        {
          "address": "0x96207dc904589fc0c91d8d54ee5ab9d5895380b3",
          "topics": [
            "0xf8e1a15aba9398e019f0b49df1a4fde98ee17ae345cb5f6b5e2c27f5033e8ce7"
          ],
          "data": "0x0000000000000000000000000000000000000000000000000000000000000001",
          "blockHash": "0x5e350576d4368d3efb34248694094c21206b89ee3c368674130973f1757a18c7",
          "blockNumber": "0x2c0561b",
          "transactionHash": "0x03761e62c44098b86a6c484c826d81b4cda8b27efb3bb2aba13bb5708e611e85",
          "transactionIndex": "0x56",
          "logIndex": "0x17f",
          "removed": false
        },
        {
          "address": "0x96207dc904589fc0c91d8d54ee5ab9d5895380b3",
          "topics": [
            "0xfa6883374d3785c826e28c69c68c1b6dd2178accc8623f49c6829a75487419b3",
            "0x0000000000000000000000005992fe461f81c8e0affa95b831e50e9b3854ba0e",
            "0x0000000000000000000000000000000000000000000000000000000000000001",
            "0x0000000000000000000000000000000000000000000000000000000000000000"
          ],
          "data": "0x000000000000000000000000000000000000000000000000000000000000002000000000000000000000000000000000000000000000000000000000000000a00000000000000000000000000000000000000000000000000000000000000020000000000000000000000000000000000000000000000000000000000000004000000000000000000000000000000000000000000000000000000000000000000000000000000000000000000000000000000000000000000000000000000005322e302e31000000000000000000000000000000000000000000000000000000",
          "blockHash": "0x5e350576d4368d3efb34248694094c21206b89ee3c368674130973f1757a18c7",
          "blockNumber": "0x2c0561b",
          "transactionHash": "0x03761e62c44098b86a6c484c826d81b4cda8b27efb3bb2aba13bb5708e611e85",
          "transactionIndex": "0x56",
          "logIndex": "0x180",
          "removed": false
        },
        {
          "address": "0x96207dc904589fc0c91d8d54ee5ab9d5895380b3",
          "topics": [
            "0xc7f505b2f371ae2175ee4913f4499e1f2633a7b5936321eed1cdaeb6115181d2"
          ],
          "data": "0x0000000000000000000000000000000000000000000000000000000000000001",
          "blockHash": "0x5e350576d4368d3efb34248694094c21206b89ee3c368674130973f1757a18c7",
          "blockNumber": "0x2c0561b",
          "transactionHash": "0x03761e62c44098b86a6c484c826d81b4cda8b27efb3bb2aba13bb5708e611e85",
          "transactionIndex": "0x56",
          "logIndex": "0x181",
          "removed": false
        },
        {
          "address": "0xbdb5201565925ae934a5622f0e7091affceed5eb",
          "topics": [
            "0x8dc66cafb77b325538c856bfa5892b31ca7305adfa48f6a09e030e261cda0795",
            "0x00000000000000000000000096207dc904589fc0c91d8d54ee5ab9d5895380b3",
            "0x00000000000000000000000028466e3e92cb6fb292618d0faebb49624f4d6f0c"
          ],
          "data": "0x00000000000000000000000000000000000000000000000000000000000007d2",
          "blockHash": "0x5e350576d4368d3efb34248694094c21206b89ee3c368674130973f1757a18c7",
          "blockNumber": "0x2c0561b",
          "transactionHash": "0x03761e62c44098b86a6c484c826d81b4cda8b27efb3bb2aba13bb5708e611e85",
          "transactionIndex": "0x56",
          "logIndex": "0x182",
          "removed": false
        },
        {
          "address": "0x491042676aef2ea2d7752c60ece5e0dbc044bafb",
          "topics": [
            "0xddf252ad1be2c89b69c2b068fc378daa952ba7f163c4a11628f55a4df523b3ef",
            "0x0000000000000000000000000000000000000000000000000000000000000000",
            "0x0000000000000000000000005992fe461f81c8e0affa95b831e50e9b3854ba0e",
            "0x0000000000000000000000000000000000000000000000000000000000000001"
          ],
          "data": "0x",
          "blockHash": "0x5e350576d4368d3efb34248694094c21206b89ee3c368674130973f1757a18c7",
          "blockNumber": "0x2c0561b",
          "transactionHash": "0x03761e62c44098b86a6c484c826d81b4cda8b27efb3bb2aba13bb5708e611e85",
          "transactionIndex": "0x56",
          "logIndex": "0x183",
          "removed": false
        },
        {
          "address": "0x491042676aef2ea2d7752c60ece5e0dbc044bafb",
          "topics": [
            "0xf8e1a15aba9398e019f0b49df1a4fde98ee17ae345cb5f6b5e2c27f5033e8ce7"
          ],
          "data": "0x0000000000000000000000000000000000000000000000000000000000000001",
          "blockHash": "0x5e350576d4368d3efb34248694094c21206b89ee3c368674130973f1757a18c7",
          "blockNumber": "0x2c0561b",
          "transactionHash": "0x03761e62c44098b86a6c484c826d81b4cda8b27efb3bb2aba13bb5708e611e85",
          "transactionIndex": "0x56",
          "logIndex": "0x184",
          "removed": false
        },
        {
          "address": "0x491042676aef2ea2d7752c60ece5e0dbc044bafb",
          "topics": [
            "0xfa6883374d3785c826e28c69c68c1b6dd2178accc8623f49c6829a75487419b3",
            "0x0000000000000000000000005992fe461f81c8e0affa95b831e50e9b3854ba0e",
            "0x0000000000000000000000000000000000000000000000000000000000000001",
            "0x0000000000000000000000000000000000000000000000000000000000000000"
          ],
          "data": "0x000000000000000000000000000000000000000000000000000000000000002000000000000000000000000000000000000000000000000000000000000000a00000000000000000000000000000000000000000000000000000000000000020000000000000000000000000000000000000000000000000000000000000004000000000000000000000000000000000000000000000000000000000000000000000000000000000000000000000000000000000000000000000000000000005322e302e31000000000000000000000000000000000000000000000000000000",
          "blockHash": "0x5e350576d4368d3efb34248694094c21206b89ee3c368674130973f1757a18c7",
          "blockNumber": "0x2c0561b",
          "transactionHash": "0x03761e62c44098b86a6c484c826d81b4cda8b27efb3bb2aba13bb5708e611e85",
          "transactionIndex": "0x56",
          "logIndex": "0x185",
          "removed": false
        },
        {
          "address": "0x491042676aef2ea2d7752c60ece5e0dbc044bafb",
          "topics": [
            "0xc7f505b2f371ae2175ee4913f4499e1f2633a7b5936321eed1cdaeb6115181d2"
          ],
          "data": "0x0000000000000000000000000000000000000000000000000000000000000001",
          "blockHash": "0x5e350576d4368d3efb34248694094c21206b89ee3c368674130973f1757a18c7",
          "blockNumber": "0x2c0561b",
          "transactionHash": "0x03761e62c44098b86a6c484c826d81b4cda8b27efb3bb2aba13bb5708e611e85",
          "transactionIndex": "0x56",
          "logIndex": "0x186",
          "removed": false
        },
        {
          "address": "0xbdb5201565925ae934a5622f0e7091affceed5eb",
          "topics": [
            "0x8dc66cafb77b325538c856bfa5892b31ca7305adfa48f6a09e030e261cda0795",
            "0x000000000000000000000000491042676aef2ea2d7752c60ece5e0dbc044bafb",
            "0x00000000000000000000000028466e3e92cb6fb292618d0faebb49624f4d6f0c"
          ],
          "data": "0x00000000000000000000000000000000000000000000000000000000000007d2",
          "blockHash": "0x5e350576d4368d3efb34248694094c21206b89ee3c368674130973f1757a18c7",
          "blockNumber": "0x2c0561b",
          "transactionHash": "0x03761e62c44098b86a6c484c826d81b4cda8b27efb3bb2aba13bb5708e611e85",
          "transactionIndex": "0x56",
          "logIndex": "0x187",
          "removed": false
        },
        {
          "address": "0x55d398326f99059ff775485246999027b3197955",
          "topics": [
            "0xddf252ad1be2c89b69c2b068fc378daa952ba7f163c4a11628f55a4df523b3ef",
            "0x0000000000000000000000008d1454f9ac6363e20664c1ae29bf47c38a354f25",
            "0x00000000000000000000000026edaedaeb73365de1b6a9305e95dcc9b4635a5d"
          ],
          "data": "0x000000000000000000000000000000000000000000000000016345785d8a0000",
          "blockHash": "0x5e350576d4368d3efb34248694094c21206b89ee3c368674130973f1757a18c7",
          "blockNumber": "0x2c0561b",
          "transactionHash": "0x03761e62c44098b86a6c484c826d81b4cda8b27efb3bb2aba13bb5708e611e85",
          "transactionIndex": "0x56",
          "logIndex": "0x188",
          "removed": false
        },
        {
          "address": "0x55d398326f99059ff775485246999027b3197955",
          "topics": [
            "0x8c5be1e5ebec7d5bd14f71427d1e84f3dd0314c0f7b2291e5b200ac8c7c3b925",
            "0x0000000000000000000000008d1454f9ac6363e20664c1ae29bf47c38a354f25",
            "0x00000000000000000000000089b8aa89fdd0507a99d334cbe3c808fafc7d850e"
          ],
          "data": "0x0000000000000000000000000000000000000000000000000de0b6b3a7640000",
          "blockHash": "0x5e350576d4368d3efb34248694094c21206b89ee3c368674130973f1757a18c7",
          "blockNumber": "0x2c0561b",
          "transactionHash": "0x03761e62c44098b86a6c484c826d81b4cda8b27efb3bb2aba13bb5708e611e85",
          "transactionIndex": "0x56",
          "logIndex": "0x189",
          "removed": false
        },
        {
          "address": "0x8ac76a51cc950d9822d68b83fe1ad97b32cd580d",
          "topics": [
            "0xddf252ad1be2c89b69c2b068fc378daa952ba7f163c4a11628f55a4df523b3ef",
            "0x00000000000000000000000026edaedaeb73365de1b6a9305e95dcc9b4635a5d",
            "0x00000000000000000000000089b8aa89fdd0507a99d334cbe3c808fafc7d850e"
          ],
          "data": "0x000000000000000000000000000000000000000000000000016340d27492f524",
          "blockHash": "0x5e350576d4368d3efb34248694094c21206b89ee3c368674130973f1757a18c7",
          "blockNumber": "0x2c0561b",
          "transactionHash": "0x03761e62c44098b86a6c484c826d81b4cda8b27efb3bb2aba13bb5708e611e85",
          "transactionIndex": "0x56",
          "logIndex": "0x18a",
          "removed": false
        },
        {
          "address": "0x8ac76a51cc950d9822d68b83fe1ad97b32cd580d",
          "topics": [
            "0xddf252ad1be2c89b69c2b068fc378daa952ba7f163c4a11628f55a4df523b3ef",
            "0x00000000000000000000000026edaedaeb73365de1b6a9305e95dcc9b4635a5d",
            "0x000000000000000000000000caa42f09af66a8bae3a7445a7f63dad97c11638b"
          ],
          "data": "0x0000000000000000000000000000000000000000000000000000002e90705d6c",
          "blockHash": "0x5e350576d4368d3efb34248694094c21206b89ee3c368674130973f1757a18c7",
          "blockNumber": "0x2c0561b",
          "transactionHash": "0x03761e62c44098b86a6c484c826d81b4cda8b27efb3bb2aba13bb5708e611e85",
          "transactionIndex": "0x56",
          "logIndex": "0x18b",
          "removed": false
        },
        {
          "address": "0x26edaedaeb73365de1b6a9305e95dcc9b4635a5d",
          "topics": [
            "0xc2c0245e056d5fb095f04cd6373bc770802ebd1e6c918eb78fdef843cdb37b0f"
          ],
          "data": "0x00000000000000000000000055d398326f99059ff775485246999027b31979550000000000000000000000008ac76a51cc950d9822d68b83fe1ad97b32cd580d000000000000000000000000000000000000000000000000016345785d8a0000000000000000000000000000000000000000000000000000016340d27492f524000000000000000000000000c46785891bc0dc3a1b88a6ba39a78ab7f585084600000000000000000000000089b8aa89fdd0507a99d334cbe3c808fafc7d850e",
          "blockHash": "0x5e350576d4368d3efb34248694094c21206b89ee3c368674130973f1757a18c7",
          "blockNumber": "0x2c0561b",
          "transactionHash": "0x03761e62c44098b86a6c484c826d81b4cda8b27efb3bb2aba13bb5708e611e85",
          "transactionIndex": "0x56",
          "logIndex": "0x18c",
          "removed": false
        },
        {
          "address": "0x8ac76a51cc950d9822d68b83fe1ad97b32cd580d",
          "topics": [
            "0xddf252ad1be2c89b69c2b068fc378daa952ba7f163c4a11628f55a4df523b3ef",
            "0x00000000000000000000000089b8aa89fdd0507a99d334cbe3c808fafc7d850e",
            "0x0000000000000000000000008d1454f9ac6363e20664c1ae29bf47c38a354f25"
          ],
          "data": "0x000000000000000000000000000000000000000000000000016340d27492d770",
          "blockHash": "0x5e350576d4368d3efb34248694094c21206b89ee3c368674130973f1757a18c7",
          "blockNumber": "0x2c0561b",
          "transactionHash": "0x03761e62c44098b86a6c484c826d81b4cda8b27efb3bb2aba13bb5708e611e85",
          "transactionIndex": "0x56",
          "logIndex": "0x18d",
          "removed": false
        },
        {
          "address": "0x89b8aa89fdd0507a99d334cbe3c808fafc7d850e",
          "topics": [
            "0x823eaf01002d7353fbcadb2ea3305cc46fa35d799cb0914846d185ac06f8ad05"
          ],
          "data": "0x0000000000000000000000008d1454f9ac6363e20664c1ae29bf47c38a354f25000000000000000000000000000000000000000000000000016345785d8a000000000000000000000000000055d398326f99059ff775485246999027b3197955000000000000000000000000000000000000000000000000016340d27492d7700000000000000000000000008ac76a51cc950d9822d68b83fe1ad97b32cd580d0000000000000000000000000000000000000000000000000000000000001db40000000000000000000000000000000000000000000000000000000000000000",
          "blockHash": "0x5e350576d4368d3efb34248694094c21206b89ee3c368674130973f1757a18c7",
          "blockNumber": "0x2c0561b",
          "transactionHash": "0x03761e62c44098b86a6c484c826d81b4cda8b27efb3bb2aba13bb5708e611e85",
          "transactionIndex": "0x56",
          "logIndex": "0x18e",
          "removed": false
        }
      ],
      "logsBloom": "0x0000000000000480000000000010000000000000000000000002100000000000400010200000000000001000000100000000010000000000000002000024008000000000100002800100010800000800000000010004000000000000100000040000000002000000000000002000080000000000000080040000001000001000000000080000000000880000200000800100000000008000000004040000408002000000000008000000002000000022200000004100010004000010000000800000010200000000000020000010000020000000000540000000000080006000401000000000c000200000000000000000000080000002000000000000080000",
      "type": "0x0",
      "transactionHash": "0x03761e62c44098b86a6c484c826d81b4cda8b27efb3bb2aba13bb5708e611e85",
      "transactionIndex": "0x56",
      "blockHash": "0x5e350576d4368d3efb34248694094c21206b89ee3c368674130973f1757a18c7",
      "blockNumber": "0x2c0561b",
      "gasUsed": "0x920e2",
      "effectiveGasPrice": "0x3b9aca00",
      "from": "0x97ba7778dd9ce27bd4953c136f3b3b7b087e14c1",
      "to": "0x8d1454f9ac6363e20664c1ae29bf47c38a354f25",
      "contractAddress": null
    }
  ],
  "libraries": [],
  "pending": [],
  "returns": {},
  "timestamp": 1738059467,
  "chain": 56,
  "commit": "dc26f9f"
}