{
  "transactions": [
    {
      "hash": "0x61c7ecf382da10763a45ed0619f6e97d205152be35dd7c3a332b8781faab65e1",
      "transactionType": "CALL",
      "contractName": "WNFTV2Index",
      "contractAddress": "0x8d1454f9ac6363e20664c1ae29bf47c38a354f25",
      "function": "executeEncodedTxBatch(address[],uint256[],bytes[])",
      "arguments": [
        "[0x28466e3e92CB6FB292618D0faEbB49624f4d6f0C, 0x28466e3e92CB6FB292618D0faEbB49624f4d6f0C, 0x89b8AA89FDd0507a99d334CBe3C808fAFC7d850E]",
        "[0, 0, 0]",
        "[0xc56a27a000000000000000000000000000000000000000000000000000000000000000200000000000000000000000005992fe461f81c8e0affa95b831e50e9b3854ba0e00000000000000000000000000000000000000000000000000000000000001000000000000000000000000000000000000000000000000000000000000000140000000000000000000000000000000000000000000000000000000000000018000000000000000000000000000000000000000000000000000000000000001c000000000000000000000000000000000000000000000000000000000000001e0000000000000000000000000000000000000000000000000000000000000020000000000000000000000000000000000000000000000000000000000000002600000000000000000000000000000000000000000000000000000000000000016456e76656c6f7020563220536d61727420496e646578000000000000000000000000000000000000000000000000000000000000000000000000000000000009454e56454c4f5056320000000000000000000000000000000000000000000000000000000000000000000000000000000000000000000000000000000000001d68747470733a2f2f6170692e656e76656c6f702e69732f77616c6c6574000000000000000000000000000000000000000000000000000000000000000000000000000000000000000000000000000000000000000000000000000000000000000000000000000000000000000000000000000000000000000000000000000002000000000000000000000000000000000000000000000000000000000000000000000000000000000000000000000000000000000000000000000000000000000000000000000000000000000000000000000000000000000000000000000000, 0xc56a27a000000000000000000000000000000000000000000000000000000000000000200000000000000000000000005992fe461f81c8e0affa95b831e50e9b3854ba0e00000000000000000000000000000000000000000000000000000000000001000000000000000000000000000000000000000000000000000000000000000140000000000000000000000000000000000000000000000000000000000000018000000000000000000000000000000000000000000000000000000000000001c000000000000000000000000000000000000000000000000000000000000001e0000000000000000000000000000000000000000000000000000000000000020000000000000000000000000000000000000000000000000000000000000002600000000000000000000000000000000000000000000000000000000000000016456e76656c6f7020563220536d61727420496e646578000000000000000000000000000000000000000000000000000000000000000000000000000000000009454e56454c4f5056320000000000000000000000000000000000000000000000000000000000000000000000000000000000000000000000000000000000001d68747470733a2f2f6170692e656e76656c6f702e69732f77616c6c6574000000000000000000000000000000000000000000000000000000000000000000000000000000000000000000000000000000000000000000000000000000000000000000000000000000000000000000000000000000000000000000000000000002000000000000000000000000000000000000000000000000000000000000000000000000000000000000000000000000000000000000000000000000000000000000000000000000000000000000000000000000000000000000000000000000, 0x84a7f3dd01020001c46785891bc0dc3a1b88a6ba39a78ab7f58508460b097854efd41c1580000000000155d398326f99059ff775485246999027b3197955072386f26fc10000000000018ac76a51cc950d9822d68b83fe1ad97b32cd580d043b98a0c900018d1454f9ac6363e20664c1ae29bf47c38a354f250000059ddceea5c400018d1454f9ac6363e20664c1ae29bf47c38a354f2500000000060203060187d79f49030102010203001e000e0200040301040600000203020100010501140001ff000000000000000000000000000000000000000000000000006190e79064213e6a2997355153f57904fb4910c3764aecc7c8136f4501f75b3187ef6f8246c976ed55d398326f99059ff775485246999027b319795547a90a2d92a8367a91efa1906bfc8c1e05bf10c4431e0cd023a32532bf3969cddfc002c00e98429d00000000000000000000000000000000000000000000000000000000]"
      ],
      "transaction": {
        "from": "0x5992fe461f81c8e0affa95b831e50e9b3854ba0e",
        "to": "0x8d1454f9ac6363e20664c1ae29bf47c38a354f25",
        "gas": "0x1199e2",
        "value": "0x0",
        "input": "0xd42053bc000000000000000000000000000000000000000000000000000000000000006000000000000000000000000000000000000000000000000000000000000000e00000000000000000000000000000000000000000000000000000000000000160000000000000000000000000000000000000000000000000000000000000000300000000000000000000000028466e3e92cb6fb292618d0faebb49624f4d6f0c00000000000000000000000028466e3e92cb6fb292618d0faebb49624f4d6f0c00000000000000000000000089b8aa89fdd0507a99d334cbe3c808fafc7d850e0000000000000000000000000000000000000000000000000000000000000003000000000000000000000000000000000000000000000000000000000000000000000000000000000000000000000000000000000000000000000000000000000000000000000000000000000000000000000000000000000000000000000000000000000000000000000000000000000000000000000000000000000000000300000000000000000000000000000000000000000000000000000000000000600000000000000000000000000000000000000000000000000000000000000340000000000000000000000000000000000000000000000000000000000000062000000000000000000000000000000000000000000000000000000000000002a4c56a27a000000000000000000000000000000000000000000000000000000000000000200000000000000000000000005992fe461f81c8e0affa95b831e50e9b3854ba0e00000000000000000000000000000000000000000000000000000000000001000000000000000000000000000000000000000000000000000000000000000140000000000000000000000000000000000000000000000000000000000000018000000000000000000000000000000000000000000000000000000000000001c000000000000000000000000000000000000000000000000000000000000001e0000000000000000000000000000000000000000000000000000000000000020000000000000000000000000000000000000000000000000000000000000002600000000000000000000000000000000000000000000000000000000000000016456e76656c6f7020563220536d61727420496e646578000000000000000000000000000000000000000000000000000000000000000000000000000000000009454e56454c4f5056320000000000000000000000000000000000000000000000000000000000000000000000000000000000000000000000000000000000001d68747470733a2f2f6170692e656e76656c6f702e69732f77616c6c65740000000000000000000000000000000000000000000000000000000000000000000000000000000000000000000000000000000000000000000000000000000000000000000000000000000000000000000000000000000000000000000000000000020000000000000000000000000000000000000000000000000000000000000000000000000000000000000000000000000000000000000000000000000000000000000000000000000000000000000000000000000000000000000000000000000000000000000000000000000000000000000000000000000000000000000000000000000000000000000000000000000000000000000000000002a4c56a27a000000000000000000000000000000000000000000000000000000000000000200000000000000000000000005992fe461f81c8e0affa95b831e50e9b3854ba0e00000000000000000000000000000000000000000000000000000000000001000000000000000000000000000000000000000000000000000000000000000140000000000000000000000000000000000000000000000000000000000000018000000000000000000000000000000000000000000000000000000000000001c000000000000000000000000000000000000000000000000000000000000001e0000000000000000000000000000000000000000000000000000000000000020000000000000000000000000000000000000000000000000000000000000002600000000000000000000000000000000000000000000000000000000000000016456e76656c6f7020563220536d61727420496e646578000000000000000000000000000000000000000000000000000000000000000000000000000000000009454e56454c4f5056320000000000000000000000000000000000000000000000000000000000000000000000000000000000000000000000000000000000001d68747470733a2f2f6170692e656e76656c6f702e69732f77616c6c657400000000000000000000000000000000000000000000000000000000000000000000000000000000000000000000000000000000000000000000000000000000000000000000000000000000000000000000000000000000000000000000000000000200000000000000000000000000000000000000000000000000000000000000000000000000000000000000000000000000000000000000000000000000000000000000000000000000000000000000000000000000000000000000000000000000000000000000000000000000000000000000000000000000000000000000000000000000000000000000000000000000000000000000000000015c84a7f3dd01020001c46785891bc0dc3a1b88a6ba39a78ab7f58508460b097854efd41c1580000000000155d398326f99059ff775485246999027b3197955072386f26fc10000000000018ac76a51cc950d9822d68b83fe1ad97b32cd580d043b98a0c900018d1454f9ac6363e20664c1ae29bf47c38a354f250000059ddceea5c400018d1454f9ac6363e20664c1ae29bf47c38a354f2500000000060203060187d79f49030102010203001e000e0200040301040600000203020100010501140001ff000000000000000000000000000000000000000000000000006190e79064213e6a2997355153f57904fb4910c3764aecc7c8136f4501f75b3187ef6f8246c976ed55d398326f99059ff775485246999027b319795547a90a2d92a8367a91efa1906bfc8c1e05bf10c4431e0cd023a32532bf3969cddfc002c00e98429d0000000000000000000000000000000000000000000000000000000000000000",
        "nonce": "0x2c7",
        "chainId": "0x38"
      },
      "additionalContracts": [
        {
          "transactionType": "CREATE2",
          "address": "0x61d9affa2f76fa83fd8ca890cc00ee6c286bd502",
          "initCode": "0x3d602d80600a3d3981f3363d3d373d3d3d363d7328466e3e92cb6fb292618d0faebb49624f4d6f0c5af43d82803e903d91602b57fd5bf3"
        },
        {
          "transactionType": "CREATE2",
          "address": "0x153a2c68fb748ca01b99e5146e81443aa1dee295",
          "initCode": "0x3d602d80600a3d3981f3363d3d373d3d3d363d7328466e3e92cb6fb292618d0faebb49624f4d6f0c5af43d82803e903d91602b57fd5bf3"
        }
      ],
      "isFixedGasLimit": false
    }
  ],
  "receipts": [
    {
      "status": "0x1",
      "cumulativeGasUsed": "0x5ed42c",
      "logs": [
        {
          "address": "0x61d9affa2f76fa83fd8ca890cc00ee6c286bd502",
          "topics": [
            "0xddf252ad1be2c89b69c2b068fc378daa952ba7f163c4a11628f55a4df523b3ef",
            "0x0000000000000000000000000000000000000000000000000000000000000000",
            "0x0000000000000000000000005992fe461f81c8e0affa95b831e50e9b3854ba0e",
            "0x0000000000000000000000000000000000000000000000000000000000000001"
          ],
          "data": "0x",
          "blockHash": "0x4e10b4bd2ae58034392b453147827a280fc99cc56c13ea404dbceb947d10d0f8",
          "blockNumber": "0x2c0b725",
          "transactionHash": "0x61c7ecf382da10763a45ed0619f6e97d205152be35dd7c3a332b8781faab65e1",
          "transactionIndex": "0x3d",
          "logIndex": "0x7f",
          "removed": false
        },
        {
          "address": "0x61d9affa2f76fa83fd8ca890cc00ee6c286bd502",
          "topics": [
            "0xf8e1a15aba9398e019f0b49df1a4fde98ee17ae345cb5f6b5e2c27f5033e8ce7"
          ],
          "data": "0x0000000000000000000000000000000000000000000000000000000000000001",
          "blockHash": "0x4e10b4bd2ae58034392b453147827a280fc99cc56c13ea404dbceb947d10d0f8",
          "blockNumber": "0x2c0b725",
          "transactionHash": "0x61c7ecf382da10763a45ed0619f6e97d205152be35dd7c3a332b8781faab65e1",
          "transactionIndex": "0x3d",
          "logIndex": "0x80",
          "removed": false
        },
        {
          "address": "0x61d9affa2f76fa83fd8ca890cc00ee6c286bd502",
          "topics": [
            "0xfa6883374d3785c826e28c69c68c1b6dd2178accc8623f49c6829a75487419b3",
            "0x0000000000000000000000005992fe461f81c8e0affa95b831e50e9b3854ba0e",
            "0x0000000000000000000000000000000000000000000000000000000000000001",
            "0x0000000000000000000000000000000000000000000000000000000000000000"
          ],
          "data": "0x000000000000000000000000000000000000000000000000000000000000002000000000000000000000000000000000000000000000000000000000000000a00000000000000000000000000000000000000000000000000000000000000020000000000000000000000000000000000000000000000000000000000000004000000000000000000000000000000000000000000000000000000000000000000000000000000000000000000000000000000000000000000000000000000005322e302e31000000000000000000000000000000000000000000000000000000",
          "blockHash": "0x4e10b4bd2ae58034392b453147827a280fc99cc56c13ea404dbceb947d10d0f8",
          "blockNumber": "0x2c0b725",
          "transactionHash": "0x61c7ecf382da10763a45ed0619f6e97d205152be35dd7c3a332b8781faab65e1",
          "transactionIndex": "0x3d",
          "logIndex": "0x81",
          "removed": false
        },
        {
          "address": "0x61d9affa2f76fa83fd8ca890cc00ee6c286bd502",
          "topics": [
            "0xc7f505b2f371ae2175ee4913f4499e1f2633a7b5936321eed1cdaeb6115181d2"
          ],
          "data": "0x0000000000000000000000000000000000000000000000000000000000000001",
          "blockHash": "0x4e10b4bd2ae58034392b453147827a280fc99cc56c13ea404dbceb947d10d0f8",
          "blockNumber": "0x2c0b725",
          "transactionHash": "0x61c7ecf382da10763a45ed0619f6e97d205152be35dd7c3a332b8781faab65e1",
          "transactionIndex": "0x3d",
          "logIndex": "0x82",
          "removed": false
        },
        {
          "address": "0xbdb5201565925ae934a5622f0e7091affceed5eb",
          "topics": [
            "0x8dc66cafb77b325538c856bfa5892b31ca7305adfa48f6a09e030e261cda0795",
            "0x00000000000000000000000061d9affa2f76fa83fd8ca890cc00ee6c286bd502",
            "0x00000000000000000000000028466e3e92cb6fb292618d0faebb49624f4d6f0c"
          ],
          "data": "0x00000000000000000000000000000000000000000000000000000000000007d2",
          "blockHash": "0x4e10b4bd2ae58034392b453147827a280fc99cc56c13ea404dbceb947d10d0f8",
          "blockNumber": "0x2c0b725",
          "transactionHash": "0x61c7ecf382da10763a45ed0619f6e97d205152be35dd7c3a332b8781faab65e1",
          "transactionIndex": "0x3d",
          "logIndex": "0x83",
          "removed": false
        },
        {
          "address": "0x153a2c68fb748ca01b99e5146e81443aa1dee295",
          "topics": [
            "0xddf252ad1be2c89b69c2b068fc378daa952ba7f163c4a11628f55a4df523b3ef",
            "0x0000000000000000000000000000000000000000000000000000000000000000",
            "0x0000000000000000000000005992fe461f81c8e0affa95b831e50e9b3854ba0e",
            "0x0000000000000000000000000000000000000000000000000000000000000001"
          ],
          "data": "0x",
          "blockHash": "0x4e10b4bd2ae58034392b453147827a280fc99cc56c13ea404dbceb947d10d0f8",
          "blockNumber": "0x2c0b725",
          "transactionHash": "0x61c7ecf382da10763a45ed0619f6e97d205152be35dd7c3a332b8781faab65e1",
          "transactionIndex": "0x3d",
          "logIndex": "0x84",
          "removed": false
        },
        {
          "address": "0x153a2c68fb748ca01b99e5146e81443aa1dee295",
          "topics": [
            "0xf8e1a15aba9398e019f0b49df1a4fde98ee17ae345cb5f6b5e2c27f5033e8ce7"
          ],
          "data": "0x0000000000000000000000000000000000000000000000000000000000000001",
          "blockHash": "0x4e10b4bd2ae58034392b453147827a280fc99cc56c13ea404dbceb947d10d0f8",
          "blockNumber": "0x2c0b725",
          "transactionHash": "0x61c7ecf382da10763a45ed0619f6e97d205152be35dd7c3a332b8781faab65e1",
          "transactionIndex": "0x3d",
          "logIndex": "0x85",
          "removed": false
        },
        {
          "address": "0x153a2c68fb748ca01b99e5146e81443aa1dee295",
          "topics": [
            "0xfa6883374d3785c826e28c69c68c1b6dd2178accc8623f49c6829a75487419b3",
            "0x0000000000000000000000005992fe461f81c8e0affa95b831e50e9b3854ba0e",
            "0x0000000000000000000000000000000000000000000000000000000000000001",
            "0x0000000000000000000000000000000000000000000000000000000000000000"
          ],
          "data": "0x000000000000000000000000000000000000000000000000000000000000002000000000000000000000000000000000000000000000000000000000000000a00000000000000000000000000000000000000000000000000000000000000020000000000000000000000000000000000000000000000000000000000000004000000000000000000000000000000000000000000000000000000000000000000000000000000000000000000000000000000000000000000000000000000005322e302e31000000000000000000000000000000000000000000000000000000",
          "blockHash": "0x4e10b4bd2ae58034392b453147827a280fc99cc56c13ea404dbceb947d10d0f8",
          "blockNumber": "0x2c0b725",
          "transactionHash": "0x61c7ecf382da10763a45ed0619f6e97d205152be35dd7c3a332b8781faab65e1",
          "transactionIndex": "0x3d",
          "logIndex": "0x86",
          "removed": false
        },
        {
          "address": "0x153a2c68fb748ca01b99e5146e81443aa1dee295",
          "topics": [
            "0xc7f505b2f371ae2175ee4913f4499e1f2633a7b5936321eed1cdaeb6115181d2"
          ],
          "data": "0x0000000000000000000000000000000000000000000000000000000000000001",
          "blockHash": "0x4e10b4bd2ae58034392b453147827a280fc99cc56c13ea404dbceb947d10d0f8",
          "blockNumber": "0x2c0b725",
          "transactionHash": "0x61c7ecf382da10763a45ed0619f6e97d205152be35dd7c3a332b8781faab65e1",
          "transactionIndex": "0x3d",
          "logIndex": "0x87",
          "removed": false
        },
        {
          "address": "0xbdb5201565925ae934a5622f0e7091affceed5eb",
          "topics": [
            "0x8dc66cafb77b325538c856bfa5892b31ca7305adfa48f6a09e030e261cda0795",
            "0x000000000000000000000000153a2c68fb748ca01b99e5146e81443aa1dee295",
            "0x00000000000000000000000028466e3e92cb6fb292618d0faebb49624f4d6f0c"
          ],
          "data": "0x00000000000000000000000000000000000000000000000000000000000007d2",
          "blockHash": "0x4e10b4bd2ae58034392b453147827a280fc99cc56c13ea404dbceb947d10d0f8",
          "blockNumber": "0x2c0b725",
          "transactionHash": "0x61c7ecf382da10763a45ed0619f6e97d205152be35dd7c3a332b8781faab65e1",
          "transactionIndex": "0x3d",
          "logIndex": "0x88",
          "removed": false
        },
        {
          "address": "0x55d398326f99059ff775485246999027b3197955",
          "topics": [
            "0xddf252ad1be2c89b69c2b068fc378daa952ba7f163c4a11628f55a4df523b3ef",
            "0x0000000000000000000000008d1454f9ac6363e20664c1ae29bf47c38a354f25",
            "0x000000000000000000000000c46785891bc0dc3a1b88a6ba39a78ab7f5850846"
          ],
          "data": "0x000000000000000000000000000000000000000000000000002386f26fc10000",
          "blockHash": "0x4e10b4bd2ae58034392b453147827a280fc99cc56c13ea404dbceb947d10d0f8",
          "blockNumber": "0x2c0b725",
          "transactionHash": "0x61c7ecf382da10763a45ed0619f6e97d205152be35dd7c3a332b8781faab65e1",
          "transactionIndex": "0x3d",
          "logIndex": "0x89",
          "removed": false
        },
        {
          "address": "0x55d398326f99059ff775485246999027b3197955",
          "topics": [
            "0x8c5be1e5ebec7d5bd14f71427d1e84f3dd0314c0f7b2291e5b200ac8c7c3b925",
            "0x0000000000000000000000008d1454f9ac6363e20664c1ae29bf47c38a354f25",
            "0x00000000000000000000000089b8aa89fdd0507a99d334cbe3c808fafc7d850e"
          ],
          "data": "0x0000000000000000000000000000000000000000000000000dbd2fc137a30000",
          "blockHash": "0x4e10b4bd2ae58034392b453147827a280fc99cc56c13ea404dbceb947d10d0f8",
          "blockNumber": "0x2c0b725",
          "transactionHash": "0x61c7ecf382da10763a45ed0619f6e97d205152be35dd7c3a332b8781faab65e1",
          "transactionIndex": "0x3d",
          "logIndex": "0x8a",
          "removed": false
        },
        {
          "address": "0x55d398326f99059ff775485246999027b3197955",
          "topics": [
            "0xddf252ad1be2c89b69c2b068fc378daa952ba7f163c4a11628f55a4df523b3ef",
            "0x000000000000000000000000c46785891bc0dc3a1b88a6ba39a78ab7f5850846",
            "0x000000000000000000000000764aecc7c8136f4501f75b3187ef6f8246c976ed"
          ],
          "data": "0x0000000000000000000000000000000000000000000000000012da16497cb0a1",
          "blockHash": "0x4e10b4bd2ae58034392b453147827a280fc99cc56c13ea404dbceb947d10d0f8",
          "blockNumber": "0x2c0b725",
          "transactionHash": "0x61c7ecf382da10763a45ed0619f6e97d205152be35dd7c3a332b8781faab65e1",
          "transactionIndex": "0x3d",
          "logIndex": "0x8b",
          "removed": false
        },
        {
          "address": "0x431e0cd023a32532bf3969cddfc002c00e98429d",
          "topics": [
            "0xddf252ad1be2c89b69c2b068fc378daa952ba7f163c4a11628f55a4df523b3ef",
            "0x000000000000000000000000764aecc7c8136f4501f75b3187ef6f8246c976ed",
            "0x0000000000000000000000006190e79064213e6a2997355153f57904fb4910c3"
          ],
          "data": "0x000000000000000000000000000000000000000000000000006e9e66e5ddc0bc",
          "blockHash": "0x4e10b4bd2ae58034392b453147827a280fc99cc56c13ea404dbceb947d10d0f8",
          "blockNumber": "0x2c0b725",
          "transactionHash": "0x61c7ecf382da10763a45ed0619f6e97d205152be35dd7c3a332b8781faab65e1",
          "transactionIndex": "0x3d",
          "logIndex": "0x8c",
          "removed": false
        },
        {
          "address": "0x764aecc7c8136f4501f75b3187ef6f8246c976ed",
          "topics": [
            "0x1c411e9a96e071241c2f21f7726b17ae89e3cab4c78be50e062b03a9fffbbad1"
          ],
          "data": "0x00000000000000000000000000000000000000000000011984f4087f848e71a200000000000000000000000000000000000000000000002fd56233ecbbe42460",
          "blockHash": "0x4e10b4bd2ae58034392b453147827a280fc99cc56c13ea404dbceb947d10d0f8",
          "blockNumber": "0x2c0b725",
          "transactionHash": "0x61c7ecf382da10763a45ed0619f6e97d205152be35dd7c3a332b8781faab65e1",
          "transactionIndex": "0x3d",
          "logIndex": "0x8d",
          "removed": false
        },
        {
          "address": "0x764aecc7c8136f4501f75b3187ef6f8246c976ed",
          "topics": [
            "0xd78ad95fa46c994b6551d0da85fc275fe613ce37657fb8d5e3d130840159d822",
            "0x000000000000000000000000c46785891bc0dc3a1b88a6ba39a78ab7f5850846",
            "0x0000000000000000000000006190e79064213e6a2997355153f57904fb4910c3"
          ],
          "data": "0x00000000000000000000000000000000000000000000000000000000000000000000000000000000000000000000000000000000000000000012da16497cb0a1000000000000000000000000000000000000000000000000006e9e66e5ddc0bc0000000000000000000000000000000000000000000000000000000000000000",
          "blockHash": "0x4e10b4bd2ae58034392b453147827a280fc99cc56c13ea404dbceb947d10d0f8",
          "blockNumber": "0x2c0b725",
          "transactionHash": "0x61c7ecf382da10763a45ed0619f6e97d205152be35dd7c3a332b8781faab65e1",
          "transactionIndex": "0x3d",
          "logIndex": "0x8e",
          "removed": false
        },
        {
          "address": "0xbb4cdb9cbd36b01bd1cbaebf2de08d9173bc095c",
          "topics": [
            "0xddf252ad1be2c89b69c2b068fc378daa952ba7f163c4a11628f55a4df523b3ef",
            "0x00000000000000000000000047a90a2d92a8367a91efa1906bfc8c1e05bf10c4",
            "0x000000000000000000000000c46785891bc0dc3a1b88a6ba39a78ab7f5850846"
          ],
          "data": "0x0000000000000000000000000000000000000000000000000000064b4a7e0245",
          "blockHash": "0x4e10b4bd2ae58034392b453147827a280fc99cc56c13ea404dbceb947d10d0f8",
          "blockNumber": "0x2c0b725",
          "transactionHash": "0x61c7ecf382da10763a45ed0619f6e97d205152be35dd7c3a332b8781faab65e1",
          "transactionIndex": "0x3d",
          "logIndex": "0x8f",
          "removed": false
        },
        {
          "address": "0x55d398326f99059ff775485246999027b3197955",
          "topics": [
            "0xddf252ad1be2c89b69c2b068fc378daa952ba7f163c4a11628f55a4df523b3ef",
            "0x000000000000000000000000c46785891bc0dc3a1b88a6ba39a78ab7f5850846",
            "0x00000000000000000000000047a90a2d92a8367a91efa1906bfc8c1e05bf10c4"
          ],
          "data": "0x0000000000000000000000000000000000000000000000000010acdc26444f5f",
          "blockHash": "0x4e10b4bd2ae58034392b453147827a280fc99cc56c13ea404dbceb947d10d0f8",
          "blockNumber": "0x2c0b725",
          "transactionHash": "0x61c7ecf382da10763a45ed0619f6e97d205152be35dd7c3a332b8781faab65e1",
          "transactionIndex": "0x3d",
          "logIndex": "0x90",
          "removed": false
        },
        {
          "address": "0x47a90a2d92a8367a91efa1906bfc8c1e05bf10c4",
          "topics": [
            "0xc42079f94a6350d7e6235f29174924f928cc2ac818eb64fed8004e115fbcca67",
            "0x000000000000000000000000c46785891bc0dc3a1b88a6ba39a78ab7f5850846",
            "0x000000000000000000000000c46785891bc0dc3a1b88a6ba39a78ab7f5850846"
          ],
          "data": "0x0000000000000000000000000000000000000000000000000010acdc26444f5ffffffffffffffffffffffffffffffffffffffffffffffffffffff9b4b581fdbb000000000000000000000000000000000000000009d497624ce7f68f7155e1fc00000000000000000000000000000000000000000000756d5fc1204ed5211593ffffffffffffffffffffffffffffffffffffffffffffffffffffffffffff0152",
          "blockHash": "0x4e10b4bd2ae58034392b453147827a280fc99cc56c13ea404dbceb947d10d0f8",
          "blockNumber": "0x2c0b725",
          "transactionHash": "0x61c7ecf382da10763a45ed0619f6e97d205152be35dd7c3a332b8781faab65e1",
          "transactionIndex": "0x3d",
          "logIndex": "0x91",
          "removed": false
        },
        {
          "address": "0xbb4cdb9cbd36b01bd1cbaebf2de08d9173bc095c",
          "topics": [
            "0x7fcf532c15f0a6db0bd6d0e038bea71d30d808c7d98cb3bf7268a95bf5081b65",
            "0x000000000000000000000000c46785891bc0dc3a1b88a6ba39a78ab7f5850846"
          ],
          "data": "0x0000000000000000000000000000000000000000000000000000064b4a7e0245",
          "blockHash": "0x4e10b4bd2ae58034392b453147827a280fc99cc56c13ea404dbceb947d10d0f8",
          "blockNumber": "0x2c0b725",
          "transactionHash": "0x61c7ecf382da10763a45ed0619f6e97d205152be35dd7c3a332b8781faab65e1",
          "transactionIndex": "0x3d",
          "logIndex": "0x92",
          "removed": false
        },
        {
          "address": "0x8ac76a51cc950d9822d68b83fe1ad97b32cd580d",
          "topics": [
            "0xddf252ad1be2c89b69c2b068fc378daa952ba7f163c4a11628f55a4df523b3ef",
            "0x0000000000000000000000006190e79064213e6a2997355153f57904fb4910c3",
            "0x00000000000000000000000089b8aa89fdd0507a99d334cbe3c808fafc7d850e"
          ],
          "data": "0x0000000000000000000000000000000000000000000000000018229e288d169f",
          "blockHash": "0x4e10b4bd2ae58034392b453147827a280fc99cc56c13ea404dbceb947d10d0f8",
          "blockNumber": "0x2c0b725",
          "transactionHash": "0x61c7ecf382da10763a45ed0619f6e97d205152be35dd7c3a332b8781faab65e1",
          "transactionIndex": "0x3d",
          "logIndex": "0x93",
          "removed": false
        },
        {
          "address": "0x431e0cd023a32532bf3969cddfc002c00e98429d",
          "topics": [
            "0xddf252ad1be2c89b69c2b068fc378daa952ba7f163c4a11628f55a4df523b3ef",
            "0x0000000000000000000000006190e79064213e6a2997355153f57904fb4910c3",
            "0x000000000000000000000000664ce330511653cb2744b8ed50dba31c6c4c08ca"
          ],
          "data": "0x000000000000000000000000000000000000000000000000000006cbe1f316e1",
          "blockHash": "0x4e10b4bd2ae58034392b453147827a280fc99cc56c13ea404dbceb947d10d0f8",
          "blockNumber": "0x2c0b725",
          "transactionHash": "0x61c7ecf382da10763a45ed0619f6e97d205152be35dd7c3a332b8781faab65e1",
          "transactionIndex": "0x3d",
          "logIndex": "0x94",
          "removed": false
        },
        {
          "address": "0x431e0cd023a32532bf3969cddfc002c00e98429d",
          "topics": [
            "0xddf252ad1be2c89b69c2b068fc378daa952ba7f163c4a11628f55a4df523b3ef",
            "0x0000000000000000000000006190e79064213e6a2997355153f57904fb4910c3",
            "0x0000000000000000000000000de341a1b98d0c5b8fed4d67645086cb5380d694"
          ],
          "data": "0x000000000000000000000000000000000000000000000000000031d723a15277",
          "blockHash": "0x4e10b4bd2ae58034392b453147827a280fc99cc56c13ea404dbceb947d10d0f8",
          "blockNumber": "0x2c0b725",
          "transactionHash": "0x61c7ecf382da10763a45ed0619f6e97d205152be35dd7c3a332b8781faab65e1",
          "transactionIndex": "0x3d",
          "logIndex": "0x95",
          "removed": false
        },
        {
          "address": "0x6190e79064213e6a2997355153f57904fb4910c3",
          "topics": [
            "0x112c256902bf554b6ed882d2936687aaeb4225e8cd5b51303c90ca6cf43a8602",
            "0x000000000000000000000000c46785891bc0dc3a1b88a6ba39a78ab7f5850846"
          ],
          "data": "0x000000000000000000000000000000000000000000000000000038a3059469580000000000000000000000000000000000000000000000000000000000000000",
          "blockHash": "0x4e10b4bd2ae58034392b453147827a280fc99cc56c13ea404dbceb947d10d0f8",
          "blockNumber": "0x2c0b725",
          "transactionHash": "0x61c7ecf382da10763a45ed0619f6e97d205152be35dd7c3a332b8781faab65e1",
          "transactionIndex": "0x3d",
          "logIndex": "0x96",
          "removed": false
        },
        {
          "address": "0x6190e79064213e6a2997355153f57904fb4910c3",
          "topics": [
            "0xcf2aa50876cdfbb541206f89af0ee78d44a2abf8d328e37fa4917f982149848a"
          ],
          "data": "0x0000000000000000000000000000000000000000000000000769bb6700e826bb0000000000000000000000000000000000000000000000000186bfbf73cf50c7",
          "blockHash": "0x4e10b4bd2ae58034392b453147827a280fc99cc56c13ea404dbceb947d10d0f8",
          "blockNumber": "0x2c0b725",
          "transactionHash": "0x61c7ecf382da10763a45ed0619f6e97d205152be35dd7c3a332b8781faab65e1",
          "transactionIndex": "0x3d",
          "logIndex": "0x97",
          "removed": false
        },
        {
          "address": "0x6190e79064213e6a2997355153f57904fb4910c3",
          "topics": [
            "0xd78ad95fa46c994b6551d0da85fc275fe613ce37657fb8d5e3d130840159d822",
            "0x000000000000000000000000c46785891bc0dc3a1b88a6ba39a78ab7f5850846",
            "0x00000000000000000000000089b8aa89fdd0507a99d334cbe3c808fafc7d850e"
          ],
          "data": "0x000000000000000000000000000000000000000000000000006e9e66e5ddc0bc000000000000000000000000000000000000000000000000000000000000000000000000000000000000000000000000000000000000000000000000000000000000000000000000000000000000000000000000000000000018229e288d169f",
          "blockHash": "0x4e10b4bd2ae58034392b453147827a280fc99cc56c13ea404dbceb947d10d0f8",
          "blockNumber": "0x2c0b725",
          "transactionHash": "0x61c7ecf382da10763a45ed0619f6e97d205152be35dd7c3a332b8781faab65e1",
          "transactionIndex": "0x3d",
          "logIndex": "0x98",
          "removed": false
        },
        {
          "address": "0x8ac76a51cc950d9822d68b83fe1ad97b32cd580d",
          "topics": [
            "0xddf252ad1be2c89b69c2b068fc378daa952ba7f163c4a11628f55a4df523b3ef",
            "0x00000000000000000000000089b8aa89fdd0507a99d334cbe3c808fafc7d850e",
            "0x0000000000000000000000008d1454f9ac6363e20664c1ae29bf47c38a354f25"
          ],
          "data": "0x000000000000000000000000000000000000000000000000001821fffc5c8962",
          "blockHash": "0x4e10b4bd2ae58034392b453147827a280fc99cc56c13ea404dbceb947d10d0f8",
          "blockNumber": "0x2c0b725",
          "transactionHash": "0x61c7ecf382da10763a45ed0619f6e97d205152be35dd7c3a332b8781faab65e1",
          "transactionIndex": "0x3d",
          "logIndex": "0x99",
          "removed": false
        },
        {
          "address": "0x8d1454f9ac6363e20664c1ae29bf47c38a354f25",
          "topics": [
            "0x26399b60fa9117e91f9cf4e690f18a117d22841f62fb4ece7e7c799a97cb6a07",
            "0x00000000000000000000000000000000000000000000000000053d6e83c60094",
            "0x0000000000000000000000000000000000000000000000000000064b213e4094",
            "0x00000000000000000000000089b8aa89fdd0507a99d334cbe3c808fafc7d850e"
          ],
          "data": "0x",
          "blockHash": "0x4e10b4bd2ae58034392b453147827a280fc99cc56c13ea404dbceb947d10d0f8",
          "blockNumber": "0x2c0b725",
          "transactionHash": "0x61c7ecf382da10763a45ed0619f6e97d205152be35dd7c3a332b8781faab65e1",
          "transactionIndex": "0x3d",
          "logIndex": "0x9a",
          "removed": false
        },
        {
          "address": "0x89b8aa89fdd0507a99d334cbe3c808fafc7d850e",
          "topics": [
            "0x7d7fb03518253ae01913536628b78d6d82e63e19b943aab5f4948356021259be"
          ],
          "data": "0x0000000000000000000000008d1454f9ac6363e20664c1ae29bf47c38a354f2500000000000000000000000000000000000000000000000000000000000000c00000000000000000000000000000000000000000000000000000000000000100000000000000000000000000000000000000000000000000000000000000014000000000000000000000000000000000000000000000000000000000000001a000000000000000000000000000000000000000000000000000000000000000000000000000000000000000000000000000000000000000000000000000000001000000000000000000000000000000000000000000000000002386f26fc10000000000000000000000000000000000000000000000000000000000000000000100000000000000000000000055d398326f99059ff775485246999027b31979550000000000000000000000000000000000000000000000000000000000000002000000000000000000000000000000000000000000000000001821fffc5c89620000000000000000000000000000000000000000000000000000064b213e409400000000000000000000000000000000000000000000000000000000000000020000000000000000000000008ac76a51cc950d9822d68b83fe1ad97b32cd580d0000000000000000000000000000000000000000000000000000000000000000",
          "blockHash": "0x4e10b4bd2ae58034392b453147827a280fc99cc56c13ea404dbceb947d10d0f8",
          "blockNumber": "0x2c0b725",
          "transactionHash": "0x61c7ecf382da10763a45ed0619f6e97d205152be35dd7c3a332b8781faab65e1",
          "transactionIndex": "0x3d",
          "logIndex": "0x9b",
          "removed": false
        },
        {
          "address": "0x8d1454f9ac6363e20664c1ae29bf47c38a354f25",
          "topics": [
            "0xc4784f333fb4f086174aa7cc56e2eb0850c39bbda8f955f72ee77d54b13a3dd9",
            "0x000000000000000000000000000000000000000000000000000537236287c000",
            "0x00000000000000000000000000000000000000000000000000053d6e83c60094",
            "0x0000000000000000000000000000000000000000000000000000000000000000"
          ],
          "data": "0x0000000000000000000000005992fe461f81c8e0affa95b831e50e9b3854ba0e",
          "blockHash": "0x4e10b4bd2ae58034392b453147827a280fc99cc56c13ea404dbceb947d10d0f8",
          "blockNumber": "0x2c0b725",
          "transactionHash": "0x61c7ecf382da10763a45ed0619f6e97d205152be35dd7c3a332b8781faab65e1",
          "transactionIndex": "0x3d",
          "logIndex": "0x9c",
          "removed": false
        }
      ],
      "logsBloom": "0x10200000000010800800000080004000000000000000000000000000000000004100002000008000000000880041200000408180001021000000000000240080000000200020020801000108000008208000000000440400000c000010000004040800010205004000000001040018000020000010008404000020100008024008200008000000048088038000000080080450000000800801000040000040800200840000002000000000010000001220080020410000000404000000400082040200020000040000000004201000002000000000544210000000020000e000001000000000c002200000000000010000000080000000200000000000080000",
      "type": "0x0",
      "transactionHash": "0x61c7ecf382da10763a45ed0619f6e97d205152be35dd7c3a332b8781faab65e1",
      "transactionIndex": "0x3d",
      "blockHash": "0x4e10b4bd2ae58034392b453147827a280fc99cc56c13ea404dbceb947d10d0f8",
      "blockNumber": "0x2c0b725",
      "gasUsed": "0xcbe3d",
      "effectiveGasPrice": "0x3b9aca00",
      "from": "0x5992fe461f81c8e0affa95b831e50e9b3854ba0e",
      "to": "0x8d1454f9ac6363e20664c1ae29bf47c38a354f25",
      "contractAddress": null
    }
  ],
  "libraries": [],
  "pending": [],
  "returns": {},
  "timestamp": 1738133995,
  "chain": 56,
  "commit": "dc26f9f"
}