{
  "transactions": [
    {
      "hash": null,
      "transactionType": "CALL",
      "contractName": null,
      "contractAddress": "0x8d1454f9ac6363e20664c1ae29bf47c38a354f25",
      "function": "executeEncodedTxBatch(address[],uint256[],bytes[])",
      "arguments": [
        "[0x28466e3e92CB6FB292618D0faEbB49624f4d6f0C, 0x28466e3e92CB6FB292618D0faEbB49624f4d6f0C, 0x89b8AA89FDd0507a99d334CBe3C808fAFC7d850E]",
        "[0, 0, 0]",
        "[0xc56a27a000000000000000000000000000000000000000000000000000000000000000200000000000000000000000005992fe461f81c8e0affa95b831e50e9b3854ba0e00000000000000000000000000000000000000000000000000000000000001000000000000000000000000000000000000000000000000000000000000000140000000000000000000000000000000000000000000000000000000000000018000000000000000000000000000000000000000000000000000000000000001c000000000000000000000000000000000000000000000000000000000000001e0000000000000000000000000000000000000000000000000000000000000020000000000000000000000000000000000000000000000000000000000000002600000000000000000000000000000000000000000000000000000000000000016456e76656c6f7020563220536d61727420496e646578000000000000000000000000000000000000000000000000000000000000000000000000000000000009454e56454c4f5056320000000000000000000000000000000000000000000000000000000000000000000000000000000000000000000000000000000000001d68747470733a2f2f6170692e656e76656c6f702e69732f77616c6c6574000000000000000000000000000000000000000000000000000000000000000000000000000000000000000000000000000000000000000000000000000000000000000000000000000000000000000000000000000000000000000000000000000002000000000000000000000000000000000000000000000000000000000000000000000000000000000000000000000000000000000000000000000000000000000000000000000000000000000000000000000000000000000000000000000000, 0xc56a27a000000000000000000000000000000000000000000000000000000000000000200000000000000000000000005992fe461f81c8e0affa95b831e50e9b3854ba0e00000000000000000000000000000000000000000000000000000000000001000000000000000000000000000000000000000000000000000000000000000140000000000000000000000000000000000000000000000000000000000000018000000000000000000000000000000000000000000000000000000000000001c000000000000000000000000000000000000000000000000000000000000001e0000000000000000000000000000000000000000000000000000000000000020000000000000000000000000000000000000000000000000000000000000002600000000000000000000000000000000000000000000000000000000000000016456e76656c6f7020563220536d61727420496e646578000000000000000000000000000000000000000000000000000000000000000000000000000000000009454e56454c4f5056320000000000000000000000000000000000000000000000000000000000000000000000000000000000000000000000000000000000001d68747470733a2f2f6170692e656e76656c6f702e69732f77616c6c6574000000000000000000000000000000000000000000000000000000000000000000000000000000000000000000000000000000000000000000000000000000000000000000000000000000000000000000000000000000000000000000000000000002000000000000000000000000000000000000000000000000000000000000000000000000000000000000000000000000000000000000000000000000000000000000000000000000000000000000000000000000000000000000000000000000, 0x83bd37f9000155d398326f99059ff775485246999027b319795500018ac76a51cc950d9822d68b83fe1ad97b32cd580d072386f26fc100000723864e50a1965000c49b0001c46785891bc0dc3a1b88a6ba39a78ab7f5850846000000018d1454f9ac6363e20664c1ae29bf47c38a354f250000000003010203000e0101010201ff0000000000000000000000000000000000000000001b9a1120a17617d8ec4dc80b921a9a1c50caef7d55d398326f99059ff775485246999027b3197955000000000000000000000000000000000000000000000000]"
      ],
      "transaction": {
        "from": "0x97ba7778dd9ce27bd4953c136f3b3b7b087e14c1",
        "to": "0x8d1454f9ac6363e20664c1ae29bf47c38a354f25",
        "gas": "0xe749a",
        "value": "0x0",
        "input": "0xd42053bc000000000000000000000000000000000000000000000000000000000000006000000000000000000000000000000000000000000000000000000000000000e00000000000000000000000000000000000000000000000000000000000000160000000000000000000000000000000000000000000000000000000000000000300000000000000000000000028466e3e92cb6fb292618d0faebb49624f4d6f0c00000000000000000000000028466e3e92cb6fb292618d0faebb49624f4d6f0c00000000000000000000000089b8aa89fdd0507a99d334cbe3c808fafc7d850e0000000000000000000000000000000000000000000000000000000000000003000000000000000000000000000000000000000000000000000000000000000000000000000000000000000000000000000000000000000000000000000000000000000000000000000000000000000000000000000000000000000000000000000000000000000000000000000000000000000000000000000000000000000300000000000000000000000000000000000000000000000000000000000000600000000000000000000000000000000000000000000000000000000000000340000000000000000000000000000000000000000000000000000000000000062000000000000000000000000000000000000000000000000000000000000002a4c56a27a000000000000000000000000000000000000000000000000000000000000000200000000000000000000000005992fe461f81c8e0affa95b831e50e9b3854ba0e00000000000000000000000000000000000000000000000000000000000001000000000000000000000000000000000000000000000000000000000000000140000000000000000000000000000000000000000000000000000000000000018000000000000000000000000000000000000000000000000000000000000001c000000000000000000000000000000000000000000000000000000000000001e0000000000000000000000000000000000000000000000000000000000000020000000000000000000000000000000000000000000000000000000000000002600000000000000000000000000000000000000000000000000000000000000016456e76656c6f7020563220536d61727420496e646578000000000000000000000000000000000000000000000000000000000000000000000000000000000009454e56454c4f5056320000000000000000000000000000000000000000000000000000000000000000000000000000000000000000000000000000000000001d68747470733a2f2f6170692e656e76656c6f702e69732f77616c6c65740000000000000000000000000000000000000000000000000000000000000000000000000000000000000000000000000000000000000000000000000000000000000000000000000000000000000000000000000000000000000000000000000000020000000000000000000000000000000000000000000000000000000000000000000000000000000000000000000000000000000000000000000000000000000000000000000000000000000000000000000000000000000000000000000000000000000000000000000000000000000000000000000000000000000000000000000000000000000000000000000000000000000000000000000002a4c56a27a000000000000000000000000000000000000000000000000000000000000000200000000000000000000000005992fe461f81c8e0affa95b831e50e9b3854ba0e00000000000000000000000000000000000000000000000000000000000001000000000000000000000000000000000000000000000000000000000000000140000000000000000000000000000000000000000000000000000000000000018000000000000000000000000000000000000000000000000000000000000001c000000000000000000000000000000000000000000000000000000000000001e0000000000000000000000000000000000000000000000000000000000000020000000000000000000000000000000000000000000000000000000000000002600000000000000000000000000000000000000000000000000000000000000016456e76656c6f7020563220536d61727420496e646578000000000000000000000000000000000000000000000000000000000000000000000000000000000009454e56454c4f5056320000000000000000000000000000000000000000000000000000000000000000000000000000000000000000000000000000000000001d68747470733a2f2f6170692e656e76656c6f702e69732f77616c6c65740000000000000000000000000000000000000000000000000000000000000000000000000000000000000000000000000000000000000000000000000000000000000000000000000000000000000000000000000000000000000000000000000000020000000000000000000000000000000000000000000000000000000000000000000000000000000000000000000000000000000000000000000000000000000000000000000000000000000000000000000000000000000000000000000000000000000000000000000000000000000000000000000000000000000000000000000000000000000000000000000000000000000000000000000000d683bd37f9000155d398326f99059ff775485246999027b319795500018ac76a51cc950d9822d68b83fe1ad97b32cd580d072386f26fc100000723864e50a1965000c49b0001c46785891bc0dc3a1b88a6ba39a78ab7f5850846000000018d1454f9ac6363e20664c1ae29bf47c38a354f250000000003010203000e0101010201ff0000000000000000000000000000000000000000001b9a1120a17617d8ec4dc80b921a9a1c50caef7d55d398326f99059ff775485246999027b319795500000000000000000000000000000000000000000000000000000000000000000000",
        "nonce": "0x0",
        "chainId": "0x38"
      },
      "additionalContracts": [
        {
          "transactionType": "CREATE2",
          "address": "0x96207dc904589fc0c91d8d54ee5ab9d5895380b3",
          "initCode": "0x3d602d80600a3d3981f3363d3d373d3d3d363d7328466e3e92cb6fb292618d0faebb49624f4d6f0c5af43d82803e903d91602b57fd5bf3"
        },
        {
          "transactionType": "CREATE2",
          "address": "0x491042676aef2ea2d7752c60ece5e0dbc044bafb",
          "initCode": "0x3d602d80600a3d3981f3363d3d373d3d3d363d7328466e3e92cb6fb292618d0faebb49624f4d6f0c5af43d82803e903d91602b57fd5bf3"
        }
      ],
      "isFixedGasLimit": false
    }
  ],
  "receipts": [],
  "libraries": [],
  "pending": [],
  "returns": {},
  "timestamp": 1738058738,
  "chain": 56,
  "commit": "dc26f9f"
}