{
  "transactions": [
    {
      "hash": "0x196d85b1ec3fc37fb03003006698afbb5484c4b603e02a3f077b1a9c5081232a",
      "transactionType": "CALL",
      "contractName": "WNFTV2Index",
      "contractAddress": "0x8d1454f9ac6363e20664c1ae29bf47c38a354f25",
      "function": "executeEncodedTxBatch(address[],uint256[],bytes[])",
      "arguments": [
        "[0x8AC76a51cc950d9822D68b83fE1Ad97B32Cd580d, 0x8AC76a51cc950d9822D68b83fE1Ad97B32Cd580d, 0x61d9aFFa2f76fa83Fd8cA890Cc00Ee6c286bD502, 0x153A2c68FB748Ca01b99E5146e81443aa1dEE295]",
        "[0, 0, 737459875020874, 737459875020874]",
        "[0xa9059cbb00000000000000000000000061d9affa2f76fa83fd8ca890cc00ee6c286bd50200000000000000000000000000000000000000000000000000bdb1693877b069, 0xa9059cbb000000000000000000000000153a2c68fb748ca01b99e5146e81443aa1dee29500000000000000000000000000000000000000000000000000bdb1693877b069, 0x, 0x]"
      ],
      "transaction": {
        "from": "0x5992fe461f81c8e0affa95b831e50e9b3854ba0e",
        "to": "0x8d1454f9ac6363e20664c1ae29bf47c38a354f25",
        "gas": "0x2d21f",
        "value": "0x0",
        "input": "0xd42053bc0000000000000000000000000000000000000000000000000000000000000060000000000000000000000000000000000000000000000000000000000000010000000000000000000000000000000000000000000000000000000000000001a000000000000000000000000000000000000000000000000000000000000000040000000000000000000000008ac76a51cc950d9822d68b83fe1ad97b32cd580d0000000000000000000000008ac76a51cc950d9822d68b83fe1ad97b32cd580d00000000000000000000000061d9affa2f76fa83fd8ca890cc00ee6c286bd502000000000000000000000000153a2c68fb748ca01b99e5146e81443aa1dee29500000000000000000000000000000000000000000000000000000000000000040000000000000000000000000000000000000000000000000000000000000000000000000000000000000000000000000000000000000000000000000000000000000000000000000000000000000000000000000000000000029eb741e3004a00000000000000000000000000000000000000000000000000029eb741e3004a000000000000000000000000000000000000000000000000000000000000000400000000000000000000000000000000000000000000000000000000000000800000000000000000000000000000000000000000000000000000000000000100000000000000000000000000000000000000000000000000000000000000018000000000000000000000000000000000000000000000000000000000000001a00000000000000000000000000000000000000000000000000000000000000044a9059cbb00000000000000000000000061d9affa2f76fa83fd8ca890cc00ee6c286bd50200000000000000000000000000000000000000000000000000bdb1693877b069000000000000000000000000000000000000000000000000000000000000000000000000000000000000000000000000000000000000000000000044a9059cbb000000000000000000000000153a2c68fb748ca01b99e5146e81443aa1dee29500000000000000000000000000000000000000000000000000bdb1693877b0690000000000000000000000000000000000000000000000000000000000000000000000000000000000000000000000000000000000000000000000000000000000000000000000000000000000000000000000000000000000000000",
        "nonce": "0x2c8",
        "chainId": "0x38"
      },
      "additionalContracts": [],
      "isFixedGasLimit": false
    }
  ],
  "receipts": [
    {
      "status": "0x1",
      "cumulativeGasUsed": "0x4f687f",
      "logs": [
        {
          "address": "0x8ac76a51cc950d9822d68b83fe1ad97b32cd580d",
          "topics": [
            "0xddf252ad1be2c89b69c2b068fc378daa952ba7f163c4a11628f55a4df523b3ef",
            "0x0000000000000000000000008d1454f9ac6363e20664c1ae29bf47c38a354f25",
            "0x00000000000000000000000061d9affa2f76fa83fd8ca890cc00ee6c286bd502"
          ],
          "data": "0x00000000000000000000000000000000000000000000000000bdb1693877b069",
          "blockHash": "0x889518eb1a894cf370a1f51d082b1dcadd4779f09e9393e2e4b2ae61fda74173",
          "blockNumber": "0x2c0b9f9",
          "transactionHash": "0x196d85b1ec3fc37fb03003006698afbb5484c4b603e02a3f077b1a9c5081232a",
          "transactionIndex": "0x32",
          "logIndex": "0x71",
          "removed": false
        },
        {
          "address": "0x8ac76a51cc950d9822d68b83fe1ad97b32cd580d",
          "topics": [
            "0xddf252ad1be2c89b69c2b068fc378daa952ba7f163c4a11628f55a4df523b3ef",
            "0x0000000000000000000000008d1454f9ac6363e20664c1ae29bf47c38a354f25",
            "0x000000000000000000000000153a2c68fb748ca01b99e5146e81443aa1dee295"
          ],
          "data": "0x00000000000000000000000000000000000000000000000000bdb1693877b069",
          "blockHash": "0x889518eb1a894cf370a1f51d082b1dcadd4779f09e9393e2e4b2ae61fda74173",
          "blockNumber": "0x2c0b9f9",
          "transactionHash": "0x196d85b1ec3fc37fb03003006698afbb5484c4b603e02a3f077b1a9c5081232a",
          "transactionIndex": "0x32",
          "logIndex": "0x72",
          "removed": false
        },
        {
          "address": "0x61d9affa2f76fa83fd8ca890cc00ee6c286bd502",
          "topics": [
            "0x26399b60fa9117e91f9cf4e690f18a117d22841f62fb4ece7e7c799a97cb6a07",
            "0x00000000000000000000000000000000000000000000000000029eb741e3004a",
            "0x00000000000000000000000000000000000000000000000000029eb741e3004a",
            "0x0000000000000000000000008d1454f9ac6363e20664c1ae29bf47c38a354f25"
          ],
          "data": "0x",
          "blockHash": "0x889518eb1a894cf370a1f51d082b1dcadd4779f09e9393e2e4b2ae61fda74173",
          "blockNumber": "0x2c0b9f9",
          "transactionHash": "0x196d85b1ec3fc37fb03003006698afbb5484c4b603e02a3f077b1a9c5081232a",
          "transactionIndex": "0x32",
          "logIndex": "0x73",
          "removed": false
        },
        {
          "address": "0x153a2c68fb748ca01b99e5146e81443aa1dee295",
          "topics": [
            "0x26399b60fa9117e91f9cf4e690f18a117d22841f62fb4ece7e7c799a97cb6a07",
            "0x00000000000000000000000000000000000000000000000000029eb741e3004a",
            "0x00000000000000000000000000000000000000000000000000029eb741e3004a",
            "0x0000000000000000000000008d1454f9ac6363e20664c1ae29bf47c38a354f25"
          ],
          "data": "0x",
          "blockHash": "0x889518eb1a894cf370a1f51d082b1dcadd4779f09e9393e2e4b2ae61fda74173",
          "blockNumber": "0x2c0b9f9",
          "transactionHash": "0x196d85b1ec3fc37fb03003006698afbb5484c4b603e02a3f077b1a9c5081232a",
          "transactionIndex": "0x32",
          "logIndex": "0x74",
          "removed": false
        },
        {
          "address": "0x8d1454f9ac6363e20664c1ae29bf47c38a354f25",
          "topics": [
            "0xc4784f333fb4f086174aa7cc56e2eb0850c39bbda8f955f72ee77d54b13a3dd9",
            "0x00000000000000000000000000000000000000000000000000053d6e83c60094",
            "0x0000000000000000000000000000000000000000000000000000000000000000",
            "0x0000000000000000000000000000000000000000000000000000000000000000"
          ],
          "data": "0x0000000000000000000000005992fe461f81c8e0affa95b831e50e9b3854ba0e",
          "blockHash": "0x889518eb1a894cf370a1f51d082b1dcadd4779f09e9393e2e4b2ae61fda74173",
          "blockNumber": "0x2c0b9f9",
          "transactionHash": "0x196d85b1ec3fc37fb03003006698afbb5484c4b603e02a3f077b1a9c5081232a",
          "transactionIndex": "0x32",
          "logIndex": "0x75",
          "removed": false
        }
      ],
      "logsBloom": "0x10000000000000000000000000004000000000000000000000000000000000004100000000000000000000000000000000400000001001000000000000000080000000000020000000000008000000000000000000000000000800000000000004000400020000000000000000000800003000001000000000002010000000000000000000000004800001000000008000000000000000000100000000000000000084000000000000000000000000000008002040000000000100000000000004000002000000000000000020000000000000000040000000000000000020000000000000004002000000000000000000000000000000000000000000080000",
      "type": "0x0",
      "transactionHash": "0x196d85b1ec3fc37fb03003006698afbb5484c4b603e02a3f077b1a9c5081232a",
      "transactionIndex": "0x32",
      "blockHash": "0x889518eb1a894cf370a1f51d082b1dcadd4779f09e9393e2e4b2ae61fda74173",
      "blockNumber": "0x2c0b9f9",
      "gasUsed": "0x20acf",
      "effectiveGasPrice": "0x3b9aca00",
      "from": "0x5992fe461f81c8e0affa95b831e50e9b3854ba0e",
      "to": "0x8d1454f9ac6363e20664c1ae29bf47c38a354f25",
      "contractAddress": null
    }
  ],
  "libraries": [],
  "pending": [],
  "returns": {},
  "timestamp": 1738136167,
  "chain": 56,
  "commit": "dc26f9f"
}