{
  "transactions": [
    {
      "hash": "0x4f32fc57733285b715971c4def8553af2c050b3ce4429b8cc696cc9f43994e80",
      "transactionType": "CALL",
      "contractName": "WNFTV2Index",
      "contractAddress": "0x28466e3e92cb6fb292618d0faebb49624f4d6f0c",
      "function": "createWNFTonFactory((address,string,string,string,address[],bytes32[],uint256[],bytes))",
      "arguments": [
        "(0x5992Fe461F81C8E0aFFA95b831E50e9b3854BA0E, Envelop V2 Smart Wallet, ENVELOPV2, https://api.envelop.is/wallet, [], [], [0, 0], 0x)"
      ],
      "transaction": {
        "from": "0x5992fe461f81c8e0affa95b831e50e9b3854ba0e",
        "to": "0x28466e3e92cb6fb292618d0faebb49624f4d6f0c",
        "gas": "0x445df",
        "value": "0x0",
        "input": "0x7c3cc70700000000000000000000000000000000000000000000000000000000000000200000000000000000000000005992fe461f81c8e0affa95b831e50e9b3854ba0e00000000000000000000000000000000000000000000000000000000000001000000000000000000000000000000000000000000000000000000000000000140000000000000000000000000000000000000000000000000000000000000018000000000000000000000000000000000000000000000000000000000000001c000000000000000000000000000000000000000000000000000000000000001e0000000000000000000000000000000000000000000000000000000000000020000000000000000000000000000000000000000000000000000000000000002600000000000000000000000000000000000000000000000000000000000000017456e76656c6f7020563220536d6172742057616c6c65740000000000000000000000000000000000000000000000000000000000000000000000000000000009454e56454c4f5056320000000000000000000000000000000000000000000000000000000000000000000000000000000000000000000000000000000000001d68747470733a2f2f6170692e656e76656c6f702e69732f77616c6c6574000000000000000000000000000000000000000000000000000000000000000000000000000000000000000000000000000000000000000000000000000000000000000000000000000000000000000000000000000000000000000000000000000002000000000000000000000000000000000000000000000000000000000000000000000000000000000000000000000000000000000000000000000000000000000000000000000000000000000000000000000000000000000000000000000000",
        "nonce": "0x2c1",
        "chainId": "0x38"
      },
      "additionalContracts": [
        {
          "transactionType": "CREATE",
          "address": "0x8d1454f9ac6363e20664c1ae29bf47c38a354f25",
          "initCode": "0x3d602d80600a3d3981f3363d3d373d3d3d363d7328466e3e92cb6fb292618d0faebb49624f4d6f0c5af43d82803e903d91602b57fd5bf3"
        }
      ],
      "isFixedGasLimit": false
    }
  ],
  "receipts": [
    {
      "status": "0x1",
      "cumulativeGasUsed": "0x9bfe67",
      "logs": [
        {
          "address": "0x8d1454f9ac6363e20664c1ae29bf47c38a354f25",
          "topics": [
            "0xddf252ad1be2c89b69c2b068fc378daa952ba7f163c4a11628f55a4df523b3ef",
            "0x0000000000000000000000000000000000000000000000000000000000000000",
            "0x0000000000000000000000005992fe461f81c8e0affa95b831e50e9b3854ba0e",
            "0x0000000000000000000000000000000000000000000000000000000000000001"
          ],
          "data": "0x",
          "blockHash": "0x5f3185906378bfffb3d7a98903751132bd0ea32cdd1751953f937ef82c4d5225",
          "blockNumber": "0x2bff562",
          "transactionHash": "0x4f32fc57733285b715971c4def8553af2c050b3ce4429b8cc696cc9f43994e80",
          "transactionIndex": "0x7a",
          "logIndex": "0x135",
          "removed": false
        },
        {
          "address": "0x8d1454f9ac6363e20664c1ae29bf47c38a354f25",
          "topics": [
            "0xf8e1a15aba9398e019f0b49df1a4fde98ee17ae345cb5f6b5e2c27f5033e8ce7"
          ],
          "data": "0x0000000000000000000000000000000000000000000000000000000000000001",
          "blockHash": "0x5f3185906378bfffb3d7a98903751132bd0ea32cdd1751953f937ef82c4d5225",
          "blockNumber": "0x2bff562",
          "transactionHash": "0x4f32fc57733285b715971c4def8553af2c050b3ce4429b8cc696cc9f43994e80",
          "transactionIndex": "0x7a",
          "logIndex": "0x136",
          "removed": false
        },
        {
          "address": "0x8d1454f9ac6363e20664c1ae29bf47c38a354f25",
          "topics": [
            "0xfa6883374d3785c826e28c69c68c1b6dd2178accc8623f49c6829a75487419b3",
            "0x0000000000000000000000005992fe461f81c8e0affa95b831e50e9b3854ba0e",
            "0x0000000000000000000000000000000000000000000000000000000000000001",
            "0x0000000000000000000000000000000000000000000000000000000000000000"
          ],
          "data": "0x000000000000000000000000000000000000000000000000000000000000002000000000000000000000000000000000000000000000000000000000000000a00000000000000000000000000000000000000000000000000000000000000020000000000000000000000000000000000000000000000000000000000000004000000000000000000000000000000000000000000000000000000000000000000000000000000000000000000000000000000000000000000000000000000005322e302e31000000000000000000000000000000000000000000000000000000",
          "blockHash": "0x5f3185906378bfffb3d7a98903751132bd0ea32cdd1751953f937ef82c4d5225",
          "blockNumber": "0x2bff562",
          "transactionHash": "0x4f32fc57733285b715971c4def8553af2c050b3ce4429b8cc696cc9f43994e80",
          "transactionIndex": "0x7a",
          "logIndex": "0x137",
          "removed": false
        },
        {
          "address": "0x8d1454f9ac6363e20664c1ae29bf47c38a354f25",
          "topics": [
            "0xc7f505b2f371ae2175ee4913f4499e1f2633a7b5936321eed1cdaeb6115181d2"
          ],
          "data": "0x0000000000000000000000000000000000000000000000000000000000000001",
          "blockHash": "0x5f3185906378bfffb3d7a98903751132bd0ea32cdd1751953f937ef82c4d5225",
          "blockNumber": "0x2bff562",
          "transactionHash": "0x4f32fc57733285b715971c4def8553af2c050b3ce4429b8cc696cc9f43994e80",
          "transactionIndex": "0x7a",
          "logIndex": "0x138",
          "removed": false
        },
        {
          "address": "0xbdb5201565925ae934a5622f0e7091affceed5eb",
          "topics": [
            "0x8dc66cafb77b325538c856bfa5892b31ca7305adfa48f6a09e030e261cda0795",
            "0x0000000000000000000000008d1454f9ac6363e20664c1ae29bf47c38a354f25",
            "0x00000000000000000000000028466e3e92cb6fb292618d0faebb49624f4d6f0c"
          ],
          "data": "0x00000000000000000000000000000000000000000000000000000000000007d2",
          "blockHash": "0x5f3185906378bfffb3d7a98903751132bd0ea32cdd1751953f937ef82c4d5225",
          "blockNumber": "0x2bff562",
          "transactionHash": "0x4f32fc57733285b715971c4def8553af2c050b3ce4429b8cc696cc9f43994e80",
          "transactionIndex": "0x7a",
          "logIndex": "0x139",
          "removed": false
        }
      ],
      "logsBloom": "0x00000000000000800000000000000000000000000000000000000000000000004000000000000000000000000000000000000100000000000000000000040000000000000000020000000108000008000000000000040000000000000000000400000000020000000000000000000800000000000000000400000010000000000000000800000000000800000000000000000000000080000000000000004080000000000000000000000000000000002008002041000000040000000000008000000002000000000000000000100000000000000044400000000000000060000000000000008000200000000000000000000000000000000000000000080000",
      "type": "0x0",
      "transactionHash": "0x4f32fc57733285b715971c4def8553af2c050b3ce4429b8cc696cc9f43994e80",
      "transactionIndex": "0x7a",
      "blockHash": "0x5f3185906378bfffb3d7a98903751132bd0ea32cdd1751953f937ef82c4d5225",
      "blockNumber": "0x2bff562",
      "gasUsed": "0x2ebf3",
      "effectiveGasPrice": "0x3b9aca00",
      "from": "0x5992fe461f81c8e0affa95b831e50e9b3854ba0e",
      "to": "0x28466e3e92cb6fb292618d0faebb49624f4d6f0c",
      "contractAddress": null
    }
  ],
  "libraries": [],
  "pending": [],
  "returns": {},
  "timestamp": 1737985185,
  "chain": 56,
  "commit": "3fc134a"
}