{
  "transactions": [
    {
      "hash": "0x73b081520930e502cc09ff74afa473ece944cd399cbdfd4d91fccb9bad1a46d9",
      "transactionType": "CALL",
      "contractName": "WNFTV2Index",
      "contractAddress": "0x8d1454f9ac6363e20664c1ae29bf47c38a354f25",
      "function": "executeEncodedTx(address,uint256,bytes)",
      "arguments": [
        "0x55d398326f99059fF775485246999027B3197955",
        "0",
        "0x095ea7b300000000000000000000000089b8aa89fdd0507a99d334cbe3c808fafc7d850e000000000000000000000000000000000000000000000000016345785d8a0000"
      ],
      "transaction": {
        "from": "0x5992fe461f81c8e0affa95b831e50e9b3854ba0e",
        "to": "0x8d1454f9ac6363e20664c1ae29bf47c38a354f25",
        "gas": "0x16c95",
        "value": "0x0",
        "input": "0xdc15f53000000000000000000000000055d398326f99059ff775485246999027b3197955000000000000000000000000000000000000000000000000000000000000000000000000000000000000000000000000000000000000000000000000000000600000000000000000000000000000000000000000000000000000000000000044095ea7b300000000000000000000000089b8aa89fdd0507a99d334cbe3c808fafc7d850e000000000000000000000000000000000000000000000000016345785d8a000000000000000000000000000000000000000000000000000000000000",
        "nonce": "0x2c3",
        "chainId": "0x38"
      },
      "additionalContracts": [],
      "isFixedGasLimit": false
    }
  ],
  "receipts": [
    {
      "status": "0x1",
      "cumulativeGasUsed": "0x840825",
      "logs": [
        {
          "address": "0x55d398326f99059ff775485246999027b3197955",
          "topics": [
            "0x8c5be1e5ebec7d5bd14f71427d1e84f3dd0314c0f7b2291e5b200ac8c7c3b925",
            "0x0000000000000000000000008d1454f9ac6363e20664c1ae29bf47c38a354f25",
            "0x00000000000000000000000089b8aa89fdd0507a99d334cbe3c808fafc7d850e"
          ],
          "data": "0x000000000000000000000000000000000000000000000000016345785d8a0000",
          "blockHash": "0x8f5677b0bea16df46f525b0627db4aa5a0364456758a2fe18b9e00e298e3b8b4",
          "blockNumber": "0x2c042e2",
          "transactionHash": "0x73b081520930e502cc09ff74afa473ece944cd399cbdfd4d91fccb9bad1a46d9",
          "transactionIndex": "0x4f",
          "logIndex": "0xf3",
          "removed": false
        }
      ],
      "logsBloom": "0x00000000000000000000000000000000000000000000000000000000000000004000002000000000000000000001000000000000000000000000000000200000000000000000000001000000000000000000000000000000000000000000000000000000000000000000000000000000000000000000000000000000000000000000000000000000008000000000000000000000000000000000000000000000020000000000000000000000000000020000000040000000000000000000000000000000000000000000000000000000200000000000000000000000000000000010000000000000000000000000000000000000000000000000000000080000",
      "type": "0x0",
      "transactionHash": "0x73b081520930e502cc09ff74afa473ece944cd399cbdfd4d91fccb9bad1a46d9",
      "transactionIndex": "0x4f",
      "blockHash": "0x8f5677b0bea16df46f525b0627db4aa5a0364456758a2fe18b9e00e298e3b8b4",
      "blockNumber": "0x2c042e2",
      "gasUsed": "0xf94a",
      "effectiveGasPrice": "0x3b9aca00",
      "from": "0x5992fe461f81c8e0affa95b831e50e9b3854ba0e",
      "to": "0x8d1454f9ac6363e20664c1ae29bf47c38a354f25",
      "contractAddress": null
    }
  ],
  "libraries": [],
  "pending": [],
  "returns": {},
  "timestamp": 1738044706,
  "chain": 56,
  "commit": "3fc134a"
}