{
  "transactions": [
    {
      "hash": "0xc2181c1bd2828c98a5834f41450234b9d0b082a5e2b202322f3ac936d355d2b1",
      "transactionType": "CALL",
      "contractName": "WNFTV2Index",
      "contractAddress": "0x8d1454f9ac6363e20664c1ae29bf47c38a354f25",
      "function": "executeEncodedTx(address,uint256,bytes)",
      "arguments": [
        "0x55d398326f99059fF775485246999027B3197955",
        "0",
        "0x095ea7b300000000000000000000000089b8aa89fdd0507a99d334cbe3c808fafc7d850e0000000000000000000000000000000000000000000000000f43fc2c04ee0000"
      ],
      "transaction": {
        "from": "0x5992fe461f81c8e0affa95b831e50e9b3854ba0e",
        "to": "0x8d1454f9ac6363e20664c1ae29bf47c38a354f25",
        "gas": "0xfc10",
        "value": "0x0",
        "input": "0xdc15f53000000000000000000000000055d398326f99059ff775485246999027b3197955000000000000000000000000000000000000000000000000000000000000000000000000000000000000000000000000000000000000000000000000000000600000000000000000000000000000000000000000000000000000000000000044095ea7b300000000000000000000000089b8aa89fdd0507a99d334cbe3c808fafc7d850e0000000000000000000000000000000000000000000000000f43fc2c04ee000000000000000000000000000000000000000000000000000000000000",
        "nonce": "0x2c5",
        "chainId": "0x38"
      },
      "additionalContracts": [],
      "isFixedGasLimit": false
    }
  ],
  "receipts": [
    {
      "status": "0x1",
      "cumulativeGasUsed": "0x54f889",
      "logs": [
        {
          "address": "0x55d398326f99059ff775485246999027b3197955",
          "topics": [
            "0x8c5be1e5ebec7d5bd14f71427d1e84f3dd0314c0f7b2291e5b200ac8c7c3b925",
            "0x0000000000000000000000008d1454f9ac6363e20664c1ae29bf47c38a354f25",
            "0x00000000000000000000000089b8aa89fdd0507a99d334cbe3c808fafc7d850e"
          ],
          "data": "0x0000000000000000000000000000000000000000000000000f43fc2c04ee0000",
          "blockHash": "0xc114b67f459095b3a77ecc42b98cf13b0ba8a411824698b5a14cf027e5b9ec1d",
          "blockNumber": "0x2c04415",
          "transactionHash": "0xc2181c1bd2828c98a5834f41450234b9d0b082a5e2b202322f3ac936d355d2b1",
          "transactionIndex": "0x50",
          "logIndex": "0xa0",
          "removed": false
        }
      ],
      "logsBloom": "0x00000000000000000000000000000000000000000000000000000000000000004000002000000000000000000001000000000000000000000000000000200000000000000000000001000000000000000000000000000000000000000000000000000000000000000000000000000000000000000000000000000000000000000000000000000000008000000000000000000000000000000000000000000000020000000000000000000000000000020000000040000000000000000000000000000000000000000000000000000000200000000000000000000000000000000010000000000000000000000000000000000000000000000000000000080000",
      "type": "0x0",
      "transactionHash": "0xc2181c1bd2828c98a5834f41450234b9d0b082a5e2b202322f3ac936d355d2b1",
      "transactionIndex": "0x50",
      "blockHash": "0xc114b67f459095b3a77ecc42b98cf13b0ba8a411824698b5a14cf027e5b9ec1d",
      "blockNumber": "0x2c04415",
      "gasUsed": "0xb67e",
      "effectiveGasPrice": "0x3b9aca00",
      "from": "0x5992fe461f81c8e0affa95b831e50e9b3854ba0e",
      "to": "0x8d1454f9ac6363e20664c1ae29bf47c38a354f25",
      "contractAddress": null
    }
  ],
  "libraries": [],
  "pending": [],
  "returns": {},
  "timestamp": 1738045625,
  "chain": 56,
  "commit": "3fc134a"
}