{
  "transactions": [
    {
      "hash": "0x5926f6bb8d13c082070ec10f88d35167b74bf655dc3d11e468b27809e7f145de",
      "transactionType": "CALL",
      "contractName": "WNFTV2Envelop721",
      "contractAddress": "0xc425a68df03764f648883b961eb982f087fe22ca",
      "function": "createWNFTonFactory((address,string,string,string,address[],bytes32[],uint256[],bytes))",
      "arguments": [
        "(0x13B9cBcB46aD79878af8c9faa835Bee19B977D3D, Envelop V2 Smart Wallet, ENVELOPV2, https://api.envelop.is/wallet, [], [], [], 0x)"
      ],
      "transaction": {
        "from": "0x13b9cbcb46ad79878af8c9faa835bee19b977d3d",
        "to": "0xc425a68df03764f648883b961eb982f087fe22ca",
        "gas": "0x4efe1",
        "value": "0x0",
        "input": "0x7c3cc707000000000000000000000000000000000000000000000000000000000000002000000000000000000000000013b9cbcb46ad79878af8c9faa835bee19b977d3d00000000000000000000000000000000000000000000000000000000000001000000000000000000000000000000000000000000000000000000000000000140000000000000000000000000000000000000000000000000000000000000018000000000000000000000000000000000000000000000000000000000000001c000000000000000000000000000000000000000000000000000000000000001e0000000000000000000000000000000000000000000000000000000000000020000000000000000000000000000000000000000000000000000000000000002200000000000000000000000000000000000000000000000000000000000000017456e76656c6f7020563220536d6172742057616c6c65740000000000000000000000000000000000000000000000000000000000000000000000000000000009454e56454c4f5056320000000000000000000000000000000000000000000000000000000000000000000000000000000000000000000000000000000000001d68747470733a2f2f6170692e656e76656c6f702e69732f77616c6c65740000000000000000000000000000000000000000000000000000000000000000000000000000000000000000000000000000000000000000000000000000000000000000000000000000000000000000000000000000000000000000000000000000000000000000000000000000000000000000000000000000000000000000000000",
        "nonce": "0x16",
        "chainId": "0xa4b1"
      },
      "additionalContracts": [
        {
          "transactionType": "CREATE",
          "address": "0x77f6bdc85807b18e4cf3367766fc3ffe2ce5681d",
          "initCode": "0x3d602d80600a3d3981f3363d3d373d3d3d363d73c425a68df03764f648883b961eb982f087fe22ca5af43d82803e903d91602b57fd5bf3"
        }
      ],
      "isFixedGasLimit": false
    },
    {
      "hash": "0x761294625e7c5863f02d0b7f9c676034d612d947f54677fd77d8568883839fcc",
      "transactionType": "CALL",
      "contractName": null,
      "contractAddress": "0x120e49d7ab1edc0bfbf509fa8566ca5b5dcaad40",
      "function": "transfer(address,uint256)",
      "arguments": [
        "0x77F6Bdc85807b18E4Cf3367766fC3ffe2ce5681d",
        "1000000000000000000"
      ],
      "transaction": {
        "from": "0x13b9cbcb46ad79878af8c9faa835bee19b977d3d",
        "to": "0x120e49d7ab1edc0bfbf509fa8566ca5b5dcaad40",
        "gas": "0x12ecd",
        "value": "0x0",
        "input": "0xa9059cbb00000000000000000000000077f6bdc85807b18e4cf3367766fc3ffe2ce5681d0000000000000000000000000000000000000000000000000de0b6b3a7640000",
        "nonce": "0x17",
        "chainId": "0xa4b1"
      },
      "additionalContracts": [],
      "isFixedGasLimit": false
    },
    {
      "hash": "0x66ecf1985bdf655c545f22aa6ee5e99a26cce97a8a7979337cb8acedf6f4f470",
      "transactionType": "CALL",
      "contractName": null,
      "contractAddress": "0x77f6bdc85807b18e4cf3367766fc3ffe2ce5681d",
      "function": null,
      "arguments": null,
      "transaction": {
        "from": "0x13b9cbcb46ad79878af8c9faa835bee19b977d3d",
        "to": "0x77f6bdc85807b18e4cf3367766fc3ffe2ce5681d",
        "gas": "0x85de",
        "value": "0x110d9316ec000",
        "input": "0x",
        "nonce": "0x18",
        "chainId": "0xa4b1"
      },
      "additionalContracts": [],
      "isFixedGasLimit": false
    },
    {
      "hash": "0xe320b541595bc1f54785e0ed286b9f81fbc85dd8f02c8b3901e050ceade82792",
      "transactionType": "CALL",
      "contractName": null,
      "contractAddress": "0x77f6bdc85807b18e4cf3367766fc3ffe2ce5681d",
      "function": "executeEncodedTxBatch(address[],uint256[],bytes[])",
      "arguments": [
        "[0xcD88Cd5F96Ad232b9209b7452021284440520955, 0x120e49d7ab1EDc0bFBF509Fa8566ca5b5dCAAd40, 0xcE1D53d833C0D048a2942Ee15514a073650D815C]",
        "[0, 0, 16]",
        "[0xc56a27a0000000000000000000000000000000000000000000000000000000000000002000000000000000000000000013b9cbcb46ad79878af8c9faa835bee19b977d3d0000000000000000000000000000000000000000000000000000000000000100000000000000000000000000000000000000000000000000000000000000012000000000000000000000000000000000000000000000000000000000000001400000000000000000000000000000000000000000000000000000000000000160000000000000000000000000000000000000000000000000000000000000018000000000000000000000000000000000000000000000000000000000000001a00000000000000000000000000000000000000000000000000000000000000200000000000000000000000000000000000000000000000000000000000000000000000000000000000000000000000000000000000000000000000000000000000000000000000000000000000000000000000000000000000000000000000000000000000000000000000000000000000000000000000000000000000000000000000000000000000000000000000000000000000000000000000000000000000000000000000000000000000000000000000000000000000000000000000002000000000000000000000000000000000000000000000000000000000000000000000000000000000000000000000000000000000000000000000000000000000000000000000000000000000000000000000000000000000000000000000000, 0xa9059cbb000000000000000000000000ce1d53d833c0d048a2942ee15514a073650d815c0000000000000000000000000000000000000000000000000000b5e620f48000, 0x]"
      ],
      "transaction": {
        "from": "0x13b9cbcb46ad79878af8c9faa835bee19b977d3d",
        "to": "0x77f6bdc85807b18e4cf3367766fc3ffe2ce5681d",
        "gas": "0xe1e0",
        "value": "0x0",
        "input": "0xd42053bc000000000000000000000000000000000000000000000000000000000000006000000000000000000000000000000000000000000000000000000000000000e000000000000000000000000000000000000000000000000000000000000001600000000000000000000000000000000000000000000000000000000000000003000000000000000000000000cd88cd5f96ad232b9209b7452021284440520955000000000000000000000000120e49d7ab1edc0bfbf509fa8566ca5b5dcaad40000000000000000000000000ce1d53d833c0d048a2942ee15514a073650d815c00000000000000000000000000000000000000000000000000000000000000030000000000000000000000000000000000000000000000000000000000000000000000000000000000000000000000000000000000000000000000000000000000000000000000000000000000000000000000000000000000000000000000100000000000000000000000000000000000000000000000000000000000000003000000000000000000000000000000000000000000000000000000000000006000000000000000000000000000000000000000000000000000000000000002e000000000000000000000000000000000000000000000000000000000000003600000000000000000000000000000000000000000000000000000000000000244c56a27a0000000000000000000000000000000000000000000000000000000000000002000000000000000000000000013b9cbcb46ad79878af8c9faa835bee19b977d3d0000000000000000000000000000000000000000000000000000000000000100000000000000000000000000000000000000000000000000000000000000012000000000000000000000000000000000000000000000000000000000000001400000000000000000000000000000000000000000000000000000000000000160000000000000000000000000000000000000000000000000000000000000018000000000000000000000000000000000000000000000000000000000000001a00000000000000000000000000000000000000000000000000000000000000200000000000000000000000000000000000000000000000000000000000000000000000000000000000000000000000000000000000000000000000000000000000000000000000000000000000000000000000000000000000000000000000000000000000000000000000000000000000000000000000000000000000000000000000000000000000000000000000000000000000000000000000000000000000000000000000000000000000000000000000000000000000000000000000002000000000000000000000000000000000000000000000000000000000000000000000000000000000000000000000000000000000000000000000000000000000000000000000000000000000000000000000000000000000000000000000000000000000000000000000000000000000000000000000000000000000000000000000000000000000000000000000000000000000000000000000044a9059cbb000000000000000000000000ce1d53d833c0d048a2942ee15514a073650d815c0000000000000000000000000000000000000000000000000000b5e620f48000000000000000000000000000000000000000000000000000000000000000000000000000000000000000000000000000000000000000000000000000",
        "nonce": "0x19",
        "chainId": "0xa4b1"
      },
      "additionalContracts": [
        {
          "transactionType": "CREATE2",
          "address": "0x328f169c685e7520cdfb7c8b3a04f0bf31a2d328",
          "initCode": "0x3d602d80600a3d3981f3363d3d373d3d3d363d73cd88cd5f96ad232b9209b74520212844405209555af43d82803e903d91602b57fd5bf3"
        }
      ],
      "isFixedGasLimit": false
    }
  ],
  "receipts": [
    {
      "status": "0x1",
      "cumulativeGasUsed": "0x12f6ae",
      "logs": [
        {
          "address": "0x77f6bdc85807b18e4cf3367766fc3ffe2ce5681d",
          "topics": [
            "0xddf252ad1be2c89b69c2b068fc378daa952ba7f163c4a11628f55a4df523b3ef",
            "0x0000000000000000000000000000000000000000000000000000000000000000",
            "0x00000000000000000000000013b9cbcb46ad79878af8c9faa835bee19b977d3d",
            "0x0000000000000000000000000000000000000000000000000000000000000001"
          ],
          "data": "0x",
          "blockHash": "0xdb68e9c7ef30c3c87913c3a9c8bf217c671977eecab56f13bb86e7bc20bc04af",
          "blockNumber": "0x149d03cf",
          "transactionHash": "0x5926f6bb8d13c082070ec10f88d35167b74bf655dc3d11e468b27809e7f145de",
          "transactionIndex": "0x9",
          "logIndex": "0x10",
          "removed": false
        },
        {
          "address": "0x77f6bdc85807b18e4cf3367766fc3ffe2ce5681d",
          "topics": [
            "0xf8e1a15aba9398e019f0b49df1a4fde98ee17ae345cb5f6b5e2c27f5033e8ce7"
          ],
          "data": "0x0000000000000000000000000000000000000000000000000000000000000001",
          "blockHash": "0xdb68e9c7ef30c3c87913c3a9c8bf217c671977eecab56f13bb86e7bc20bc04af",
          "blockNumber": "0x149d03cf",
          "transactionHash": "0x5926f6bb8d13c082070ec10f88d35167b74bf655dc3d11e468b27809e7f145de",
          "transactionIndex": "0x9",
          "logIndex": "0x11",
          "removed": false
        },
        {
          "address": "0x77f6bdc85807b18e4cf3367766fc3ffe2ce5681d",
          "topics": [
            "0xfa6883374d3785c826e28c69c68c1b6dd2178accc8623f49c6829a75487419b3",
            "0x00000000000000000000000013b9cbcb46ad79878af8c9faa835bee19b977d3d",
            "0x0000000000000000000000000000000000000000000000000000000000000001",
            "0x0000000000000000000000000000000000000000000000000000000000000000"
          ],
          "data": "0x00000000000000000000000000000000000000000000000000000000000000200000000000000000000000000000000000000000000000000000000000000000",
          "blockHash": "0xdb68e9c7ef30c3c87913c3a9c8bf217c671977eecab56f13bb86e7bc20bc04af",
          "blockNumber": "0x149d03cf",
          "transactionHash": "0x5926f6bb8d13c082070ec10f88d35167b74bf655dc3d11e468b27809e7f145de",
          "transactionIndex": "0x9",
          "logIndex": "0x12",
          "removed": false
        },
        {
          "address": "0x77f6bdc85807b18e4cf3367766fc3ffe2ce5681d",
          "topics": [
            "0xc7f505b2f371ae2175ee4913f4499e1f2633a7b5936321eed1cdaeb6115181d2"
          ],
          "data": "0x0000000000000000000000000000000000000000000000000000000000000001",
          "blockHash": "0xdb68e9c7ef30c3c87913c3a9c8bf217c671977eecab56f13bb86e7bc20bc04af",
          "blockNumber": "0x149d03cf",
          "transactionHash": "0x5926f6bb8d13c082070ec10f88d35167b74bf655dc3d11e468b27809e7f145de",
          "transactionIndex": "0x9",
          "logIndex": "0x13",
          "removed": false
        },
        {
          "address": "0xbdb5201565925ae934a5622f0e7091affceed5eb",
          "topics": [
            "0x8dc66cafb77b325538c856bfa5892b31ca7305adfa48f6a09e030e261cda0795",
            "0x00000000000000000000000077f6bdc85807b18e4cf3367766fc3ffe2ce5681d",
            "0x000000000000000000000000c425a68df03764f648883b961eb982f087fe22ca"
          ],
          "data": "0x00000000000000000000000000000000000000000000000000000000000007d2",
          "blockHash": "0xdb68e9c7ef30c3c87913c3a9c8bf217c671977eecab56f13bb86e7bc20bc04af",
          "blockNumber": "0x149d03cf",
          "transactionHash": "0x5926f6bb8d13c082070ec10f88d35167b74bf655dc3d11e468b27809e7f145de",
          "transactionIndex": "0x9",
          "logIndex": "0x14",
          "removed": false
        }
      ],
      "logsBloom": "0x00000000000000800000000000000000000000000000000000000000000000000000000000000000000000000000000000000100000000000010000000040000000000000000020000000108000000000000000000040000000000800000000000200010020000000000000000000800000000000000000000000010000000000000000000000800000800000000000000000000000080000000001800400080000000000000000000000000000000002000000001000000000000000000008000000002000000000000000000100000000000000004400000000000000060002000001000008000200000000000000000000000000000000000000000000080",
      "type": "0x2",
      "transactionHash": "0x5926f6bb8d13c082070ec10f88d35167b74bf655dc3d11e468b27809e7f145de",
      "transactionIndex": "0x9",
      "blockHash": "0xdb68e9c7ef30c3c87913c3a9c8bf217c671977eecab56f13bb86e7bc20bc04af",
      "blockNumber": "0x149d03cf",
      "gasUsed": "0x3ab57",
      "effectiveGasPrice": "0x989680",
      "from": "0x13b9cbcb46ad79878af8c9faa835bee19b977d3d",
      "to": "0xc425a68df03764f648883b961eb982f087fe22ca",
      "contractAddress": null,
      "gasUsedForL1": "0x2c93",
      "l1BlockNumber": "0x159f70e",
      "timeboosted": false
    },
    {
      "status": "0x1",
      "cumulativeGasUsed": "0x2047f",
      "logs": [
        {
          "address": "0x120e49d7ab1edc0bfbf509fa8566ca5b5dcaad40",
          "topics": [
            "0xddf252ad1be2c89b69c2b068fc378daa952ba7f163c4a11628f55a4df523b3ef",
            "0x00000000000000000000000013b9cbcb46ad79878af8c9faa835bee19b977d3d",
            "0x00000000000000000000000077f6bdc85807b18e4cf3367766fc3ffe2ce5681d"
          ],
          "data": "0x0000000000000000000000000000000000000000000000000de0b6b3a7640000",
          "blockHash": "0x5daf8978c7ae2f88f921938ce647d535eb416c01e9b634d4aef1f39231ed3f67",
          "blockNumber": "0x149d03d7",
          "transactionHash": "0x761294625e7c5863f02d0b7f9c676034d612d947f54677fd77d8568883839fcc",
          "transactionIndex": "0x3",
          "logIndex": "0x1",
          "removed": false
        }
      ],
      "logsBloom": "0x00000000000000000000000000000000000000000000000000000000000000000000000000000000000000000000000000000000000000000000000000000000000000000000000000000008000000000000000000000000000000800000000000000000000000000000000000000000000000000000400000000010000000000000000000000800000000000000000000000000002000000000000800400000800000000000000000000000000000000000000000000000000000000000000000000002000000000000000000000000000000000000000000000000000000002000001000000000000000000000000000000000000000000000000000000000",
      "type": "0x2",
      "transactionHash": "0x761294625e7c5863f02d0b7f9c676034d612d947f54677fd77d8568883839fcc",
      "transactionIndex": "0x3",
      "blockHash": "0x5daf8978c7ae2f88f921938ce647d535eb416c01e9b634d4aef1f39231ed3f67",
      "blockNumber": "0x149d03d7",
      "gasUsed": "0xe02a",
      "effectiveGasPrice": "0x989680",
      "from": "0x13b9cbcb46ad79878af8c9faa835bee19b977d3d",
      "to": "0x120e49d7ab1edc0bfbf509fa8566ca5b5dcaad40",
      "contractAddress": null,
      "gasUsedForL1": "0x16a9",
      "l1BlockNumber": "0x159f70e",
      "timeboosted": false
    },
    {
      "status": "0x1",
      "cumulativeGasUsed": "0x7453e",
      "logs": [
        {
          "address": "0x77f6bdc85807b18e4cf3367766fc3ffe2ce5681d",
          "topics": [
            "0x26399b60fa9117e91f9cf4e690f18a117d22841f62fb4ece7e7c799a97cb6a07",
            "0x000000000000000000000000000000000000000000000000000110d9316ec000",
            "0x000000000000000000000000000000000000000000000000000110d9316ec000",
            "0x00000000000000000000000013b9cbcb46ad79878af8c9faa835bee19b977d3d"
          ],
          "data": "0x",
          "blockHash": "0x95be4c9831bdf50fa5319ac3439f7bc8d9512c7c13718d6c067c9bf10c4852c7",
          "blockNumber": "0x149d03df",
          "transactionHash": "0x66ecf1985bdf655c545f22aa6ee5e99a26cce97a8a7979337cb8acedf6f4f470",
          "transactionIndex": "0x3",
          "logIndex": "0x4",
          "removed": false
        }
      ],
      "logsBloom": "0x00000000000000000000000000000000000000000000000000000000000000000000000000000000000000000000000000000000000001000000000000000000000000000000000000000000000000000000000000000000000008800000800000200010000000000000000000000000000000000000000000002000000000000000000000000000000040000000000000000000000000000000000800400000000004000000000000000000000000000000000000000000000000000000008000000000000000000000000000000000000000000000000000000000000000000000000000000000000000000000000000000000000000000000000000000000",
      "type": "0x2",
      "transactionHash": "0x66ecf1985bdf655c545f22aa6ee5e99a26cce97a8a7979337cb8acedf6f4f470",
      "transactionIndex": "0x3",
      "blockHash": "0x95be4c9831bdf50fa5319ac3439f7bc8d9512c7c13718d6c067c9bf10c4852c7",
      "blockNumber": "0x149d03df",
      "gasUsed": "0x72dc",
      "effectiveGasPrice": "0x989680",
      "from": "0x13b9cbcb46ad79878af8c9faa835bee19b977d3d",
      "to": "0x77f6bdc85807b18e4cf3367766fc3ffe2ce5681d",
      "contractAddress": null,
      "gasUsedForL1": "0xec6",
      "l1BlockNumber": "0x159f70f",
      "timeboosted": false
    },
    {
      "status": "0x1",
      "cumulativeGasUsed": "0x5e912",
      "logs": [
        {
          "address": "0x328f169c685e7520cdfb7c8b3a04f0bf31a2d328",
          "topics": [
            "0xddf252ad1be2c89b69c2b068fc378daa952ba7f163c4a11628f55a4df523b3ef",
            "0x0000000000000000000000000000000000000000000000000000000000000000",
            "0x00000000000000000000000013b9cbcb46ad79878af8c9faa835bee19b977d3d",
            "0x0000000000000000000000000000000000000000000000000000000000000001"
          ],
          "data": "0x",
          "blockHash": "0x81a5b16c367f0498f26b67048fa92844c33038972269263fa1372f06dbc9f270",
          "blockNumber": "0x149d03e7",
          "transactionHash": "0xe320b541595bc1f54785e0ed286b9f81fbc85dd8f02c8b3901e050ceade82792",
          "transactionIndex": "0x3",
          "logIndex": "0x0",
          "removed": false
        },
        {
          "address": "0x328f169c685e7520cdfb7c8b3a04f0bf31a2d328",
          "topics": [
            "0xf8e1a15aba9398e019f0b49df1a4fde98ee17ae345cb5f6b5e2c27f5033e8ce7"
          ],
          "data": "0x0000000000000000000000000000000000000000000000000000000000000001",
          "blockHash": "0x81a5b16c367f0498f26b67048fa92844c33038972269263fa1372f06dbc9f270",
          "blockNumber": "0x149d03e7",
          "transactionHash": "0xe320b541595bc1f54785e0ed286b9f81fbc85dd8f02c8b3901e050ceade82792",
          "transactionIndex": "0x3",
          "logIndex": "0x1",
          "removed": false
        },
        {
          "address": "0x328f169c685e7520cdfb7c8b3a04f0bf31a2d328",
          "topics": [
            "0xfa6883374d3785c826e28c69c68c1b6dd2178accc8623f49c6829a75487419b3",
            "0x00000000000000000000000013b9cbcb46ad79878af8c9faa835bee19b977d3d",
            "0x0000000000000000000000000000000000000000000000000000000000000001",
            "0x0000000000000000000000000000000000000000000000000000000000000000"
          ],
          "data": "0x000000000000000000000000000000000000000000000000000000000000002000000000000000000000000000000000000000000000000000000000000000a00000000000000000000000000000000000000000000000000000000000000020000000000000000000000000000000000000000000000000000000000000004000000000000000000000000000000000000000000000000000000000000000000000000000000000000000000000000000000000000000000000000000000005322e302e32000000000000000000000000000000000000000000000000000000",
          "blockHash": "0x81a5b16c367f0498f26b67048fa92844c33038972269263fa1372f06dbc9f270",
          "blockNumber": "0x149d03e7",
          "transactionHash": "0xe320b541595bc1f54785e0ed286b9f81fbc85dd8f02c8b3901e050ceade82792",
          "transactionIndex": "0x3",
          "logIndex": "0x2",
          "removed": false
        },
        {
          "address": "0x328f169c685e7520cdfb7c8b3a04f0bf31a2d328",
          "topics": [
            "0xc7f505b2f371ae2175ee4913f4499e1f2633a7b5936321eed1cdaeb6115181d2"
          ],
          "data": "0x0000000000000000000000000000000000000000000000000000000000000001",
          "blockHash": "0x81a5b16c367f0498f26b67048fa92844c33038972269263fa1372f06dbc9f270",
          "blockNumber": "0x149d03e7",
          "transactionHash": "0xe320b541595bc1f54785e0ed286b9f81fbc85dd8f02c8b3901e050ceade82792",
          "transactionIndex": "0x3",
          "logIndex": "0x3",
          "removed": false
        },
        {
          "address": "0xbdb5201565925ae934a5622f0e7091affceed5eb",
          "topics": [
            "0x8dc66cafb77b325538c856bfa5892b31ca7305adfa48f6a09e030e261cda0795",
            "0x000000000000000000000000328f169c685e7520cdfb7c8b3a04f0bf31a2d328",
            "0x000000000000000000000000cd88cd5f96ad232b9209b7452021284440520955"
          ],
          "data": "0x00000000000000000000000000000000000000000000000000000000000007d2",
          "blockHash": "0x81a5b16c367f0498f26b67048fa92844c33038972269263fa1372f06dbc9f270",
          "blockNumber": "0x149d03e7",
          "transactionHash": "0xe320b541595bc1f54785e0ed286b9f81fbc85dd8f02c8b3901e050ceade82792",
          "transactionIndex": "0x3",
          "logIndex": "0x4",
          "removed": false
        },
        {
          "address": "0x120e49d7ab1edc0bfbf509fa8566ca5b5dcaad40",
          "topics": [
            "0xddf252ad1be2c89b69c2b068fc378daa952ba7f163c4a11628f55a4df523b3ef",
            "0x00000000000000000000000077f6bdc85807b18e4cf3367766fc3ffe2ce5681d",
            "0x000000000000000000000000ce1d53d833c0d048a2942ee15514a073650d815c"
          ],
          "data": "0x0000000000000000000000000000000000000000000000000000b5e620f48000",
          "blockHash": "0x81a5b16c367f0498f26b67048fa92844c33038972269263fa1372f06dbc9f270",
          "blockNumber": "0x149d03e7",
          "transactionHash": "0xe320b541595bc1f54785e0ed286b9f81fbc85dd8f02c8b3901e050ceade82792",
          "transactionIndex": "0x3",
          "logIndex": "0x5",
          "removed": false
        },
        {
          "address": "0x77f6bdc85807b18e4cf3367766fc3ffe2ce5681d",
          "topics": [
            "0xc4784f333fb4f086174aa7cc56e2eb0850c39bbda8f955f72ee77d54b13a3dd9",
            "0x000000000000000000000000000000000000000000000000000110d9316ec000",
            "0x000000000000000000000000000000000000000000000000000110d9316ebff0",
            "0x0000000000000000000000000000000000000000000000000000000000000000"
          ],
          "data": "0x00000000000000000000000013b9cbcb46ad79878af8c9faa835bee19b977d3d",
          "blockHash": "0x81a5b16c367f0498f26b67048fa92844c33038972269263fa1372f06dbc9f270",
          "blockNumber": "0x149d03e7",
          "transactionHash": "0xe320b541595bc1f54785e0ed286b9f81fbc85dd8f02c8b3901e050ceade82792",
          "transactionIndex": "0x3",
          "logIndex": "0x6",
          "removed": false
        }
      ],
      "logsBloom": "0x00000000000000800000000000000000000000000000000000000000000000000000000008800000000000010000000000000100000000000000000000040000000000000020020000000108000000010000000000040000000008c0000080000020001002000000000000000000080000000000100040020000001000000000002000000000080000084000000000000000000000208000000000080040008080000000800000200000000000000000200100200100000000000000000000a002000002000000000000000000100000000000000004408000000000000060002000001000008002200000000000000800000000000000000000000000000000",
      "type": "0x2",
      "transactionHash": "0xe320b541595bc1f54785e0ed286b9f81fbc85dd8f02c8b3901e050ceade82792",
      "transactionIndex": "0x3",
      "blockHash": "0x81a5b16c367f0498f26b67048fa92844c33038972269263fa1372f06dbc9f270",
      "blockNumber": "0x149d03e7",
      "gasUsed": "0x4d92f",
      "effectiveGasPrice": "0x989680",
      "from": "0x13b9cbcb46ad79878af8c9faa835bee19b977d3d",
      "to": "0x77f6bdc85807b18e4cf3367766fc3ffe2ce5681d",
      "contractAddress": null,
      "gasUsedForL1": "0x35f7",
      "l1BlockNumber": "0x159f70f",
      "timeboosted": false
    }
  ],
  "libraries": [],
  "pending": [],
  "returns": {},
  "timestamp": 1749546491,
  "chain": 42161,
  "commit": "f798767"
}