{
  "transactions": [
    {
      "hash": "0xb1bd7f1cadcc6da1ff0357a7e2344cce66990d511652eea2b7bc052629060e87",
      "transactionType": "CALL",
      "contractName": "WNFTV2Envelop721",
      "contractAddress": "0x22bbbe241464ab67c9b4f0881fa45f7f2d26870f",
      "function": "createWNFTonFactory((address,string,string,string,address[],bytes32[],uint256[],bytes))",
      "arguments": [
        "(0x13B9cBcB46aD79878af8c9faa835Bee19B977D3D, Envelop V2 Smart Wallet, ENVELOPV2, https://api.envelop.is/wallet, [], [], [], 0x)"
      ],
      "transaction": {
        "from": "0x13b9cbcb46ad79878af8c9faa835bee19b977d3d",
        "to": "0x22bbbe241464ab67c9b4f0881fa45f7f2d26870f",
        "gas": "0x6bed4",
        "value": "0x0",
        "input": "0x7c3cc707000000000000000000000000000000000000000000000000000000000000002000000000000000000000000013b9cbcb46ad79878af8c9faa835bee19b977d3d00000000000000000000000000000000000000000000000000000000000001000000000000000000000000000000000000000000000000000000000000000140000000000000000000000000000000000000000000000000000000000000018000000000000000000000000000000000000000000000000000000000000001c000000000000000000000000000000000000000000000000000000000000001e0000000000000000000000000000000000000000000000000000000000000020000000000000000000000000000000000000000000000000000000000000002200000000000000000000000000000000000000000000000000000000000000017456e76656c6f7020563220536d6172742057616c6c65740000000000000000000000000000000000000000000000000000000000000000000000000000000009454e56454c4f5056320000000000000000000000000000000000000000000000000000000000000000000000000000000000000000000000000000000000001d68747470733a2f2f6170692e656e76656c6f702e69732f77616c6c65740000000000000000000000000000000000000000000000000000000000000000000000000000000000000000000000000000000000000000000000000000000000000000000000000000000000000000000000000000000000000000000000000000000000000000000000000000000000000000000000000000000000000000000000",
        "nonce": "0xd",
        "chainId": "0xa4b1"
      },
      "additionalContracts": [
        {
          "transactionType": "CREATE",
          "address": "0x645ec5781e8615a20e36ee13f338b79f89640aaf",
          "initCode": "0x3d602d80600a3d3981f3363d3d373d3d3d363d7322bbbe241464ab67c9b4f0881fa45f7f2d26870f5af43d82803e903d91602b57fd5bf3"
        }
      ],
      "isFixedGasLimit": false
    },
    {
      "hash": "0x02ad2ca6dcb50b220cb950c57011193aec7bc5a20f74fad5e21b83bdd67ac896",
      "transactionType": "CALL",
      "contractName": null,
      "contractAddress": "0x120e49d7ab1edc0bfbf509fa8566ca5b5dcaad40",
      "function": "transfer(address,uint256)",
      "arguments": [
        "0x645ec5781e8615A20E36EE13F338b79f89640AAf",
        "1000000000000000000"
      ],
      "transaction": {
        "from": "0x13b9cbcb46ad79878af8c9faa835bee19b977d3d",
        "to": "0x120e49d7ab1edc0bfbf509fa8566ca5b5dcaad40",
        "gas": "0x22372",
        "value": "0x0",
        "input": "0xa9059cbb000000000000000000000000645ec5781e8615a20e36ee13f338b79f89640aaf0000000000000000000000000000000000000000000000000de0b6b3a7640000",
        "nonce": "0xe",
        "chainId": "0xa4b1"
      },
      "additionalContracts": [],
      "isFixedGasLimit": false
    },
    {
      "hash": "0xb57ec8300a8eb0077643a4eac9537bf17835c0f2a6c97a7e3f3af2d4ebdde61a",
      "transactionType": "CALL",
      "contractName": null,
      "contractAddress": "0x645ec5781e8615a20e36ee13f338b79f89640aaf",
      "function": null,
      "arguments": null,
      "transaction": {
        "from": "0x13b9cbcb46ad79878af8c9faa835bee19b977d3d",
        "to": "0x645ec5781e8615a20e36ee13f338b79f89640aaf",
        "gas": "0x134c6",
        "value": "0x110d9316ec000",
        "input": "0x",
        "nonce": "0xf",
        "chainId": "0xa4b1"
      },
      "additionalContracts": [],
      "isFixedGasLimit": false
    },
    {
      "hash": "0x0fdf4fa46a023a0eac7fd6f2d60e0a10cce9fc1cde6e78e656db479efade6b81",
      "transactionType": "CALL",
      "contractName": null,
      "contractAddress": "0x645ec5781e8615a20e36ee13f338b79f89640aaf",
      "function": "executeEncodedTxBatch(address[],uint256[],bytes[])",
      "arguments": [
        "[0x28466e3e92CB6FB292618D0faEbB49624f4d6f0C, 0x120e49d7ab1EDc0bFBF509Fa8566ca5b5dCAAd40, 0x9B1296F104b4195dbA015039D529167990036908]",
        "[0, 0, 16]",
        "[0xc56a27a0000000000000000000000000000000000000000000000000000000000000002000000000000000000000000013b9cbcb46ad79878af8c9faa835bee19b977d3d0000000000000000000000000000000000000000000000000000000000000100000000000000000000000000000000000000000000000000000000000000012000000000000000000000000000000000000000000000000000000000000001400000000000000000000000000000000000000000000000000000000000000160000000000000000000000000000000000000000000000000000000000000018000000000000000000000000000000000000000000000000000000000000001a00000000000000000000000000000000000000000000000000000000000000200000000000000000000000000000000000000000000000000000000000000000000000000000000000000000000000000000000000000000000000000000000000000000000000000000000000000000000000000000000000000000000000000000000000000000000000000000000000000000000000000000000000000000000000000000000000000000000000000000000000000000000000000000000000000000000000000000000000000000000000000000000000000000000000002000000000000000000000000000000000000000000000000000000000000000000000000000000000000000000000000000000000000000000000000000000000000000000000000000000000000000000000000000000000000000000000000, 0xa9059cbb0000000000000000000000009b1296f104b4195dba015039d5291679900369080000000000000000000000000000000000000000000000000000b5e620f48000, 0x]"
      ],
      "transaction": {
        "from": "0x13b9cbcb46ad79878af8c9faa835bee19b977d3d",
        "to": "0x645ec5781e8615a20e36ee13f338b79f89640aaf",
        "gas": "0x2f300",
        "value": "0x0",
        "input": "0xd42053bc000000000000000000000000000000000000000000000000000000000000006000000000000000000000000000000000000000000000000000000000000000e00000000000000000000000000000000000000000000000000000000000000160000000000000000000000000000000000000000000000000000000000000000300000000000000000000000028466e3e92cb6fb292618d0faebb49624f4d6f0c000000000000000000000000120e49d7ab1edc0bfbf509fa8566ca5b5dcaad400000000000000000000000009b1296f104b4195dba015039d52916799003690800000000000000000000000000000000000000000000000000000000000000030000000000000000000000000000000000000000000000000000000000000000000000000000000000000000000000000000000000000000000000000000000000000000000000000000000000000000000000000000000000000000000000100000000000000000000000000000000000000000000000000000000000000003000000000000000000000000000000000000000000000000000000000000006000000000000000000000000000000000000000000000000000000000000002e000000000000000000000000000000000000000000000000000000000000003600000000000000000000000000000000000000000000000000000000000000244c56a27a0000000000000000000000000000000000000000000000000000000000000002000000000000000000000000013b9cbcb46ad79878af8c9faa835bee19b977d3d0000000000000000000000000000000000000000000000000000000000000100000000000000000000000000000000000000000000000000000000000000012000000000000000000000000000000000000000000000000000000000000001400000000000000000000000000000000000000000000000000000000000000160000000000000000000000000000000000000000000000000000000000000018000000000000000000000000000000000000000000000000000000000000001a00000000000000000000000000000000000000000000000000000000000000200000000000000000000000000000000000000000000000000000000000000000000000000000000000000000000000000000000000000000000000000000000000000000000000000000000000000000000000000000000000000000000000000000000000000000000000000000000000000000000000000000000000000000000000000000000000000000000000000000000000000000000000000000000000000000000000000000000000000000000000000000000000000000000000002000000000000000000000000000000000000000000000000000000000000000000000000000000000000000000000000000000000000000000000000000000000000000000000000000000000000000000000000000000000000000000000000000000000000000000000000000000000000000000000000000000000000000000000000000000000000000000000000000000000000000000000044a9059cbb0000000000000000000000009b1296f104b4195dba015039d5291679900369080000000000000000000000000000000000000000000000000000b5e620f48000000000000000000000000000000000000000000000000000000000000000000000000000000000000000000000000000000000000000000000000000",
        "nonce": "0x10",
        "chainId": "0xa4b1"
      },
      "additionalContracts": [
        {
          "transactionType": "CREATE2",
          "address": "0xc4e945252e68eea8cd7104e9897f00fe1fa2dee0",
          "initCode": "0x3d602d80600a3d3981f3363d3d373d3d3d363d7328466e3e92cb6fb292618d0faebb49624f4d6f0c5af43d82803e903d91602b57fd5bf3"
        }
      ],
      "isFixedGasLimit": false
    }
  ],
  "receipts": [
    {
      "status": "0x1",
      "cumulativeGasUsed": "0x4c74a",
      "logs": [
        {
          "address": "0x645ec5781e8615a20e36ee13f338b79f89640aaf",
          "topics": [
            "0xddf252ad1be2c89b69c2b068fc378daa952ba7f163c4a11628f55a4df523b3ef",
            "0x0000000000000000000000000000000000000000000000000000000000000000",
            "0x00000000000000000000000013b9cbcb46ad79878af8c9faa835bee19b977d3d",
            "0x0000000000000000000000000000000000000000000000000000000000000001"
          ],
          "data": "0x",
          "blockHash": "0xb03e56a8da9d7a01c03ff17abd89870e0f2945d79846a5dc39cec2c5e42295f3",
          "blockNumber": "0x14736c6c",
          "transactionHash": "0xb1bd7f1cadcc6da1ff0357a7e2344cce66990d511652eea2b7bc052629060e87",
          "transactionIndex": "0x1",
          "logIndex": "0x0",
          "removed": false
        },
        {
          "address": "0x645ec5781e8615a20e36ee13f338b79f89640aaf",
          "topics": [
            "0xf8e1a15aba9398e019f0b49df1a4fde98ee17ae345cb5f6b5e2c27f5033e8ce7"
          ],
          "data": "0x0000000000000000000000000000000000000000000000000000000000000001",
          "blockHash": "0xb03e56a8da9d7a01c03ff17abd89870e0f2945d79846a5dc39cec2c5e42295f3",
          "blockNumber": "0x14736c6c",
          "transactionHash": "0xb1bd7f1cadcc6da1ff0357a7e2344cce66990d511652eea2b7bc052629060e87",
          "transactionIndex": "0x1",
          "logIndex": "0x1",
          "removed": false
        },
        {
          "address": "0x645ec5781e8615a20e36ee13f338b79f89640aaf",
          "topics": [
            "0xfa6883374d3785c826e28c69c68c1b6dd2178accc8623f49c6829a75487419b3",
            "0x00000000000000000000000013b9cbcb46ad79878af8c9faa835bee19b977d3d",
            "0x0000000000000000000000000000000000000000000000000000000000000001",
            "0x0000000000000000000000000000000000000000000000000000000000000000"
          ],
          "data": "0x00000000000000000000000000000000000000000000000000000000000000200000000000000000000000000000000000000000000000000000000000000000",
          "blockHash": "0xb03e56a8da9d7a01c03ff17abd89870e0f2945d79846a5dc39cec2c5e42295f3",
          "blockNumber": "0x14736c6c",
          "transactionHash": "0xb1bd7f1cadcc6da1ff0357a7e2344cce66990d511652eea2b7bc052629060e87",
          "transactionIndex": "0x1",
          "logIndex": "0x2",
          "removed": false
        },
        {
          "address": "0x645ec5781e8615a20e36ee13f338b79f89640aaf",
          "topics": [
            "0xc7f505b2f371ae2175ee4913f4499e1f2633a7b5936321eed1cdaeb6115181d2"
          ],
          "data": "0x0000000000000000000000000000000000000000000000000000000000000001",
          "blockHash": "0xb03e56a8da9d7a01c03ff17abd89870e0f2945d79846a5dc39cec2c5e42295f3",
          "blockNumber": "0x14736c6c",
          "transactionHash": "0xb1bd7f1cadcc6da1ff0357a7e2344cce66990d511652eea2b7bc052629060e87",
          "transactionIndex": "0x1",
          "logIndex": "0x3",
          "removed": false
        },
        {
          "address": "0xbdb5201565925ae934a5622f0e7091affceed5eb",
          "topics": [
            "0x8dc66cafb77b325538c856bfa5892b31ca7305adfa48f6a09e030e261cda0795",
            "0x000000000000000000000000645ec5781e8615a20e36ee13f338b79f89640aaf",
            "0x00000000000000000000000022bbbe241464ab67c9b4f0881fa45f7f2d26870f"
          ],
          "data": "0x00000000000000000000000000000000000000000000000000000000000007d2",
          "blockHash": "0xb03e56a8da9d7a01c03ff17abd89870e0f2945d79846a5dc39cec2c5e42295f3",
          "blockNumber": "0x14736c6c",
          "transactionHash": "0xb1bd7f1cadcc6da1ff0357a7e2344cce66990d511652eea2b7bc052629060e87",
          "transactionIndex": "0x1",
          "logIndex": "0x4",
          "removed": false
        }
      ],
      "logsBloom": "0x00000000000000840000000000000000000000000200000000000000000100000000000000000000000000000000000000000100000200000000000000040000000000000000020000000108000000000000000000040000000000800000000000000000020000000000000000000800000020000000000000000010000000000000000000000000000800000001000000000000004080000000000800400080000000000000000000000000000000002000000001000000000000000000008000000002000000000000000000100000000000000004400000000000000060000000000000008000201000000004000000000000000000000000000000000000",
      "type": "0x2",
      "transactionHash": "0xb1bd7f1cadcc6da1ff0357a7e2344cce66990d511652eea2b7bc052629060e87",
      "transactionIndex": "0x1",
      "blockHash": "0xb03e56a8da9d7a01c03ff17abd89870e0f2945d79846a5dc39cec2c5e42295f3",
      "blockNumber": "0x14736c6c",
      "gasUsed": "0x4c74a",
      "effectiveGasPrice": "0x989680",
      "from": "0x13b9cbcb46ad79878af8c9faa835bee19b977d3d",
      "to": "0x22bbbe241464ab67c9b4f0881fa45f7f2d26870f",
      "contractAddress": null,
      "gasUsedForL1": "0x14886",
      "l1BlockNumber": "0x15919d7"
    },
    {
      "status": "0x1",
      "cumulativeGasUsed": "0x7298c",
      "logs": [
        {
          "address": "0x120e49d7ab1edc0bfbf509fa8566ca5b5dcaad40",
          "topics": [
            "0xddf252ad1be2c89b69c2b068fc378daa952ba7f163c4a11628f55a4df523b3ef",
            "0x00000000000000000000000013b9cbcb46ad79878af8c9faa835bee19b977d3d",
            "0x000000000000000000000000645ec5781e8615a20e36ee13f338b79f89640aaf"
          ],
          "data": "0x0000000000000000000000000000000000000000000000000de0b6b3a7640000",
          "blockHash": "0xa771324a24bd8af61dc13b33ac41a7b19e1929fe12100df1b321cc0abcb38e19",
          "blockNumber": "0x14736c74",
          "transactionHash": "0x02ad2ca6dcb50b220cb950c57011193aec7bc5a20f74fad5e21b83bdd67ac896",
          "transactionIndex": "0x4",
          "logIndex": "0x6",
          "removed": false
        }
      ],
      "logsBloom": "0x00000000000000040000000000000000000000000000000000000000000000000000000000000000000000000000000000000000000200000000000000000000000000000000000000000008000000000000000000000000000000800000000000000000000000000000000000000000000000000000400000000010000000000000000000000000000000000001000000000000002000000000000800400000800000000000000000000000000000000000000000000000000000000000000000000002000000000000000000000000000000000000000000000000000000000000000000000000000000000000000000000000000000000000000000000000",
      "type": "0x2",
      "transactionHash": "0x02ad2ca6dcb50b220cb950c57011193aec7bc5a20f74fad5e21b83bdd67ac896",
      "transactionIndex": "0x4",
      "blockHash": "0xa771324a24bd8af61dc13b33ac41a7b19e1929fe12100df1b321cc0abcb38e19",
      "blockNumber": "0x14736c74",
      "gasUsed": "0x17011",
      "effectiveGasPrice": "0x989680",
      "from": "0x13b9cbcb46ad79878af8c9faa835bee19b977d3d",
      "to": "0x120e49d7ab1edc0bfbf509fa8566ca5b5dcaad40",
      "contractAddress": null,
      "gasUsedForL1": "0xa690",
      "l1BlockNumber": "0x15919d7"
    },
    {
      "status": "0x1",
      "cumulativeGasUsed": "0x7f758",
      "logs": [
        {
          "address": "0x645ec5781e8615a20e36ee13f338b79f89640aaf",
          "topics": [
            "0x26399b60fa9117e91f9cf4e690f18a117d22841f62fb4ece7e7c799a97cb6a07",
            "0x000000000000000000000000000000000000000000000000000110d9316ec000",
            "0x000000000000000000000000000000000000000000000000000110d9316ec000",
            "0x00000000000000000000000013b9cbcb46ad79878af8c9faa835bee19b977d3d"
          ],
          "data": "0x",
          "blockHash": "0x6288552d6bef653d980d6b25a0dedc78d4ab8d659f00b024cb6bb170079312e0",
          "blockNumber": "0x14736c7b",
          "transactionHash": "0xb57ec8300a8eb0077643a4eac9537bf17835c0f2a6c97a7e3f3af2d4ebdde61a",
          "transactionIndex": "0x4",
          "logIndex": "0x5",
          "removed": false
        }
      ],
      "logsBloom": "0x00000000000000000000000000000000000000000200000000000000000000000000000000000000000000000000000000000000000001000000000000000000000000000000000000000000000000000000000000000000000008800000800000000000000000000000000000000000000020000000000000002000000000000000000000000000000040000000000000000000004000000000000800400000000004000000000000000000000000000000000000000000000000000000000000000000000000000000000000000000000000000000000000000000000000000000000000000000000000000000000000000000000000000000000000000000",
      "type": "0x2",
      "transactionHash": "0xb57ec8300a8eb0077643a4eac9537bf17835c0f2a6c97a7e3f3af2d4ebdde61a",
      "transactionIndex": "0x4",
      "blockHash": "0x6288552d6bef653d980d6b25a0dedc78d4ab8d659f00b024cb6bb170079312e0",
      "blockNumber": "0x14736c7b",
      "gasUsed": "0xd198",
      "effectiveGasPrice": "0x989680",
      "from": "0x13b9cbcb46ad79878af8c9faa835bee19b977d3d",
      "to": "0x645ec5781e8615a20e36ee13f338b79f89640aaf",
      "contractAddress": null,
      "gasUsedForL1": "0x6d82",
      "l1BlockNumber": "0x15919d7"
    },
    {
      "status": "0x1",
      "cumulativeGasUsed": "0x62dea",
      "logs": [
        {
          "address": "0xc4e945252e68eea8cd7104e9897f00fe1fa2dee0",
          "topics": [
            "0xddf252ad1be2c89b69c2b068fc378daa952ba7f163c4a11628f55a4df523b3ef",
            "0x0000000000000000000000000000000000000000000000000000000000000000",
            "0x00000000000000000000000013b9cbcb46ad79878af8c9faa835bee19b977d3d",
            "0x0000000000000000000000000000000000000000000000000000000000000001"
          ],
          "data": "0x",
          "blockHash": "0xb4735b7d2d8f5294079b0c873a91216c932c467e859706b4934150282253fa04",
          "blockNumber": "0x14736c82",
          "transactionHash": "0x0fdf4fa46a023a0eac7fd6f2d60e0a10cce9fc1cde6e78e656db479efade6b81",
          "transactionIndex": "0x1",
          "logIndex": "0x0",
          "removed": false
        },
        {
          "address": "0xc4e945252e68eea8cd7104e9897f00fe1fa2dee0",
          "topics": [
            "0xf8e1a15aba9398e019f0b49df1a4fde98ee17ae345cb5f6b5e2c27f5033e8ce7"
          ],
          "data": "0x0000000000000000000000000000000000000000000000000000000000000001",
          "blockHash": "0xb4735b7d2d8f5294079b0c873a91216c932c467e859706b4934150282253fa04",
          "blockNumber": "0x14736c82",
          "transactionHash": "0x0fdf4fa46a023a0eac7fd6f2d60e0a10cce9fc1cde6e78e656db479efade6b81",
          "transactionIndex": "0x1",
          "logIndex": "0x1",
          "removed": false
        },
        {
          "address": "0xc4e945252e68eea8cd7104e9897f00fe1fa2dee0",
          "topics": [
            "0xfa6883374d3785c826e28c69c68c1b6dd2178accc8623f49c6829a75487419b3",
            "0x00000000000000000000000013b9cbcb46ad79878af8c9faa835bee19b977d3d",
            "0x0000000000000000000000000000000000000000000000000000000000000001",
            "0x0000000000000000000000000000000000000000000000000000000000000000"
          ],
          "data": "0x000000000000000000000000000000000000000000000000000000000000002000000000000000000000000000000000000000000000000000000000000000a00000000000000000000000000000000000000000000000000000000000000020000000000000000000000000000000000000000000000000000000000000004000000000000000000000000000000000000000000000000000000000000000000000000000000000000000000000000000000000000000000000000000000005322e302e31000000000000000000000000000000000000000000000000000000",
          "blockHash": "0xb4735b7d2d8f5294079b0c873a91216c932c467e859706b4934150282253fa04",
          "blockNumber": "0x14736c82",
          "transactionHash": "0x0fdf4fa46a023a0eac7fd6f2d60e0a10cce9fc1cde6e78e656db479efade6b81",
          "transactionIndex": "0x1",
          "logIndex": "0x2",
          "removed": false
        },
        {
          "address": "0xc4e945252e68eea8cd7104e9897f00fe1fa2dee0",
          "topics": [
            "0xc7f505b2f371ae2175ee4913f4499e1f2633a7b5936321eed1cdaeb6115181d2"
          ],
          "data": "0x0000000000000000000000000000000000000000000000000000000000000001",
          "blockHash": "0xb4735b7d2d8f5294079b0c873a91216c932c467e859706b4934150282253fa04",
          "blockNumber": "0x14736c82",
          "transactionHash": "0x0fdf4fa46a023a0eac7fd6f2d60e0a10cce9fc1cde6e78e656db479efade6b81",
          "transactionIndex": "0x1",
          "logIndex": "0x3",
          "removed": false
        },
        {
          "address": "0xbdb5201565925ae934a5622f0e7091affceed5eb",
          "topics": [
            "0x8dc66cafb77b325538c856bfa5892b31ca7305adfa48f6a09e030e261cda0795",
            "0x000000000000000000000000c4e945252e68eea8cd7104e9897f00fe1fa2dee0",
            "0x00000000000000000000000028466e3e92cb6fb292618d0faebb49624f4d6f0c"
          ],
          "data": "0x00000000000000000000000000000000000000000000000000000000000007d2",
          "blockHash": "0xb4735b7d2d8f5294079b0c873a91216c932c467e859706b4934150282253fa04",
          "blockNumber": "0x14736c82",
          "transactionHash": "0x0fdf4fa46a023a0eac7fd6f2d60e0a10cce9fc1cde6e78e656db479efade6b81",
          "transactionIndex": "0x1",
          "logIndex": "0x4",
          "removed": false
        },
        {
          "address": "0x120e49d7ab1edc0bfbf509fa8566ca5b5dcaad40",
          "topics": [
            "0xddf252ad1be2c89b69c2b068fc378daa952ba7f163c4a11628f55a4df523b3ef",
            "0x000000000000000000000000645ec5781e8615a20e36ee13f338b79f89640aaf",
            "0x0000000000000000000000009b1296f104b4195dba015039d529167990036908"
          ],
          "data": "0x0000000000000000000000000000000000000000000000000000b5e620f48000",
          "blockHash": "0xb4735b7d2d8f5294079b0c873a91216c932c467e859706b4934150282253fa04",
          "blockNumber": "0x14736c82",
          "transactionHash": "0x0fdf4fa46a023a0eac7fd6f2d60e0a10cce9fc1cde6e78e656db479efade6b81",
          "transactionIndex": "0x1",
          "logIndex": "0x5",
          "removed": false
        },
        {
          "address": "0x645ec5781e8615a20e36ee13f338b79f89640aaf",
          "topics": [
            "0xc4784f333fb4f086174aa7cc56e2eb0850c39bbda8f955f72ee77d54b13a3dd9",
            "0x000000000000000000000000000000000000000000000000000110d9316ec000",
            "0x000000000000000000000000000000000000000000000000000110d9316ebff0",
            "0x0000000000000000000000000000000000000000000000000000000000000000"
          ],
          "data": "0x00000000000000000000000013b9cbcb46ad79878af8c9faa835bee19b977d3d",
          "blockHash": "0xb4735b7d2d8f5294079b0c873a91216c932c467e859706b4934150282253fa04",
          "blockNumber": "0x14736c82",
          "transactionHash": "0x0fdf4fa46a023a0eac7fd6f2d60e0a10cce9fc1cde6e78e656db479efade6b81",
          "transactionIndex": "0x1",
          "logIndex": "0x6",
          "removed": false
        }
      ],
      "logsBloom": "0x00120000000000840000000000000000000000000200000000000000000000000000000000000000000000000000020000000100000200000000000004040000000000000020020000008108000008000000000000040000000008c00000800c00000000020000000000000000000800000020001000400400000010000000000000000000020000000840000001000000000000006080000000000800400080800000000000000000000000000000002001002001000000000000001000008000000002000000000000000000100000000000000004400000000000000060000004000000008002200000000000000000000000000000000000000000000000",
      "type": "0x2",
      "transactionHash": "0x0fdf4fa46a023a0eac7fd6f2d60e0a10cce9fc1cde6e78e656db479efade6b81",
      "transactionIndex": "0x1",
      "blockHash": "0xb4735b7d2d8f5294079b0c873a91216c932c467e859706b4934150282253fa04",
      "blockNumber": "0x14736c82",
      "gasUsed": "0x62dea",
      "effectiveGasPrice": "0x989680",
      "from": "0x13b9cbcb46ad79878af8c9faa835bee19b977d3d",
      "to": "0x645ec5781e8615a20e36ee13f338b79f89640aaf",
      "contractAddress": null,
      "gasUsedForL1": "0x18ac8",
      "l1BlockNumber": "0x15919d7"
    }
  ],
  "libraries": [],
  "pending": [],
  "returns": {},
  "timestamp": 1748861781,
  "chain": 42161,
  "commit": "d93b452"
}