{
  "transactions": [
    {
      "hash": "0x0d7c24df4abcb00824cac5d22e8ec697641a1af4e314eca426a7210d10f046ff",
      "transactionType": "CALL",
      "contractName": null,
      "contractAddress": "0x9ed82f27f05e0aa6a1ec7811518dec0f788b5774",
      "function": "wrap((((uint8,address),uint256,uint256),address,(bytes1,uint256,address)[],(bytes1,uint256)[],(address,uint16)[],uint8,uint256,bytes2),((uint8,address),uint256,uint256)[],address)",
      "arguments": [
        "(((0, 0x0000000000000000000000000000000000000000), 0, 0), 0x0000000000000000000000000000000000000000, [], [], [], 3, 0, 0x0000)",
        "[]",
        "0x5992Fe461F81C8E0aFFA95b831E50e9b3854BA0E"
      ],
      "transaction": {
        "from": "0x5992fe461f81c8e0affa95b831e50e9b3854ba0e",
        "to": "0x9ed82f27f05e0aa6a1ec7811518dec0f788b5774",
        "gas": "0x4fda1",
        "value": "0x0",
        "input": "0x4d36d085000000000000000000000000000000000000000000000000000000000000006000000000000000000000000000000000000000000000000000000000000002200000000000000000000000005992fe461f81c8e0affa95b831e50e9b3854ba0e000000000000000000000000000000000000000000000000000000000000000000000000000000000000000000000000000000000000000000000000000000000000000000000000000000000000000000000000000000000000000000000000000000000000000000000000000000000000000000000000000000000000000000000000000000000000000000000000000000000000000000000000000000000000000000000000000000000000000000000000000000000000000000000160000000000000000000000000000000000000000000000000000000000000018000000000000000000000000000000000000000000000000000000000000001a00000000000000000000000000000000000000000000000000000000000000003000000000000000000000000000000000000000000000000000000000000000000000000000000000000000000000000000000000000000000000000000000000000000000000000000000000000000000000000000000000000000000000000000000000000000000000000000000000000000000000000000000000000000000000000000000000000000000000000000000000000000000000000000000000000000000000000000000000000000000000000000000000000000000000000",
        "nonce": "0x4fa",
        "chainId": "0xaa36a7"
      },
      "additionalContracts": [],
      "isFixedGasLimit": false
    },
    {
      "hash": "0xfa420424442e089cb4f6cb0a41a3e12062ace9b13e0b3a752b648780a330e348",
      "transactionType": "CALL",
      "contractName": null,
      "contractAddress": "0x6ce103d9241825b1b99355c45e8883d05ee6bd9a",
      "function": null,
      "arguments": null,
      "transaction": {
        "from": "0x5992fe461f81c8e0affa95b831e50e9b3854ba0e",
        "to": "0x6ce103d9241825b1b99355c45e8883d05ee6bd9a",
        "gas": "0x8a3f",
        "value": "0x38d7ea4c68000",
        "input": "0x",
        "nonce": "0x4fb",
        "chainId": "0xaa36a7"
      },
      "additionalContracts": [],
      "isFixedGasLimit": false
    },
    {
      "hash": "0x99be8b599a6dc1a5991548c3dff04b55741a2aae3f1a8f6e177d3c7cb2a6e94a",
      "transactionType": "CALL",
      "contractName": null,
      "contractAddress": "0x5db9f4c9239345308614604e69258c0bba9b437f",
      "function": "transfer(address,uint256)",
      "arguments": [
        "0x6ce103d9241825b1B99355C45e8883d05eE6Bd9A",
        "1000000000000000000"
      ],
      "transaction": {
        "from": "0x5992fe461f81c8e0affa95b831e50e9b3854ba0e",
        "to": "0x5db9f4c9239345308614604e69258c0bba9b437f",
        "gas": "0x1165b",
        "value": "0x0",
        "input": "0xa9059cbb0000000000000000000000006ce103d9241825b1b99355c45e8883d05ee6bd9a0000000000000000000000000000000000000000000000000de0b6b3a7640000",
        "nonce": "0x4fc",
        "chainId": "0xaa36a7"
      },
      "additionalContracts": [],
      "isFixedGasLimit": false
    },
    {
      "hash": "0x746ad88664cea8e412daa8ad955f40c064d7369ec71b47dcf6b199e1bf0b043b",
      "transactionType": "CALL",
      "contractName": null,
      "contractAddress": "0x6ce103d9241825b1b99355c45e8883d05ee6bd9a",
      "function": "removeCollateral(((uint8,address),uint256,uint256),address)",
      "arguments": [
        "((2, 0x5dB9f4C9239345308614604e69258C0bba9b437f), 0, 500000000000000000)",
        "0x5992Fe461F81C8E0aFFA95b831E50e9b3854BA0E"
      ],
      "transaction": {
        "from": "0x5992fe461f81c8e0affa95b831e50e9b3854ba0e",
        "to": "0x6ce103d9241825b1b99355c45e8883d05ee6bd9a",
        "gas": "0x13deb",
        "value": "0x0",
        "input": "0xee9cfb4a00000000000000000000000000000000000000000000000000000000000000020000000000000000000000005db9f4c9239345308614604e69258c0bba9b437f000000000000000000000000000000000000000000000000000000000000000000000000000000000000000000000000000000000000000006f05b59d3b200000000000000000000000000005992fe461f81c8e0affa95b831e50e9b3854ba0e",
        "nonce": "0x4fd",
        "chainId": "0xaa36a7"
      },
      "additionalContracts": [],
      "isFixedGasLimit": false
    }
  ],
  "receipts": [
    {
      "status": "0x1",
      "cumulativeGasUsed": "0x1098255",
      "logs": [
        {
          "address": "0x6ce103d9241825b1b99355c45e8883d05ee6bd9a",
          "topics": [
            "0xddf252ad1be2c89b69c2b068fc378daa952ba7f163c4a11628f55a4df523b3ef",
            "0x0000000000000000000000000000000000000000000000000000000000000000",
            "0x0000000000000000000000005992fe461f81c8e0affa95b831e50e9b3854ba0e",
            "0x0000000000000000000000000000000000000000000000000000000000000001"
          ],
          "data": "0x",
          "blockHash": "0x496c5cd0fca0de5dffb146f0101c4ca820d10d0c1240874099991e611e8ac7fb",
          "blockNumber": "0x67bdb3",
          "transactionHash": "0x0d7c24df4abcb00824cac5d22e8ec697641a1af4e314eca426a7210d10f046ff",
          "transactionIndex": "0x1b",
          "logIndex": "0x5c",
          "removed": false
        },
        {
          "address": "0x6ce103d9241825b1b99355c45e8883d05ee6bd9a",
          "topics": [
            "0xf8e1a15aba9398e019f0b49df1a4fde98ee17ae345cb5f6b5e2c27f5033e8ce7"
          ],
          "data": "0x0000000000000000000000000000000000000000000000000000000000000001",
          "blockHash": "0x496c5cd0fca0de5dffb146f0101c4ca820d10d0c1240874099991e611e8ac7fb",
          "blockNumber": "0x67bdb3",
          "transactionHash": "0x0d7c24df4abcb00824cac5d22e8ec697641a1af4e314eca426a7210d10f046ff",
          "transactionIndex": "0x1b",
          "logIndex": "0x5d",
          "removed": false
        },
        {
          "address": "0x6ce103d9241825b1b99355c45e8883d05ee6bd9a",
          "topics": [
            "0xa90a3b8dae41ae10a708d32fec7bf12da5c90879c98b9c4cca3c8fba91ddf493",
            "0x0000000000000000000000000000000000000000000000000000000000000000",
            "0x0000000000000000000000006ce103d9241825b1b99355c45e8883d05ee6bd9a",
            "0x0000000000000000000000000000000000000000000000000000000000000000"
          ],
          "data": "0x00000000000000000000000000000000000000000000000000000000000000010000000000000000000000005992fe461f81c8e0affa95b831e50e9b3854ba0e00000000000000000000000000000000000000000000000000000000000000000000000000000000000000000000000000000000000000000000000000000000",
          "blockHash": "0x496c5cd0fca0de5dffb146f0101c4ca820d10d0c1240874099991e611e8ac7fb",
          "blockNumber": "0x67bdb3",
          "transactionHash": "0x0d7c24df4abcb00824cac5d22e8ec697641a1af4e314eca426a7210d10f046ff",
          "transactionIndex": "0x1b",
          "logIndex": "0x5e",
          "removed": false
        },
        {
          "address": "0x6ce103d9241825b1b99355c45e8883d05ee6bd9a",
          "topics": [
            "0xc7f505b2f371ae2175ee4913f4499e1f2633a7b5936321eed1cdaeb6115181d2"
          ],
          "data": "0x0000000000000000000000000000000000000000000000000000000000000001",
          "blockHash": "0x496c5cd0fca0de5dffb146f0101c4ca820d10d0c1240874099991e611e8ac7fb",
          "blockNumber": "0x67bdb3",
          "transactionHash": "0x0d7c24df4abcb00824cac5d22e8ec697641a1af4e314eca426a7210d10f046ff",
          "transactionIndex": "0x1b",
          "logIndex": "0x5f",
          "removed": false
        },
        {
          "address": "0x431db5c6ce5d85a0baa2198aa7aa0e65d37a25c8",
          "topics": [
            "0x8dc66cafb77b325538c856bfa5892b31ca7305adfa48f6a09e030e261cda0795",
            "0x0000000000000000000000006ce103d9241825b1b99355c45e8883d05ee6bd9a",
            "0x000000000000000000000000b692f2f8babc3e348484dba1ef24f61f75d61cdb"
          ],
          "data": "0x00000000000000000000000000000000000000000000000000000000000007d1",
          "blockHash": "0x496c5cd0fca0de5dffb146f0101c4ca820d10d0c1240874099991e611e8ac7fb",
          "blockNumber": "0x67bdb3",
          "transactionHash": "0x0d7c24df4abcb00824cac5d22e8ec697641a1af4e314eca426a7210d10f046ff",
          "transactionIndex": "0x1b",
          "logIndex": "0x60",
          "removed": false
        }
      ],
      "logsBloom": "0x00000000000000800000000000000000000000000000000000020000020000000000000000000000000000000008000000000000000000000000000000040000000000000400020000000008004000000000000000040000000000000000000000000000020000000000000000000800000000000040000000000010000000040000000800000080000800001000080000000000000080800000000000004080000002000000000000000000000000002000000000000000040000880000008000000002000000000000000000000000000000000004000000000000000060000000000000000000200000004000000000000000000000000000000000000000",
      "type": "0x2",
      "transactionHash": "0x0d7c24df4abcb00824cac5d22e8ec697641a1af4e314eca426a7210d10f046ff",
      "transactionIndex": "0x1b",
      "blockHash": "0x496c5cd0fca0de5dffb146f0101c4ca820d10d0c1240874099991e611e8ac7fb",
      "blockNumber": "0x67bdb3",
      "gasUsed": "0x39d00",
      "effectiveGasPrice": "0x43ad83804c",
      "from": "0x5992fe461f81c8e0affa95b831e50e9b3854ba0e",
      "to": "0x9ed82f27f05e0aa6a1ec7811518dec0f788b5774",
      "contractAddress": null
    },
    {
      "status": "0x1",
      "cumulativeGasUsed": "0x109e66c",
      "logs": [
        {
          "address": "0x6ce103d9241825b1b99355c45e8883d05ee6bd9a",
          "topics": [
            "0x26399b60fa9117e91f9cf4e690f18a117d22841f62fb4ece7e7c799a97cb6a07",
            "0x00000000000000000000000000000000000000000000000000038d7ea4c68000",
            "0x00000000000000000000000000000000000000000000000000038d7ea4c68000",
            "0x0000000000000000000000005992fe461f81c8e0affa95b831e50e9b3854ba0e"
          ],
          "data": "0x",
          "blockHash": "0x496c5cd0fca0de5dffb146f0101c4ca820d10d0c1240874099991e611e8ac7fb",
          "blockNumber": "0x67bdb3",
          "transactionHash": "0xfa420424442e089cb4f6cb0a41a3e12062ace9b13e0b3a752b648780a330e348",
          "transactionIndex": "0x1c",
          "logIndex": "0x61",
          "removed": false
        }
      ],
      "logsBloom": "0x00000000000000000000000000000000000000000000000000020000000000000000000000000000000000000000000000000000000001000000000000000000000000000400000000000000000000000000000000000000000000000000000000000000000000000000000000000000000000000001000000002000000000000000000800000000000000000000000000000000000000000000000200004000000006000000000000000000000000000000000000000000040000000000000000000000000000000000000000000000000000000000000000000000000000000000000000000080000000000000000000000000000000000000000000000000",
      "type": "0x2",
      "transactionHash": "0xfa420424442e089cb4f6cb0a41a3e12062ace9b13e0b3a752b648780a330e348",
      "transactionIndex": "0x1c",
      "blockHash": "0x496c5cd0fca0de5dffb146f0101c4ca820d10d0c1240874099991e611e8ac7fb",
      "blockNumber": "0x67bdb3",
      "gasUsed": "0x6417",
      "effectiveGasPrice": "0x43ad83804c",
      "from": "0x5992fe461f81c8e0affa95b831e50e9b3854ba0e",
      "to": "0x6ce103d9241825b1b99355c45e8883d05ee6bd9a",
      "contractAddress": null
    },
    {
      "status": "0x1",
      "cumulativeGasUsed": "0x10aaff3",
      "logs": [
        {
          "address": "0x5db9f4c9239345308614604e69258c0bba9b437f",
          "topics": [
            "0xddf252ad1be2c89b69c2b068fc378daa952ba7f163c4a11628f55a4df523b3ef",
            "0x0000000000000000000000005992fe461f81c8e0affa95b831e50e9b3854ba0e",
            "0x0000000000000000000000006ce103d9241825b1b99355c45e8883d05ee6bd9a"
          ],
          "data": "0x0000000000000000000000000000000000000000000000000de0b6b3a7640000",
          "blockHash": "0x496c5cd0fca0de5dffb146f0101c4ca820d10d0c1240874099991e611e8ac7fb",
          "blockNumber": "0x67bdb3",
          "transactionHash": "0x99be8b599a6dc1a5991548c3dff04b55741a2aae3f1a8f6e177d3c7cb2a6e94a",
          "transactionIndex": "0x1d",
          "logIndex": "0x62",
          "removed": false
        }
      ],
      "logsBloom": "0x00000000000000000000000000000000000000000020000000000000000000000000000000000000000200000008000000000000000000000000000000000000000000000000000000000008000000000000000000000000000000000000000000000000000000000000000000000000000000000000000000000010000000000000000800000000000000001000080000000000000000000000000000004000000000000000000000000000000000000000000000000000040000000000000000000002000000000000000000000000000000000400000000000000000000000000000000000000000000000000000000000000000000000000000000000000",
      "type": "0x2",
      "transactionHash": "0x99be8b599a6dc1a5991548c3dff04b55741a2aae3f1a8f6e177d3c7cb2a6e94a",
      "transactionIndex": "0x1d",
      "blockHash": "0x496c5cd0fca0de5dffb146f0101c4ca820d10d0c1240874099991e611e8ac7fb",
      "blockNumber": "0x67bdb3",
      "gasUsed": "0xc987",
      "effectiveGasPrice": "0x43ad83804c",
      "from": "0x5992fe461f81c8e0affa95b831e50e9b3854ba0e",
      "to": "0x5db9f4c9239345308614604e69258c0bba9b437f",
      "contractAddress": null
    },
    {
      "status": "0x1",
      "cumulativeGasUsed": "0x10b8955",
      "logs": [
        {
          "address": "0x5db9f4c9239345308614604e69258c0bba9b437f",
          "topics": [
            "0xddf252ad1be2c89b69c2b068fc378daa952ba7f163c4a11628f55a4df523b3ef",
            "0x0000000000000000000000006ce103d9241825b1b99355c45e8883d05ee6bd9a",
            "0x0000000000000000000000005992fe461f81c8e0affa95b831e50e9b3854ba0e"
          ],
          "data": "0x00000000000000000000000000000000000000000000000006f05b59d3b20000",
          "blockHash": "0x496c5cd0fca0de5dffb146f0101c4ca820d10d0c1240874099991e611e8ac7fb",
          "blockNumber": "0x67bdb3",
          "transactionHash": "0x746ad88664cea8e412daa8ad955f40c064d7369ec71b47dcf6b199e1bf0b043b",
          "transactionIndex": "0x1e",
          "logIndex": "0x63",
          "removed": false
        }
      ],
      "logsBloom": "0x00000000000000000000000000000000000000000020000000000000000000000000000000000000000200000008000000000000000000000000000000000000000000000000000000000008000000000000000000000000000000000000000000000000000000000000000000000000000000000000000000000010000000000000000800000000000000001000080000000000000000000000000000004000000000000000000000000000000000000000000000000000040000000000000000000002000000000000000000000000000000000400000000000000000000000000000000000000000000000000000000000000000000000000000000000000",
      "type": "0x2",
      "transactionHash": "0x746ad88664cea8e412daa8ad955f40c064d7369ec71b47dcf6b199e1bf0b043b",
      "transactionIndex": "0x1e",
      "blockHash": "0x496c5cd0fca0de5dffb146f0101c4ca820d10d0c1240874099991e611e8ac7fb",
      "blockNumber": "0x67bdb3",
      "gasUsed": "0xd962",
      "effectiveGasPrice": "0x43ad83804c",
      "from": "0x5992fe461f81c8e0affa95b831e50e9b3854ba0e",
      "to": "0x6ce103d9241825b1b99355c45e8883d05ee6bd9a",
      "contractAddress": null
    }
  ],
  "libraries": [],
  "pending": [],
  "returns": {},
  "timestamp": 1727848891,
  "chain": 11155111,
  "commit": "2c74d06"
}