{
  "transactions": [
    {
      "hash": "0xd5ab8c570c1e21ea0da656ce6e2fbe763d6a9a411c93e49230ab8083f7992174",
      "transactionType": "CALL",
      "contractName": null,
      "contractAddress": "0x673eed3d0e1f5d24848be5866791e02545ffdbad",
      "function": "executeEncodedTx(address,uint256,bytes)",
      "arguments": [
        "0xf315B9006C20913D6D8498BDf657E778d4Ddf2c4",
        "1000000000000000",
        "0x"
      ],
      "transaction": {
        "from": "0x5992fe461f81c8e0affa95b831e50e9b3854ba0e",
        "to": "0x673eed3d0e1f5d24848be5866791e02545ffdbad",
        "gas": "0xf275",
        "value": "0x0",
        "input": "0xdc15f530000000000000000000000000f315b9006c20913d6d8498bdf657e778d4ddf2c400000000000000000000000000000000000000000000000000038d7ea4c6800000000000000000000000000000000000000000000000000000000000000000600000000000000000000000000000000000000000000000000000000000000000",
        "nonce": "0x4f3",
        "chainId": "0xaa36a7"
      },
      "additionalContracts": [],
      "isFixedGasLimit": false
    }
  ],
  "receipts": [
    {
      "status": "0x1",
      "cumulativeGasUsed": "0xefb0fa",
      "logs": [
        {
          "address": "0x673eed3d0e1f5d24848be5866791e02545ffdbad",
          "topics": [
            "0xc4784f333fb4f086174aa7cc56e2eb0850c39bbda8f955f72ee77d54b13a3dd9",
            "0x00000000000000000000000000000000000000000000000000038d7ea4c68000",
            "0x0000000000000000000000000000000000000000000000000000000000000000",
            "0x0000000000000000000000000000000000000000000000000000000000000000"
          ],
          "data": "0x0000000000000000000000005992fe461f81c8e0affa95b831e50e9b3854ba0e",
          "blockHash": "0xb28328baa6591bac80754214f9ee234427c589dc787df3fb481e6ae1166a0b0b",
          "blockNumber": "0x67a788",
          "transactionHash": "0xd5ab8c570c1e21ea0da656ce6e2fbe763d6a9a411c93e49230ab8083f7992174",
          "transactionIndex": "0x50",
          "logIndex": "0x81",
          "removed": false
        }
      ],
      "logsBloom": "0x00000000000000000000000000000000000000000000000000000000000000000000000000000000000000000000000000000000000000000000000000000000000000000020000000000000000020000000000000000000000000000000000000000000020000000000000000000800000000001001000000000000000000000000000000000000000000000000000000080000000000000000000200000000000000000000000000000000000000000000000000000000000000000000000000000000000000000000000000000000000000000000020000000000000020000000000000000082000000000000000000000000000000000000000000000000",
      "type": "0x2",
      "transactionHash": "0xd5ab8c570c1e21ea0da656ce6e2fbe763d6a9a411c93e49230ab8083f7992174",
      "transactionIndex": "0x50",
      "blockHash": "0xb28328baa6591bac80754214f9ee234427c589dc787df3fb481e6ae1166a0b0b",
      "blockNumber": "0x67a788",
      "gasUsed": "0xa5c9",
      "effectiveGasPrice": "0x484d96f0b2",
      "from": "0x5992fe461f81c8e0affa95b831e50e9b3854ba0e",
      "to": "0x673eed3d0e1f5d24848be5866791e02545ffdbad",
      "contractAddress": null
    }
  ],
  "libraries": [],
  "pending": [],
  "returns": {},
  "timestamp": 1727771534,
  "chain": 11155111,
  "commit": "2c74d06"
}