{
  "transactions": [
    {
      "hash": "0x7a959c58ab41d99c076b508f2e16d39548a4463f543eaf16d0476bd891b9b82f",
      "transactionType": "CALL",
      "contractName": null,
      "contractAddress": "0x9ed82f27f05e0aa6a1ec7811518dec0f788b5774",
      "function": "wrap((((uint8,address),uint256,uint256),address,(bytes1,uint256,address)[],(bytes1,uint256)[],(address,uint16)[],uint8,uint256,bytes2),((uint8,address),uint256,uint256)[],address)",
      "arguments": [
        "(((0, 0x0000000000000000000000000000000000000000), 0, 0), 0x0000000000000000000000000000000000000000, [], [], [], 3, 0, 0x0000)",
        "[]",
        "0x5992Fe461F81C8E0aFFA95b831E50e9b3854BA0E"
      ],
      "transaction": {
        "from": "0x5992fe461f81c8e0affa95b831e50e9b3854ba0e",
        "to": "0x9ed82f27f05e0aa6a1ec7811518dec0f788b5774",
        "gas": "0x4fda1",
        "value": "0x0",
        "input": "0x4d36d085000000000000000000000000000000000000000000000000000000000000006000000000000000000000000000000000000000000000000000000000000002200000000000000000000000005992fe461f81c8e0affa95b831e50e9b3854ba0e000000000000000000000000000000000000000000000000000000000000000000000000000000000000000000000000000000000000000000000000000000000000000000000000000000000000000000000000000000000000000000000000000000000000000000000000000000000000000000000000000000000000000000000000000000000000000000000000000000000000000000000000000000000000000000000000000000000000000000000000000000000000000000000160000000000000000000000000000000000000000000000000000000000000018000000000000000000000000000000000000000000000000000000000000001a00000000000000000000000000000000000000000000000000000000000000003000000000000000000000000000000000000000000000000000000000000000000000000000000000000000000000000000000000000000000000000000000000000000000000000000000000000000000000000000000000000000000000000000000000000000000000000000000000000000000000000000000000000000000000000000000000000000000000000000000000000000000000000000000000000000000000000000000000000000000000000000000000000000000000000",
        "nonce": "0x500",
        "chainId": "0xaa36a7"
      },
      "additionalContracts": [],
      "isFixedGasLimit": false
    }
  ],
  "receipts": [
    {
      "status": "0x1",
      "cumulativeGasUsed": "0x9ee848",
      "logs": [
        {
          "address": "0xf4535d9b55747e4538a5c2733820de561e602f51",
          "topics": [
            "0xddf252ad1be2c89b69c2b068fc378daa952ba7f163c4a11628f55a4df523b3ef",
            "0x0000000000000000000000000000000000000000000000000000000000000000",
            "0x0000000000000000000000005992fe461f81c8e0affa95b831e50e9b3854ba0e",
            "0x0000000000000000000000000000000000000000000000000000000000000001"
          ],
          "data": "0x",
          "blockHash": "0xc557900f97ecf3c946c09a4ab11352874a6455c828d60c28988b6285dddf6a68",
          "blockNumber": "0x67bddd",
          "transactionHash": "0x7a959c58ab41d99c076b508f2e16d39548a4463f543eaf16d0476bd891b9b82f",
          "transactionIndex": "0xf",
          "logIndex": "0xa",
          "removed": false
        },
        {
          "address": "0xf4535d9b55747e4538a5c2733820de561e602f51",
          "topics": [
            "0xf8e1a15aba9398e019f0b49df1a4fde98ee17ae345cb5f6b5e2c27f5033e8ce7"
          ],
          "data": "0x0000000000000000000000000000000000000000000000000000000000000001",
          "blockHash": "0xc557900f97ecf3c946c09a4ab11352874a6455c828d60c28988b6285dddf6a68",
          "blockNumber": "0x67bddd",
          "transactionHash": "0x7a959c58ab41d99c076b508f2e16d39548a4463f543eaf16d0476bd891b9b82f",
          "transactionIndex": "0xf",
          "logIndex": "0xb",
          "removed": false
        },
        {
          "address": "0xf4535d9b55747e4538a5c2733820de561e602f51",
          "topics": [
            "0xa90a3b8dae41ae10a708d32fec7bf12da5c90879c98b9c4cca3c8fba91ddf493",
            "0x0000000000000000000000000000000000000000000000000000000000000000",
            "0x000000000000000000000000f4535d9b55747e4538a5c2733820de561e602f51",
            "0x0000000000000000000000000000000000000000000000000000000000000000"
          ],
          "data": "0x00000000000000000000000000000000000000000000000000000000000000010000000000000000000000005992fe461f81c8e0affa95b831e50e9b3854ba0e00000000000000000000000000000000000000000000000000000000000000000000000000000000000000000000000000000000000000000000000000000000",
          "blockHash": "0xc557900f97ecf3c946c09a4ab11352874a6455c828d60c28988b6285dddf6a68",
          "blockNumber": "0x67bddd",
          "transactionHash": "0x7a959c58ab41d99c076b508f2e16d39548a4463f543eaf16d0476bd891b9b82f",
          "transactionIndex": "0xf",
          "logIndex": "0xc",
          "removed": false
        },
        {
          "address": "0xf4535d9b55747e4538a5c2733820de561e602f51",
          "topics": [
            "0xc7f505b2f371ae2175ee4913f4499e1f2633a7b5936321eed1cdaeb6115181d2"
          ],
          "data": "0x0000000000000000000000000000000000000000000000000000000000000001",
          "blockHash": "0xc557900f97ecf3c946c09a4ab11352874a6455c828d60c28988b6285dddf6a68",
          "blockNumber": "0x67bddd",
          "transactionHash": "0x7a959c58ab41d99c076b508f2e16d39548a4463f543eaf16d0476bd891b9b82f",
          "transactionIndex": "0xf",
          "logIndex": "0xd",
          "removed": false
        },
        {
          "address": "0x431db5c6ce5d85a0baa2198aa7aa0e65d37a25c8",
          "topics": [
            "0x8dc66cafb77b325538c856bfa5892b31ca7305adfa48f6a09e030e261cda0795",
            "0x000000000000000000000000f4535d9b55747e4538a5c2733820de561e602f51",
            "0x000000000000000000000000b692f2f8babc3e348484dba1ef24f61f75d61cdb"
          ],
          "data": "0x00000000000000000000000000000000000000000000000000000000000007d1",
          "blockHash": "0xc557900f97ecf3c946c09a4ab11352874a6455c828d60c28988b6285dddf6a68",
          "blockNumber": "0x67bddd",
          "transactionHash": "0x7a959c58ab41d99c076b508f2e16d39548a4463f543eaf16d0476bd891b9b82f",
          "transactionIndex": "0xf",
          "logIndex": "0xe",
          "removed": false
        }
      ],
      "logsBloom": "0x00000000000000800000000000000000000000000000000000000000020000000000000000000000000000000000000000000000000000000000000000040010000000000000020000000008004000000000000000040000000000000000000000000000020000000000000000000800000000000040040000000010000000040000000800000080000800000000080000000000000080800000000000004080000000000000000000000000000800002000000000000000040000880000008000000002000000000000000000000000000000000004000000000000000061000000000000000000200000004000000000000000000200000000000000000000",
      "type": "0x2",
      "transactionHash": "0x7a959c58ab41d99c076b508f2e16d39548a4463f543eaf16d0476bd891b9b82f",
      "transactionIndex": "0xf",
      "blockHash": "0xc557900f97ecf3c946c09a4ab11352874a6455c828d60c28988b6285dddf6a68",
      "blockNumber": "0x67bddd",
      "gasUsed": "0x39d00",
      "effectiveGasPrice": "0x5eee6fd734",
      "from": "0x5992fe461f81c8e0affa95b831e50e9b3854ba0e",
      "to": "0x9ed82f27f05e0aa6a1ec7811518dec0f788b5774",
      "contractAddress": null
    }
  ],
  "libraries": [],
  "pending": [],
  "returns": {},
  "timestamp": 1727849444,
  "chain": 11155111,
  "commit": "2c74d06"
}