{
  "transactions": [
    {
      "hash": "0xeb84f91515a4c291d8c9283e2dee7bb8933d5a31c25202e0cf0dce140ef72e4f",
      "transactionType": "CALL",
      "contractName": null,
      "contractAddress": "0x9ed82f27f05e0aa6a1ec7811518dec0f788b5774",
      "function": "wrap((((uint8,address),uint256,uint256),address,(bytes1,uint256,address)[],(bytes1,uint256)[],(address,uint16)[],uint8,uint256,bytes2),((uint8,address),uint256,uint256)[],address)",
      "arguments": [
        "(((0, 0x0000000000000000000000000000000000000000), 0, 0), 0x0000000000000000000000000000000000000001, [], [], [], 3, 0, 0x0000)",
        "[]",
        "0x0000000000000000000000000000000000000001"
      ],
      "transaction": {
        "from": "0x5992fe461f81c8e0affa95b831e50e9b3854ba0e",
        "to": "0x9ed82f27f05e0aa6a1ec7811518dec0f788b5774",
        "gas": "0x4fc77",
        "value": "0x0",
        "input": "0x4d36d085000000000000000000000000000000000000000000000000000000000000006000000000000000000000000000000000000000000000000000000000000002200000000000000000000000000000000000000000000000000000000000000001000000000000000000000000000000000000000000000000000000000000000000000000000000000000000000000000000000000000000000000000000000000000000000000000000000000000000000000000000000000000000000000000000000000000000000000000000000000000000000000000000000000000000000000000000000000000000000000000000000000000000000000000000000010000000000000000000000000000000000000000000000000000000000000160000000000000000000000000000000000000000000000000000000000000018000000000000000000000000000000000000000000000000000000000000001a00000000000000000000000000000000000000000000000000000000000000003000000000000000000000000000000000000000000000000000000000000000000000000000000000000000000000000000000000000000000000000000000000000000000000000000000000000000000000000000000000000000000000000000000000000000000000000000000000000000000000000000000000000000000000000000000000000000000000000000000000000000000000000000000000000000000000000000000000000000000000000000000000000000000000000",
        "nonce": "0x4f4",
        "chainId": "0xaa36a7"
      },
      "additionalContracts": [],
      "isFixedGasLimit": false
    }
  ],
  "receipts": [
    {
      "status": "0x1",
      "cumulativeGasUsed": "0xf28ee2",
      "logs": [
        {
          "address": "0x334e6ffcfc4367e3fe3448d7b66b1073b3b2e40d",
          "topics": [
            "0xddf252ad1be2c89b69c2b068fc378daa952ba7f163c4a11628f55a4df523b3ef",
            "0x0000000000000000000000000000000000000000000000000000000000000000",
            "0x0000000000000000000000000000000000000000000000000000000000000001",
            "0x0000000000000000000000000000000000000000000000000000000000000001"
          ],
          "data": "0x",
          "blockHash": "0x9f822f8b69060e130b51f431971c2d388eaff097e53ab0c8ac5d16f1ad911704",
          "blockNumber": "0x67bd6b",
          "transactionHash": "0xeb84f91515a4c291d8c9283e2dee7bb8933d5a31c25202e0cf0dce140ef72e4f",
          "transactionIndex": "0x1c",
          "logIndex": "0x4e",
          "removed": false
        },
        {
          "address": "0x334e6ffcfc4367e3fe3448d7b66b1073b3b2e40d",
          "topics": [
            "0xf8e1a15aba9398e019f0b49df1a4fde98ee17ae345cb5f6b5e2c27f5033e8ce7"
          ],
          "data": "0x0000000000000000000000000000000000000000000000000000000000000001",
          "blockHash": "0x9f822f8b69060e130b51f431971c2d388eaff097e53ab0c8ac5d16f1ad911704",
          "blockNumber": "0x67bd6b",
          "transactionHash": "0xeb84f91515a4c291d8c9283e2dee7bb8933d5a31c25202e0cf0dce140ef72e4f",
          "transactionIndex": "0x1c",
          "logIndex": "0x4f",
          "removed": false
        },
        {
          "address": "0x334e6ffcfc4367e3fe3448d7b66b1073b3b2e40d",
          "topics": [
            "0xa90a3b8dae41ae10a708d32fec7bf12da5c90879c98b9c4cca3c8fba91ddf493",
            "0x0000000000000000000000000000000000000000000000000000000000000000",
            "0x000000000000000000000000334e6ffcfc4367e3fe3448d7b66b1073b3b2e40d",
            "0x0000000000000000000000000000000000000000000000000000000000000000"
          ],
          "data": "0x0000000000000000000000000000000000000000000000000000000000000001000000000000000000000000000000000000000000000000000000000000000100000000000000000000000000000000000000000000000000000000000000000000000000000000000000000000000000000000000000000000000000000000",
          "blockHash": "0x9f822f8b69060e130b51f431971c2d388eaff097e53ab0c8ac5d16f1ad911704",
          "blockNumber": "0x67bd6b",
          "transactionHash": "0xeb84f91515a4c291d8c9283e2dee7bb8933d5a31c25202e0cf0dce140ef72e4f",
          "transactionIndex": "0x1c",
          "logIndex": "0x50",
          "removed": false
        },
        {
          "address": "0x334e6ffcfc4367e3fe3448d7b66b1073b3b2e40d",
          "topics": [
            "0xc7f505b2f371ae2175ee4913f4499e1f2633a7b5936321eed1cdaeb6115181d2"
          ],
          "data": "0x0000000000000000000000000000000000000000000000000000000000000001",
          "blockHash": "0x9f822f8b69060e130b51f431971c2d388eaff097e53ab0c8ac5d16f1ad911704",
          "blockNumber": "0x67bd6b",
          "transactionHash": "0xeb84f91515a4c291d8c9283e2dee7bb8933d5a31c25202e0cf0dce140ef72e4f",
          "transactionIndex": "0x1c",
          "logIndex": "0x51",
          "removed": false
        },
        {
          "address": "0x431db5c6ce5d85a0baa2198aa7aa0e65d37a25c8",
          "topics": [
            "0x8dc66cafb77b325538c856bfa5892b31ca7305adfa48f6a09e030e261cda0795",
            "0x000000000000000000000000334e6ffcfc4367e3fe3448d7b66b1073b3b2e40d",
            "0x000000000000000000000000b692f2f8babc3e348484dba1ef24f61f75d61cdb"
          ],
          "data": "0x00000000000000000000000000000000000000000000000000000000000007d1",
          "blockHash": "0x9f822f8b69060e130b51f431971c2d388eaff097e53ab0c8ac5d16f1ad911704",
          "blockNumber": "0x67bd6b",
          "transactionHash": "0xeb84f91515a4c291d8c9283e2dee7bb8933d5a31c25202e0cf0dce140ef72e4f",
          "transactionIndex": "0x1c",
          "logIndex": "0x52",
          "removed": false
        }
      ],
      "logsBloom": "0x00000000000000800000000000000000000000000000000000000000020000000000000000000000000000000000000000000000000000000000000000040000000000000000020000000008004000000002000020040000000001000000000000000000020000000000000020000800000000000040000000000010000000040000000000000080000800000000000000000000000080800000000020000080000000000000000080000000000000002000000000000000000000880000008000000002000000000000000000000000000000000004000000000000000060000000000000000000200000004000000000000000000000000000000000000000",
      "type": "0x2",
      "transactionHash": "0xeb84f91515a4c291d8c9283e2dee7bb8933d5a31c25202e0cf0dce140ef72e4f",
      "transactionIndex": "0x1c",
      "blockHash": "0x9f822f8b69060e130b51f431971c2d388eaff097e53ab0c8ac5d16f1ad911704",
      "blockNumber": "0x67bd6b",
      "gasUsed": "0x39c28",
      "effectiveGasPrice": "0x380db6b502",
      "from": "0x5992fe461f81c8e0affa95b831e50e9b3854ba0e",
      "to": "0x9ed82f27f05e0aa6a1ec7811518dec0f788b5774",
      "contractAddress": null
    }
  ],
  "libraries": [],
  "pending": [],
  "returns": {},
  "timestamp": 1727847917,
  "chain": 11155111,
  "commit": "2c74d06"
}