{
  "transactions": [
    {
      "hash": "0xd96cbe6a539d78ae53ba316be4eeacbfc7fd1dbb121d16fdfcb0876762430c32",
      "transactionType": "CALL",
      "contractName": "WNFTMyshchWallet",
      "contractAddress": "0xfffa3fdf2e17f0b021eb26657d6ccafee051d653",
      "function": "createWNFTonFactory((address,string,string,string,address[],bytes32[],uint256[],bytes))",
      "arguments": [
        "(0x5992Fe461F81C8E0aFFA95b831E50e9b3854BA0E, Envelop, ENV, https://api.envelop.is/metadata/, [0x900637951D58f392D0b5E1F25a73BD6E383c6fF0], [], [], 0x)"
      ],
      "transaction": {
        "from": "0x5992fe461f81c8e0affa95b831e50e9b3854ba0e",
        "to": "0xfffa3fdf2e17f0b021eb26657d6ccafee051d653",
        "gas": "0x5d0ba",
        "value": "0x0",
        "input": "0x7c3cc70700000000000000000000000000000000000000000000000000000000000000200000000000000000000000005992fe461f81c8e0affa95b831e50e9b3854ba0e00000000000000000000000000000000000000000000000000000000000001000000000000000000000000000000000000000000000000000000000000000140000000000000000000000000000000000000000000000000000000000000018000000000000000000000000000000000000000000000000000000000000001c00000000000000000000000000000000000000000000000000000000000000200000000000000000000000000000000000000000000000000000000000000022000000000000000000000000000000000000000000000000000000000000002400000000000000000000000000000000000000000000000000000000000000007456e76656c6f70000000000000000000000000000000000000000000000000000000000000000000000000000000000000000000000000000000000000000003454e560000000000000000000000000000000000000000000000000000000000000000000000000000000000000000000000000000000000000000000000002068747470733a2f2f6170692e656e76656c6f702e69732f6d657461646174612f0000000000000000000000000000000000000000000000000000000000000001000000000000000000000000900637951d58f392d0b5e1f25a73bd6e383c6ff0000000000000000000000000000000000000000000000000000000000000000000000000000000000000000000000000000000000000000000000000000000000000000000000000000000000000000000000000000000000000000000000000",
        "nonce": "0x50e",
        "chainId": "0xaa36a7"
      },
      "additionalContracts": [],
      "isFixedGasLimit": false
    }
  ],
  "receipts": [
    {
      "status": "0x1",
      "cumulativeGasUsed": "0x12f0dad",
      "logs": [
        {
          "address": "0x1130c99bf34d662a38f2a5a123c454a5381abd44",
          "topics": [
            "0xddf252ad1be2c89b69c2b068fc378daa952ba7f163c4a11628f55a4df523b3ef",
            "0x0000000000000000000000000000000000000000000000000000000000000000",
            "0x0000000000000000000000005992fe461f81c8e0affa95b831e50e9b3854ba0e",
            "0x0000000000000000000000000000000000000000000000000000000000000001"
          ],
          "data": "0x",
          "blockHash": "0xa9d0e728198b8a96883baab4ec2c397fbf967323b3f8c5baf799395ae9dbeb99",
          "blockNumber": "0x69a297",
          "transactionHash": "0xd96cbe6a539d78ae53ba316be4eeacbfc7fd1dbb121d16fdfcb0876762430c32",
          "transactionIndex": "0x78",
          "logIndex": "0x165",
          "removed": false
        },
        {
          "address": "0x1130c99bf34d662a38f2a5a123c454a5381abd44",
          "topics": [
            "0xf8e1a15aba9398e019f0b49df1a4fde98ee17ae345cb5f6b5e2c27f5033e8ce7"
          ],
          "data": "0x0000000000000000000000000000000000000000000000000000000000000001",
          "blockHash": "0xa9d0e728198b8a96883baab4ec2c397fbf967323b3f8c5baf799395ae9dbeb99",
          "blockNumber": "0x69a297",
          "transactionHash": "0xd96cbe6a539d78ae53ba316be4eeacbfc7fd1dbb121d16fdfcb0876762430c32",
          "transactionIndex": "0x78",
          "logIndex": "0x166",
          "removed": false
        },
        {
          "address": "0x1130c99bf34d662a38f2a5a123c454a5381abd44",
          "topics": [
            "0xfa6883374d3785c826e28c69c68c1b6dd2178accc8623f49c6829a75487419b3",
            "0x0000000000000000000000005992fe461f81c8e0affa95b831e50e9b3854ba0e",
            "0x0000000000000000000000000000000000000000000000000000000000000001",
            "0x0000000000000000000000000000000000000000000000000000000000000000"
          ],
          "data": "0x00000000000000000000000000000000000000000000000000000000000000200000000000000000000000000000000000000000000000000000000000000000",
          "blockHash": "0xa9d0e728198b8a96883baab4ec2c397fbf967323b3f8c5baf799395ae9dbeb99",
          "blockNumber": "0x69a297",
          "transactionHash": "0xd96cbe6a539d78ae53ba316be4eeacbfc7fd1dbb121d16fdfcb0876762430c32",
          "transactionIndex": "0x78",
          "logIndex": "0x167",
          "removed": false
        },
        {
          "address": "0x1130c99bf34d662a38f2a5a123c454a5381abd44",
          "topics": [
            "0xc7f505b2f371ae2175ee4913f4499e1f2633a7b5936321eed1cdaeb6115181d2"
          ],
          "data": "0x0000000000000000000000000000000000000000000000000000000000000001",
          "blockHash": "0xa9d0e728198b8a96883baab4ec2c397fbf967323b3f8c5baf799395ae9dbeb99",
          "blockNumber": "0x69a297",
          "transactionHash": "0xd96cbe6a539d78ae53ba316be4eeacbfc7fd1dbb121d16fdfcb0876762430c32",
          "transactionIndex": "0x78",
          "logIndex": "0x168",
          "removed": false
        },
        {
          "address": "0x431db5c6ce5d85a0baa2198aa7aa0e65d37a25c8",
          "topics": [
            "0x8dc66cafb77b325538c856bfa5892b31ca7305adfa48f6a09e030e261cda0795",
            "0x0000000000000000000000001130c99bf34d662a38f2a5a123c454a5381abd44",
            "0x000000000000000000000000fffa3fdf2e17f0b021eb26657d6ccafee051d653"
          ],
          "data": "0x00000000000000000000000000000000000000000000000000000000000007d2",
          "blockHash": "0xa9d0e728198b8a96883baab4ec2c397fbf967323b3f8c5baf799395ae9dbeb99",
          "blockNumber": "0x69a297",
          "transactionHash": "0xd96cbe6a539d78ae53ba316be4eeacbfc7fd1dbb121d16fdfcb0876762430c32",
          "transactionIndex": "0x78",
          "logIndex": "0x169",
          "removed": false
        }
      ],
      "logsBloom": "0x00000000000000800000000000000000000000000000000000000000020000000000000000000000000000000000000000000000000000001000000000040000000000001000020000000108000000000000000000040000000000000000000000000000020000000000000000000800000000000000000000000010000000000000000800000080000800000000000000000000000080000000000000004080000000000001000000000000000000002000000000001000040000000000008000000002000000000000000000100000000000000004400000000000000060000200000000000000300000004000000000000000000000000020400000000000",
      "type": "0x2",
      "transactionHash": "0xd96cbe6a539d78ae53ba316be4eeacbfc7fd1dbb121d16fdfcb0876762430c32",
      "transactionIndex": "0x78",
      "blockHash": "0xa9d0e728198b8a96883baab4ec2c397fbf967323b3f8c5baf799395ae9dbeb99",
      "blockNumber": "0x69a297",
      "gasUsed": "0x435d4",
      "effectiveGasPrice": "0x1967f4177",
      "from": "0x5992fe461f81c8e0affa95b831e50e9b3854ba0e",
      "to": "0xfffa3fdf2e17f0b021eb26657d6ccafee051d653",
      "contractAddress": null
    }
  ],
  "libraries": [],
  "pending": [],
  "returns": {},
  "timestamp": 1729603061,
  "chain": 11155111,
  "commit": "dd92aa6"
}