{
  "transactions": [
    {
      "hash": "0x10dd5eed34434005758685b0bb4b32ee898ed0569a161c7c232056492a6dd3c5",
      "transactionType": "CALL",
      "contractName": null,
      "contractAddress": "0x8df685e00bb1dd3e2f7a765f0cb0bef92aafe73f",
      "function": "createWNFTonFactory((address,string,string,string,address[],bytes32[],uint256[],bytes))",
      "arguments": [
        "(0x5992Fe461F81C8E0aFFA95b831E50e9b3854BA0E, Envelop, ENV, https://api.envelop.is/metadata/, [0xc0FcACE0E8B38d28AE743B3A3d3C1b46fdB8ce90], [], [], 0x)"
      ],
      "transaction": {
        "from": "0x5992fe461f81c8e0affa95b831e50e9b3854ba0e",
        "to": "0x8df685e00bb1dd3e2f7a765f0cb0bef92aafe73f",
        "gas": "0x5d0ba",
        "value": "0x0",
        "input": "0x7c3cc70700000000000000000000000000000000000000000000000000000000000000200000000000000000000000005992fe461f81c8e0affa95b831e50e9b3854ba0e00000000000000000000000000000000000000000000000000000000000001000000000000000000000000000000000000000000000000000000000000000140000000000000000000000000000000000000000000000000000000000000018000000000000000000000000000000000000000000000000000000000000001c00000000000000000000000000000000000000000000000000000000000000200000000000000000000000000000000000000000000000000000000000000022000000000000000000000000000000000000000000000000000000000000002400000000000000000000000000000000000000000000000000000000000000007456e76656c6f70000000000000000000000000000000000000000000000000000000000000000000000000000000000000000000000000000000000000000003454e560000000000000000000000000000000000000000000000000000000000000000000000000000000000000000000000000000000000000000000000002068747470733a2f2f6170692e656e76656c6f702e69732f6d657461646174612f0000000000000000000000000000000000000000000000000000000000000001000000000000000000000000c0fcace0e8b38d28ae743b3a3d3c1b46fdb8ce90000000000000000000000000000000000000000000000000000000000000000000000000000000000000000000000000000000000000000000000000000000000000000000000000000000000000000000000000000000000000000000000000",
        "nonce": "0x513",
        "chainId": "0xaa36a7"
      },
      "additionalContracts": [],
      "isFixedGasLimit": false
    }
  ],
  "receipts": [
    {
      "status": "0x1",
      "cumulativeGasUsed": "0x167778d",
      "logs": [
        {
          "address": "0x15be677043bc9018c1ebc3d3aa78f4001c440f11",
          "topics": [
            "0xddf252ad1be2c89b69c2b068fc378daa952ba7f163c4a11628f55a4df523b3ef",
            "0x0000000000000000000000000000000000000000000000000000000000000000",
            "0x0000000000000000000000005992fe461f81c8e0affa95b831e50e9b3854ba0e",
            "0x0000000000000000000000000000000000000000000000000000000000000001"
          ],
          "data": "0x",
          "blockHash": "0xbec3110dba3aea4c04533237ba31d45d986b8f671663645d9a96f76015ab9b84",
          "blockNumber": "0x69b49f",
          "transactionHash": "0x10dd5eed34434005758685b0bb4b32ee898ed0569a161c7c232056492a6dd3c5",
          "transactionIndex": "0x8d",
          "logIndex": "0xa9",
          "removed": false
        },
        {
          "address": "0x15be677043bc9018c1ebc3d3aa78f4001c440f11",
          "topics": [
            "0xf8e1a15aba9398e019f0b49df1a4fde98ee17ae345cb5f6b5e2c27f5033e8ce7"
          ],
          "data": "0x0000000000000000000000000000000000000000000000000000000000000001",
          "blockHash": "0xbec3110dba3aea4c04533237ba31d45d986b8f671663645d9a96f76015ab9b84",
          "blockNumber": "0x69b49f",
          "transactionHash": "0x10dd5eed34434005758685b0bb4b32ee898ed0569a161c7c232056492a6dd3c5",
          "transactionIndex": "0x8d",
          "logIndex": "0xaa",
          "removed": false
        },
        {
          "address": "0x15be677043bc9018c1ebc3d3aa78f4001c440f11",
          "topics": [
            "0xfa6883374d3785c826e28c69c68c1b6dd2178accc8623f49c6829a75487419b3",
            "0x0000000000000000000000005992fe461f81c8e0affa95b831e50e9b3854ba0e",
            "0x0000000000000000000000000000000000000000000000000000000000000001",
            "0x0000000000000000000000000000000000000000000000000000000000000000"
          ],
          "data": "0x00000000000000000000000000000000000000000000000000000000000000200000000000000000000000000000000000000000000000000000000000000000",
          "blockHash": "0xbec3110dba3aea4c04533237ba31d45d986b8f671663645d9a96f76015ab9b84",
          "blockNumber": "0x69b49f",
          "transactionHash": "0x10dd5eed34434005758685b0bb4b32ee898ed0569a161c7c232056492a6dd3c5",
          "transactionIndex": "0x8d",
          "logIndex": "0xab",
          "removed": false
        },
        {
          "address": "0x15be677043bc9018c1ebc3d3aa78f4001c440f11",
          "topics": [
            "0xc7f505b2f371ae2175ee4913f4499e1f2633a7b5936321eed1cdaeb6115181d2"
          ],
          "data": "0x0000000000000000000000000000000000000000000000000000000000000001",
          "blockHash": "0xbec3110dba3aea4c04533237ba31d45d986b8f671663645d9a96f76015ab9b84",
          "blockNumber": "0x69b49f",
          "transactionHash": "0x10dd5eed34434005758685b0bb4b32ee898ed0569a161c7c232056492a6dd3c5",
          "transactionIndex": "0x8d",
          "logIndex": "0xac",
          "removed": false
        },
        {
          "address": "0x431db5c6ce5d85a0baa2198aa7aa0e65d37a25c8",
          "topics": [
            "0x8dc66cafb77b325538c856bfa5892b31ca7305adfa48f6a09e030e261cda0795",
            "0x00000000000000000000000015be677043bc9018c1ebc3d3aa78f4001c440f11",
            "0x0000000000000000000000008df685e00bb1dd3e2f7a765f0cb0bef92aafe73f"
          ],
          "data": "0x00000000000000000000000000000000000000000000000000000000000007d2",
          "blockHash": "0xbec3110dba3aea4c04533237ba31d45d986b8f671663645d9a96f76015ab9b84",
          "blockNumber": "0x69b49f",
          "transactionHash": "0x10dd5eed34434005758685b0bb4b32ee898ed0569a161c7c232056492a6dd3c5",
          "transactionIndex": "0x8d",
          "logIndex": "0xad",
          "removed": false
        }
      ],
      "logsBloom": "0x00000000000800800000000000000000000100000000000000000000020000000000000000000000000000000000000000000000000000000000000000140000000008000000020000000108000000400000200000040000000000000000000000000000020000000000000000000800000000000000000000000010000000000000000800000080000800000020000000000000800080000000000000004080000000000000000000000000000000002000000100000000040000000000008000000002000000000000000000100000000000000004400000000000000060000000000000000000200000004000000000000000000000000000000000000000",
      "type": "0x2",
      "transactionHash": "0x10dd5eed34434005758685b0bb4b32ee898ed0569a161c7c232056492a6dd3c5",
      "transactionIndex": "0x8d",
      "blockHash": "0xbec3110dba3aea4c04533237ba31d45d986b8f671663645d9a96f76015ab9b84",
      "blockNumber": "0x69b49f",
      "gasUsed": "0x435d4",
      "effectiveGasPrice": "0x25e2e7c41",
      "from": "0x5992fe461f81c8e0affa95b831e50e9b3854ba0e",
      "to": "0x8df685e00bb1dd3e2f7a765f0cb0bef92aafe73f",
      "contractAddress": null
    }
  ],
  "libraries": [],
  "pending": [],
  "returns": {},
  "timestamp": 1729665306,
  "chain": 11155111,
  "commit": "4ef3e7a"
}