{
  "transactions": [
    {
      "hash": "0xca0420c9ef7446b97e5538dcc6a7db302c7998bb4c17844c177a2da945bad210",
      "transactionType": "CALL",
      "contractName": null,
      "contractAddress": "0x5db9f4c9239345308614604e69258c0bba9b437f",
      "function": "transfer(address,uint256)",
      "arguments": [
        "0x673EeD3d0E1f5d24848Be5866791e02545ffDBAD",
        "1000000000000000000"
      ],
      "transaction": {
        "from": "0x5992fe461f81c8e0affa95b831e50e9b3854ba0e",
        "to": "0x5db9f4c9239345308614604e69258c0bba9b437f",
        "gas": "0x1165b",
        "value": "0x0",
        "input": "0xa9059cbb000000000000000000000000673eed3d0e1f5d24848be5866791e02545ffdbad0000000000000000000000000000000000000000000000000de0b6b3a7640000",
        "nonce": "0x4f0",
        "chainId": "0xaa36a7"
      },
      "additionalContracts": [],
      "isFixedGasLimit": false
    }
  ],
  "receipts": [
    {
      "status": "0x1",
      "cumulativeGasUsed": "0x482880",
      "logs": [
        {
          "address": "0x5db9f4c9239345308614604e69258c0bba9b437f",
          "topics": [
            "0xddf252ad1be2c89b69c2b068fc378daa952ba7f163c4a11628f55a4df523b3ef",
            "0x0000000000000000000000005992fe461f81c8e0affa95b831e50e9b3854ba0e",
            "0x000000000000000000000000673eed3d0e1f5d24848be5866791e02545ffdbad"
          ],
          "data": "0x0000000000000000000000000000000000000000000000000de0b6b3a7640000",
          "blockHash": "0x15e0dbe70e43e05da1b44c06a1ac7aae8c449c0a7c9d067d8358119ca76e78ec",
          "blockNumber": "0x67a6ef",
          "transactionHash": "0xca0420c9ef7446b97e5538dcc6a7db302c7998bb4c17844c177a2da945bad210",
          "transactionIndex": "0x12",
          "logIndex": "0x19",
          "removed": false
        }
      ],
      "logsBloom": "0x00000000000000000000000000000000000000000020000000000000000000000000000000004000000200000000000000000000000000000000000000000000000000000000000000000008000000000000000000000000000000000000000000000000000000000000000000000000000000000000000000000010000000000000000800010000000000000000000000000040000000000000000000004000000000000000000000000000000000000000000000000000040000000000000000000002000000000000000000000000000000000400000000000000000000000000000000000000000000000000000000000000000000000000000000000000",
      "type": "0x2",
      "transactionHash": "0xca0420c9ef7446b97e5538dcc6a7db302c7998bb4c17844c177a2da945bad210",
      "transactionIndex": "0x12",
      "blockHash": "0x15e0dbe70e43e05da1b44c06a1ac7aae8c449c0a7c9d067d8358119ca76e78ec",
      "blockNumber": "0x67a6ef",
      "gasUsed": "0xc987",
      "effectiveGasPrice": "0x795d186e45",
      "from": "0x5992fe461f81c8e0affa95b831e50e9b3854ba0e",
      "to": "0x5db9f4c9239345308614604e69258c0bba9b437f",
      "contractAddress": null
    }
  ],
  "libraries": [],
  "pending": [],
  "returns": {},
  "timestamp": 1727769420,
  "chain": 11155111,
  "commit": "2c74d06"
}