{
  "transactions": [
    {
      "hash": "0xf7aad201882c65c643cda99b10a69f178aa395ecbfb18dd7ca21d7c0ca79e86b",
      "transactionType": "CALL",
      "contractName": null,
      "contractAddress": "0x9ed82f27f05e0aa6a1ec7811518dec0f788b5774",
      "function": "wrap((((uint8,address),uint256,uint256),address,(bytes1,uint256,address)[],(bytes1,uint256)[],(address,uint16)[],uint8,uint256,bytes2),((uint8,address),uint256,uint256)[],address)",
      "arguments": [
        "(((0, 0x0000000000000000000000000000000000000000), 0, 0), 0x0000000000000000000000000000000000000000, [], [], [], 3, 0, 0x0000)",
        "[]",
        "0x5992Fe461F81C8E0aFFA95b831E50e9b3854BA0E"
      ],
      "transaction": {
        "from": "0x5992fe461f81c8e0affa95b831e50e9b3854ba0e",
        "to": "0x9ed82f27f05e0aa6a1ec7811518dec0f788b5774",
        "gas": "0x4fda1",
        "value": "0x0",
        "input": "0x4d36d085000000000000000000000000000000000000000000000000000000000000006000000000000000000000000000000000000000000000000000000000000002200000000000000000000000005992fe461f81c8e0affa95b831e50e9b3854ba0e000000000000000000000000000000000000000000000000000000000000000000000000000000000000000000000000000000000000000000000000000000000000000000000000000000000000000000000000000000000000000000000000000000000000000000000000000000000000000000000000000000000000000000000000000000000000000000000000000000000000000000000000000000000000000000000000000000000000000000000000000000000000000000000160000000000000000000000000000000000000000000000000000000000000018000000000000000000000000000000000000000000000000000000000000001a00000000000000000000000000000000000000000000000000000000000000003000000000000000000000000000000000000000000000000000000000000000000000000000000000000000000000000000000000000000000000000000000000000000000000000000000000000000000000000000000000000000000000000000000000000000000000000000000000000000000000000000000000000000000000000000000000000000000000000000000000000000000000000000000000000000000000000000000000000000000000000000000000000000000000000",
        "nonce": "0x4f7",
        "chainId": "0xaa36a7"
      },
      "additionalContracts": [],
      "isFixedGasLimit": false
    },
    {
      "hash": "0x5a0726a6ec7d03b4eff7da84212fd094f0b942c9f1aac8c1a56e5abb9511380e",
      "transactionType": "CALL",
      "contractName": null,
      "contractAddress": "0x6dc8d53b78f9eeba0def5e50f4b2935d31dba4fb",
      "function": null,
      "arguments": null,
      "transaction": {
        "from": "0x5992fe461f81c8e0affa95b831e50e9b3854ba0e",
        "to": "0x6dc8d53b78f9eeba0def5e50f4b2935d31dba4fb",
        "gas": "0x8a3f",
        "value": "0x38d7ea4c68000",
        "input": "0x",
        "nonce": "0x4f8",
        "chainId": "0xaa36a7"
      },
      "additionalContracts": [],
      "isFixedGasLimit": false
    },
    {
      "hash": "0xfd1434ec2fffc2240b0db34c4633b75ada2bb6908000b8e827d95d843349c02d",
      "transactionType": "CALL",
      "contractName": null,
      "contractAddress": "0x5db9f4c9239345308614604e69258c0bba9b437f",
      "function": "transfer(address,uint256)",
      "arguments": [
        "0x6DC8D53B78f9eebA0dEf5E50F4b2935d31dbA4fb",
        "1000000000000000000"
      ],
      "transaction": {
        "from": "0x5992fe461f81c8e0affa95b831e50e9b3854ba0e",
        "to": "0x5db9f4c9239345308614604e69258c0bba9b437f",
        "gas": "0x1165b",
        "value": "0x0",
        "input": "0xa9059cbb0000000000000000000000006dc8d53b78f9eeba0def5e50f4b2935d31dba4fb0000000000000000000000000000000000000000000000000de0b6b3a7640000",
        "nonce": "0x4f9",
        "chainId": "0xaa36a7"
      },
      "additionalContracts": [],
      "isFixedGasLimit": false
    },
    {
      "hash": null,
      "transactionType": "CALL",
      "contractName": null,
      "contractAddress": "0x6dc8d53b78f9eeba0def5e50f4b2935d31dba4fb",
      "function": "removeCollateral(((uint8,address),uint256,uint256),address)",
      "arguments": [
        "((2, 0x5dB9f4C9239345308614604e69258C0bba9b437f), 0, 500000000000000000)",
        "0x5992Fe461F81C8E0aFFA95b831E50e9b3854BA0E"
      ],
      "transaction": {
        "from": "0x5992fe461f81c8e0affa95b831e50e9b3854ba0e",
        "to": "0x6dc8d53b78f9eeba0def5e50f4b2935d31dba4fb",
        "gas": "0x13deb",
        "value": "0x0",
        "input": "0xee9cfb4a00000000000000000000000000000000000000000000000000000000000000020000000000000000000000005db9f4c9239345308614604e69258c0bba9b437f000000000000000000000000000000000000000000000000000000000000000000000000000000000000000000000000000000000000000006f05b59d3b200000000000000000000000000005992fe461f81c8e0affa95b831e50e9b3854ba0e",
        "nonce": "0x4fa",
        "chainId": "0xaa36a7"
      },
      "additionalContracts": [],
      "isFixedGasLimit": false
    }
  ],
  "receipts": [],
  "libraries": [],
  "pending": [
    "0xf7aad201882c65c643cda99b10a69f178aa395ecbfb18dd7ca21d7c0ca79e86b",
    "0x5a0726a6ec7d03b4eff7da84212fd094f0b942c9f1aac8c1a56e5abb9511380e",
    "0xfd1434ec2fffc2240b0db34c4633b75ada2bb6908000b8e827d95d843349c02d"
  ],
  "returns": {},
  "timestamp": 1727848612,
  "chain": 11155111,
  "commit": "2c74d06"
}