{
  "transactions": [
    {
      "hash": "0xde58fc1bf9b15a35789fa29387fc2eb1e1c0313e5b57cddff9d219c17814c0ed",
      "transactionType": "CALL",
      "contractName": "WNFTMyshchWallet",
      "contractAddress": "0x7b294bfa2e76058512adb0807bddf5e34235a70a",
      "function": "createWNFTonFactory((address,string,string,string,address[],bytes32[],uint256[],bytes))",
      "arguments": [
        "(0x5992Fe461F81C8E0aFFA95b831E50e9b3854BA0E, Envelop, ENV, https://api.envelop.is/metadata/, [0xf4139ff4C97d189Db6D7F57849CBe22fAacEc688], [], [], 0x)"
      ],
      "transaction": {
        "from": "0x5992fe461f81c8e0affa95b831e50e9b3854ba0e",
        "to": "0x7b294bfa2e76058512adb0807bddf5e34235a70a",
        "gas": "0x5d0ba",
        "value": "0x0",
        "input": "0x7c3cc70700000000000000000000000000000000000000000000000000000000000000200000000000000000000000005992fe461f81c8e0affa95b831e50e9b3854ba0e00000000000000000000000000000000000000000000000000000000000001000000000000000000000000000000000000000000000000000000000000000140000000000000000000000000000000000000000000000000000000000000018000000000000000000000000000000000000000000000000000000000000001c00000000000000000000000000000000000000000000000000000000000000200000000000000000000000000000000000000000000000000000000000000022000000000000000000000000000000000000000000000000000000000000002400000000000000000000000000000000000000000000000000000000000000007456e76656c6f70000000000000000000000000000000000000000000000000000000000000000000000000000000000000000000000000000000000000000003454e560000000000000000000000000000000000000000000000000000000000000000000000000000000000000000000000000000000000000000000000002068747470733a2f2f6170692e656e76656c6f702e69732f6d657461646174612f0000000000000000000000000000000000000000000000000000000000000001000000000000000000000000f4139ff4c97d189db6d7f57849cbe22faacec688000000000000000000000000000000000000000000000000000000000000000000000000000000000000000000000000000000000000000000000000000000000000000000000000000000000000000000000000000000000000000000000000",
        "nonce": "0x51a",
        "chainId": "0xaa36a7"
      },
      "additionalContracts": [],
      "isFixedGasLimit": false
    }
  ],
  "receipts": [
    {
      "status": "0x1",
      "cumulativeGasUsed": "0x1c0817b",
      "logs": [
        {
          "address": "0xa6befe30e866016bf1bb6cd6f1294bb8e96c8d1a",
          "topics": [
            "0xddf252ad1be2c89b69c2b068fc378daa952ba7f163c4a11628f55a4df523b3ef",
            "0x0000000000000000000000000000000000000000000000000000000000000000",
            "0x0000000000000000000000005992fe461f81c8e0affa95b831e50e9b3854ba0e",
            "0x0000000000000000000000000000000000000000000000000000000000000001"
          ],
          "data": "0x",
          "blockHash": "0xfc6bc1459933fc99a255abacaace9f9ee21d85823326e3f969418ceb084ec7aa",
          "blockNumber": "0x69cb99",
          "transactionHash": "0xde58fc1bf9b15a35789fa29387fc2eb1e1c0313e5b57cddff9d219c17814c0ed",
          "transactionIndex": "0x4d",
          "logIndex": "0xb2",
          "removed": false
        },
        {
          "address": "0xa6befe30e866016bf1bb6cd6f1294bb8e96c8d1a",
          "topics": [
            "0xf8e1a15aba9398e019f0b49df1a4fde98ee17ae345cb5f6b5e2c27f5033e8ce7"
          ],
          "data": "0x0000000000000000000000000000000000000000000000000000000000000001",
          "blockHash": "0xfc6bc1459933fc99a255abacaace9f9ee21d85823326e3f969418ceb084ec7aa",
          "blockNumber": "0x69cb99",
          "transactionHash": "0xde58fc1bf9b15a35789fa29387fc2eb1e1c0313e5b57cddff9d219c17814c0ed",
          "transactionIndex": "0x4d",
          "logIndex": "0xb3",
          "removed": false
        },
        {
          "address": "0xa6befe30e866016bf1bb6cd6f1294bb8e96c8d1a",
          "topics": [
            "0xfa6883374d3785c826e28c69c68c1b6dd2178accc8623f49c6829a75487419b3",
            "0x0000000000000000000000005992fe461f81c8e0affa95b831e50e9b3854ba0e",
            "0x0000000000000000000000000000000000000000000000000000000000000001",
            "0x0000000000000000000000000000000000000000000000000000000000000000"
          ],
          "data": "0x00000000000000000000000000000000000000000000000000000000000000200000000000000000000000000000000000000000000000000000000000000000",
          "blockHash": "0xfc6bc1459933fc99a255abacaace9f9ee21d85823326e3f969418ceb084ec7aa",
          "blockNumber": "0x69cb99",
          "transactionHash": "0xde58fc1bf9b15a35789fa29387fc2eb1e1c0313e5b57cddff9d219c17814c0ed",
          "transactionIndex": "0x4d",
          "logIndex": "0xb4",
          "removed": false
        },
        {
          "address": "0xa6befe30e866016bf1bb6cd6f1294bb8e96c8d1a",
          "topics": [
            "0xc7f505b2f371ae2175ee4913f4499e1f2633a7b5936321eed1cdaeb6115181d2"
          ],
          "data": "0x0000000000000000000000000000000000000000000000000000000000000001",
          "blockHash": "0xfc6bc1459933fc99a255abacaace9f9ee21d85823326e3f969418ceb084ec7aa",
          "blockNumber": "0x69cb99",
          "transactionHash": "0xde58fc1bf9b15a35789fa29387fc2eb1e1c0313e5b57cddff9d219c17814c0ed",
          "transactionIndex": "0x4d",
          "logIndex": "0xb5",
          "removed": false
        },
        {
          "address": "0x431db5c6ce5d85a0baa2198aa7aa0e65d37a25c8",
          "topics": [
            "0x8dc66cafb77b325538c856bfa5892b31ca7305adfa48f6a09e030e261cda0795",
            "0x000000000000000000000000a6befe30e866016bf1bb6cd6f1294bb8e96c8d1a",
            "0x0000000000000000000000007b294bfa2e76058512adb0807bddf5e34235a70a"
          ],
          "data": "0x00000000000000000000000000000000000000000000000000000000000007d2",
          "blockHash": "0xfc6bc1459933fc99a255abacaace9f9ee21d85823326e3f969418ceb084ec7aa",
          "blockNumber": "0x69cb99",
          "transactionHash": "0xde58fc1bf9b15a35789fa29387fc2eb1e1c0313e5b57cddff9d219c17814c0ed",
          "transactionIndex": "0x4d",
          "logIndex": "0xb6",
          "removed": false
        }
      ],
      "logsBloom": "0x000000000000008000000000000000000000000000000000000000000200000000000000000000000000000000000000000000000000000000000000000400000000000000000200000011080000000000000000400400001000000000000000010000000200000000000000000008000000000000000000000000100000000000000008000000800008000000000040000000000000c0004000000000004080400000000000000000000000000000002000000000000000040000000000008000000002000000000000000000100000000000000004400000000000000060000000000000000000200000004000400000000000000000000000000000000000",
      "type": "0x2",
      "transactionHash": "0xde58fc1bf9b15a35789fa29387fc2eb1e1c0313e5b57cddff9d219c17814c0ed",
      "transactionIndex": "0x4d",
      "blockHash": "0xfc6bc1459933fc99a255abacaace9f9ee21d85823326e3f969418ceb084ec7aa",
      "blockNumber": "0x69cb99",
      "gasUsed": "0x435d4",
      "effectiveGasPrice": "0x109d7ba17",
      "from": "0x5992fe461f81c8e0affa95b831e50e9b3854ba0e",
      "to": "0x7b294bfa2e76058512adb0807bddf5e34235a70a",
      "contractAddress": null
    }
  ],
  "libraries": [],
  "pending": [],
  "returns": {},
  "timestamp": 1729741543,
  "chain": 11155111,
  "commit": "dd7cc1a"
}