{
  "transactions": [
    {
      "hash": "0xa65af7307adfb8cd76cda70ef41d6024360e7d073d50d4462a9a645626c040aa",
      "transactionType": "CALL",
      "contractName": null,
      "contractAddress": "0x53e5ca35761cd24d83479f9066e4c0281ded59da",
      "function": "createWNFTonFactory((address,string,string,string,address[],bytes32[],uint256[],bytes))",
      "arguments": [
        "(0x5992Fe461F81C8E0aFFA95b831E50e9b3854BA0E, Envelop, ENV, https://api.envelop.is/metadata/, [], [], [], 0x)"
      ],
      "transaction": {
        "from": "0x5992fe461f81c8e0affa95b831e50e9b3854ba0e",
        "to": "0x53e5ca35761cd24d83479f9066e4c0281ded59da",
        "gas": "0x59eb1",
        "value": "0x0",
        "input": "0x7c3cc70700000000000000000000000000000000000000000000000000000000000000200000000000000000000000005992fe461f81c8e0affa95b831e50e9b3854ba0e00000000000000000000000000000000000000000000000000000000000001000000000000000000000000000000000000000000000000000000000000000140000000000000000000000000000000000000000000000000000000000000018000000000000000000000000000000000000000000000000000000000000001c000000000000000000000000000000000000000000000000000000000000001e0000000000000000000000000000000000000000000000000000000000000020000000000000000000000000000000000000000000000000000000000000002200000000000000000000000000000000000000000000000000000000000000007456e76656c6f70000000000000000000000000000000000000000000000000000000000000000000000000000000000000000000000000000000000000000003454e560000000000000000000000000000000000000000000000000000000000000000000000000000000000000000000000000000000000000000000000002068747470733a2f2f6170692e656e76656c6f702e69732f6d657461646174612f0000000000000000000000000000000000000000000000000000000000000000000000000000000000000000000000000000000000000000000000000000000000000000000000000000000000000000000000000000000000000000000000000000000000000000000000000000000000000000000000000000000000000000",
        "nonce": "0x4ef",
        "chainId": "0xaa36a7"
      },
      "additionalContracts": [],
      "isFixedGasLimit": false
    }
  ],
  "receipts": [
    {
      "status": "0x1",
      "cumulativeGasUsed": "0x11841bb",
      "logs": [
        {
          "address": "0x673eed3d0e1f5d24848be5866791e02545ffdbad",
          "topics": [
            "0xddf252ad1be2c89b69c2b068fc378daa952ba7f163c4a11628f55a4df523b3ef",
            "0x0000000000000000000000000000000000000000000000000000000000000000",
            "0x0000000000000000000000005992fe461f81c8e0affa95b831e50e9b3854ba0e",
            "0x0000000000000000000000000000000000000000000000000000000000000001"
          ],
          "data": "0x",
          "blockHash": "0xc1214ceb7bea59add7d3f6aa543833e6b393b67e478e4994585206c193898a18",
          "blockNumber": "0x67a6c6",
          "transactionHash": "0xa65af7307adfb8cd76cda70ef41d6024360e7d073d50d4462a9a645626c040aa",
          "transactionIndex": "0x5d",
          "logIndex": "0x187",
          "removed": false
        },
        {
          "address": "0x673eed3d0e1f5d24848be5866791e02545ffdbad",
          "topics": [
            "0xf8e1a15aba9398e019f0b49df1a4fde98ee17ae345cb5f6b5e2c27f5033e8ce7"
          ],
          "data": "0x0000000000000000000000000000000000000000000000000000000000000001",
          "blockHash": "0xc1214ceb7bea59add7d3f6aa543833e6b393b67e478e4994585206c193898a18",
          "blockNumber": "0x67a6c6",
          "transactionHash": "0xa65af7307adfb8cd76cda70ef41d6024360e7d073d50d4462a9a645626c040aa",
          "transactionIndex": "0x5d",
          "logIndex": "0x188",
          "removed": false
        },
        {
          "address": "0x673eed3d0e1f5d24848be5866791e02545ffdbad",
          "topics": [
            "0xfa6883374d3785c826e28c69c68c1b6dd2178accc8623f49c6829a75487419b3",
            "0x0000000000000000000000005992fe461f81c8e0affa95b831e50e9b3854ba0e",
            "0x0000000000000000000000000000000000000000000000000000000000000001",
            "0x0000000000000000000000000000000000000000000000000000000000000000"
          ],
          "data": "0x00000000000000000000000000000000000000000000000000000000000000200000000000000000000000000000000000000000000000000000000000000000",
          "blockHash": "0xc1214ceb7bea59add7d3f6aa543833e6b393b67e478e4994585206c193898a18",
          "blockNumber": "0x67a6c6",
          "transactionHash": "0xa65af7307adfb8cd76cda70ef41d6024360e7d073d50d4462a9a645626c040aa",
          "transactionIndex": "0x5d",
          "logIndex": "0x189",
          "removed": false
        },
        {
          "address": "0x673eed3d0e1f5d24848be5866791e02545ffdbad",
          "topics": [
            "0xc7f505b2f371ae2175ee4913f4499e1f2633a7b5936321eed1cdaeb6115181d2"
          ],
          "data": "0x0000000000000000000000000000000000000000000000000000000000000001",
          "blockHash": "0xc1214ceb7bea59add7d3f6aa543833e6b393b67e478e4994585206c193898a18",
          "blockNumber": "0x67a6c6",
          "transactionHash": "0xa65af7307adfb8cd76cda70ef41d6024360e7d073d50d4462a9a645626c040aa",
          "transactionIndex": "0x5d",
          "logIndex": "0x18a",
          "removed": false
        },
        {
          "address": "0x431db5c6ce5d85a0baa2198aa7aa0e65d37a25c8",
          "topics": [
            "0x8dc66cafb77b325538c856bfa5892b31ca7305adfa48f6a09e030e261cda0795",
            "0x000000000000000000000000673eed3d0e1f5d24848be5866791e02545ffdbad",
            "0x00000000000000000000000053e5ca35761cd24d83479f9066e4c0281ded59da"
          ],
          "data": "0x00000000000000000000000000000000000000000000000000000000000007d2",
          "blockHash": "0xc1214ceb7bea59add7d3f6aa543833e6b393b67e478e4994585206c193898a18",
          "blockNumber": "0x67a6c6",
          "transactionHash": "0xa65af7307adfb8cd76cda70ef41d6024360e7d073d50d4462a9a645626c040aa",
          "transactionIndex": "0x5d",
          "logIndex": "0x18b",
          "removed": false
        }
      ],
      "logsBloom": "0x00000000000100800000000000000000000000000000000000000000020000000000000000004000000000000000000000000000000000000000000000040000000000000000020000000108000020000000000000040000000000000000000000000000020000000000000100000800000000000000000000000010000000000000000800010080000800000000000000080040000080000000004000004080000000000000000000000000000000002000000000000000040000000000008000000002000000000000000000100000000000000004420000000000000060000000000000000000200000004000000000000000000000000000000000000000",
      "type": "0x2",
      "transactionHash": "0xa65af7307adfb8cd76cda70ef41d6024360e7d073d50d4462a9a645626c040aa",
      "transactionIndex": "0x5d",
      "blockHash": "0xc1214ceb7bea59add7d3f6aa543833e6b393b67e478e4994585206c193898a18",
      "blockNumber": "0x67a6c6",
      "gasUsed": "0x3d7bd",
      "effectiveGasPrice": "0x6ed03d71e7",
      "from": "0x5992fe461f81c8e0affa95b831e50e9b3854ba0e",
      "to": "0x53e5ca35761cd24d83479f9066e4c0281ded59da",
      "contractAddress": null
    }
  ],
  "libraries": [],
  "pending": [],
  "returns": {},
  "timestamp": 1727768900,
  "chain": 11155111,
  "commit": "2c74d06"
}