{
  "transactions": [
    {
      "hash": "0xd2e50653a5d49997fdfa79732968c9a02d93c9836a711badea6b4061c6407620",
      "transactionType": "CALL",
      "contractName": null,
      "contractAddress": "0x673eed3d0e1f5d24848be5866791e02545ffdbad",
      "function": "executeEncodedTx(address,uint256,bytes)",
      "arguments": [
        "0x5dB9f4C9239345308614604e69258C0bba9b437f",
        "0",
        "0xa9059cbb000000000000000000000000f315b9006c20913d6d8498bdf657e778d4ddf2c400000000000000000000000000000000000000000000000000038d7ea4c68000"
      ],
      "transaction": {
        "from": "0x5992fe461f81c8e0affa95b831e50e9b3854ba0e",
        "to": "0x673eed3d0e1f5d24848be5866791e02545ffdbad",
        "gas": "0x101b5",
        "value": "0x0",
        "input": "0xdc15f5300000000000000000000000005db9f4c9239345308614604e69258c0bba9b437f000000000000000000000000000000000000000000000000000000000000000000000000000000000000000000000000000000000000000000000000000000600000000000000000000000000000000000000000000000000000000000000044a9059cbb000000000000000000000000f315b9006c20913d6d8498bdf657e778d4ddf2c400000000000000000000000000000000000000000000000000038d7ea4c6800000000000000000000000000000000000000000000000000000000000",
        "nonce": "0x4f2",
        "chainId": "0xaa36a7"
      },
      "additionalContracts": [],
      "isFixedGasLimit": false
    }
  ],
  "receipts": [
    {
      "status": "0x1",
      "cumulativeGasUsed": "0x7b5aef",
      "logs": [
        {
          "address": "0x5db9f4c9239345308614604e69258c0bba9b437f",
          "topics": [
            "0xddf252ad1be2c89b69c2b068fc378daa952ba7f163c4a11628f55a4df523b3ef",
            "0x000000000000000000000000673eed3d0e1f5d24848be5866791e02545ffdbad",
            "0x000000000000000000000000f315b9006c20913d6d8498bdf657e778d4ddf2c4"
          ],
          "data": "0x00000000000000000000000000000000000000000000000000038d7ea4c68000",
          "blockHash": "0x4b8c279c808596902015c71743f040501608cee037f75b96697a3c6d16efab53",
          "blockNumber": "0x67a77e",
          "transactionHash": "0xd2e50653a5d49997fdfa79732968c9a02d93c9836a711badea6b4061c6407620",
          "transactionIndex": "0x2e",
          "logIndex": "0x42",
          "removed": false
        }
      ],
      "logsBloom": "0x00000000000200000000000000000000000000000020000000000000000000000000000000004000000200000000000000000000000000000000000000000000000000000000000000000008000000000000000000000000000000000000000000000000000000000000000000000000000000000000000000000010000000000000000000410000000000000000000000000040000000000000000000000000000000000000000000000000000000000000000000000000000000000000000000000082000000000000000000000000000000000400000000000000000000000000000000000000000000000000000000000000000000000000000000000000",
      "type": "0x2",
      "transactionHash": "0xd2e50653a5d49997fdfa79732968c9a02d93c9836a711badea6b4061c6407620",
      "transactionIndex": "0x2e",
      "blockHash": "0x4b8c279c808596902015c71743f040501608cee037f75b96697a3c6d16efab53",
      "blockNumber": "0x67a77e",
      "gasUsed": "0xba94",
      "effectiveGasPrice": "0x5cfef6fa08",
      "from": "0x5992fe461f81c8e0affa95b831e50e9b3854ba0e",
      "to": "0x673eed3d0e1f5d24848be5866791e02545ffdbad",
      "contractAddress": null
    }
  ],
  "libraries": [],
  "pending": [],
  "returns": {},
  "timestamp": 1727771389,
  "chain": 11155111,
  "commit": "2c74d06"
}