{
  "transactions": [
    {
      "hash": "0x0a594fa890a992d5b9bc2ef85eb8a154da02af29da59266f91185db8dc555186",
      "transactionType": "CALL",
      "contractName": null,
      "contractAddress": "0x6ce103d9241825b1b99355c45e8883d05ee6bd9a",
      "function": "unWrap(((uint8,address),uint256,uint256)[])",
      "arguments": [
        "[((2, 0x5dB9f4C9239345308614604e69258C0bba9b437f), 0, 500000000000000000)]"
      ],
      "transaction": {
        "from": "0x5992fe461f81c8e0affa95b831e50e9b3854ba0e",
        "to": "0x6ce103d9241825b1b99355c45e8883d05ee6bd9a",
        "gas": "0x161c5",
        "value": "0x0",
        "input": "0x26a864600000000000000000000000000000000000000000000000000000000000000020000000000000000000000000000000000000000000000000000000000000000100000000000000000000000000000000000000000000000000000000000000020000000000000000000000005db9f4c9239345308614604e69258c0bba9b437f000000000000000000000000000000000000000000000000000000000000000000000000000000000000000000000000000000000000000006f05b59d3b20000",
        "nonce": "0x4ff",
        "chainId": "0xaa36a7"
      },
      "additionalContracts": [],
      "isFixedGasLimit": false
    }
  ],
  "receipts": [
    {
      "status": "0x1",
      "cumulativeGasUsed": "0x8409bd",
      "logs": [
        {
          "address": "0x5db9f4c9239345308614604e69258c0bba9b437f",
          "topics": [
            "0xddf252ad1be2c89b69c2b068fc378daa952ba7f163c4a11628f55a4df523b3ef",
            "0x0000000000000000000000006ce103d9241825b1b99355c45e8883d05ee6bd9a",
            "0x0000000000000000000000005992fe461f81c8e0affa95b831e50e9b3854ba0e"
          ],
          "data": "0x00000000000000000000000000000000000000000000000006f05b59d3b20000",
          "blockHash": "0x31a251d16116f7a21649d7374f11185898e2265008667d1687d52169cab7179c",
          "blockNumber": "0x67bdd8",
          "transactionHash": "0x0a594fa890a992d5b9bc2ef85eb8a154da02af29da59266f91185db8dc555186",
          "transactionIndex": "0x13",
          "logIndex": "0x27",
          "removed": false
        },
        {
          "address": "0x6ce103d9241825b1b99355c45e8883d05ee6bd9a",
          "topics": [
            "0xabb50c1815800da62a4637d3272d1584df1ee8cbd963d90fb44eb55b63acfcb5",
            "0x0000000000000000000000006ce103d9241825b1b99355c45e8883d05ee6bd9a",
            "0x0000000000000000000000000000000000000000000000000000000000000000",
            "0x0000000000000000000000000000000000000000000000000000000000000001"
          ],
          "data": "0x00000000000000000000000000000000000000000000000000000000000000000000000000000000000000005992fe461f81c8e0affa95b831e50e9b3854ba0e00000000000000000000000000000000000000000000000000000000000000000000000000000000000000000000000000000000000000000000000000000000",
          "blockHash": "0x31a251d16116f7a21649d7374f11185898e2265008667d1687d52169cab7179c",
          "blockNumber": "0x67bdd8",
          "transactionHash": "0x0a594fa890a992d5b9bc2ef85eb8a154da02af29da59266f91185db8dc555186",
          "transactionIndex": "0x13",
          "logIndex": "0x28",
          "removed": false
        }
      ],
      "logsBloom": "0x00000000000000000000000000000000000000000020000000020000000000000000000000000000000200000008000000000000000000000000000000040000000000000400000000000008000000000000000000040000000000000000000000000000020000000000000000008800000000000000000000000010000000000000000800000000000000001000080000000000000000000000020000004000000002000000000000000000000000000000000000000000040000000000000000000002000000000000000000000000000040000400000000000000000060000000000000000000000000000000000000000000000000000000000000000000",
      "type": "0x2",
      "transactionHash": "0x0a594fa890a992d5b9bc2ef85eb8a154da02af29da59266f91185db8dc555186",
      "transactionIndex": "0x13",
      "blockHash": "0x31a251d16116f7a21649d7374f11185898e2265008667d1687d52169cab7179c",
      "blockNumber": "0x67bdd8",
      "gasUsed": "0x10020",
      "effectiveGasPrice": "0x5e4cf9ab7d",
      "from": "0x5992fe461f81c8e0affa95b831e50e9b3854ba0e",
      "to": "0x6ce103d9241825b1b99355c45e8883d05ee6bd9a",
      "contractAddress": null
    }
  ],
  "libraries": [],
  "pending": [],
  "returns": {},
  "timestamp": 1727849357,
  "chain": 11155111,
  "commit": "2c74d06"
}