{
  "transactions": [
    {
      "hash": "0xa8192847742d18a9d7b8ab55affd7d565729e19c13af1085cd73799c21e97ef4",
      "transactionType": "CALL",
      "contractName": null,
      "contractAddress": "0xa6befe30e866016bf1bb6cd6f1294bb8e96c8d1a",
      "function": "executeEncodedTx(address,uint256,bytes)",
      "arguments": [
        "0x5dB9f4C9239345308614604e69258C0bba9b437f",
        "0",
        "0xa9059cbb000000000000000000000000f315b9006c20913d6d8498bdf657e778d4ddf2c40000000000000000000000000000000000000000000000000de0b6b3a7640000"
      ],
      "transaction": {
        "from": "0x5992fe461f81c8e0affa95b831e50e9b3854ba0e",
        "to": "0xa6befe30e866016bf1bb6cd6f1294bb8e96c8d1a",
        "gas": "0x101b5",
        "value": "0x0",
        "input": "0xdc15f5300000000000000000000000005db9f4c9239345308614604e69258c0bba9b437f000000000000000000000000000000000000000000000000000000000000000000000000000000000000000000000000000000000000000000000000000000600000000000000000000000000000000000000000000000000000000000000044a9059cbb000000000000000000000000f315b9006c20913d6d8498bdf657e778d4ddf2c40000000000000000000000000000000000000000000000000de0b6b3a764000000000000000000000000000000000000000000000000000000000000",
        "nonce": "0x51e",
        "chainId": "0xaa36a7"
      },
      "additionalContracts": [],
      "isFixedGasLimit": false
    }
  ],
  "receipts": [
    {
      "status": "0x1",
      "cumulativeGasUsed": "0x8c61ed",
      "logs": [
        {
          "address": "0x5db9f4c9239345308614604e69258c0bba9b437f",
          "topics": [
            "0xddf252ad1be2c89b69c2b068fc378daa952ba7f163c4a11628f55a4df523b3ef",
            "0x000000000000000000000000a6befe30e866016bf1bb6cd6f1294bb8e96c8d1a",
            "0x000000000000000000000000f315b9006c20913d6d8498bdf657e778d4ddf2c4"
          ],
          "data": "0x0000000000000000000000000000000000000000000000000de0b6b3a7640000",
          "blockHash": "0x783ad6209246361d181c48a438123611f52c83f848925932f52f258126f1f9aa",
          "blockNumber": "0x69cc02",
          "transactionHash": "0xa8192847742d18a9d7b8ab55affd7d565729e19c13af1085cd73799c21e97ef4",
          "transactionIndex": "0x47",
          "logIndex": "0x5c",
          "removed": false
        }
      ],
      "logsBloom": "0x00000000000200000000000000000000000000000020000000000000000000000000000000000000000200000000000000000000000000000000000000000000000000000000000000000008000000000000000000000000000000000000000000000000000000000000000000000000000000000000000000000010000000000000000000400000000000000000000000000000000040004000000000000000000000000000000000000000000000000000000000000000000000000000000000000082000000000000000000000000000000000400000000000000000000000000000000000000000000000000400000000000000000000000000000000000",
      "type": "0x2",
      "transactionHash": "0xa8192847742d18a9d7b8ab55affd7d565729e19c13af1085cd73799c21e97ef4",
      "transactionIndex": "0x47",
      "blockHash": "0x783ad6209246361d181c48a438123611f52c83f848925932f52f258126f1f9aa",
      "blockNumber": "0x69cc02",
      "gasUsed": "0xba94",
      "effectiveGasPrice": "0x8aae4185",
      "from": "0x5992fe461f81c8e0affa95b831e50e9b3854ba0e",
      "to": "0xa6befe30e866016bf1bb6cd6f1294bb8e96c8d1a",
      "contractAddress": null
    }
  ],
  "libraries": [],
  "pending": [],
  "returns": {},
  "timestamp": 1729742920,
  "chain": 11155111,
  "commit": "dd7cc1a"
}