{
  "transactions": [
    {
      "hash": "0x1a51d53f97c6dc826311e3a0a5ecc5a158cf350be0ac9021af8a7a3b15b8ecd0",
      "transactionType": "CALL",
      "contractName": null,
      "contractAddress": "0x6ce103d9241825b1b99355c45e8883d05ee6bd9a",
      "function": "removeCollateral(((uint8,address),uint256,uint256),address)",
      "arguments": [
        "((1, 0x0000000000000000000000000000000000000000), 0, 1000000000000000)",
        "0x5992Fe461F81C8E0aFFA95b831E50e9b3854BA0E"
      ],
      "transaction": {
        "from": "0x5992fe461f81c8e0affa95b831e50e9b3854ba0e",
        "to": "0x6ce103d9241825b1b99355c45e8883d05ee6bd9a",
        "gas": "0x10193",
        "value": "0x0",
        "input": "0xee9cfb4a00000000000000000000000000000000000000000000000000000000000000010000000000000000000000000000000000000000000000000000000000000000000000000000000000000000000000000000000000000000000000000000000000000000000000000000000000000000000000000000000000038d7ea4c680000000000000000000000000005992fe461f81c8e0affa95b831e50e9b3854ba0e",
        "nonce": "0x4fe",
        "chainId": "0xaa36a7"
      },
      "additionalContracts": [],
      "isFixedGasLimit": false
    }
  ],
  "receipts": [
    {
      "status": "0x1",
      "cumulativeGasUsed": "0x79b915",
      "logs": [
        {
          "address": "0x6ce103d9241825b1b99355c45e8883d05ee6bd9a",
          "topics": [
            "0xc4784f333fb4f086174aa7cc56e2eb0850c39bbda8f955f72ee77d54b13a3dd9",
            "0x00000000000000000000000000000000000000000000000000038d7ea4c68000",
            "0x0000000000000000000000000000000000000000000000000000000000000000",
            "0x0000000000000000000000000000000000000000000000000000000000000000"
          ],
          "data": "0x0000000000000000000000005992fe461f81c8e0affa95b831e50e9b3854ba0e",
          "blockHash": "0xa58f3b90875c61eee88f0b7d530d49b462e2e6921b12b00aef9133ad580fafef",
          "blockNumber": "0x67bdc4",
          "transactionHash": "0x1a51d53f97c6dc826311e3a0a5ecc5a158cf350be0ac9021af8a7a3b15b8ecd0",
          "transactionIndex": "0x15",
          "logIndex": "0x2a",
          "removed": false
        }
      ],
      "logsBloom": "0x00000000000000000000000000000000000000000000000000020000000000000000000000000000000000000000000000000000000000000000000000000000000000000420000000000000000000000000000000000000000000000000000000000000020000000000000000000800000000001001000000000000000000000000000000000000000000000000000000000000000000000000000200000000000002000000000000000000000000000000000000000000000000000000000000000000000000000000000000000000000000000000000000000000000020000000000000000082000000000000000000000000000000000000000000000000",
      "type": "0x2",
      "transactionHash": "0x1a51d53f97c6dc826311e3a0a5ecc5a158cf350be0ac9021af8a7a3b15b8ecd0",
      "transactionIndex": "0x15",
      "blockHash": "0xa58f3b90875c61eee88f0b7d530d49b462e2e6921b12b00aef9133ad580fafef",
      "blockNumber": "0x67bdc4",
      "gasUsed": "0xba7c",
      "effectiveGasPrice": "0x5ce98392e9",
      "from": "0x5992fe461f81c8e0affa95b831e50e9b3854ba0e",
      "to": "0x6ce103d9241825b1b99355c45e8883d05ee6bd9a",
      "contractAddress": null
    }
  ],
  "libraries": [],
  "pending": [],
  "returns": {},
  "timestamp": 1727849094,
  "chain": 11155111,
  "commit": "2c74d06"
}