{
  "transactions": [
    {
      "hash": "0x67a24814c542b83e7f1a119d5725752e6156e5e145f3dd7c5a0863f4e1e02a64",
      "transactionType": "CALL",
      "contractName": null,
      "contractAddress": "0x334e6ffcfc4367e3fe3448d7b66b1073b3b2e40d",
      "function": null,
      "arguments": null,
      "transaction": {
        "from": "0x5992fe461f81c8e0affa95b831e50e9b3854ba0e",
        "to": "0x334e6ffcfc4367e3fe3448d7b66b1073b3b2e40d",
        "gas": "0x8a3f",
        "value": "0x38d7ea4c68000",
        "input": "0x",
        "nonce": "0x4f5",
        "chainId": "0xaa36a7"
      },
      "additionalContracts": [],
      "isFixedGasLimit": false
    },
    {
      "hash": "0xd826d6e8f9d030531b801fdb206af6ac8d057e8efcc4e00d8cc64df6d4957358",
      "transactionType": "CALL",
      "contractName": null,
      "contractAddress": "0x5db9f4c9239345308614604e69258c0bba9b437f",
      "function": "transfer(address,uint256)",
      "arguments": [
        "0x334e6fFCFC4367E3fe3448d7B66B1073B3B2e40D",
        "1000000000000000000"
      ],
      "transaction": {
        "from": "0x5992fe461f81c8e0affa95b831e50e9b3854ba0e",
        "to": "0x5db9f4c9239345308614604e69258c0bba9b437f",
        "gas": "0x1165b",
        "value": "0x0",
        "input": "0xa9059cbb000000000000000000000000334e6ffcfc4367e3fe3448d7b66b1073b3b2e40d0000000000000000000000000000000000000000000000000de0b6b3a7640000",
        "nonce": "0x4f6",
        "chainId": "0xaa36a7"
      },
      "additionalContracts": [],
      "isFixedGasLimit": false
    }
  ],
  "receipts": [
    {
      "status": "0x1",
      "cumulativeGasUsed": "0x12262c",
      "logs": [
        {
          "address": "0x334e6ffcfc4367e3fe3448d7b66b1073b3b2e40d",
          "topics": [
            "0x26399b60fa9117e91f9cf4e690f18a117d22841f62fb4ece7e7c799a97cb6a07",
            "0x00000000000000000000000000000000000000000000000000038d7ea4c68000",
            "0x00000000000000000000000000000000000000000000000000038d7ea4c68000",
            "0x0000000000000000000000005992fe461f81c8e0affa95b831e50e9b3854ba0e"
          ],
          "data": "0x",
          "blockHash": "0x9d08bba35509469167ea3b5c345e8abacf557942cec47111ea4a75214328ec50",
          "blockNumber": "0x67bd7e",
          "transactionHash": "0x67a24814c542b83e7f1a119d5725752e6156e5e145f3dd7c5a0863f4e1e02a64",
          "transactionIndex": "0xa",
          "logIndex": "0x10",
          "removed": false
        }
      ],
      "logsBloom": "0x00000000000000000000000000000000000000000000000000000000000000000000000000000000000000000000000000000000000001000000000000000000000000000000000000000000000000000002000020000000000000000000000000000000000000000000000000000000000000000001000000002000000000000000000800000000000000000000000000000000000000000000000220004000000004000000000000000000000000000000000000000000040000000000000000000000000000000000000000000000000000000000000000000000000000000000000000000080000000000000000000000000000000000000000000000000",
      "type": "0x2",
      "transactionHash": "0x67a24814c542b83e7f1a119d5725752e6156e5e145f3dd7c5a0863f4e1e02a64",
      "transactionIndex": "0xa",
      "blockHash": "0x9d08bba35509469167ea3b5c345e8abacf557942cec47111ea4a75214328ec50",
      "blockNumber": "0x67bd7e",
      "gasUsed": "0x6417",
      "effectiveGasPrice": "0x33c798695d",
      "from": "0x5992fe461f81c8e0affa95b831e50e9b3854ba0e",
      "to": "0x334e6ffcfc4367e3fe3448d7b66b1073b3b2e40d",
      "contractAddress": null
    },
    {
      "status": "0x1",
      "cumulativeGasUsed": "0x12efb3",
      "logs": [
        {
          "address": "0x5db9f4c9239345308614604e69258c0bba9b437f",
          "topics": [
            "0xddf252ad1be2c89b69c2b068fc378daa952ba7f163c4a11628f55a4df523b3ef",
            "0x0000000000000000000000005992fe461f81c8e0affa95b831e50e9b3854ba0e",
            "0x000000000000000000000000334e6ffcfc4367e3fe3448d7b66b1073b3b2e40d"
          ],
          "data": "0x0000000000000000000000000000000000000000000000000de0b6b3a7640000",
          "blockHash": "0x9d08bba35509469167ea3b5c345e8abacf557942cec47111ea4a75214328ec50",
          "blockNumber": "0x67bd7e",
          "transactionHash": "0xd826d6e8f9d030531b801fdb206af6ac8d057e8efcc4e00d8cc64df6d4957358",
          "transactionIndex": "0xb",
          "logIndex": "0x11",
          "removed": false
        }
      ],
      "logsBloom": "0x00000000000000000000000000000000000000000020000000000000000000000000000000000000000200000000000000000000000000000000000000000000000000000000000000000008000000000000000000000000000001000000000000000000000000000000000020000000000000000000000000000010000000000000000800000000000000000000000000000000000000000000000000004000000000000000000080000000000000000000000000000000040000000000000000000002000000000000000000000000000000000400000000000000000000000000000000000000000000000000000000000000000000000000000000000000",
      "type": "0x2",
      "transactionHash": "0xd826d6e8f9d030531b801fdb206af6ac8d057e8efcc4e00d8cc64df6d4957358",
      "transactionIndex": "0xb",
      "blockHash": "0x9d08bba35509469167ea3b5c345e8abacf557942cec47111ea4a75214328ec50",
      "blockNumber": "0x67bd7e",
      "gasUsed": "0xc987",
      "effectiveGasPrice": "0x33c798695d",
      "from": "0x5992fe461f81c8e0affa95b831e50e9b3854ba0e",
      "to": "0x5db9f4c9239345308614604e69258c0bba9b437f",
      "contractAddress": null
    }
  ],
  "libraries": [],
  "pending": [],
  "returns": {},
  "timestamp": 1727848177,
  "chain": 11155111,
  "commit": "2c74d06"
}